{
	"contracts/voting_samartContract1.sol": {
		"Vote": {
			"abi": [
				{
					"inputs": [],
					"stateMutability": "nonpayable",
					"type": "constructor"
				},
				{
					"inputs": [],
					"name": "announceVotingResult",
					"outputs": [],
					"stateMutability": "nonpayable",
					"type": "function"
				},
				{
					"inputs": [
						{
							"internalType": "uint256",
							"name": "_voterId",
							"type": "uint256"
						},
						{
							"internalType": "uint256",
							"name": "_candidateId",
							"type": "uint256"
						}
					],
					"name": "castVote",
					"outputs": [],
					"stateMutability": "nonpayable",
					"type": "function"
				},
				{
					"inputs": [],
					"name": "electionCommission",
					"outputs": [
						{
							"internalType": "address",
							"name": "",
							"type": "address"
						}
					],
					"stateMutability": "view",
					"type": "function"
				},
				{
					"inputs": [],
					"name": "emergencyStopVoting",
					"outputs": [],
					"stateMutability": "nonpayable",
					"type": "function"
				},
				{
					"inputs": [],
					"name": "getCandidateList",
					"outputs": [
						{
							"components": [
								{
									"internalType": "string",
									"name": "name",
									"type": "string"
								},
								{
									"internalType": "string",
									"name": "party",
									"type": "string"
								},
								{
									"internalType": "uint256",
									"name": "age",
									"type": "uint256"
								},
								{
									"internalType": "enum Vote.Gender",
									"name": "gender",
									"type": "uint8"
								},
								{
									"internalType": "uint256",
									"name": "candidateId",
									"type": "uint256"
								},
								{
									"internalType": "address",
									"name": "candidateAddress",
									"type": "address"
								},
								{
									"internalType": "uint256",
									"name": "votes",
									"type": "uint256"
								}
							],
							"internalType": "struct Vote.Candidate[]",
							"name": "",
							"type": "tuple[]"
						}
					],
					"stateMutability": "view",
					"type": "function"
				},
				{
					"inputs": [],
					"name": "getVoterList",
					"outputs": [
						{
							"components": [
								{
									"internalType": "string",
									"name": "name",
									"type": "string"
								},
								{
									"internalType": "uint256",
									"name": "age",
									"type": "uint256"
								},
								{
									"internalType": "uint256",
									"name": "voterId",
									"type": "uint256"
								},
								{
									"internalType": "enum Vote.Gender",
									"name": "gender",
									"type": "uint8"
								},
								{
									"internalType": "uint256",
									"name": "voteCandidateId",
									"type": "uint256"
								},
								{
									"internalType": "address",
									"name": "voterAddress",
									"type": "address"
								}
							],
							"internalType": "struct Vote.Voter[]",
							"name": "",
							"type": "tuple[]"
						}
					],
					"stateMutability": "view",
					"type": "function"
				},
				{
					"inputs": [],
					"name": "getVotingStatus",
					"outputs": [
						{
							"internalType": "enum Vote.VotingStatus",
							"name": "",
							"type": "uint8"
						}
					],
					"stateMutability": "view",
					"type": "function"
				},
				{
					"inputs": [
						{
							"internalType": "string",
							"name": "_name",
							"type": "string"
						},
						{
							"internalType": "string",
							"name": "_party",
							"type": "string"
						},
						{
							"internalType": "uint256",
							"name": "_age",
							"type": "uint256"
						},
						{
							"internalType": "enum Vote.Gender",
							"name": "_gender",
							"type": "uint8"
						}
					],
					"name": "registerCandidate",
					"outputs": [],
					"stateMutability": "nonpayable",
					"type": "function"
				},
				{
					"inputs": [
						{
							"internalType": "string",
							"name": "_name",
							"type": "string"
						},
						{
							"internalType": "uint256",
							"name": "_age",
							"type": "uint256"
						},
						{
							"internalType": "enum Vote.Gender",
							"name": "_gender",
							"type": "uint8"
						}
					],
					"name": "registerVoter",
					"outputs": [],
					"stateMutability": "nonpayable",
					"type": "function"
				},
				{
					"inputs": [
						{
							"internalType": "uint256",
							"name": "_startTimeDuration",
							"type": "uint256"
						},
						{
							"internalType": "uint256",
							"name": "_endTimeDuration",
							"type": "uint256"
						}
					],
					"name": "setVotingPeriod",
					"outputs": [],
					"stateMutability": "nonpayable",
					"type": "function"
				},
				{
					"inputs": [],
					"name": "winner",
					"outputs": [
						{
							"internalType": "address",
							"name": "",
							"type": "address"
						}
					],
					"stateMutability": "view",
					"type": "function"
				}
			],
			"devdoc": {
				"kind": "dev",
				"methods": {},
				"version": 1
			},
			"evm": {
				"assembly": "    /* \"contracts/voting_samartContract1.sol\":70:6404  contract Vote {... */\n  mstore(0x40, 0x80)\n    /* \"contracts/voting_samartContract1.sol\":756:757  1 */\n  0x01\n    /* \"contracts/voting_samartContract1.sol\":734:757  uint256 nextVoterId = 1 */\n  0x02\n  sstore\n    /* \"contracts/voting_samartContract1.sol\":789:790  1 */\n  0x01\n    /* \"contracts/voting_samartContract1.sol\":763:790  uint256 nextCandidateId = 1 */\n  0x03\n  sstore\n    /* \"contracts/voting_samartContract1.sol\":1155:1251  constructor() {... */\n  callvalue\n  dup1\n  iszero\n  tag_1\n  jumpi\n  revert(0x00, 0x00)\ntag_1:\n  pop\n    /* \"contracts/voting_samartContract1.sol\":1200:1210  msg.sender */\n  caller\n    /* \"contracts/voting_samartContract1.sol\":1179:1197  electionCommission */\n  0x00\n  0x00\n    /* \"contracts/voting_samartContract1.sol\":1179:1210  electionCommission = msg.sender */\n  0x0100\n  exp\n  dup2\n  sload\n  dup2\n  0xffffffffffffffffffffffffffffffffffffffff\n  mul\n  not\n  and\n  swap1\n  dup4\n  0xffffffffffffffffffffffffffffffffffffffff\n  and\n  mul\n  or\n  swap1\n  sstore\n  pop\n    /* \"contracts/voting_samartContract1.sol\":70:6404  contract Vote {... */\n  dataSize(sub_0)\n  dup1\n  dataOffset(sub_0)\n  0x00\n  codecopy\n  0x00\n  return\nstop\n\nsub_0: assembly {\n        /* \"contracts/voting_samartContract1.sol\":70:6404  contract Vote {... */\n      mstore(0x40, 0x80)\n      callvalue\n      dup1\n      iszero\n      tag_1\n      jumpi\n      revert(0x00, 0x00)\n    tag_1:\n      pop\n      jumpi(tag_2, lt(calldatasize, 0x04))\n      shr(0xe0, calldataload(0x00))\n      dup1\n      0x9fa4e440\n      gt\n      tag_14\n      jumpi\n      dup1\n      0x9fa4e440\n      eq\n      tag_8\n      jumpi\n      dup1\n      0xa15a36c7\n      eq\n      tag_9\n      jumpi\n      dup1\n      0xaab46b7f\n      eq\n      tag_10\n      jumpi\n      dup1\n      0xb28d92ae\n      eq\n      tag_11\n      jumpi\n      dup1\n      0xdfbf53ae\n      eq\n      tag_12\n      jumpi\n      dup1\n      0xfdbc4006\n      eq\n      tag_13\n      jumpi\n      jump(tag_2)\n    tag_14:\n      dup1\n      0x2c0a3f89\n      eq\n      tag_3\n      jumpi\n      dup1\n      0x581c281c\n      eq\n      tag_4\n      jumpi\n      dup1\n      0x6ce2ccc0\n      eq\n      tag_5\n      jumpi\n      dup1\n      0x81ba732f\n      eq\n      tag_6\n      jumpi\n      dup1\n      0x982c777d\n      eq\n      tag_7\n      jumpi\n    tag_2:\n      revert(0x00, 0x00)\n        /* \"contracts/voting_samartContract1.sol\":4588:5182  function castVote(uint256 _voterId, uint256 _candidateId)... */\n    tag_3:\n      tag_15\n      0x04\n      dup1\n      calldatasize\n      sub\n      dup2\n      add\n      swap1\n      tag_16\n      swap2\n      swap1\n      tag_17\n      jump\t// in\n    tag_16:\n      tag_18\n      jump\t// in\n    tag_15:\n      stop\n        /* \"contracts/voting_samartContract1.sol\":5434:5745  function getVotingStatus() public view returns (VotingStatus) {... */\n    tag_4:\n      tag_19\n      tag_20\n      jump\t// in\n    tag_19:\n      mload(0x40)\n      tag_21\n      swap2\n      swap1\n      tag_22\n      jump\t// in\n    tag_21:\n      mload(0x40)\n      dup1\n      swap2\n      sub\n      swap1\n      return\n        /* \"contracts/voting_samartContract1.sol\":5751:6191  function announceVotingResult() external onlyCommissioner {... */\n    tag_5:\n      tag_23\n      tag_24\n      jump\t// in\n    tag_23:\n      stop\n        /* \"contracts/voting_samartContract1.sol\":3844:4302  function registerVoter(... */\n    tag_6:\n      tag_25\n      0x04\n      dup1\n      calldatasize\n      sub\n      dup2\n      add\n      swap1\n      tag_26\n      swap2\n      swap1\n      tag_27\n      jump\t// in\n    tag_26:\n      tag_28\n      jump\t// in\n    tag_25:\n      stop\n        /* \"contracts/voting_samartContract1.sol\":1789:2603  function registerCandidate(... */\n    tag_7:\n      tag_29\n      0x04\n      dup1\n      calldatasize\n      sub\n      dup2\n      add\n      swap1\n      tag_30\n      swap2\n      swap1\n      tag_31\n      jump\t// in\n    tag_30:\n      tag_32\n      jump\t// in\n    tag_29:\n      stop\n        /* \"contracts/voting_samartContract1.sol\":6197:6286  function emergencyStopVoting() public onlyCommissioner {... */\n    tag_8:\n      tag_33\n      tag_34\n      jump\t// in\n    tag_33:\n      stop\n        /* \"contracts/voting_samartContract1.sol\":5188:5428  function setVotingPeriod(... */\n    tag_9:\n      tag_35\n      0x04\n      dup1\n      calldatasize\n      sub\n      dup2\n      add\n      swap1\n      tag_36\n      swap2\n      swap1\n      tag_17\n      jump\t// in\n    tag_36:\n      tag_37\n      jump\t// in\n    tag_35:\n      stop\n        /* \"contracts/voting_samartContract1.sol\":668:701  address public electionCommission */\n    tag_10:\n      tag_38\n      tag_39\n      jump\t// in\n    tag_38:\n      mload(0x40)\n      tag_40\n      swap2\n      swap1\n      tag_41\n      jump\t// in\n    tag_40:\n      mload(0x40)\n      dup1\n      swap2\n      sub\n      swap1\n      return\n        /* \"contracts/voting_samartContract1.sol\":4308:4582  function getVoterList() public view returns (Voter[] memory) {... */\n    tag_11:\n      tag_42\n      tag_43\n      jump\t// in\n    tag_42:\n      mload(0x40)\n      tag_44\n      swap2\n      swap1\n      tag_45\n      jump\t// in\n    tag_44:\n      mload(0x40)\n      dup1\n      swap2\n      sub\n      swap1\n      return\n        /* \"contracts/voting_samartContract1.sol\":707:728  address public winner */\n    tag_12:\n      tag_46\n      tag_47\n      jump\t// in\n    tag_46:\n      mload(0x40)\n      tag_48\n      swap2\n      swap1\n      tag_41\n      jump\t// in\n    tag_48:\n      mload(0x40)\n      dup1\n      swap2\n      sub\n      swap1\n      return\n        /* \"contracts/voting_samartContract1.sol\":2927:3241  function getCandidateList() public view returns (Candidate[] memory) {... */\n    tag_13:\n      tag_49\n      tag_50\n      jump\t// in\n    tag_49:\n      mload(0x40)\n      tag_51\n      swap2\n      swap1\n      tag_52\n      jump\t// in\n    tag_51:\n      mload(0x40)\n      dup1\n      swap2\n      sub\n      swap1\n      return\n        /* \"contracts/voting_samartContract1.sol\":4588:5182  function castVote(uint256 _voterId, uint256 _candidateId)... */\n    tag_18:\n        /* \"contracts/voting_samartContract1.sol\":1331:1338  endTime */\n      sload(0x05)\n        /* \"contracts/voting_samartContract1.sol\":1312:1327  block.timestamp */\n      timestamp\n        /* \"contracts/voting_samartContract1.sol\":1312:1338  block.timestamp <= endTime */\n      gt\n      iszero\n        /* \"contracts/voting_samartContract1.sol\":1312:1361  block.timestamp <= endTime && stopVoting == false */\n      dup1\n      iszero\n      tag_54\n      jumpi\n      pop\n        /* \"contracts/voting_samartContract1.sol\":1356:1361  false */\n      0x00\n        /* \"contracts/voting_samartContract1.sol\":1342:1361  stopVoting == false */\n      iszero\n      iszero\n        /* \"contracts/voting_samartContract1.sol\":1342:1352  stopVoting */\n      0x06\n      0x00\n      swap1\n      sload\n      swap1\n      0x0100\n      exp\n      swap1\n      div\n      0xff\n      and\n        /* \"contracts/voting_samartContract1.sol\":1342:1361  stopVoting == false */\n      iszero\n      iszero\n      eq\n        /* \"contracts/voting_samartContract1.sol\":1312:1361  block.timestamp <= endTime && stopVoting == false */\n    tag_54:\n        /* \"contracts/voting_samartContract1.sol\":1291:1406  require(... */\n      tag_55\n      jumpi\n      mload(0x40)\n      0x08c379a000000000000000000000000000000000000000000000000000000000\n      dup2\n      mstore\n      0x04\n      add\n      tag_56\n      swap1\n      tag_57\n      jump\t// in\n    tag_56:\n      mload(0x40)\n      dup1\n      swap2\n      sub\n      swap1\n      revert\n    tag_55:\n        /* \"contracts/voting_samartContract1.sol\":4761:4762  0 */\n      0x00\n        /* \"contracts/voting_samartContract1.sol\":4719:4731  voterDetails */\n      0x07\n        /* \"contracts/voting_samartContract1.sol\":4719:4741  voterDetails[_voterId] */\n      0x00\n        /* \"contracts/voting_samartContract1.sol\":4732:4740  _voterId */\n      dup5\n        /* \"contracts/voting_samartContract1.sol\":4719:4741  voterDetails[_voterId] */\n      dup2\n      mstore\n      0x20\n      add\n      swap1\n      dup2\n      mstore\n      0x20\n      add\n      0x00\n      keccak256\n        /* \"contracts/voting_samartContract1.sol\":4719:4757  voterDetails[_voterId].voteCandidateId */\n      0x04\n      add\n      sload\n        /* \"contracts/voting_samartContract1.sol\":4719:4762  voterDetails[_voterId].voteCandidateId == 0 */\n      eq\n        /* \"contracts/voting_samartContract1.sol\":4698:4809  require(... */\n      tag_59\n      jumpi\n      mload(0x40)\n      0x08c379a000000000000000000000000000000000000000000000000000000000\n      dup2\n      mstore\n      0x04\n      add\n      tag_60\n      swap1\n      tag_61\n      jump\t// in\n    tag_60:\n      mload(0x40)\n      dup1\n      swap2\n      sub\n      swap1\n      revert\n    tag_59:\n        /* \"contracts/voting_samartContract1.sol\":4879:4889  msg.sender */\n      caller\n        /* \"contracts/voting_samartContract1.sol\":4840:4889  voterDetails[_voterId].voterAddress == msg.sender */\n      0xffffffffffffffffffffffffffffffffffffffff\n      and\n        /* \"contracts/voting_samartContract1.sol\":4840:4852  voterDetails */\n      0x07\n        /* \"contracts/voting_samartContract1.sol\":4840:4862  voterDetails[_voterId] */\n      0x00\n        /* \"contracts/voting_samartContract1.sol\":4853:4861  _voterId */\n      dup5\n        /* \"contracts/voting_samartContract1.sol\":4840:4862  voterDetails[_voterId] */\n      dup2\n      mstore\n      0x20\n      add\n      swap1\n      dup2\n      mstore\n      0x20\n      add\n      0x00\n      keccak256\n        /* \"contracts/voting_samartContract1.sol\":4840:4875  voterDetails[_voterId].voterAddress */\n      0x05\n      add\n      0x00\n      swap1\n      sload\n      swap1\n      0x0100\n      exp\n      swap1\n      div\n      0xffffffffffffffffffffffffffffffffffffffff\n      and\n        /* \"contracts/voting_samartContract1.sol\":4840:4889  voterDetails[_voterId].voterAddress == msg.sender */\n      0xffffffffffffffffffffffffffffffffffffffff\n      and\n      eq\n        /* \"contracts/voting_samartContract1.sol\":4819:4946  require(... */\n      tag_62\n      jumpi\n      mload(0x40)\n      0x08c379a000000000000000000000000000000000000000000000000000000000\n      dup2\n      mstore\n      0x04\n      add\n      tag_63\n      swap1\n      tag_64\n      jump\t// in\n    tag_63:\n      mload(0x40)\n      dup1\n      swap2\n      sub\n      swap1\n      revert\n    tag_62:\n        /* \"contracts/voting_samartContract1.sol\":4993:4994  1 */\n      0x01\n        /* \"contracts/voting_samartContract1.sol\":4977:4989  _candidateId */\n      dup2\n        /* \"contracts/voting_samartContract1.sol\":4977:4994  _candidateId >= 1 */\n      lt\n      iszero\n        /* \"contracts/voting_samartContract1.sol\":4977:5014  _candidateId >= 1 && _candidateId < 3 */\n      dup1\n      iszero\n      tag_65\n      jumpi\n      pop\n        /* \"contracts/voting_samartContract1.sol\":5013:5014  3 */\n      0x03\n        /* \"contracts/voting_samartContract1.sol\":4998:5010  _candidateId */\n      dup2\n        /* \"contracts/voting_samartContract1.sol\":4998:5014  _candidateId < 3 */\n      lt\n        /* \"contracts/voting_samartContract1.sol\":4977:5014  _candidateId >= 1 && _candidateId < 3 */\n    tag_65:\n        /* \"contracts/voting_samartContract1.sol\":4956:5064  require(... */\n      tag_66\n      jumpi\n      mload(0x40)\n      0x08c379a000000000000000000000000000000000000000000000000000000000\n      dup2\n      mstore\n      0x04\n      add\n      tag_67\n      swap1\n      tag_68\n      jump\t// in\n    tag_67:\n      mload(0x40)\n      dup1\n      swap2\n      sub\n      swap1\n      revert\n    tag_66:\n        /* \"contracts/voting_samartContract1.sol\":5115:5127  _candidateId */\n      dup1\n        /* \"contracts/voting_samartContract1.sol\":5074:5086  voterDetails */\n      0x07\n        /* \"contracts/voting_samartContract1.sol\":5074:5096  voterDetails[_voterId] */\n      0x00\n        /* \"contracts/voting_samartContract1.sol\":5087:5095  _voterId */\n      dup5\n        /* \"contracts/voting_samartContract1.sol\":5074:5096  voterDetails[_voterId] */\n      dup2\n      mstore\n      0x20\n      add\n      swap1\n      dup2\n      mstore\n      0x20\n      add\n      0x00\n      keccak256\n        /* \"contracts/voting_samartContract1.sol\":5074:5112  voterDetails[_voterId].voteCandidateId */\n      0x04\n      add\n        /* \"contracts/voting_samartContract1.sol\":5074:5127  voterDetails[_voterId].voteCandidateId = _candidateId */\n      dup2\n      swap1\n      sstore\n      pop\n        /* \"contracts/voting_samartContract1.sol\":5137:5153  candidateDetails */\n      0x08\n        /* \"contracts/voting_samartContract1.sol\":5137:5167  candidateDetails[_candidateId] */\n      0x00\n        /* \"contracts/voting_samartContract1.sol\":5154:5166  _candidateId */\n      dup3\n        /* \"contracts/voting_samartContract1.sol\":5137:5167  candidateDetails[_candidateId] */\n      dup2\n      mstore\n      0x20\n      add\n      swap1\n      dup2\n      mstore\n      0x20\n      add\n      0x00\n      keccak256\n        /* \"contracts/voting_samartContract1.sol\":5137:5173  candidateDetails[_candidateId].votes */\n      0x06\n      add\n      0x00\n        /* \"contracts/voting_samartContract1.sol\":5137:5175  candidateDetails[_candidateId].votes++ */\n      dup2\n      sload\n      dup1\n      swap3\n      swap2\n      swap1\n      tag_69\n      swap1\n      tag_70\n      jump\t// in\n    tag_69:\n      swap2\n      swap1\n      pop\n      sstore\n      pop\n        /* \"contracts/voting_samartContract1.sol\":4588:5182  function castVote(uint256 _voterId, uint256 _candidateId)... */\n      pop\n      pop\n      jump\t// out\n        /* \"contracts/voting_samartContract1.sol\":5434:5745  function getVotingStatus() public view returns (VotingStatus) {... */\n    tag_20:\n        /* \"contracts/voting_samartContract1.sol\":5482:5494  VotingStatus */\n      0x00\n        /* \"contracts/voting_samartContract1.sol\":5520:5521  0 */\n      0x00\n        /* \"contracts/voting_samartContract1.sol\":5509:5518  startTime */\n      sload(0x04)\n        /* \"contracts/voting_samartContract1.sol\":5509:5521  startTime==0 */\n      sub\n        /* \"contracts/voting_samartContract1.sol\":5506:5739  if(startTime==0){... */\n      tag_72\n      jumpi\n        /* \"contracts/voting_samartContract1.sol\":5543:5566  VotingStatus.NotStarted */\n      0x00\n        /* \"contracts/voting_samartContract1.sol\":5536:5566  return VotingStatus.NotStarted */\n      swap1\n      pop\n      jump(tag_71)\n        /* \"contracts/voting_samartContract1.sol\":5506:5739  if(startTime==0){... */\n    tag_72:\n        /* \"contracts/voting_samartContract1.sol\":5593:5608  block.timestamp */\n      timestamp\n        /* \"contracts/voting_samartContract1.sol\":5585:5592  endTime */\n      sload(0x05)\n        /* \"contracts/voting_samartContract1.sol\":5585:5608  endTime>block.timestamp */\n      gt\n        /* \"contracts/voting_samartContract1.sol\":5585:5629  endTime>block.timestamp && stopVoting==false */\n      dup1\n      iszero\n      tag_74\n      jumpi\n      pop\n        /* \"contracts/voting_samartContract1.sol\":5624:5629  false */\n      0x00\n        /* \"contracts/voting_samartContract1.sol\":5612:5629  stopVoting==false */\n      iszero\n      iszero\n        /* \"contracts/voting_samartContract1.sol\":5612:5622  stopVoting */\n      0x06\n      0x00\n      swap1\n      sload\n      swap1\n      0x0100\n      exp\n      swap1\n      div\n      0xff\n      and\n        /* \"contracts/voting_samartContract1.sol\":5612:5629  stopVoting==false */\n      iszero\n      iszero\n      eq\n        /* \"contracts/voting_samartContract1.sol\":5585:5629  endTime>block.timestamp && stopVoting==false */\n    tag_74:\n        /* \"contracts/voting_samartContract1.sol\":5582:5739  if(endTime>block.timestamp && stopVoting==false){... */\n      iszero\n      tag_75\n      jumpi\n        /* \"contracts/voting_samartContract1.sol\":5651:5674  VotingStatus.InProgress */\n      0x01\n        /* \"contracts/voting_samartContract1.sol\":5644:5674  return VotingStatus.InProgress */\n      swap1\n      pop\n      jump(tag_71)\n        /* \"contracts/voting_samartContract1.sol\":5582:5739  if(endTime>block.timestamp && stopVoting==false){... */\n    tag_75:\n        /* \"contracts/voting_samartContract1.sol\":5710:5728  VotingStatus.Ended */\n      0x02\n        /* \"contracts/voting_samartContract1.sol\":5703:5728  return VotingStatus.Ended */\n      swap1\n      pop\n        /* \"contracts/voting_samartContract1.sol\":5434:5745  function getVotingStatus() public view returns (VotingStatus) {... */\n    tag_71:\n      swap1\n      jump\t// out\n        /* \"contracts/voting_samartContract1.sol\":5751:6191  function announceVotingResult() external onlyCommissioner {... */\n    tag_24:\n        /* \"contracts/voting_samartContract1.sol\":1617:1635  electionCommission */\n      0x00\n      0x00\n      swap1\n      sload\n      swap1\n      0x0100\n      exp\n      swap1\n      div\n      0xffffffffffffffffffffffffffffffffffffffff\n      and\n        /* \"contracts/voting_samartContract1.sol\":1603:1635  msg.sender == electionCommission */\n      0xffffffffffffffffffffffffffffffffffffffff\n      and\n        /* \"contracts/voting_samartContract1.sol\":1603:1613  msg.sender */\n      caller\n        /* \"contracts/voting_samartContract1.sol\":1603:1635  msg.sender == electionCommission */\n      0xffffffffffffffffffffffffffffffffffffffff\n      and\n      eq\n        /* \"contracts/voting_samartContract1.sol\":1595:1655  require(msg.sender == electionCommission, \"Not authuorized\") */\n      tag_78\n      jumpi\n      mload(0x40)\n      0x08c379a000000000000000000000000000000000000000000000000000000000\n      dup2\n      mstore\n      0x04\n      add\n      tag_79\n      swap1\n      tag_80\n      jump\t// in\n    tag_79:\n      mload(0x40)\n      dup1\n      swap2\n      sub\n      swap1\n      revert\n    tag_78:\n        /* \"contracts/voting_samartContract1.sol\":5819:5831  uint maxVote */\n      0x00\n        /* \"contracts/voting_samartContract1.sol\":5832:5833  0 */\n      0x00\n        /* \"contracts/voting_samartContract1.sol\":5819:5833  uint maxVote=0 */\n      swap1\n      pop\n        /* \"contracts/voting_samartContract1.sol\":5843:5867  address winningCandidate */\n      0x00\n        /* \"contracts/voting_samartContract1.sol\":5881:5887  uint i */\n      0x00\n        /* \"contracts/voting_samartContract1.sol\":5890:5891  1 */\n      0x01\n        /* \"contracts/voting_samartContract1.sol\":5881:5891  uint i = 1 */\n      swap1\n      pop\n        /* \"contracts/voting_samartContract1.sol\":5877:6106  for(uint i = 1 ; i<nextCandidateId;i++){... */\n    tag_82:\n        /* \"contracts/voting_samartContract1.sol\":5896:5911  nextCandidateId */\n      sload(0x03)\n        /* \"contracts/voting_samartContract1.sol\":5894:5895  i */\n      dup2\n        /* \"contracts/voting_samartContract1.sol\":5894:5911  i<nextCandidateId */\n      lt\n        /* \"contracts/voting_samartContract1.sol\":5877:6106  for(uint i = 1 ; i<nextCandidateId;i++){... */\n      iszero\n      tag_83\n      jumpi\n        /* \"contracts/voting_samartContract1.sol\":5959:5966  maxVote */\n      dup3\n        /* \"contracts/voting_samartContract1.sol\":5933:5949  candidateDetails */\n      0x08\n        /* \"contracts/voting_samartContract1.sol\":5933:5952  candidateDetails[i] */\n      0x00\n        /* \"contracts/voting_samartContract1.sol\":5950:5951  i */\n      dup4\n        /* \"contracts/voting_samartContract1.sol\":5933:5952  candidateDetails[i] */\n      dup2\n      mstore\n      0x20\n      add\n      swap1\n      dup2\n      mstore\n      0x20\n      add\n      0x00\n      keccak256\n        /* \"contracts/voting_samartContract1.sol\":5933:5958  candidateDetails[i].votes */\n      0x06\n      add\n      sload\n        /* \"contracts/voting_samartContract1.sol\":5933:5966  candidateDetails[i].votes>maxVote */\n      gt\n        /* \"contracts/voting_samartContract1.sol\":5930:6096  if(candidateDetails[i].votes>maxVote){... */\n      iszero\n      tag_85\n      jumpi\n        /* \"contracts/voting_samartContract1.sol\":5989:6005  candidateDetails */\n      0x08\n        /* \"contracts/voting_samartContract1.sol\":5989:6008  candidateDetails[i] */\n      0x00\n        /* \"contracts/voting_samartContract1.sol\":6006:6007  i */\n      dup3\n        /* \"contracts/voting_samartContract1.sol\":5989:6008  candidateDetails[i] */\n      dup2\n      mstore\n      0x20\n      add\n      swap1\n      dup2\n      mstore\n      0x20\n      add\n      0x00\n      keccak256\n        /* \"contracts/voting_samartContract1.sol\":5989:6014  candidateDetails[i].votes */\n      0x06\n      add\n      sload\n        /* \"contracts/voting_samartContract1.sol\":5981:6014  maxVote=candidateDetails[i].votes */\n      swap3\n      pop\n        /* \"contracts/voting_samartContract1.sol\":6045:6061  candidateDetails */\n      0x08\n        /* \"contracts/voting_samartContract1.sol\":6045:6064  candidateDetails[i] */\n      0x00\n        /* \"contracts/voting_samartContract1.sol\":6062:6063  i */\n      dup3\n        /* \"contracts/voting_samartContract1.sol\":6045:6064  candidateDetails[i] */\n      dup2\n      mstore\n      0x20\n      add\n      swap1\n      dup2\n      mstore\n      0x20\n      add\n      0x00\n      keccak256\n        /* \"contracts/voting_samartContract1.sol\":6045:6081  candidateDetails[i].candidateAddress */\n      0x05\n      add\n      0x00\n      swap1\n      sload\n      swap1\n      0x0100\n      exp\n      swap1\n      div\n      0xffffffffffffffffffffffffffffffffffffffff\n      and\n        /* \"contracts/voting_samartContract1.sol\":6028:6081  winningCandidate=candidateDetails[i].candidateAddress */\n      swap2\n      pop\n        /* \"contracts/voting_samartContract1.sol\":5930:6096  if(candidateDetails[i].votes>maxVote){... */\n    tag_85:\n        /* \"contracts/voting_samartContract1.sol\":5912:5915  i++ */\n      dup1\n      dup1\n      0x01\n      add\n      swap2\n      pop\n      pop\n        /* \"contracts/voting_samartContract1.sol\":5877:6106  for(uint i = 1 ; i<nextCandidateId;i++){... */\n      jump(tag_82)\n    tag_83:\n      pop\n        /* \"contracts/voting_samartContract1.sol\":6133:6134  0 */\n      0x00\n        /* \"contracts/voting_samartContract1.sol\":6123:6130  maxVote */\n      dup3\n        /* \"contracts/voting_samartContract1.sol\":6123:6134  maxVote > 0 */\n      gt\n        /* \"contracts/voting_samartContract1.sol\":6115:6153  require(maxVote > 0, \"No votes cast.\") */\n      tag_86\n      jumpi\n      mload(0x40)\n      0x08c379a000000000000000000000000000000000000000000000000000000000\n      dup2\n      mstore\n      0x04\n      add\n      tag_87\n      swap1\n      tag_88\n      jump\t// in\n    tag_87:\n      mload(0x40)\n      dup1\n      swap2\n      sub\n      swap1\n      revert\n    tag_86:\n        /* \"contracts/voting_samartContract1.sol\":6168:6184  winningCandidate */\n      dup1\n        /* \"contracts/voting_samartContract1.sol\":6159:6165  winner */\n      0x01\n      0x00\n        /* \"contracts/voting_samartContract1.sol\":6159:6184  winner = winningCandidate */\n      0x0100\n      exp\n      dup2\n      sload\n      dup2\n      0xffffffffffffffffffffffffffffffffffffffff\n      mul\n      not\n      and\n      swap1\n      dup4\n      0xffffffffffffffffffffffffffffffffffffffff\n      and\n      mul\n      or\n      swap1\n      sstore\n      pop\n        /* \"contracts/voting_samartContract1.sol\":5809:6191  {... */\n      pop\n      pop\n        /* \"contracts/voting_samartContract1.sol\":5751:6191  function announceVotingResult() external onlyCommissioner {... */\n      jump\t// out\n        /* \"contracts/voting_samartContract1.sol\":3844:4302  function registerVoter(... */\n    tag_28:\n        /* \"contracts/voting_samartContract1.sol\":3977:4009  isVoterNotRegistered(msg.sender) */\n      tag_90\n        /* \"contracts/voting_samartContract1.sol\":3998:4008  msg.sender */\n      caller\n        /* \"contracts/voting_samartContract1.sol\":3977:3997  isVoterNotRegistered */\n      tag_91\n        /* \"contracts/voting_samartContract1.sol\":3977:4009  isVoterNotRegistered(msg.sender) */\n      jump\t// in\n    tag_90:\n        /* \"contracts/voting_samartContract1.sol\":3969:4036  require(isVoterNotRegistered(msg.sender), \"You have already Voted\") */\n      tag_92\n      jumpi\n      mload(0x40)\n      0x08c379a000000000000000000000000000000000000000000000000000000000\n      dup2\n      mstore\n      0x04\n      add\n      tag_93\n      swap1\n      tag_94\n      jump\t// in\n    tag_93:\n      mload(0x40)\n      dup1\n      swap2\n      sub\n      swap1\n      revert\n    tag_92:\n        /* \"contracts/voting_samartContract1.sol\":4074:4272  Voter({... */\n      mload(0x40)\n      dup1\n      0xc0\n      add\n      0x40\n      mstore\n      dup1\n        /* \"contracts/voting_samartContract1.sol\":4100:4105  _name */\n      dup6\n      dup6\n        /* \"contracts/voting_samartContract1.sol\":4074:4272  Voter({... */\n      dup1\n      dup1\n      0x1f\n      add\n      0x20\n      dup1\n      swap2\n      div\n      mul\n      0x20\n      add\n      mload(0x40)\n      swap1\n      dup2\n      add\n      0x40\n      mstore\n      dup1\n      swap4\n      swap3\n      swap2\n      swap1\n      dup2\n      dup2\n      mstore\n      0x20\n      add\n      dup4\n      dup4\n      dup1\n      dup3\n      dup5\n      calldatacopy\n      0x00\n      dup2\n      dup5\n      add\n      mstore\n      not(0x1f)\n      0x1f\n      dup3\n      add\n      and\n      swap1\n      pop\n      dup1\n      dup4\n      add\n      swap3\n      pop\n      pop\n      pop\n      pop\n      pop\n      pop\n      pop\n      dup2\n      mstore\n      0x20\n      add\n        /* \"contracts/voting_samartContract1.sol\":4124:4128  _age */\n      dup4\n        /* \"contracts/voting_samartContract1.sol\":4074:4272  Voter({... */\n      dup2\n      mstore\n      0x20\n      add\n        /* \"contracts/voting_samartContract1.sol\":4151:4162  nextVoterId */\n      sload(0x02)\n        /* \"contracts/voting_samartContract1.sol\":4074:4272  Voter({... */\n      dup2\n      mstore\n      0x20\n      add\n        /* \"contracts/voting_samartContract1.sol\":4184:4191  _gender */\n      dup3\n        /* \"contracts/voting_samartContract1.sol\":4074:4272  Voter({... */\n      0x03\n      dup2\n      gt\n      iszero\n      tag_95\n      jumpi\n      tag_96\n      tag_97\n      jump\t// in\n    tag_96:\n    tag_95:\n      dup2\n      mstore\n      0x20\n      add\n        /* \"contracts/voting_samartContract1.sol\":4222:4223  0 */\n      0x00\n        /* \"contracts/voting_samartContract1.sol\":4074:4272  Voter({... */\n      dup2\n      mstore\n      0x20\n      add\n        /* \"contracts/voting_samartContract1.sol\":4251:4261  msg.sender */\n      caller\n        /* \"contracts/voting_samartContract1.sol\":4074:4272  Voter({... */\n      0xffffffffffffffffffffffffffffffffffffffff\n      and\n      dup2\n      mstore\n      pop\n        /* \"contracts/voting_samartContract1.sol\":4046:4058  voterDetails */\n      0x07\n        /* \"contracts/voting_samartContract1.sol\":4046:4071  voterDetails[nextVoterId] */\n      0x00\n        /* \"contracts/voting_samartContract1.sol\":4059:4070  nextVoterId */\n      sload(0x02)\n        /* \"contracts/voting_samartContract1.sol\":4046:4071  voterDetails[nextVoterId] */\n      dup2\n      mstore\n      0x20\n      add\n      swap1\n      dup2\n      mstore\n      0x20\n      add\n      0x00\n      keccak256\n        /* \"contracts/voting_samartContract1.sol\":4046:4272  voterDetails[nextVoterId] = Voter({... */\n      0x00\n      dup3\n      add\n      mload\n      dup2\n      0x00\n      add\n      swap1\n      dup2\n      tag_98\n      swap2\n      swap1\n      tag_99\n      jump\t// in\n    tag_98:\n      pop\n      0x20\n      dup3\n      add\n      mload\n      dup2\n      0x01\n      add\n      sstore\n      0x40\n      dup3\n      add\n      mload\n      dup2\n      0x02\n      add\n      sstore\n      0x60\n      dup3\n      add\n      mload\n      dup2\n      0x03\n      add\n      exp(0x0100, 0x00)\n      dup2\n      sload\n      dup2\n      0xff\n      mul\n      not\n      and\n      swap1\n      dup4\n      0x03\n      dup2\n      gt\n      iszero\n      tag_100\n      jumpi\n      tag_101\n      tag_97\n      jump\t// in\n    tag_101:\n    tag_100:\n      mul\n      or\n      swap1\n      sstore\n      pop\n      0x80\n      dup3\n      add\n      mload\n      dup2\n      0x04\n      add\n      sstore\n      0xa0\n      dup3\n      add\n      mload\n      dup2\n      0x05\n      add\n      exp(0x0100, 0x00)\n      dup2\n      sload\n      dup2\n      0xffffffffffffffffffffffffffffffffffffffff\n      mul\n      not\n      and\n      swap1\n      dup4\n      0xffffffffffffffffffffffffffffffffffffffff\n      and\n      mul\n      or\n      swap1\n      sstore\n      pop\n      swap1\n      pop\n      pop\n        /* \"contracts/voting_samartContract1.sol\":4282:4293  nextVoterId */\n      0x02\n      0x00\n        /* \"contracts/voting_samartContract1.sol\":4282:4295  nextVoterId++ */\n      dup2\n      sload\n      dup1\n      swap3\n      swap2\n      swap1\n      tag_102\n      swap1\n      tag_70\n      jump\t// in\n    tag_102:\n      swap2\n      swap1\n      pop\n      sstore\n      pop\n        /* \"contracts/voting_samartContract1.sol\":3844:4302  function registerVoter(... */\n      pop\n      pop\n      pop\n      pop\n      jump\t// out\n        /* \"contracts/voting_samartContract1.sol\":1789:2603  function registerCandidate(... */\n    tag_32:\n        /* \"contracts/voting_samartContract1.sol\":1951:1955  _age */\n      dup2\n        /* \"contracts/voting_samartContract1.sol\":1739:1741  18 */\n      0x12\n        /* \"contracts/voting_samartContract1.sol\":1731:1735  _age */\n      dup2\n        /* \"contracts/voting_samartContract1.sol\":1731:1741  _age >= 18 */\n      lt\n      iszero\n        /* \"contracts/voting_samartContract1.sol\":1723:1765  require(_age >= 18, \"You are not Eligble\") */\n      tag_104\n      jumpi\n      mload(0x40)\n      0x08c379a000000000000000000000000000000000000000000000000000000000\n      dup2\n      mstore\n      0x04\n      add\n      tag_105\n      swap1\n      tag_106\n      jump\t// in\n    tag_105:\n      mload(0x40)\n      dup1\n      swap2\n      sub\n      swap1\n      revert\n    tag_104:\n        /* \"contracts/voting_samartContract1.sol\":1988:2024  isCandidateNotRegistered(msg.sender) */\n      tag_108\n        /* \"contracts/voting_samartContract1.sol\":2013:2023  msg.sender */\n      caller\n        /* \"contracts/voting_samartContract1.sol\":1988:2012  isCandidateNotRegistered */\n      tag_109\n        /* \"contracts/voting_samartContract1.sol\":1988:2024  isCandidateNotRegistered(msg.sender) */\n      jump\t// in\n    tag_108:\n        /* \"contracts/voting_samartContract1.sol\":1967:2077  require(... */\n      tag_110\n      jumpi\n      mload(0x40)\n      0x08c379a000000000000000000000000000000000000000000000000000000000\n      dup2\n      mstore\n      0x04\n      add\n      tag_111\n      swap1\n      tag_112\n      jump\t// in\n    tag_111:\n      mload(0x40)\n      dup1\n      swap2\n      sub\n      swap1\n      revert\n    tag_110:\n        /* \"contracts/voting_samartContract1.sol\":2113:2114  3 */\n      0x03\n        /* \"contracts/voting_samartContract1.sol\":2095:2110  nextCandidateId */\n      dup1\n      sload\n        /* \"contracts/voting_samartContract1.sol\":2095:2114  nextCandidateId < 3 */\n      lt\n        /* \"contracts/voting_samartContract1.sol\":2087:2145  require(nextCandidateId < 3, \"Candidate Register is Full\") */\n      tag_113\n      jumpi\n      mload(0x40)\n      0x08c379a000000000000000000000000000000000000000000000000000000000\n      dup2\n      mstore\n      0x04\n      add\n      tag_114\n      swap1\n      tag_115\n      jump\t// in\n    tag_114:\n      mload(0x40)\n      dup1\n      swap2\n      sub\n      swap1\n      revert\n    tag_113:\n        /* \"contracts/voting_samartContract1.sol\":2190:2208  electionCommission */\n      0x00\n      0x00\n      swap1\n      sload\n      swap1\n      0x0100\n      exp\n      swap1\n      div\n      0xffffffffffffffffffffffffffffffffffffffff\n      and\n        /* \"contracts/voting_samartContract1.sol\":2176:2208  msg.sender != electionCommission */\n      0xffffffffffffffffffffffffffffffffffffffff\n      and\n        /* \"contracts/voting_samartContract1.sol\":2176:2186  msg.sender */\n      caller\n        /* \"contracts/voting_samartContract1.sol\":2176:2208  msg.sender != electionCommission */\n      0xffffffffffffffffffffffffffffffffffffffff\n      and\n      sub\n        /* \"contracts/voting_samartContract1.sol\":2155:2292  require(... */\n      tag_116\n      jumpi\n      mload(0x40)\n      0x08c379a000000000000000000000000000000000000000000000000000000000\n      dup2\n      mstore\n      0x04\n      add\n      tag_117\n      swap1\n      tag_118\n      jump\t// in\n    tag_117:\n      mload(0x40)\n      dup1\n      swap2\n      sub\n      swap1\n      revert\n    tag_116:\n        /* \"contracts/voting_samartContract1.sol\":2338:2569  Candidate({... */\n      mload(0x40)\n      dup1\n      0xe0\n      add\n      0x40\n      mstore\n      dup1\n        /* \"contracts/voting_samartContract1.sol\":2368:2373  _name */\n      dup9\n      dup9\n        /* \"contracts/voting_samartContract1.sol\":2338:2569  Candidate({... */\n      dup1\n      dup1\n      0x1f\n      add\n      0x20\n      dup1\n      swap2\n      div\n      mul\n      0x20\n      add\n      mload(0x40)\n      swap1\n      dup2\n      add\n      0x40\n      mstore\n      dup1\n      swap4\n      swap3\n      swap2\n      swap1\n      dup2\n      dup2\n      mstore\n      0x20\n      add\n      dup4\n      dup4\n      dup1\n      dup3\n      dup5\n      calldatacopy\n      0x00\n      dup2\n      dup5\n      add\n      mstore\n      not(0x1f)\n      0x1f\n      dup3\n      add\n      and\n      swap1\n      pop\n      dup1\n      dup4\n      add\n      swap3\n      pop\n      pop\n      pop\n      pop\n      pop\n      pop\n      pop\n      dup2\n      mstore\n      0x20\n      add\n        /* \"contracts/voting_samartContract1.sol\":2394:2400  _party */\n      dup7\n      dup7\n        /* \"contracts/voting_samartContract1.sol\":2338:2569  Candidate({... */\n      dup1\n      dup1\n      0x1f\n      add\n      0x20\n      dup1\n      swap2\n      div\n      mul\n      0x20\n      add\n      mload(0x40)\n      swap1\n      dup2\n      add\n      0x40\n      mstore\n      dup1\n      swap4\n      swap3\n      swap2\n      swap1\n      dup2\n      dup2\n      mstore\n      0x20\n      add\n      dup4\n      dup4\n      dup1\n      dup3\n      dup5\n      calldatacopy\n      0x00\n      dup2\n      dup5\n      add\n      mstore\n      not(0x1f)\n      0x1f\n      dup3\n      add\n      and\n      swap1\n      pop\n      dup1\n      dup4\n      add\n      swap3\n      pop\n      pop\n      pop\n      pop\n      pop\n      pop\n      pop\n      dup2\n      mstore\n      0x20\n      add\n        /* \"contracts/voting_samartContract1.sol\":2419:2423  _age */\n      dup5\n        /* \"contracts/voting_samartContract1.sol\":2338:2569  Candidate({... */\n      dup2\n      mstore\n      0x20\n      add\n        /* \"contracts/voting_samartContract1.sol\":2445:2452  _gender */\n      dup4\n        /* \"contracts/voting_samartContract1.sol\":2338:2569  Candidate({... */\n      0x03\n      dup2\n      gt\n      iszero\n      tag_119\n      jumpi\n      tag_120\n      tag_97\n      jump\t// in\n    tag_120:\n    tag_119:\n      dup2\n      mstore\n      0x20\n      add\n        /* \"contracts/voting_samartContract1.sol\":2479:2494  nextCandidateId */\n      sload(0x03)\n        /* \"contracts/voting_samartContract1.sol\":2338:2569  Candidate({... */\n      dup2\n      mstore\n      0x20\n      add\n        /* \"contracts/voting_samartContract1.sol\":2526:2536  msg.sender */\n      caller\n        /* \"contracts/voting_samartContract1.sol\":2338:2569  Candidate({... */\n      0xffffffffffffffffffffffffffffffffffffffff\n      and\n      dup2\n      mstore\n      0x20\n      add\n        /* \"contracts/voting_samartContract1.sol\":2557:2558  0 */\n      0x00\n        /* \"contracts/voting_samartContract1.sol\":2338:2569  Candidate({... */\n      dup2\n      mstore\n      pop\n        /* \"contracts/voting_samartContract1.sol\":2302:2318  candidateDetails */\n      0x08\n        /* \"contracts/voting_samartContract1.sol\":2302:2335  candidateDetails[nextCandidateId] */\n      0x00\n        /* \"contracts/voting_samartContract1.sol\":2319:2334  nextCandidateId */\n      sload(0x03)\n        /* \"contracts/voting_samartContract1.sol\":2302:2335  candidateDetails[nextCandidateId] */\n      dup2\n      mstore\n      0x20\n      add\n      swap1\n      dup2\n      mstore\n      0x20\n      add\n      0x00\n      keccak256\n        /* \"contracts/voting_samartContract1.sol\":2302:2569  candidateDetails[nextCandidateId] = Candidate({... */\n      0x00\n      dup3\n      add\n      mload\n      dup2\n      0x00\n      add\n      swap1\n      dup2\n      tag_121\n      swap2\n      swap1\n      tag_99\n      jump\t// in\n    tag_121:\n      pop\n      0x20\n      dup3\n      add\n      mload\n      dup2\n      0x01\n      add\n      swap1\n      dup2\n      tag_122\n      swap2\n      swap1\n      tag_99\n      jump\t// in\n    tag_122:\n      pop\n      0x40\n      dup3\n      add\n      mload\n      dup2\n      0x02\n      add\n      sstore\n      0x60\n      dup3\n      add\n      mload\n      dup2\n      0x03\n      add\n      exp(0x0100, 0x00)\n      dup2\n      sload\n      dup2\n      0xff\n      mul\n      not\n      and\n      swap1\n      dup4\n      0x03\n      dup2\n      gt\n      iszero\n      tag_123\n      jumpi\n      tag_124\n      tag_97\n      jump\t// in\n    tag_124:\n    tag_123:\n      mul\n      or\n      swap1\n      sstore\n      pop\n      0x80\n      dup3\n      add\n      mload\n      dup2\n      0x04\n      add\n      sstore\n      0xa0\n      dup3\n      add\n      mload\n      dup2\n      0x05\n      add\n      exp(0x0100, 0x00)\n      dup2\n      sload\n      dup2\n      0xffffffffffffffffffffffffffffffffffffffff\n      mul\n      not\n      and\n      swap1\n      dup4\n      0xffffffffffffffffffffffffffffffffffffffff\n      and\n      mul\n      or\n      swap1\n      sstore\n      pop\n      0xc0\n      dup3\n      add\n      mload\n      dup2\n      0x06\n      add\n      sstore\n      swap1\n      pop\n      pop\n        /* \"contracts/voting_samartContract1.sol\":2579:2594  nextCandidateId */\n      0x03\n      0x00\n        /* \"contracts/voting_samartContract1.sol\":2579:2596  nextCandidateId++ */\n      dup2\n      sload\n      dup1\n      swap3\n      swap2\n      swap1\n      tag_125\n      swap1\n      tag_70\n      jump\t// in\n    tag_125:\n      swap2\n      swap1\n      pop\n      sstore\n      pop\n        /* \"contracts/voting_samartContract1.sol\":1789:2603  function registerCandidate(... */\n      pop\n      pop\n      pop\n      pop\n      pop\n      pop\n      pop\n      jump\t// out\n        /* \"contracts/voting_samartContract1.sol\":6197:6286  function emergencyStopVoting() public onlyCommissioner {... */\n    tag_34:\n        /* \"contracts/voting_samartContract1.sol\":1617:1635  electionCommission */\n      0x00\n      0x00\n      swap1\n      sload\n      swap1\n      0x0100\n      exp\n      swap1\n      div\n      0xffffffffffffffffffffffffffffffffffffffff\n      and\n        /* \"contracts/voting_samartContract1.sol\":1603:1635  msg.sender == electionCommission */\n      0xffffffffffffffffffffffffffffffffffffffff\n      and\n        /* \"contracts/voting_samartContract1.sol\":1603:1613  msg.sender */\n      caller\n        /* \"contracts/voting_samartContract1.sol\":1603:1635  msg.sender == electionCommission */\n      0xffffffffffffffffffffffffffffffffffffffff\n      and\n      eq\n        /* \"contracts/voting_samartContract1.sol\":1595:1655  require(msg.sender == electionCommission, \"Not authuorized\") */\n      tag_127\n      jumpi\n      mload(0x40)\n      0x08c379a000000000000000000000000000000000000000000000000000000000\n      dup2\n      mstore\n      0x04\n      add\n      tag_128\n      swap1\n      tag_80\n      jump\t// in\n    tag_128:\n      mload(0x40)\n      dup1\n      swap2\n      sub\n      swap1\n      revert\n    tag_127:\n        /* \"contracts/voting_samartContract1.sol\":6275:6279  true */\n      0x01\n        /* \"contracts/voting_samartContract1.sol\":6262:6272  stopVoting */\n      0x06\n      0x00\n        /* \"contracts/voting_samartContract1.sol\":6262:6279  stopVoting = true */\n      0x0100\n      exp\n      dup2\n      sload\n      dup2\n      0xff\n      mul\n      not\n      and\n      swap1\n      dup4\n      iszero\n      iszero\n      mul\n      or\n      swap1\n      sstore\n      pop\n        /* \"contracts/voting_samartContract1.sol\":6197:6286  function emergencyStopVoting() public onlyCommissioner {... */\n      jump\t// out\n        /* \"contracts/voting_samartContract1.sol\":5188:5428  function setVotingPeriod(... */\n    tag_37:\n        /* \"contracts/voting_samartContract1.sol\":1617:1635  electionCommission */\n      0x00\n      0x00\n      swap1\n      sload\n      swap1\n      0x0100\n      exp\n      swap1\n      div\n      0xffffffffffffffffffffffffffffffffffffffff\n      and\n        /* \"contracts/voting_samartContract1.sol\":1603:1635  msg.sender == electionCommission */\n      0xffffffffffffffffffffffffffffffffffffffff\n      and\n        /* \"contracts/voting_samartContract1.sol\":1603:1613  msg.sender */\n      caller\n        /* \"contracts/voting_samartContract1.sol\":1603:1635  msg.sender == electionCommission */\n      0xffffffffffffffffffffffffffffffffffffffff\n      and\n      eq\n        /* \"contracts/voting_samartContract1.sol\":1595:1655  require(msg.sender == electionCommission, \"Not authuorized\") */\n      tag_131\n      jumpi\n      mload(0x40)\n      0x08c379a000000000000000000000000000000000000000000000000000000000\n      dup2\n      mstore\n      0x04\n      add\n      tag_132\n      swap1\n      tag_80\n      jump\t// in\n    tag_132:\n      mload(0x40)\n      dup1\n      swap2\n      sub\n      swap1\n      revert\n    tag_131:\n        /* \"contracts/voting_samartContract1.sol\":5355:5373  _startTimeDuration */\n      dup2\n        /* \"contracts/voting_samartContract1.sol\":5337:5352  block.timestamp */\n      timestamp\n        /* \"contracts/voting_samartContract1.sol\":5337:5373  block.timestamp + _startTimeDuration */\n      tag_134\n      swap2\n      swap1\n      tag_135\n      jump\t// in\n    tag_134:\n        /* \"contracts/voting_samartContract1.sol\":5325:5334  startTime */\n      0x04\n        /* \"contracts/voting_samartContract1.sol\":5325:5373  startTime = block.timestamp + _startTimeDuration */\n      dup2\n      swap1\n      sstore\n      pop\n        /* \"contracts/voting_samartContract1.sol\":5405:5421  _endTimeDuration */\n      dup1\n        /* \"contracts/voting_samartContract1.sol\":5393:5402  startTime */\n      sload(0x04)\n        /* \"contracts/voting_samartContract1.sol\":5393:5421  startTime + _endTimeDuration */\n      tag_136\n      swap2\n      swap1\n      tag_135\n      jump\t// in\n    tag_136:\n        /* \"contracts/voting_samartContract1.sol\":5383:5390  endTime */\n      0x05\n        /* \"contracts/voting_samartContract1.sol\":5383:5421  endTime = startTime + _endTimeDuration */\n      dup2\n      swap1\n      sstore\n      pop\n        /* \"contracts/voting_samartContract1.sol\":5188:5428  function setVotingPeriod(... */\n      pop\n      pop\n      jump\t// out\n        /* \"contracts/voting_samartContract1.sol\":668:701  address public electionCommission */\n    tag_39:\n      0x00\n      0x00\n      swap1\n      sload\n      swap1\n      0x0100\n      exp\n      swap1\n      div\n      0xffffffffffffffffffffffffffffffffffffffff\n      and\n      dup2\n      jump\t// out\n        /* \"contracts/voting_samartContract1.sol\":4308:4582  function getVoterList() public view returns (Voter[] memory) {... */\n    tag_43:\n        /* \"contracts/voting_samartContract1.sol\":4353:4367  Voter[] memory */\n      0x60\n        /* \"contracts/voting_samartContract1.sol\":4379:4403  Voter[] memory voterList */\n      0x00\n        /* \"contracts/voting_samartContract1.sol\":4432:4433  1 */\n      0x01\n        /* \"contracts/voting_samartContract1.sol\":4418:4429  nextVoterId */\n      sload(0x02)\n        /* \"contracts/voting_samartContract1.sol\":4418:4433  nextVoterId - 1 */\n      tag_138\n      swap2\n      swap1\n      tag_139\n      jump\t// in\n    tag_138:\n        /* \"contracts/voting_samartContract1.sol\":4406:4434  new Voter[](nextVoterId - 1) */\n      0xffffffffffffffff\n      dup2\n      gt\n      iszero\n      tag_140\n      jumpi\n      tag_141\n      tag_142\n      jump\t// in\n    tag_141:\n    tag_140:\n      mload(0x40)\n      swap1\n      dup1\n      dup3\n      mstore\n      dup1\n      0x20\n      mul\n      0x20\n      add\n      dup3\n      add\n      0x40\n      mstore\n      dup1\n      iszero\n      tag_143\n      jumpi\n      dup2\n      0x20\n      add\n    tag_144:\n      tag_145\n      tag_146\n      jump\t// in\n    tag_145:\n      dup2\n      mstore\n      0x20\n      add\n      swap1\n      0x01\n      swap1\n      sub\n      swap1\n      dup2\n      tag_144\n      jumpi\n      swap1\n      pop\n    tag_143:\n      pop\n        /* \"contracts/voting_samartContract1.sol\":4379:4434  Voter[] memory voterList = new Voter[](nextVoterId - 1) */\n      swap1\n      pop\n        /* \"contracts/voting_samartContract1.sol\":4449:4458  uint256 i */\n      0x00\n        /* \"contracts/voting_samartContract1.sol\":4461:4462  0 */\n      0x00\n        /* \"contracts/voting_samartContract1.sol\":4449:4462  uint256 i = 0 */\n      swap1\n      pop\n        /* \"contracts/voting_samartContract1.sol\":4444:4550  for (uint256 i = 0; i < voterList.length; i++) {... */\n    tag_147:\n        /* \"contracts/voting_samartContract1.sol\":4468:4477  voterList */\n      dup2\n        /* \"contracts/voting_samartContract1.sol\":4468:4484  voterList.length */\n      mload\n        /* \"contracts/voting_samartContract1.sol\":4464:4465  i */\n      dup2\n        /* \"contracts/voting_samartContract1.sol\":4464:4484  i < voterList.length */\n      lt\n        /* \"contracts/voting_samartContract1.sol\":4444:4550  for (uint256 i = 0; i < voterList.length; i++) {... */\n      iszero\n      tag_148\n      jumpi\n        /* \"contracts/voting_samartContract1.sol\":4520:4532  voterDetails */\n      0x07\n        /* \"contracts/voting_samartContract1.sol\":4520:4539  voterDetails[i + 1] */\n      0x00\n        /* \"contracts/voting_samartContract1.sol\":4537:4538  1 */\n      0x01\n        /* \"contracts/voting_samartContract1.sol\":4533:4534  i */\n      dup4\n        /* \"contracts/voting_samartContract1.sol\":4533:4538  i + 1 */\n      tag_150\n      swap2\n      swap1\n      tag_135\n      jump\t// in\n    tag_150:\n        /* \"contracts/voting_samartContract1.sol\":4520:4539  voterDetails[i + 1] */\n      dup2\n      mstore\n      0x20\n      add\n      swap1\n      dup2\n      mstore\n      0x20\n      add\n      0x00\n      keccak256\n        /* \"contracts/voting_samartContract1.sol\":4505:4539  voterList[i] = voterDetails[i + 1] */\n      mload(0x40)\n      dup1\n      0xc0\n      add\n      0x40\n      mstore\n      swap1\n      dup2\n      0x00\n      dup3\n      add\n      dup1\n      sload\n      tag_151\n      swap1\n      tag_152\n      jump\t// in\n    tag_151:\n      dup1\n      0x1f\n      add\n      0x20\n      dup1\n      swap2\n      div\n      mul\n      0x20\n      add\n      mload(0x40)\n      swap1\n      dup2\n      add\n      0x40\n      mstore\n      dup1\n      swap3\n      swap2\n      swap1\n      dup2\n      dup2\n      mstore\n      0x20\n      add\n      dup3\n      dup1\n      sload\n      tag_153\n      swap1\n      tag_152\n      jump\t// in\n    tag_153:\n      dup1\n      iszero\n      tag_154\n      jumpi\n      dup1\n      0x1f\n      lt\n      tag_155\n      jumpi\n      0x0100\n      dup1\n      dup4\n      sload\n      div\n      mul\n      dup4\n      mstore\n      swap2\n      0x20\n      add\n      swap2\n      jump(tag_154)\n    tag_155:\n      dup3\n      add\n      swap2\n      swap1\n      0x00\n      mstore\n      keccak256(0x00, 0x20)\n      swap1\n    tag_156:\n      dup2\n      sload\n      dup2\n      mstore\n      swap1\n      0x01\n      add\n      swap1\n      0x20\n      add\n      dup1\n      dup4\n      gt\n      tag_156\n      jumpi\n      dup3\n      swap1\n      sub\n      0x1f\n      and\n      dup3\n      add\n      swap2\n    tag_154:\n      pop\n      pop\n      pop\n      pop\n      pop\n      dup2\n      mstore\n      0x20\n      add\n      0x01\n      dup3\n      add\n      sload\n      dup2\n      mstore\n      0x20\n      add\n      0x02\n      dup3\n      add\n      sload\n      dup2\n      mstore\n      0x20\n      add\n      0x03\n      dup3\n      add\n      0x00\n      swap1\n      sload\n      swap1\n      0x0100\n      exp\n      swap1\n      div\n      0xff\n      and\n      0x03\n      dup2\n      gt\n      iszero\n      tag_157\n      jumpi\n      tag_158\n      tag_97\n      jump\t// in\n    tag_158:\n    tag_157:\n      0x03\n      dup2\n      gt\n      iszero\n      tag_159\n      jumpi\n      tag_160\n      tag_97\n      jump\t// in\n    tag_160:\n    tag_159:\n      dup2\n      mstore\n      0x20\n      add\n      0x04\n      dup3\n      add\n      sload\n      dup2\n      mstore\n      0x20\n      add\n      0x05\n      dup3\n      add\n      0x00\n      swap1\n      sload\n      swap1\n      0x0100\n      exp\n      swap1\n      div\n      0xffffffffffffffffffffffffffffffffffffffff\n      and\n      0xffffffffffffffffffffffffffffffffffffffff\n      and\n      0xffffffffffffffffffffffffffffffffffffffff\n      and\n      dup2\n      mstore\n      pop\n      pop\n        /* \"contracts/voting_samartContract1.sol\":4505:4514  voterList */\n      dup3\n        /* \"contracts/voting_samartContract1.sol\":4515:4516  i */\n      dup3\n        /* \"contracts/voting_samartContract1.sol\":4505:4517  voterList[i] */\n      dup2\n      mload\n      dup2\n      lt\n      tag_161\n      jumpi\n      tag_162\n      tag_163\n      jump\t// in\n    tag_162:\n    tag_161:\n      0x20\n      mul\n      0x20\n      add\n      add\n        /* \"contracts/voting_samartContract1.sol\":4505:4539  voterList[i] = voterDetails[i + 1] */\n      dup2\n      swap1\n      mstore\n      pop\n        /* \"contracts/voting_samartContract1.sol\":4486:4489  i++ */\n      dup1\n      dup1\n      0x01\n      add\n      swap2\n      pop\n      pop\n        /* \"contracts/voting_samartContract1.sol\":4444:4550  for (uint256 i = 0; i < voterList.length; i++) {... */\n      jump(tag_147)\n    tag_148:\n      pop\n        /* \"contracts/voting_samartContract1.sol\":4566:4575  voterList */\n      dup1\n        /* \"contracts/voting_samartContract1.sol\":4559:4575  return voterList */\n      swap2\n      pop\n      pop\n        /* \"contracts/voting_samartContract1.sol\":4308:4582  function getVoterList() public view returns (Voter[] memory) {... */\n      swap1\n      jump\t// out\n        /* \"contracts/voting_samartContract1.sol\":707:728  address public winner */\n    tag_47:\n      0x01\n      0x00\n      swap1\n      sload\n      swap1\n      0x0100\n      exp\n      swap1\n      div\n      0xffffffffffffffffffffffffffffffffffffffff\n      and\n      dup2\n      jump\t// out\n        /* \"contracts/voting_samartContract1.sol\":2927:3241  function getCandidateList() public view returns (Candidate[] memory) {... */\n    tag_50:\n        /* \"contracts/voting_samartContract1.sol\":2976:2994  Candidate[] memory */\n      0x60\n        /* \"contracts/voting_samartContract1.sol\":3006:3038  Candidate[] memory candidateList */\n      0x00\n        /* \"contracts/voting_samartContract1.sol\":3075:3076  1 */\n      0x01\n        /* \"contracts/voting_samartContract1.sol\":3057:3072  nextCandidateId */\n      sload(0x03)\n        /* \"contracts/voting_samartContract1.sol\":3057:3076  nextCandidateId - 1 */\n      tag_165\n      swap2\n      swap1\n      tag_139\n      jump\t// in\n    tag_165:\n        /* \"contracts/voting_samartContract1.sol\":3041:3077  new Candidate[](nextCandidateId - 1) */\n      0xffffffffffffffff\n      dup2\n      gt\n      iszero\n      tag_166\n      jumpi\n      tag_167\n      tag_142\n      jump\t// in\n    tag_167:\n    tag_166:\n      mload(0x40)\n      swap1\n      dup1\n      dup3\n      mstore\n      dup1\n      0x20\n      mul\n      0x20\n      add\n      dup3\n      add\n      0x40\n      mstore\n      dup1\n      iszero\n      tag_168\n      jumpi\n      dup2\n      0x20\n      add\n    tag_169:\n      tag_170\n      tag_171\n      jump\t// in\n    tag_170:\n      dup2\n      mstore\n      0x20\n      add\n      swap1\n      0x01\n      swap1\n      sub\n      swap1\n      dup2\n      tag_169\n      jumpi\n      swap1\n      pop\n    tag_168:\n      pop\n        /* \"contracts/voting_samartContract1.sol\":3006:3077  Candidate[] memory candidateList = new Candidate[](nextCandidateId - 1) */\n      swap1\n      pop\n        /* \"contracts/voting_samartContract1.sol\":3092:3101  uint256 i */\n      0x00\n        /* \"contracts/voting_samartContract1.sol\":3104:3105  0 */\n      0x00\n        /* \"contracts/voting_samartContract1.sol\":3092:3105  uint256 i = 0 */\n      swap1\n      pop\n        /* \"contracts/voting_samartContract1.sol\":3087:3205  for (uint256 i = 0; i < candidateList.length; i++) {... */\n    tag_172:\n        /* \"contracts/voting_samartContract1.sol\":3111:3124  candidateList */\n      dup2\n        /* \"contracts/voting_samartContract1.sol\":3111:3131  candidateList.length */\n      mload\n        /* \"contracts/voting_samartContract1.sol\":3107:3108  i */\n      dup2\n        /* \"contracts/voting_samartContract1.sol\":3107:3131  i < candidateList.length */\n      lt\n        /* \"contracts/voting_samartContract1.sol\":3087:3205  for (uint256 i = 0; i < candidateList.length; i++) {... */\n      iszero\n      tag_173\n      jumpi\n        /* \"contracts/voting_samartContract1.sol\":3171:3187  candidateDetails */\n      0x08\n        /* \"contracts/voting_samartContract1.sol\":3171:3194  candidateDetails[i + 1] */\n      0x00\n        /* \"contracts/voting_samartContract1.sol\":3192:3193  1 */\n      0x01\n        /* \"contracts/voting_samartContract1.sol\":3188:3189  i */\n      dup4\n        /* \"contracts/voting_samartContract1.sol\":3188:3193  i + 1 */\n      tag_175\n      swap2\n      swap1\n      tag_135\n      jump\t// in\n    tag_175:\n        /* \"contracts/voting_samartContract1.sol\":3171:3194  candidateDetails[i + 1] */\n      dup2\n      mstore\n      0x20\n      add\n      swap1\n      dup2\n      mstore\n      0x20\n      add\n      0x00\n      keccak256\n        /* \"contracts/voting_samartContract1.sol\":3152:3194  candidateList[i] = candidateDetails[i + 1] */\n      mload(0x40)\n      dup1\n      0xe0\n      add\n      0x40\n      mstore\n      swap1\n      dup2\n      0x00\n      dup3\n      add\n      dup1\n      sload\n      tag_176\n      swap1\n      tag_152\n      jump\t// in\n    tag_176:\n      dup1\n      0x1f\n      add\n      0x20\n      dup1\n      swap2\n      div\n      mul\n      0x20\n      add\n      mload(0x40)\n      swap1\n      dup2\n      add\n      0x40\n      mstore\n      dup1\n      swap3\n      swap2\n      swap1\n      dup2\n      dup2\n      mstore\n      0x20\n      add\n      dup3\n      dup1\n      sload\n      tag_177\n      swap1\n      tag_152\n      jump\t// in\n    tag_177:\n      dup1\n      iszero\n      tag_178\n      jumpi\n      dup1\n      0x1f\n      lt\n      tag_179\n      jumpi\n      0x0100\n      dup1\n      dup4\n      sload\n      div\n      mul\n      dup4\n      mstore\n      swap2\n      0x20\n      add\n      swap2\n      jump(tag_178)\n    tag_179:\n      dup3\n      add\n      swap2\n      swap1\n      0x00\n      mstore\n      keccak256(0x00, 0x20)\n      swap1\n    tag_180:\n      dup2\n      sload\n      dup2\n      mstore\n      swap1\n      0x01\n      add\n      swap1\n      0x20\n      add\n      dup1\n      dup4\n      gt\n      tag_180\n      jumpi\n      dup3\n      swap1\n      sub\n      0x1f\n      and\n      dup3\n      add\n      swap2\n    tag_178:\n      pop\n      pop\n      pop\n      pop\n      pop\n      dup2\n      mstore\n      0x20\n      add\n      0x01\n      dup3\n      add\n      dup1\n      sload\n      tag_181\n      swap1\n      tag_152\n      jump\t// in\n    tag_181:\n      dup1\n      0x1f\n      add\n      0x20\n      dup1\n      swap2\n      div\n      mul\n      0x20\n      add\n      mload(0x40)\n      swap1\n      dup2\n      add\n      0x40\n      mstore\n      dup1\n      swap3\n      swap2\n      swap1\n      dup2\n      dup2\n      mstore\n      0x20\n      add\n      dup3\n      dup1\n      sload\n      tag_182\n      swap1\n      tag_152\n      jump\t// in\n    tag_182:\n      dup1\n      iszero\n      tag_183\n      jumpi\n      dup1\n      0x1f\n      lt\n      tag_184\n      jumpi\n      0x0100\n      dup1\n      dup4\n      sload\n      div\n      mul\n      dup4\n      mstore\n      swap2\n      0x20\n      add\n      swap2\n      jump(tag_183)\n    tag_184:\n      dup3\n      add\n      swap2\n      swap1\n      0x00\n      mstore\n      keccak256(0x00, 0x20)\n      swap1\n    tag_185:\n      dup2\n      sload\n      dup2\n      mstore\n      swap1\n      0x01\n      add\n      swap1\n      0x20\n      add\n      dup1\n      dup4\n      gt\n      tag_185\n      jumpi\n      dup3\n      swap1\n      sub\n      0x1f\n      and\n      dup3\n      add\n      swap2\n    tag_183:\n      pop\n      pop\n      pop\n      pop\n      pop\n      dup2\n      mstore\n      0x20\n      add\n      0x02\n      dup3\n      add\n      sload\n      dup2\n      mstore\n      0x20\n      add\n      0x03\n      dup3\n      add\n      0x00\n      swap1\n      sload\n      swap1\n      0x0100\n      exp\n      swap1\n      div\n      0xff\n      and\n      0x03\n      dup2\n      gt\n      iszero\n      tag_186\n      jumpi\n      tag_187\n      tag_97\n      jump\t// in\n    tag_187:\n    tag_186:\n      0x03\n      dup2\n      gt\n      iszero\n      tag_188\n      jumpi\n      tag_189\n      tag_97\n      jump\t// in\n    tag_189:\n    tag_188:\n      dup2\n      mstore\n      0x20\n      add\n      0x04\n      dup3\n      add\n      sload\n      dup2\n      mstore\n      0x20\n      add\n      0x05\n      dup3\n      add\n      0x00\n      swap1\n      sload\n      swap1\n      0x0100\n      exp\n      swap1\n      div\n      0xffffffffffffffffffffffffffffffffffffffff\n      and\n      0xffffffffffffffffffffffffffffffffffffffff\n      and\n      0xffffffffffffffffffffffffffffffffffffffff\n      and\n      dup2\n      mstore\n      0x20\n      add\n      0x06\n      dup3\n      add\n      sload\n      dup2\n      mstore\n      pop\n      pop\n        /* \"contracts/voting_samartContract1.sol\":3152:3165  candidateList */\n      dup3\n        /* \"contracts/voting_samartContract1.sol\":3166:3167  i */\n      dup3\n        /* \"contracts/voting_samartContract1.sol\":3152:3168  candidateList[i] */\n      dup2\n      mload\n      dup2\n      lt\n      tag_190\n      jumpi\n      tag_191\n      tag_163\n      jump\t// in\n    tag_191:\n    tag_190:\n      0x20\n      mul\n      0x20\n      add\n      add\n        /* \"contracts/voting_samartContract1.sol\":3152:3194  candidateList[i] = candidateDetails[i + 1] */\n      dup2\n      swap1\n      mstore\n      pop\n        /* \"contracts/voting_samartContract1.sol\":3133:3136  i++ */\n      dup1\n      dup1\n      0x01\n      add\n      swap2\n      pop\n      pop\n        /* \"contracts/voting_samartContract1.sol\":3087:3205  for (uint256 i = 0; i < candidateList.length; i++) {... */\n      jump(tag_172)\n    tag_173:\n      pop\n        /* \"contracts/voting_samartContract1.sol\":3221:3234  candidateList */\n      dup1\n        /* \"contracts/voting_samartContract1.sol\":3214:3234  return candidateList */\n      swap2\n      pop\n      pop\n        /* \"contracts/voting_samartContract1.sol\":2927:3241  function getCandidateList() public view returns (Candidate[] memory) {... */\n      swap1\n      jump\t// out\n        /* \"contracts/voting_samartContract1.sol\":3247:3515  function isVoterNotRegistered(address _person) private view returns (bool) {... */\n    tag_91:\n        /* \"contracts/voting_samartContract1.sol\":3316:3320  bool */\n      0x00\n        /* \"contracts/voting_samartContract1.sol\":3337:3346  uint256 i */\n      0x00\n        /* \"contracts/voting_samartContract1.sol\":3349:3350  1 */\n      0x01\n        /* \"contracts/voting_samartContract1.sol\":3337:3350  uint256 i = 1 */\n      swap1\n      pop\n        /* \"contracts/voting_samartContract1.sol\":3332:3488  for (uint256 i = 1; i < nextVoterId; i++) {... */\n    tag_193:\n        /* \"contracts/voting_samartContract1.sol\":3356:3367  nextVoterId */\n      sload(0x02)\n        /* \"contracts/voting_samartContract1.sol\":3352:3353  i */\n      dup2\n        /* \"contracts/voting_samartContract1.sol\":3352:3367  i < nextVoterId */\n      lt\n        /* \"contracts/voting_samartContract1.sol\":3332:3488  for (uint256 i = 1; i < nextVoterId; i++) {... */\n      iszero\n      tag_194\n      jumpi\n        /* \"contracts/voting_samartContract1.sol\":3424:3431  _person */\n      dup3\n        /* \"contracts/voting_samartContract1.sol\":3392:3431  voterDetails[i].voterAddress == _person */\n      0xffffffffffffffffffffffffffffffffffffffff\n      and\n        /* \"contracts/voting_samartContract1.sol\":3392:3404  voterDetails */\n      0x07\n        /* \"contracts/voting_samartContract1.sol\":3392:3407  voterDetails[i] */\n      0x00\n        /* \"contracts/voting_samartContract1.sol\":3405:3406  i */\n      dup4\n        /* \"contracts/voting_samartContract1.sol\":3392:3407  voterDetails[i] */\n      dup2\n      mstore\n      0x20\n      add\n      swap1\n      dup2\n      mstore\n      0x20\n      add\n      0x00\n      keccak256\n        /* \"contracts/voting_samartContract1.sol\":3392:3420  voterDetails[i].voterAddress */\n      0x05\n      add\n      0x00\n      swap1\n      sload\n      swap1\n      0x0100\n      exp\n      swap1\n      div\n      0xffffffffffffffffffffffffffffffffffffffff\n      and\n        /* \"contracts/voting_samartContract1.sol\":3392:3431  voterDetails[i].voterAddress == _person */\n      0xffffffffffffffffffffffffffffffffffffffff\n      and\n      sub\n        /* \"contracts/voting_samartContract1.sol\":3388:3478  if (voterDetails[i].voterAddress == _person) {... */\n      tag_196\n      jumpi\n        /* \"contracts/voting_samartContract1.sol\":3458:3463  false */\n      0x00\n        /* \"contracts/voting_samartContract1.sol\":3451:3463  return false */\n      swap2\n      pop\n      pop\n      jump(tag_192)\n        /* \"contracts/voting_samartContract1.sol\":3388:3478  if (voterDetails[i].voterAddress == _person) {... */\n    tag_196:\n        /* \"contracts/voting_samartContract1.sol\":3369:3372  i++ */\n      dup1\n      dup1\n      0x01\n      add\n      swap2\n      pop\n      pop\n        /* \"contracts/voting_samartContract1.sol\":3332:3488  for (uint256 i = 1; i < nextVoterId; i++) {... */\n      jump(tag_193)\n    tag_194:\n      pop\n        /* \"contracts/voting_samartContract1.sol\":3504:3508  true */\n      0x01\n        /* \"contracts/voting_samartContract1.sol\":3497:3508  return true */\n      swap1\n      pop\n        /* \"contracts/voting_samartContract1.sol\":3247:3515  function isVoterNotRegistered(address _person) private view returns (bool) {... */\n    tag_192:\n      swap2\n      swap1\n      pop\n      jump\t// out\n        /* \"contracts/voting_samartContract1.sol\":2609:2921  function isCandidateNotRegistered(address _person)... */\n    tag_109:\n        /* \"contracts/voting_samartContract1.sol\":2706:2710  bool */\n      0x00\n        /* \"contracts/voting_samartContract1.sol\":2731:2740  uint256 i */\n      0x00\n        /* \"contracts/voting_samartContract1.sol\":2743:2744  1 */\n      0x01\n        /* \"contracts/voting_samartContract1.sol\":2731:2744  uint256 i = 1 */\n      swap1\n      pop\n        /* \"contracts/voting_samartContract1.sol\":2726:2894  for (uint256 i = 1; i < nextCandidateId; i++) {... */\n    tag_198:\n        /* \"contracts/voting_samartContract1.sol\":2750:2765  nextCandidateId */\n      sload(0x03)\n        /* \"contracts/voting_samartContract1.sol\":2746:2747  i */\n      dup2\n        /* \"contracts/voting_samartContract1.sol\":2746:2765  i < nextCandidateId */\n      lt\n        /* \"contracts/voting_samartContract1.sol\":2726:2894  for (uint256 i = 1; i < nextCandidateId; i++) {... */\n      iszero\n      tag_199\n      jumpi\n        /* \"contracts/voting_samartContract1.sol\":2830:2837  _person */\n      dup3\n        /* \"contracts/voting_samartContract1.sol\":2790:2837  candidateDetails[i].candidateAddress == _person */\n      0xffffffffffffffffffffffffffffffffffffffff\n      and\n        /* \"contracts/voting_samartContract1.sol\":2790:2806  candidateDetails */\n      0x08\n        /* \"contracts/voting_samartContract1.sol\":2790:2809  candidateDetails[i] */\n      0x00\n        /* \"contracts/voting_samartContract1.sol\":2807:2808  i */\n      dup4\n        /* \"contracts/voting_samartContract1.sol\":2790:2809  candidateDetails[i] */\n      dup2\n      mstore\n      0x20\n      add\n      swap1\n      dup2\n      mstore\n      0x20\n      add\n      0x00\n      keccak256\n        /* \"contracts/voting_samartContract1.sol\":2790:2826  candidateDetails[i].candidateAddress */\n      0x05\n      add\n      0x00\n      swap1\n      sload\n      swap1\n      0x0100\n      exp\n      swap1\n      div\n      0xffffffffffffffffffffffffffffffffffffffff\n      and\n        /* \"contracts/voting_samartContract1.sol\":2790:2837  candidateDetails[i].candidateAddress == _person */\n      0xffffffffffffffffffffffffffffffffffffffff\n      and\n      sub\n        /* \"contracts/voting_samartContract1.sol\":2786:2884  if (candidateDetails[i].candidateAddress == _person) {... */\n      tag_201\n      jumpi\n        /* \"contracts/voting_samartContract1.sol\":2864:2869  false */\n      0x00\n        /* \"contracts/voting_samartContract1.sol\":2857:2869  return false */\n      swap2\n      pop\n      pop\n      jump(tag_197)\n        /* \"contracts/voting_samartContract1.sol\":2786:2884  if (candidateDetails[i].candidateAddress == _person) {... */\n    tag_201:\n        /* \"contracts/voting_samartContract1.sol\":2767:2770  i++ */\n      dup1\n      dup1\n      0x01\n      add\n      swap2\n      pop\n      pop\n        /* \"contracts/voting_samartContract1.sol\":2726:2894  for (uint256 i = 1; i < nextCandidateId; i++) {... */\n      jump(tag_198)\n    tag_199:\n      pop\n        /* \"contracts/voting_samartContract1.sol\":2910:2914  true */\n      0x01\n        /* \"contracts/voting_samartContract1.sol\":2903:2914  return true */\n      swap1\n      pop\n        /* \"contracts/voting_samartContract1.sol\":2609:2921  function isCandidateNotRegistered(address _person)... */\n    tag_197:\n      swap2\n      swap1\n      pop\n      jump\t// out\n    tag_146:\n      mload(0x40)\n      dup1\n      0xc0\n      add\n      0x40\n      mstore\n      dup1\n      0x60\n      dup2\n      mstore\n      0x20\n      add\n      0x00\n      dup2\n      mstore\n      0x20\n      add\n      0x00\n      dup2\n      mstore\n      0x20\n      add\n      0x00\n      0x03\n      dup2\n      gt\n      iszero\n      tag_202\n      jumpi\n      tag_203\n      tag_97\n      jump\t// in\n    tag_203:\n    tag_202:\n      dup2\n      mstore\n      0x20\n      add\n      0x00\n      dup2\n      mstore\n      0x20\n      add\n      and(0xffffffffffffffffffffffffffffffffffffffff, 0x00)\n      dup2\n      mstore\n      pop\n      swap1\n      jump\t// out\n    tag_171:\n      mload(0x40)\n      dup1\n      0xe0\n      add\n      0x40\n      mstore\n      dup1\n      0x60\n      dup2\n      mstore\n      0x20\n      add\n      0x60\n      dup2\n      mstore\n      0x20\n      add\n      0x00\n      dup2\n      mstore\n      0x20\n      add\n      0x00\n      0x03\n      dup2\n      gt\n      iszero\n      tag_204\n      jumpi\n      tag_205\n      tag_97\n      jump\t// in\n    tag_205:\n    tag_204:\n      dup2\n      mstore\n      0x20\n      add\n      0x00\n      dup2\n      mstore\n      0x20\n      add\n      and(0xffffffffffffffffffffffffffffffffffffffff, 0x00)\n      dup2\n      mstore\n      0x20\n      add\n      0x00\n      dup2\n      mstore\n      pop\n      swap1\n      jump\t// out\n        /* \"#utility.yul\":88:205   */\n    tag_207:\n        /* \"#utility.yul\":197:198   */\n      0x00\n        /* \"#utility.yul\":194:195   */\n      0x00\n        /* \"#utility.yul\":187:199   */\n      revert\n        /* \"#utility.yul\":211:328   */\n    tag_208:\n        /* \"#utility.yul\":320:321   */\n      0x00\n        /* \"#utility.yul\":317:318   */\n      0x00\n        /* \"#utility.yul\":310:322   */\n      revert\n        /* \"#utility.yul\":334:411   */\n    tag_209:\n        /* \"#utility.yul\":371:378   */\n      0x00\n        /* \"#utility.yul\":400:405   */\n      dup2\n        /* \"#utility.yul\":389:405   */\n      swap1\n      pop\n        /* \"#utility.yul\":334:411   */\n      swap2\n      swap1\n      pop\n      jump\t// out\n        /* \"#utility.yul\":417:539   */\n    tag_210:\n        /* \"#utility.yul\":490:514   */\n      tag_296\n        /* \"#utility.yul\":508:513   */\n      dup2\n        /* \"#utility.yul\":490:514   */\n      tag_209\n      jump\t// in\n    tag_296:\n        /* \"#utility.yul\":483:488   */\n      dup2\n        /* \"#utility.yul\":480:515   */\n      eq\n        /* \"#utility.yul\":470:533   */\n      tag_297\n      jumpi\n        /* \"#utility.yul\":529:530   */\n      0x00\n        /* \"#utility.yul\":526:527   */\n      0x00\n        /* \"#utility.yul\":519:531   */\n      revert\n        /* \"#utility.yul\":470:533   */\n    tag_297:\n        /* \"#utility.yul\":417:539   */\n      pop\n      jump\t// out\n        /* \"#utility.yul\":545:684   */\n    tag_211:\n        /* \"#utility.yul\":591:596   */\n      0x00\n        /* \"#utility.yul\":629:635   */\n      dup2\n        /* \"#utility.yul\":616:636   */\n      calldataload\n        /* \"#utility.yul\":607:636   */\n      swap1\n      pop\n        /* \"#utility.yul\":645:678   */\n      tag_299\n        /* \"#utility.yul\":672:677   */\n      dup2\n        /* \"#utility.yul\":645:678   */\n      tag_210\n      jump\t// in\n    tag_299:\n        /* \"#utility.yul\":545:684   */\n      swap3\n      swap2\n      pop\n      pop\n      jump\t// out\n        /* \"#utility.yul\":690:1164   */\n    tag_17:\n        /* \"#utility.yul\":758:764   */\n      0x00\n        /* \"#utility.yul\":766:772   */\n      0x00\n        /* \"#utility.yul\":815:817   */\n      0x40\n        /* \"#utility.yul\":803:812   */\n      dup4\n        /* \"#utility.yul\":794:801   */\n      dup6\n        /* \"#utility.yul\":790:813   */\n      sub\n        /* \"#utility.yul\":786:818   */\n      slt\n        /* \"#utility.yul\":783:902   */\n      iszero\n      tag_301\n      jumpi\n        /* \"#utility.yul\":821:900   */\n      tag_302\n      tag_207\n      jump\t// in\n    tag_302:\n        /* \"#utility.yul\":783:902   */\n    tag_301:\n        /* \"#utility.yul\":941:942   */\n      0x00\n        /* \"#utility.yul\":966:1019   */\n      tag_303\n        /* \"#utility.yul\":1011:1018   */\n      dup6\n        /* \"#utility.yul\":1002:1008   */\n      dup3\n        /* \"#utility.yul\":991:1000   */\n      dup7\n        /* \"#utility.yul\":987:1009   */\n      add\n        /* \"#utility.yul\":966:1019   */\n      tag_211\n      jump\t// in\n    tag_303:\n        /* \"#utility.yul\":956:1019   */\n      swap3\n      pop\n        /* \"#utility.yul\":912:1029   */\n      pop\n        /* \"#utility.yul\":1068:1070   */\n      0x20\n        /* \"#utility.yul\":1094:1147   */\n      tag_304\n        /* \"#utility.yul\":1139:1146   */\n      dup6\n        /* \"#utility.yul\":1130:1136   */\n      dup3\n        /* \"#utility.yul\":1119:1128   */\n      dup7\n        /* \"#utility.yul\":1115:1137   */\n      add\n        /* \"#utility.yul\":1094:1147   */\n      tag_211\n      jump\t// in\n    tag_304:\n        /* \"#utility.yul\":1084:1147   */\n      swap2\n      pop\n        /* \"#utility.yul\":1039:1157   */\n      pop\n        /* \"#utility.yul\":690:1164   */\n      swap3\n      pop\n      swap3\n      swap1\n      pop\n      jump\t// out\n        /* \"#utility.yul\":1170:1350   */\n    tag_97:\n        /* \"#utility.yul\":1218:1295   */\n      0x4e487b7100000000000000000000000000000000000000000000000000000000\n        /* \"#utility.yul\":1215:1216   */\n      0x00\n        /* \"#utility.yul\":1208:1296   */\n      mstore\n        /* \"#utility.yul\":1315:1319   */\n      0x21\n        /* \"#utility.yul\":1312:1313   */\n      0x04\n        /* \"#utility.yul\":1305:1320   */\n      mstore\n        /* \"#utility.yul\":1339:1343   */\n      0x24\n        /* \"#utility.yul\":1336:1337   */\n      0x00\n        /* \"#utility.yul\":1329:1344   */\n      revert\n        /* \"#utility.yul\":1356:1476   */\n    tag_212:\n        /* \"#utility.yul\":1444:1445   */\n      0x03\n        /* \"#utility.yul\":1437:1442   */\n      dup2\n        /* \"#utility.yul\":1434:1446   */\n      lt\n        /* \"#utility.yul\":1424:1470   */\n      tag_307\n      jumpi\n        /* \"#utility.yul\":1450:1468   */\n      tag_308\n      tag_97\n      jump\t// in\n    tag_308:\n        /* \"#utility.yul\":1424:1470   */\n    tag_307:\n        /* \"#utility.yul\":1356:1476   */\n      pop\n      jump\t// out\n        /* \"#utility.yul\":1482:1623   */\n    tag_213:\n        /* \"#utility.yul\":1534:1541   */\n      0x00\n        /* \"#utility.yul\":1563:1568   */\n      dup2\n        /* \"#utility.yul\":1552:1568   */\n      swap1\n      pop\n        /* \"#utility.yul\":1569:1617   */\n      tag_310\n        /* \"#utility.yul\":1611:1616   */\n      dup3\n        /* \"#utility.yul\":1569:1617   */\n      tag_212\n      jump\t// in\n    tag_310:\n        /* \"#utility.yul\":1482:1623   */\n      swap2\n      swap1\n      pop\n      jump\t// out\n        /* \"#utility.yul\":1629:1770   */\n    tag_214:\n        /* \"#utility.yul\":1692:1701   */\n      0x00\n        /* \"#utility.yul\":1725:1764   */\n      tag_312\n        /* \"#utility.yul\":1758:1763   */\n      dup3\n        /* \"#utility.yul\":1725:1764   */\n      tag_213\n      jump\t// in\n    tag_312:\n        /* \"#utility.yul\":1712:1764   */\n      swap1\n      pop\n        /* \"#utility.yul\":1629:1770   */\n      swap2\n      swap1\n      pop\n      jump\t// out\n        /* \"#utility.yul\":1776:1933   */\n    tag_215:\n        /* \"#utility.yul\":1876:1926   */\n      tag_314\n        /* \"#utility.yul\":1920:1925   */\n      dup2\n        /* \"#utility.yul\":1876:1926   */\n      tag_214\n      jump\t// in\n    tag_314:\n        /* \"#utility.yul\":1871:1874   */\n      dup3\n        /* \"#utility.yul\":1864:1927   */\n      mstore\n        /* \"#utility.yul\":1776:1933   */\n      pop\n      pop\n      jump\t// out\n        /* \"#utility.yul\":1939:2187   */\n    tag_22:\n        /* \"#utility.yul\":2045:2049   */\n      0x00\n        /* \"#utility.yul\":2083:2085   */\n      0x20\n        /* \"#utility.yul\":2072:2081   */\n      dup3\n        /* \"#utility.yul\":2068:2086   */\n      add\n        /* \"#utility.yul\":2060:2086   */\n      swap1\n      pop\n        /* \"#utility.yul\":2096:2180   */\n      tag_316\n        /* \"#utility.yul\":2177:2178   */\n      0x00\n        /* \"#utility.yul\":2166:2175   */\n      dup4\n        /* \"#utility.yul\":2162:2179   */\n      add\n        /* \"#utility.yul\":2153:2159   */\n      dup5\n        /* \"#utility.yul\":2096:2180   */\n      tag_215\n      jump\t// in\n    tag_316:\n        /* \"#utility.yul\":1939:2187   */\n      swap3\n      swap2\n      pop\n      pop\n      jump\t// out\n        /* \"#utility.yul\":2193:2310   */\n    tag_216:\n        /* \"#utility.yul\":2302:2303   */\n      0x00\n        /* \"#utility.yul\":2299:2300   */\n      0x00\n        /* \"#utility.yul\":2292:2304   */\n      revert\n        /* \"#utility.yul\":2316:2433   */\n    tag_217:\n        /* \"#utility.yul\":2425:2426   */\n      0x00\n        /* \"#utility.yul\":2422:2423   */\n      0x00\n        /* \"#utility.yul\":2415:2427   */\n      revert\n        /* \"#utility.yul\":2439:2556   */\n    tag_218:\n        /* \"#utility.yul\":2548:2549   */\n      0x00\n        /* \"#utility.yul\":2545:2546   */\n      0x00\n        /* \"#utility.yul\":2538:2550   */\n      revert\n        /* \"#utility.yul\":2576:3129   */\n    tag_219:\n        /* \"#utility.yul\":2634:2642   */\n      0x00\n        /* \"#utility.yul\":2644:2650   */\n      0x00\n        /* \"#utility.yul\":2694:2697   */\n      dup4\n        /* \"#utility.yul\":2687:2691   */\n      0x1f\n        /* \"#utility.yul\":2679:2685   */\n      dup5\n        /* \"#utility.yul\":2675:2692   */\n      add\n        /* \"#utility.yul\":2671:2698   */\n      slt\n        /* \"#utility.yul\":2661:2783   */\n      tag_321\n      jumpi\n        /* \"#utility.yul\":2702:2781   */\n      tag_322\n      tag_216\n      jump\t// in\n    tag_322:\n        /* \"#utility.yul\":2661:2783   */\n    tag_321:\n        /* \"#utility.yul\":2815:2821   */\n      dup3\n        /* \"#utility.yul\":2802:2822   */\n      calldataload\n        /* \"#utility.yul\":2792:2822   */\n      swap1\n      pop\n        /* \"#utility.yul\":2845:2863   */\n      0xffffffffffffffff\n        /* \"#utility.yul\":2837:2843   */\n      dup2\n        /* \"#utility.yul\":2834:2864   */\n      gt\n        /* \"#utility.yul\":2831:2948   */\n      iszero\n      tag_323\n      jumpi\n        /* \"#utility.yul\":2867:2946   */\n      tag_324\n      tag_217\n      jump\t// in\n    tag_324:\n        /* \"#utility.yul\":2831:2948   */\n    tag_323:\n        /* \"#utility.yul\":2981:2985   */\n      0x20\n        /* \"#utility.yul\":2973:2979   */\n      dup4\n        /* \"#utility.yul\":2969:2986   */\n      add\n        /* \"#utility.yul\":2957:2986   */\n      swap2\n      pop\n        /* \"#utility.yul\":3035:3038   */\n      dup4\n        /* \"#utility.yul\":3027:3031   */\n      0x01\n        /* \"#utility.yul\":3019:3025   */\n      dup3\n        /* \"#utility.yul\":3015:3032   */\n      mul\n        /* \"#utility.yul\":3005:3013   */\n      dup4\n        /* \"#utility.yul\":3001:3033   */\n      add\n        /* \"#utility.yul\":2998:3039   */\n      gt\n        /* \"#utility.yul\":2995:3123   */\n      iszero\n      tag_325\n      jumpi\n        /* \"#utility.yul\":3042:3121   */\n      tag_326\n      tag_218\n      jump\t// in\n    tag_326:\n        /* \"#utility.yul\":2995:3123   */\n    tag_325:\n        /* \"#utility.yul\":2576:3129   */\n      swap3\n      pop\n      swap3\n      swap1\n      pop\n      jump\t// out\n        /* \"#utility.yul\":3135:3243   */\n    tag_220:\n        /* \"#utility.yul\":3217:3218   */\n      0x04\n        /* \"#utility.yul\":3210:3215   */\n      dup2\n        /* \"#utility.yul\":3207:3219   */\n      lt\n        /* \"#utility.yul\":3197:3237   */\n      tag_328\n      jumpi\n        /* \"#utility.yul\":3233:3234   */\n      0x00\n        /* \"#utility.yul\":3230:3231   */\n      0x00\n        /* \"#utility.yul\":3223:3235   */\n      revert\n        /* \"#utility.yul\":3197:3237   */\n    tag_328:\n        /* \"#utility.yul\":3135:3243   */\n      pop\n      jump\t// out\n        /* \"#utility.yul\":3249:3406   */\n    tag_221:\n        /* \"#utility.yul\":3304:3309   */\n      0x00\n        /* \"#utility.yul\":3342:3348   */\n      dup2\n        /* \"#utility.yul\":3329:3349   */\n      calldataload\n        /* \"#utility.yul\":3320:3349   */\n      swap1\n      pop\n        /* \"#utility.yul\":3358:3400   */\n      tag_330\n        /* \"#utility.yul\":3394:3399   */\n      dup2\n        /* \"#utility.yul\":3358:3400   */\n      tag_220\n      jump\t// in\n    tag_330:\n        /* \"#utility.yul\":3249:3406   */\n      swap3\n      swap2\n      pop\n      pop\n      jump\t// out\n        /* \"#utility.yul\":3412:4249   */\n    tag_27:\n        /* \"#utility.yul\":3510:3516   */\n      0x00\n        /* \"#utility.yul\":3518:3524   */\n      0x00\n        /* \"#utility.yul\":3526:3532   */\n      0x00\n        /* \"#utility.yul\":3534:3540   */\n      0x00\n        /* \"#utility.yul\":3583:3585   */\n      0x60\n        /* \"#utility.yul\":3571:3580   */\n      dup6\n        /* \"#utility.yul\":3562:3569   */\n      dup8\n        /* \"#utility.yul\":3558:3581   */\n      sub\n        /* \"#utility.yul\":3554:3586   */\n      slt\n        /* \"#utility.yul\":3551:3670   */\n      iszero\n      tag_332\n      jumpi\n        /* \"#utility.yul\":3589:3668   */\n      tag_333\n      tag_207\n      jump\t// in\n    tag_333:\n        /* \"#utility.yul\":3551:3670   */\n    tag_332:\n        /* \"#utility.yul\":3737:3738   */\n      0x00\n        /* \"#utility.yul\":3726:3735   */\n      dup6\n        /* \"#utility.yul\":3722:3739   */\n      add\n        /* \"#utility.yul\":3709:3740   */\n      calldataload\n        /* \"#utility.yul\":3767:3785   */\n      0xffffffffffffffff\n        /* \"#utility.yul\":3759:3765   */\n      dup2\n        /* \"#utility.yul\":3756:3786   */\n      gt\n        /* \"#utility.yul\":3753:3870   */\n      iszero\n      tag_334\n      jumpi\n        /* \"#utility.yul\":3789:3868   */\n      tag_335\n      tag_208\n      jump\t// in\n    tag_335:\n        /* \"#utility.yul\":3753:3870   */\n    tag_334:\n        /* \"#utility.yul\":3902:3967   */\n      tag_336\n        /* \"#utility.yul\":3959:3966   */\n      dup8\n        /* \"#utility.yul\":3950:3956   */\n      dup3\n        /* \"#utility.yul\":3939:3948   */\n      dup9\n        /* \"#utility.yul\":3935:3957   */\n      add\n        /* \"#utility.yul\":3902:3967   */\n      tag_219\n      jump\t// in\n    tag_336:\n        /* \"#utility.yul\":3884:3967   */\n      swap5\n      pop\n      swap5\n      pop\n        /* \"#utility.yul\":3680:3977   */\n      pop\n        /* \"#utility.yul\":4016:4018   */\n      0x20\n        /* \"#utility.yul\":4042:4095   */\n      tag_337\n        /* \"#utility.yul\":4087:4094   */\n      dup8\n        /* \"#utility.yul\":4078:4084   */\n      dup3\n        /* \"#utility.yul\":4067:4076   */\n      dup9\n        /* \"#utility.yul\":4063:4085   */\n      add\n        /* \"#utility.yul\":4042:4095   */\n      tag_211\n      jump\t// in\n    tag_337:\n        /* \"#utility.yul\":4032:4095   */\n      swap3\n      pop\n        /* \"#utility.yul\":3987:4105   */\n      pop\n        /* \"#utility.yul\":4144:4146   */\n      0x40\n        /* \"#utility.yul\":4170:4232   */\n      tag_338\n        /* \"#utility.yul\":4224:4231   */\n      dup8\n        /* \"#utility.yul\":4215:4221   */\n      dup3\n        /* \"#utility.yul\":4204:4213   */\n      dup9\n        /* \"#utility.yul\":4200:4222   */\n      add\n        /* \"#utility.yul\":4170:4232   */\n      tag_221\n      jump\t// in\n    tag_338:\n        /* \"#utility.yul\":4160:4232   */\n      swap2\n      pop\n        /* \"#utility.yul\":4115:4242   */\n      pop\n        /* \"#utility.yul\":3412:4249   */\n      swap3\n      swap6\n      swap2\n      swap5\n      pop\n      swap3\n      pop\n      jump\t// out\n        /* \"#utility.yul\":4255:5438   */\n    tag_31:\n        /* \"#utility.yul\":4374:4380   */\n      0x00\n        /* \"#utility.yul\":4382:4388   */\n      0x00\n        /* \"#utility.yul\":4390:4396   */\n      0x00\n        /* \"#utility.yul\":4398:4404   */\n      0x00\n        /* \"#utility.yul\":4406:4412   */\n      0x00\n        /* \"#utility.yul\":4414:4420   */\n      0x00\n        /* \"#utility.yul\":4463:4466   */\n      0x80\n        /* \"#utility.yul\":4451:4460   */\n      dup8\n        /* \"#utility.yul\":4442:4449   */\n      dup10\n        /* \"#utility.yul\":4438:4461   */\n      sub\n        /* \"#utility.yul\":4434:4467   */\n      slt\n        /* \"#utility.yul\":4431:4551   */\n      iszero\n      tag_340\n      jumpi\n        /* \"#utility.yul\":4470:4549   */\n      tag_341\n      tag_207\n      jump\t// in\n    tag_341:\n        /* \"#utility.yul\":4431:4551   */\n    tag_340:\n        /* \"#utility.yul\":4618:4619   */\n      0x00\n        /* \"#utility.yul\":4607:4616   */\n      dup8\n        /* \"#utility.yul\":4603:4620   */\n      add\n        /* \"#utility.yul\":4590:4621   */\n      calldataload\n        /* \"#utility.yul\":4648:4666   */\n      0xffffffffffffffff\n        /* \"#utility.yul\":4640:4646   */\n      dup2\n        /* \"#utility.yul\":4637:4667   */\n      gt\n        /* \"#utility.yul\":4634:4751   */\n      iszero\n      tag_342\n      jumpi\n        /* \"#utility.yul\":4670:4749   */\n      tag_343\n      tag_208\n      jump\t// in\n    tag_343:\n        /* \"#utility.yul\":4634:4751   */\n    tag_342:\n        /* \"#utility.yul\":4783:4848   */\n      tag_344\n        /* \"#utility.yul\":4840:4847   */\n      dup10\n        /* \"#utility.yul\":4831:4837   */\n      dup3\n        /* \"#utility.yul\":4820:4829   */\n      dup11\n        /* \"#utility.yul\":4816:4838   */\n      add\n        /* \"#utility.yul\":4783:4848   */\n      tag_219\n      jump\t// in\n    tag_344:\n        /* \"#utility.yul\":4765:4848   */\n      swap7\n      pop\n      swap7\n      pop\n        /* \"#utility.yul\":4561:4858   */\n      pop\n        /* \"#utility.yul\":4925:4927   */\n      0x20\n        /* \"#utility.yul\":4914:4923   */\n      dup8\n        /* \"#utility.yul\":4910:4928   */\n      add\n        /* \"#utility.yul\":4897:4929   */\n      calldataload\n        /* \"#utility.yul\":4956:4974   */\n      0xffffffffffffffff\n        /* \"#utility.yul\":4948:4954   */\n      dup2\n        /* \"#utility.yul\":4945:4975   */\n      gt\n        /* \"#utility.yul\":4942:5059   */\n      iszero\n      tag_345\n      jumpi\n        /* \"#utility.yul\":4978:5057   */\n      tag_346\n      tag_208\n      jump\t// in\n    tag_346:\n        /* \"#utility.yul\":4942:5059   */\n    tag_345:\n        /* \"#utility.yul\":5091:5156   */\n      tag_347\n        /* \"#utility.yul\":5148:5155   */\n      dup10\n        /* \"#utility.yul\":5139:5145   */\n      dup3\n        /* \"#utility.yul\":5128:5137   */\n      dup11\n        /* \"#utility.yul\":5124:5146   */\n      add\n        /* \"#utility.yul\":5091:5156   */\n      tag_219\n      jump\t// in\n    tag_347:\n        /* \"#utility.yul\":5073:5156   */\n      swap5\n      pop\n      swap5\n      pop\n        /* \"#utility.yul\":4868:5166   */\n      pop\n        /* \"#utility.yul\":5205:5207   */\n      0x40\n        /* \"#utility.yul\":5231:5284   */\n      tag_348\n        /* \"#utility.yul\":5276:5283   */\n      dup10\n        /* \"#utility.yul\":5267:5273   */\n      dup3\n        /* \"#utility.yul\":5256:5265   */\n      dup11\n        /* \"#utility.yul\":5252:5274   */\n      add\n        /* \"#utility.yul\":5231:5284   */\n      tag_211\n      jump\t// in\n    tag_348:\n        /* \"#utility.yul\":5221:5284   */\n      swap3\n      pop\n        /* \"#utility.yul\":5176:5294   */\n      pop\n        /* \"#utility.yul\":5333:5335   */\n      0x60\n        /* \"#utility.yul\":5359:5421   */\n      tag_349\n        /* \"#utility.yul\":5413:5420   */\n      dup10\n        /* \"#utility.yul\":5404:5410   */\n      dup3\n        /* \"#utility.yul\":5393:5402   */\n      dup11\n        /* \"#utility.yul\":5389:5411   */\n      add\n        /* \"#utility.yul\":5359:5421   */\n      tag_221\n      jump\t// in\n    tag_349:\n        /* \"#utility.yul\":5349:5421   */\n      swap2\n      pop\n        /* \"#utility.yul\":5304:5431   */\n      pop\n        /* \"#utility.yul\":4255:5438   */\n      swap3\n      swap6\n      pop\n      swap3\n      swap6\n      pop\n      swap3\n      swap6\n      jump\t// out\n        /* \"#utility.yul\":5444:5570   */\n    tag_222:\n        /* \"#utility.yul\":5481:5488   */\n      0x00\n        /* \"#utility.yul\":5521:5563   */\n      0xffffffffffffffffffffffffffffffffffffffff\n        /* \"#utility.yul\":5514:5519   */\n      dup3\n        /* \"#utility.yul\":5510:5564   */\n      and\n        /* \"#utility.yul\":5499:5564   */\n      swap1\n      pop\n        /* \"#utility.yul\":5444:5570   */\n      swap2\n      swap1\n      pop\n      jump\t// out\n        /* \"#utility.yul\":5576:5672   */\n    tag_223:\n        /* \"#utility.yul\":5613:5620   */\n      0x00\n        /* \"#utility.yul\":5642:5666   */\n      tag_352\n        /* \"#utility.yul\":5660:5665   */\n      dup3\n        /* \"#utility.yul\":5642:5666   */\n      tag_222\n      jump\t// in\n    tag_352:\n        /* \"#utility.yul\":5631:5666   */\n      swap1\n      pop\n        /* \"#utility.yul\":5576:5672   */\n      swap2\n      swap1\n      pop\n      jump\t// out\n        /* \"#utility.yul\":5678:5796   */\n    tag_224:\n        /* \"#utility.yul\":5765:5789   */\n      tag_354\n        /* \"#utility.yul\":5783:5788   */\n      dup2\n        /* \"#utility.yul\":5765:5789   */\n      tag_223\n      jump\t// in\n    tag_354:\n        /* \"#utility.yul\":5760:5763   */\n      dup3\n        /* \"#utility.yul\":5753:5790   */\n      mstore\n        /* \"#utility.yul\":5678:5796   */\n      pop\n      pop\n      jump\t// out\n        /* \"#utility.yul\":5802:6024   */\n    tag_41:\n        /* \"#utility.yul\":5895:5899   */\n      0x00\n        /* \"#utility.yul\":5933:5935   */\n      0x20\n        /* \"#utility.yul\":5922:5931   */\n      dup3\n        /* \"#utility.yul\":5918:5936   */\n      add\n        /* \"#utility.yul\":5910:5936   */\n      swap1\n      pop\n        /* \"#utility.yul\":5946:6017   */\n      tag_356\n        /* \"#utility.yul\":6014:6015   */\n      0x00\n        /* \"#utility.yul\":6003:6012   */\n      dup4\n        /* \"#utility.yul\":5999:6016   */\n      add\n        /* \"#utility.yul\":5990:5996   */\n      dup5\n        /* \"#utility.yul\":5946:6017   */\n      tag_224\n      jump\t// in\n    tag_356:\n        /* \"#utility.yul\":5802:6024   */\n      swap3\n      swap2\n      pop\n      pop\n      jump\t// out\n        /* \"#utility.yul\":6030:6165   */\n    tag_225:\n        /* \"#utility.yul\":6118:6124   */\n      0x00\n        /* \"#utility.yul\":6152:6157   */\n      dup2\n        /* \"#utility.yul\":6146:6158   */\n      mload\n        /* \"#utility.yul\":6136:6158   */\n      swap1\n      pop\n        /* \"#utility.yul\":6030:6165   */\n      swap2\n      swap1\n      pop\n      jump\t// out\n        /* \"#utility.yul\":6171:6376   */\n    tag_226:\n        /* \"#utility.yul\":6291:6302   */\n      0x00\n        /* \"#utility.yul\":6325:6331   */\n      dup3\n        /* \"#utility.yul\":6320:6323   */\n      dup3\n        /* \"#utility.yul\":6313:6332   */\n      mstore\n        /* \"#utility.yul\":6365:6369   */\n      0x20\n        /* \"#utility.yul\":6360:6363   */\n      dup3\n        /* \"#utility.yul\":6356:6370   */\n      add\n        /* \"#utility.yul\":6341:6370   */\n      swap1\n      pop\n        /* \"#utility.yul\":6171:6376   */\n      swap3\n      swap2\n      pop\n      pop\n      jump\t// out\n        /* \"#utility.yul\":6382:6535   */\n    tag_227:\n        /* \"#utility.yul\":6470:6474   */\n      0x00\n        /* \"#utility.yul\":6493:6496   */\n      dup2\n        /* \"#utility.yul\":6485:6496   */\n      swap1\n      pop\n        /* \"#utility.yul\":6523:6527   */\n      0x20\n        /* \"#utility.yul\":6518:6521   */\n      dup3\n        /* \"#utility.yul\":6514:6528   */\n      add\n        /* \"#utility.yul\":6506:6528   */\n      swap1\n      pop\n        /* \"#utility.yul\":6382:6535   */\n      swap2\n      swap1\n      pop\n      jump\t// out\n        /* \"#utility.yul\":6541:6640   */\n    tag_228:\n        /* \"#utility.yul\":6593:6599   */\n      0x00\n        /* \"#utility.yul\":6627:6632   */\n      dup2\n        /* \"#utility.yul\":6621:6633   */\n      mload\n        /* \"#utility.yul\":6611:6633   */\n      swap1\n      pop\n        /* \"#utility.yul\":6541:6640   */\n      swap2\n      swap1\n      pop\n      jump\t// out\n        /* \"#utility.yul\":6646:6805   */\n    tag_229:\n        /* \"#utility.yul\":6720:6731   */\n      0x00\n        /* \"#utility.yul\":6754:6760   */\n      dup3\n        /* \"#utility.yul\":6749:6752   */\n      dup3\n        /* \"#utility.yul\":6742:6761   */\n      mstore\n        /* \"#utility.yul\":6794:6798   */\n      0x20\n        /* \"#utility.yul\":6789:6792   */\n      dup3\n        /* \"#utility.yul\":6785:6799   */\n      add\n        /* \"#utility.yul\":6770:6799   */\n      swap1\n      pop\n        /* \"#utility.yul\":6646:6805   */\n      swap3\n      swap2\n      pop\n      pop\n      jump\t// out\n        /* \"#utility.yul\":6811:6950   */\n    tag_230:\n        /* \"#utility.yul\":6900:6906   */\n      dup3\n        /* \"#utility.yul\":6895:6898   */\n      dup2\n        /* \"#utility.yul\":6890:6893   */\n      dup4\n        /* \"#utility.yul\":6884:6907   */\n      mcopy\n        /* \"#utility.yul\":6941:6942   */\n      0x00\n        /* \"#utility.yul\":6932:6938   */\n      dup4\n        /* \"#utility.yul\":6927:6930   */\n      dup4\n        /* \"#utility.yul\":6923:6939   */\n      add\n        /* \"#utility.yul\":6916:6943   */\n      mstore\n        /* \"#utility.yul\":6811:6950   */\n      pop\n      pop\n      pop\n      jump\t// out\n        /* \"#utility.yul\":6956:7058   */\n    tag_231:\n        /* \"#utility.yul\":6997:7003   */\n      0x00\n        /* \"#utility.yul\":7048:7050   */\n      0x1f\n        /* \"#utility.yul\":7044:7051   */\n      not\n        /* \"#utility.yul\":7039:7041   */\n      0x1f\n        /* \"#utility.yul\":7032:7037   */\n      dup4\n        /* \"#utility.yul\":7028:7042   */\n      add\n        /* \"#utility.yul\":7024:7052   */\n      and\n        /* \"#utility.yul\":7014:7052   */\n      swap1\n      pop\n        /* \"#utility.yul\":6956:7058   */\n      swap2\n      swap1\n      pop\n      jump\t// out\n        /* \"#utility.yul\":7064:7421   */\n    tag_232:\n        /* \"#utility.yul\":7142:7145   */\n      0x00\n        /* \"#utility.yul\":7170:7209   */\n      tag_365\n        /* \"#utility.yul\":7203:7208   */\n      dup3\n        /* \"#utility.yul\":7170:7209   */\n      tag_228\n      jump\t// in\n    tag_365:\n        /* \"#utility.yul\":7225:7286   */\n      tag_366\n        /* \"#utility.yul\":7279:7285   */\n      dup2\n        /* \"#utility.yul\":7274:7277   */\n      dup6\n        /* \"#utility.yul\":7225:7286   */\n      tag_229\n      jump\t// in\n    tag_366:\n        /* \"#utility.yul\":7218:7286   */\n      swap4\n      pop\n        /* \"#utility.yul\":7295:7360   */\n      tag_367\n        /* \"#utility.yul\":7353:7359   */\n      dup2\n        /* \"#utility.yul\":7348:7351   */\n      dup6\n        /* \"#utility.yul\":7341:7345   */\n      0x20\n        /* \"#utility.yul\":7334:7339   */\n      dup7\n        /* \"#utility.yul\":7330:7346   */\n      add\n        /* \"#utility.yul\":7295:7360   */\n      tag_230\n      jump\t// in\n    tag_367:\n        /* \"#utility.yul\":7385:7414   */\n      tag_368\n        /* \"#utility.yul\":7407:7413   */\n      dup2\n        /* \"#utility.yul\":7385:7414   */\n      tag_231\n      jump\t// in\n    tag_368:\n        /* \"#utility.yul\":7380:7383   */\n      dup5\n        /* \"#utility.yul\":7376:7415   */\n      add\n        /* \"#utility.yul\":7369:7415   */\n      swap2\n      pop\n        /* \"#utility.yul\":7146:7421   */\n      pop\n        /* \"#utility.yul\":7064:7421   */\n      swap3\n      swap2\n      pop\n      pop\n      jump\t// out\n        /* \"#utility.yul\":7427:7535   */\n    tag_233:\n        /* \"#utility.yul\":7504:7528   */\n      tag_370\n        /* \"#utility.yul\":7522:7527   */\n      dup2\n        /* \"#utility.yul\":7504:7528   */\n      tag_209\n      jump\t// in\n    tag_370:\n        /* \"#utility.yul\":7499:7502   */\n      dup3\n        /* \"#utility.yul\":7492:7529   */\n      mstore\n        /* \"#utility.yul\":7427:7535   */\n      pop\n      pop\n      jump\t// out\n        /* \"#utility.yul\":7541:7655   */\n    tag_234:\n        /* \"#utility.yul\":7623:7624   */\n      0x04\n        /* \"#utility.yul\":7616:7621   */\n      dup2\n        /* \"#utility.yul\":7613:7625   */\n      lt\n        /* \"#utility.yul\":7603:7649   */\n      tag_372\n      jumpi\n        /* \"#utility.yul\":7629:7647   */\n      tag_373\n      tag_97\n      jump\t// in\n    tag_373:\n        /* \"#utility.yul\":7603:7649   */\n    tag_372:\n        /* \"#utility.yul\":7541:7655   */\n      pop\n      jump\t// out\n        /* \"#utility.yul\":7661:7790   */\n    tag_235:\n        /* \"#utility.yul\":7707:7714   */\n      0x00\n        /* \"#utility.yul\":7736:7741   */\n      dup2\n        /* \"#utility.yul\":7725:7741   */\n      swap1\n      pop\n        /* \"#utility.yul\":7742:7784   */\n      tag_375\n        /* \"#utility.yul\":7778:7783   */\n      dup3\n        /* \"#utility.yul\":7742:7784   */\n      tag_234\n      jump\t// in\n    tag_375:\n        /* \"#utility.yul\":7661:7790   */\n      swap2\n      swap1\n      pop\n      jump\t// out\n        /* \"#utility.yul\":7796:7925   */\n    tag_236:\n        /* \"#utility.yul\":7853:7862   */\n      0x00\n        /* \"#utility.yul\":7886:7919   */\n      tag_377\n        /* \"#utility.yul\":7913:7918   */\n      dup3\n        /* \"#utility.yul\":7886:7919   */\n      tag_235\n      jump\t// in\n    tag_377:\n        /* \"#utility.yul\":7873:7919   */\n      swap1\n      pop\n        /* \"#utility.yul\":7796:7925   */\n      swap2\n      swap1\n      pop\n      jump\t// out\n        /* \"#utility.yul\":7931:8066   */\n    tag_237:\n        /* \"#utility.yul\":8015:8059   */\n      tag_379\n        /* \"#utility.yul\":8053:8058   */\n      dup2\n        /* \"#utility.yul\":8015:8059   */\n      tag_236\n      jump\t// in\n    tag_379:\n        /* \"#utility.yul\":8010:8013   */\n      dup3\n        /* \"#utility.yul\":8003:8060   */\n      mstore\n        /* \"#utility.yul\":7931:8066   */\n      pop\n      pop\n      jump\t// out\n        /* \"#utility.yul\":8072:8180   */\n    tag_238:\n        /* \"#utility.yul\":8149:8173   */\n      tag_381\n        /* \"#utility.yul\":8167:8172   */\n      dup2\n        /* \"#utility.yul\":8149:8173   */\n      tag_223\n      jump\t// in\n    tag_381:\n        /* \"#utility.yul\":8144:8147   */\n      dup3\n        /* \"#utility.yul\":8137:8174   */\n      mstore\n        /* \"#utility.yul\":8072:8180   */\n      pop\n      pop\n      jump\t// out\n        /* \"#utility.yul\":8232:9546   */\n    tag_239:\n        /* \"#utility.yul\":8333:8336   */\n      0x00\n        /* \"#utility.yul\":8369:8373   */\n      0xc0\n        /* \"#utility.yul\":8364:8367   */\n      dup4\n        /* \"#utility.yul\":8360:8374   */\n      add\n        /* \"#utility.yul\":8456:8460   */\n      0x00\n        /* \"#utility.yul\":8449:8454   */\n      dup4\n        /* \"#utility.yul\":8445:8461   */\n      add\n        /* \"#utility.yul\":8439:8462   */\n      mload\n        /* \"#utility.yul\":8509:8512   */\n      dup5\n        /* \"#utility.yul\":8503:8507   */\n      dup3\n        /* \"#utility.yul\":8499:8513   */\n      sub\n        /* \"#utility.yul\":8492:8496   */\n      0x00\n        /* \"#utility.yul\":8487:8490   */\n      dup7\n        /* \"#utility.yul\":8483:8497   */\n      add\n        /* \"#utility.yul\":8476:8514   */\n      mstore\n        /* \"#utility.yul\":8535:8608   */\n      tag_383\n        /* \"#utility.yul\":8603:8607   */\n      dup3\n        /* \"#utility.yul\":8589:8601   */\n      dup3\n        /* \"#utility.yul\":8535:8608   */\n      tag_232\n      jump\t// in\n    tag_383:\n        /* \"#utility.yul\":8527:8608   */\n      swap2\n      pop\n        /* \"#utility.yul\":8384:8619   */\n      pop\n        /* \"#utility.yul\":8700:8704   */\n      0x20\n        /* \"#utility.yul\":8693:8698   */\n      dup4\n        /* \"#utility.yul\":8689:8705   */\n      add\n        /* \"#utility.yul\":8683:8706   */\n      mload\n        /* \"#utility.yul\":8719:8782   */\n      tag_384\n        /* \"#utility.yul\":8776:8780   */\n      0x20\n        /* \"#utility.yul\":8771:8774   */\n      dup7\n        /* \"#utility.yul\":8767:8781   */\n      add\n        /* \"#utility.yul\":8753:8765   */\n      dup3\n        /* \"#utility.yul\":8719:8782   */\n      tag_233\n      jump\t// in\n    tag_384:\n        /* \"#utility.yul\":8629:8792   */\n      pop\n        /* \"#utility.yul\":8877:8881   */\n      0x40\n        /* \"#utility.yul\":8870:8875   */\n      dup4\n        /* \"#utility.yul\":8866:8882   */\n      add\n        /* \"#utility.yul\":8860:8883   */\n      mload\n        /* \"#utility.yul\":8896:8959   */\n      tag_385\n        /* \"#utility.yul\":8953:8957   */\n      0x40\n        /* \"#utility.yul\":8948:8951   */\n      dup7\n        /* \"#utility.yul\":8944:8958   */\n      add\n        /* \"#utility.yul\":8930:8942   */\n      dup3\n        /* \"#utility.yul\":8896:8959   */\n      tag_233\n      jump\t// in\n    tag_385:\n        /* \"#utility.yul\":8802:8969   */\n      pop\n        /* \"#utility.yul\":9053:9057   */\n      0x60\n        /* \"#utility.yul\":9046:9051   */\n      dup4\n        /* \"#utility.yul\":9042:9058   */\n      add\n        /* \"#utility.yul\":9036:9059   */\n      mload\n        /* \"#utility.yul\":9072:9142   */\n      tag_386\n        /* \"#utility.yul\":9136:9140   */\n      0x60\n        /* \"#utility.yul\":9131:9134   */\n      dup7\n        /* \"#utility.yul\":9127:9141   */\n      add\n        /* \"#utility.yul\":9113:9125   */\n      dup3\n        /* \"#utility.yul\":9072:9142   */\n      tag_237\n      jump\t// in\n    tag_386:\n        /* \"#utility.yul\":8979:9152   */\n      pop\n        /* \"#utility.yul\":9245:9249   */\n      0x80\n        /* \"#utility.yul\":9238:9243   */\n      dup4\n        /* \"#utility.yul\":9234:9250   */\n      add\n        /* \"#utility.yul\":9228:9251   */\n      mload\n        /* \"#utility.yul\":9264:9327   */\n      tag_387\n        /* \"#utility.yul\":9321:9325   */\n      0x80\n        /* \"#utility.yul\":9316:9319   */\n      dup7\n        /* \"#utility.yul\":9312:9326   */\n      add\n        /* \"#utility.yul\":9298:9310   */\n      dup3\n        /* \"#utility.yul\":9264:9327   */\n      tag_233\n      jump\t// in\n    tag_387:\n        /* \"#utility.yul\":9162:9337   */\n      pop\n        /* \"#utility.yul\":9427:9431   */\n      0xa0\n        /* \"#utility.yul\":9420:9425   */\n      dup4\n        /* \"#utility.yul\":9416:9432   */\n      add\n        /* \"#utility.yul\":9410:9433   */\n      mload\n        /* \"#utility.yul\":9446:9509   */\n      tag_388\n        /* \"#utility.yul\":9503:9507   */\n      0xa0\n        /* \"#utility.yul\":9498:9501   */\n      dup7\n        /* \"#utility.yul\":9494:9508   */\n      add\n        /* \"#utility.yul\":9480:9492   */\n      dup3\n        /* \"#utility.yul\":9446:9509   */\n      tag_238\n      jump\t// in\n    tag_388:\n        /* \"#utility.yul\":9347:9519   */\n      pop\n        /* \"#utility.yul\":9536:9540   */\n      dup1\n        /* \"#utility.yul\":9529:9540   */\n      swap2\n      pop\n        /* \"#utility.yul\":8338:9546   */\n      pop\n        /* \"#utility.yul\":8232:9546   */\n      swap3\n      swap2\n      pop\n      pop\n      jump\t// out\n        /* \"#utility.yul\":9552:9792   */\n    tag_240:\n        /* \"#utility.yul\":9663:9673   */\n      0x00\n        /* \"#utility.yul\":9698:9786   */\n      tag_390\n        /* \"#utility.yul\":9782:9785   */\n      dup4\n        /* \"#utility.yul\":9774:9780   */\n      dup4\n        /* \"#utility.yul\":9698:9786   */\n      tag_239\n      jump\t// in\n    tag_390:\n        /* \"#utility.yul\":9684:9786   */\n      swap1\n      pop\n        /* \"#utility.yul\":9552:9792   */\n      swap3\n      swap2\n      pop\n      pop\n      jump\t// out\n        /* \"#utility.yul\":9798:9932   */\n    tag_241:\n        /* \"#utility.yul\":9889:9893   */\n      0x00\n        /* \"#utility.yul\":9921:9925   */\n      0x20\n        /* \"#utility.yul\":9916:9919   */\n      dup3\n        /* \"#utility.yul\":9912:9926   */\n      add\n        /* \"#utility.yul\":9904:9926   */\n      swap1\n      pop\n        /* \"#utility.yul\":9798:9932   */\n      swap2\n      swap1\n      pop\n      jump\t// out\n        /* \"#utility.yul\":9988:11067   */\n    tag_242:\n        /* \"#utility.yul\":10149:10152   */\n      0x00\n        /* \"#utility.yul\":10178:10253   */\n      tag_393\n        /* \"#utility.yul\":10247:10252   */\n      dup3\n        /* \"#utility.yul\":10178:10253   */\n      tag_225\n      jump\t// in\n    tag_393:\n        /* \"#utility.yul\":10269:10376   */\n      tag_394\n        /* \"#utility.yul\":10369:10375   */\n      dup2\n        /* \"#utility.yul\":10364:10367   */\n      dup6\n        /* \"#utility.yul\":10269:10376   */\n      tag_226\n      jump\t// in\n    tag_394:\n        /* \"#utility.yul\":10262:10376   */\n      swap4\n      pop\n        /* \"#utility.yul\":10402:10405   */\n      dup4\n        /* \"#utility.yul\":10447:10451   */\n      0x20\n        /* \"#utility.yul\":10439:10445   */\n      dup3\n        /* \"#utility.yul\":10435:10452   */\n      mul\n        /* \"#utility.yul\":10430:10433   */\n      dup6\n        /* \"#utility.yul\":10426:10453   */\n      add\n        /* \"#utility.yul\":10477:10554   */\n      tag_395\n        /* \"#utility.yul\":10548:10553   */\n      dup6\n        /* \"#utility.yul\":10477:10554   */\n      tag_227\n      jump\t// in\n    tag_395:\n        /* \"#utility.yul\":10577:10584   */\n      dup1\n        /* \"#utility.yul\":10608:10609   */\n      0x00\n        /* \"#utility.yul\":10593:11022   */\n    tag_396:\n        /* \"#utility.yul\":10618:10624   */\n      dup6\n        /* \"#utility.yul\":10615:10616   */\n      dup2\n        /* \"#utility.yul\":10612:10625   */\n      lt\n        /* \"#utility.yul\":10593:11022   */\n      iszero\n      tag_398\n      jumpi\n        /* \"#utility.yul\":10689:10698   */\n      dup5\n        /* \"#utility.yul\":10683:10687   */\n      dup5\n        /* \"#utility.yul\":10679:10699   */\n      sub\n        /* \"#utility.yul\":10674:10677   */\n      dup10\n        /* \"#utility.yul\":10667:10700   */\n      mstore\n        /* \"#utility.yul\":10740:10746   */\n      dup2\n        /* \"#utility.yul\":10734:10747   */\n      mload\n        /* \"#utility.yul\":10768:10874   */\n      tag_399\n        /* \"#utility.yul\":10869:10873   */\n      dup6\n        /* \"#utility.yul\":10854:10867   */\n      dup3\n        /* \"#utility.yul\":10768:10874   */\n      tag_240\n      jump\t// in\n    tag_399:\n        /* \"#utility.yul\":10760:10874   */\n      swap5\n      pop\n        /* \"#utility.yul\":10897:10978   */\n      tag_400\n        /* \"#utility.yul\":10971:10977   */\n      dup4\n        /* \"#utility.yul\":10897:10978   */\n      tag_241\n      jump\t// in\n    tag_400:\n        /* \"#utility.yul\":10887:10978   */\n      swap3\n      pop\n        /* \"#utility.yul\":11007:11011   */\n      0x20\n        /* \"#utility.yul\":11002:11005   */\n      dup11\n        /* \"#utility.yul\":10998:11012   */\n      add\n        /* \"#utility.yul\":10991:11012   */\n      swap10\n      pop\n        /* \"#utility.yul\":10653:11022   */\n      pop\n        /* \"#utility.yul\":10640:10641   */\n      0x01\n        /* \"#utility.yul\":10637:10638   */\n      dup2\n        /* \"#utility.yul\":10633:10642   */\n      add\n        /* \"#utility.yul\":10628:10642   */\n      swap1\n      pop\n        /* \"#utility.yul\":10593:11022   */\n      jump(tag_396)\n    tag_398:\n        /* \"#utility.yul\":10597:10611   */\n      pop\n        /* \"#utility.yul\":11038:11042   */\n      dup3\n        /* \"#utility.yul\":11031:11042   */\n      swap8\n      pop\n        /* \"#utility.yul\":11058:11061   */\n      dup8\n        /* \"#utility.yul\":11051:11061   */\n      swap6\n      pop\n        /* \"#utility.yul\":10154:11067   */\n      pop\n      pop\n      pop\n      pop\n      pop\n        /* \"#utility.yul\":9988:11067   */\n      swap3\n      swap2\n      pop\n      pop\n      jump\t// out\n        /* \"#utility.yul\":11073:11530   */\n    tag_45:\n        /* \"#utility.yul\":11258:11262   */\n      0x00\n        /* \"#utility.yul\":11296:11298   */\n      0x20\n        /* \"#utility.yul\":11285:11294   */\n      dup3\n        /* \"#utility.yul\":11281:11299   */\n      add\n        /* \"#utility.yul\":11273:11299   */\n      swap1\n      pop\n        /* \"#utility.yul\":11345:11354   */\n      dup2\n        /* \"#utility.yul\":11339:11343   */\n      dup2\n        /* \"#utility.yul\":11335:11355   */\n      sub\n        /* \"#utility.yul\":11331:11332   */\n      0x00\n        /* \"#utility.yul\":11320:11329   */\n      dup4\n        /* \"#utility.yul\":11316:11333   */\n      add\n        /* \"#utility.yul\":11309:11356   */\n      mstore\n        /* \"#utility.yul\":11373:11523   */\n      tag_402\n        /* \"#utility.yul\":11518:11522   */\n      dup2\n        /* \"#utility.yul\":11509:11515   */\n      dup5\n        /* \"#utility.yul\":11373:11523   */\n      tag_242\n      jump\t// in\n    tag_402:\n        /* \"#utility.yul\":11365:11523   */\n      swap1\n      pop\n        /* \"#utility.yul\":11073:11530   */\n      swap3\n      swap2\n      pop\n      pop\n      jump\t// out\n        /* \"#utility.yul\":11536:11675   */\n    tag_243:\n        /* \"#utility.yul\":11628:11634   */\n      0x00\n        /* \"#utility.yul\":11662:11667   */\n      dup2\n        /* \"#utility.yul\":11656:11668   */\n      mload\n        /* \"#utility.yul\":11646:11668   */\n      swap1\n      pop\n        /* \"#utility.yul\":11536:11675   */\n      swap2\n      swap1\n      pop\n      jump\t// out\n        /* \"#utility.yul\":11681:11890   */\n    tag_244:\n        /* \"#utility.yul\":11805:11816   */\n      0x00\n        /* \"#utility.yul\":11839:11845   */\n      dup3\n        /* \"#utility.yul\":11834:11837   */\n      dup3\n        /* \"#utility.yul\":11827:11846   */\n      mstore\n        /* \"#utility.yul\":11879:11883   */\n      0x20\n        /* \"#utility.yul\":11874:11877   */\n      dup3\n        /* \"#utility.yul\":11870:11884   */\n      add\n        /* \"#utility.yul\":11855:11884   */\n      swap1\n      pop\n        /* \"#utility.yul\":11681:11890   */\n      swap3\n      swap2\n      pop\n      pop\n      jump\t// out\n        /* \"#utility.yul\":11896:12053   */\n    tag_245:\n        /* \"#utility.yul\":11988:11992   */\n      0x00\n        /* \"#utility.yul\":12011:12014   */\n      dup2\n        /* \"#utility.yul\":12003:12014   */\n      swap1\n      pop\n        /* \"#utility.yul\":12041:12045   */\n      0x20\n        /* \"#utility.yul\":12036:12039   */\n      dup3\n        /* \"#utility.yul\":12032:12046   */\n      add\n        /* \"#utility.yul\":12024:12046   */\n      swap1\n      pop\n        /* \"#utility.yul\":11896:12053   */\n      swap2\n      swap1\n      pop\n      jump\t// out\n        /* \"#utility.yul\":12113:13679   */\n    tag_246:\n        /* \"#utility.yul\":12222:12225   */\n      0x00\n        /* \"#utility.yul\":12258:12262   */\n      0xe0\n        /* \"#utility.yul\":12253:12256   */\n      dup4\n        /* \"#utility.yul\":12249:12263   */\n      add\n        /* \"#utility.yul\":12345:12349   */\n      0x00\n        /* \"#utility.yul\":12338:12343   */\n      dup4\n        /* \"#utility.yul\":12334:12350   */\n      add\n        /* \"#utility.yul\":12328:12351   */\n      mload\n        /* \"#utility.yul\":12398:12401   */\n      dup5\n        /* \"#utility.yul\":12392:12396   */\n      dup3\n        /* \"#utility.yul\":12388:12402   */\n      sub\n        /* \"#utility.yul\":12381:12385   */\n      0x00\n        /* \"#utility.yul\":12376:12379   */\n      dup7\n        /* \"#utility.yul\":12372:12386   */\n      add\n        /* \"#utility.yul\":12365:12403   */\n      mstore\n        /* \"#utility.yul\":12424:12497   */\n      tag_407\n        /* \"#utility.yul\":12492:12496   */\n      dup3\n        /* \"#utility.yul\":12478:12490   */\n      dup3\n        /* \"#utility.yul\":12424:12497   */\n      tag_232\n      jump\t// in\n    tag_407:\n        /* \"#utility.yul\":12416:12497   */\n      swap2\n      pop\n        /* \"#utility.yul\":12273:12508   */\n      pop\n        /* \"#utility.yul\":12591:12595   */\n      0x20\n        /* \"#utility.yul\":12584:12589   */\n      dup4\n        /* \"#utility.yul\":12580:12596   */\n      add\n        /* \"#utility.yul\":12574:12597   */\n      mload\n        /* \"#utility.yul\":12644:12647   */\n      dup5\n        /* \"#utility.yul\":12638:12642   */\n      dup3\n        /* \"#utility.yul\":12634:12648   */\n      sub\n        /* \"#utility.yul\":12627:12631   */\n      0x20\n        /* \"#utility.yul\":12622:12625   */\n      dup7\n        /* \"#utility.yul\":12618:12632   */\n      add\n        /* \"#utility.yul\":12611:12649   */\n      mstore\n        /* \"#utility.yul\":12670:12743   */\n      tag_408\n        /* \"#utility.yul\":12738:12742   */\n      dup3\n        /* \"#utility.yul\":12724:12736   */\n      dup3\n        /* \"#utility.yul\":12670:12743   */\n      tag_232\n      jump\t// in\n    tag_408:\n        /* \"#utility.yul\":12662:12743   */\n      swap2\n      pop\n        /* \"#utility.yul\":12518:12754   */\n      pop\n        /* \"#utility.yul\":12835:12839   */\n      0x40\n        /* \"#utility.yul\":12828:12833   */\n      dup4\n        /* \"#utility.yul\":12824:12840   */\n      add\n        /* \"#utility.yul\":12818:12841   */\n      mload\n        /* \"#utility.yul\":12854:12917   */\n      tag_409\n        /* \"#utility.yul\":12911:12915   */\n      0x40\n        /* \"#utility.yul\":12906:12909   */\n      dup7\n        /* \"#utility.yul\":12902:12916   */\n      add\n        /* \"#utility.yul\":12888:12900   */\n      dup3\n        /* \"#utility.yul\":12854:12917   */\n      tag_233\n      jump\t// in\n    tag_409:\n        /* \"#utility.yul\":12764:12927   */\n      pop\n        /* \"#utility.yul\":13011:13015   */\n      0x60\n        /* \"#utility.yul\":13004:13009   */\n      dup4\n        /* \"#utility.yul\":13000:13016   */\n      add\n        /* \"#utility.yul\":12994:13017   */\n      mload\n        /* \"#utility.yul\":13030:13100   */\n      tag_410\n        /* \"#utility.yul\":13094:13098   */\n      0x60\n        /* \"#utility.yul\":13089:13092   */\n      dup7\n        /* \"#utility.yul\":13085:13099   */\n      add\n        /* \"#utility.yul\":13071:13083   */\n      dup3\n        /* \"#utility.yul\":13030:13100   */\n      tag_237\n      jump\t// in\n    tag_410:\n        /* \"#utility.yul\":12937:13110   */\n      pop\n        /* \"#utility.yul\":13199:13203   */\n      0x80\n        /* \"#utility.yul\":13192:13197   */\n      dup4\n        /* \"#utility.yul\":13188:13204   */\n      add\n        /* \"#utility.yul\":13182:13205   */\n      mload\n        /* \"#utility.yul\":13218:13281   */\n      tag_411\n        /* \"#utility.yul\":13275:13279   */\n      0x80\n        /* \"#utility.yul\":13270:13273   */\n      dup7\n        /* \"#utility.yul\":13266:13280   */\n      add\n        /* \"#utility.yul\":13252:13264   */\n      dup3\n        /* \"#utility.yul\":13218:13281   */\n      tag_233\n      jump\t// in\n    tag_411:\n        /* \"#utility.yul\":13120:13291   */\n      pop\n        /* \"#utility.yul\":13385:13389   */\n      0xa0\n        /* \"#utility.yul\":13378:13383   */\n      dup4\n        /* \"#utility.yul\":13374:13390   */\n      add\n        /* \"#utility.yul\":13368:13391   */\n      mload\n        /* \"#utility.yul\":13404:13467   */\n      tag_412\n        /* \"#utility.yul\":13461:13465   */\n      0xa0\n        /* \"#utility.yul\":13456:13459   */\n      dup7\n        /* \"#utility.yul\":13452:13466   */\n      add\n        /* \"#utility.yul\":13438:13450   */\n      dup3\n        /* \"#utility.yul\":13404:13467   */\n      tag_238\n      jump\t// in\n    tag_412:\n        /* \"#utility.yul\":13301:13477   */\n      pop\n        /* \"#utility.yul\":13560:13564   */\n      0xc0\n        /* \"#utility.yul\":13553:13558   */\n      dup4\n        /* \"#utility.yul\":13549:13565   */\n      add\n        /* \"#utility.yul\":13543:13566   */\n      mload\n        /* \"#utility.yul\":13579:13642   */\n      tag_413\n        /* \"#utility.yul\":13636:13640   */\n      0xc0\n        /* \"#utility.yul\":13631:13634   */\n      dup7\n        /* \"#utility.yul\":13627:13641   */\n      add\n        /* \"#utility.yul\":13613:13625   */\n      dup3\n        /* \"#utility.yul\":13579:13642   */\n      tag_233\n      jump\t// in\n    tag_413:\n        /* \"#utility.yul\":13487:13652   */\n      pop\n        /* \"#utility.yul\":13669:13673   */\n      dup1\n        /* \"#utility.yul\":13662:13673   */\n      swap2\n      pop\n        /* \"#utility.yul\":12227:13679   */\n      pop\n        /* \"#utility.yul\":12113:13679   */\n      swap3\n      swap2\n      pop\n      pop\n      jump\t// out\n        /* \"#utility.yul\":13685:13941   */\n    tag_247:\n        /* \"#utility.yul\":13804:13814   */\n      0x00\n        /* \"#utility.yul\":13839:13935   */\n      tag_415\n        /* \"#utility.yul\":13931:13934   */\n      dup4\n        /* \"#utility.yul\":13923:13929   */\n      dup4\n        /* \"#utility.yul\":13839:13935   */\n      tag_246\n      jump\t// in\n    tag_415:\n        /* \"#utility.yul\":13825:13935   */\n      swap1\n      pop\n        /* \"#utility.yul\":13685:13941   */\n      swap3\n      swap2\n      pop\n      pop\n      jump\t// out\n        /* \"#utility.yul\":13947:14085   */\n    tag_248:\n        /* \"#utility.yul\":14042:14046   */\n      0x00\n        /* \"#utility.yul\":14074:14078   */\n      0x20\n        /* \"#utility.yul\":14069:14072   */\n      dup3\n        /* \"#utility.yul\":14065:14079   */\n      add\n        /* \"#utility.yul\":14057:14079   */\n      swap1\n      pop\n        /* \"#utility.yul\":13947:14085   */\n      swap2\n      swap1\n      pop\n      jump\t// out\n        /* \"#utility.yul\":14149:15260   */\n    tag_249:\n        /* \"#utility.yul\":14318:14321   */\n      0x00\n        /* \"#utility.yul\":14347:14426   */\n      tag_418\n        /* \"#utility.yul\":14420:14425   */\n      dup3\n        /* \"#utility.yul\":14347:14426   */\n      tag_243\n      jump\t// in\n    tag_418:\n        /* \"#utility.yul\":14442:14553   */\n      tag_419\n        /* \"#utility.yul\":14546:14552   */\n      dup2\n        /* \"#utility.yul\":14541:14544   */\n      dup6\n        /* \"#utility.yul\":14442:14553   */\n      tag_244\n      jump\t// in\n    tag_419:\n        /* \"#utility.yul\":14435:14553   */\n      swap4\n      pop\n        /* \"#utility.yul\":14579:14582   */\n      dup4\n        /* \"#utility.yul\":14624:14628   */\n      0x20\n        /* \"#utility.yul\":14616:14622   */\n      dup3\n        /* \"#utility.yul\":14612:14629   */\n      mul\n        /* \"#utility.yul\":14607:14610   */\n      dup6\n        /* \"#utility.yul\":14603:14630   */\n      add\n        /* \"#utility.yul\":14654:14735   */\n      tag_420\n        /* \"#utility.yul\":14729:14734   */\n      dup6\n        /* \"#utility.yul\":14654:14735   */\n      tag_245\n      jump\t// in\n    tag_420:\n        /* \"#utility.yul\":14758:14765   */\n      dup1\n        /* \"#utility.yul\":14789:14790   */\n      0x00\n        /* \"#utility.yul\":14774:15215   */\n    tag_421:\n        /* \"#utility.yul\":14799:14805   */\n      dup6\n        /* \"#utility.yul\":14796:14797   */\n      dup2\n        /* \"#utility.yul\":14793:14806   */\n      lt\n        /* \"#utility.yul\":14774:15215   */\n      iszero\n      tag_423\n      jumpi\n        /* \"#utility.yul\":14870:14879   */\n      dup5\n        /* \"#utility.yul\":14864:14868   */\n      dup5\n        /* \"#utility.yul\":14860:14880   */\n      sub\n        /* \"#utility.yul\":14855:14858   */\n      dup10\n        /* \"#utility.yul\":14848:14881   */\n      mstore\n        /* \"#utility.yul\":14921:14927   */\n      dup2\n        /* \"#utility.yul\":14915:14928   */\n      mload\n        /* \"#utility.yul\":14949:15063   */\n      tag_424\n        /* \"#utility.yul\":15058:15062   */\n      dup6\n        /* \"#utility.yul\":15043:15056   */\n      dup3\n        /* \"#utility.yul\":14949:15063   */\n      tag_247\n      jump\t// in\n    tag_424:\n        /* \"#utility.yul\":14941:15063   */\n      swap5\n      pop\n        /* \"#utility.yul\":15086:15171   */\n      tag_425\n        /* \"#utility.yul\":15164:15170   */\n      dup4\n        /* \"#utility.yul\":15086:15171   */\n      tag_248\n      jump\t// in\n    tag_425:\n        /* \"#utility.yul\":15076:15171   */\n      swap3\n      pop\n        /* \"#utility.yul\":15200:15204   */\n      0x20\n        /* \"#utility.yul\":15195:15198   */\n      dup11\n        /* \"#utility.yul\":15191:15205   */\n      add\n        /* \"#utility.yul\":15184:15205   */\n      swap10\n      pop\n        /* \"#utility.yul\":14834:15215   */\n      pop\n        /* \"#utility.yul\":14821:14822   */\n      0x01\n        /* \"#utility.yul\":14818:14819   */\n      dup2\n        /* \"#utility.yul\":14814:14823   */\n      add\n        /* \"#utility.yul\":14809:14823   */\n      swap1\n      pop\n        /* \"#utility.yul\":14774:15215   */\n      jump(tag_421)\n    tag_423:\n        /* \"#utility.yul\":14778:14792   */\n      pop\n        /* \"#utility.yul\":15231:15235   */\n      dup3\n        /* \"#utility.yul\":15224:15235   */\n      swap8\n      pop\n        /* \"#utility.yul\":15251:15254   */\n      dup8\n        /* \"#utility.yul\":15244:15254   */\n      swap6\n      pop\n        /* \"#utility.yul\":14323:15260   */\n      pop\n      pop\n      pop\n      pop\n      pop\n        /* \"#utility.yul\":14149:15260   */\n      swap3\n      swap2\n      pop\n      pop\n      jump\t// out\n        /* \"#utility.yul\":15266:15739   */\n    tag_52:\n        /* \"#utility.yul\":15459:15463   */\n      0x00\n        /* \"#utility.yul\":15497:15499   */\n      0x20\n        /* \"#utility.yul\":15486:15495   */\n      dup3\n        /* \"#utility.yul\":15482:15500   */\n      add\n        /* \"#utility.yul\":15474:15500   */\n      swap1\n      pop\n        /* \"#utility.yul\":15546:15555   */\n      dup2\n        /* \"#utility.yul\":15540:15544   */\n      dup2\n        /* \"#utility.yul\":15536:15556   */\n      sub\n        /* \"#utility.yul\":15532:15533   */\n      0x00\n        /* \"#utility.yul\":15521:15530   */\n      dup4\n        /* \"#utility.yul\":15517:15534   */\n      add\n        /* \"#utility.yul\":15510:15557   */\n      mstore\n        /* \"#utility.yul\":15574:15732   */\n      tag_427\n        /* \"#utility.yul\":15727:15731   */\n      dup2\n        /* \"#utility.yul\":15718:15724   */\n      dup5\n        /* \"#utility.yul\":15574:15732   */\n      tag_249\n      jump\t// in\n    tag_427:\n        /* \"#utility.yul\":15566:15732   */\n      swap1\n      pop\n        /* \"#utility.yul\":15266:15739   */\n      swap3\n      swap2\n      pop\n      pop\n      jump\t// out\n        /* \"#utility.yul\":15745:15914   */\n    tag_250:\n        /* \"#utility.yul\":15829:15840   */\n      0x00\n        /* \"#utility.yul\":15863:15869   */\n      dup3\n        /* \"#utility.yul\":15858:15861   */\n      dup3\n        /* \"#utility.yul\":15851:15870   */\n      mstore\n        /* \"#utility.yul\":15903:15907   */\n      0x20\n        /* \"#utility.yul\":15898:15901   */\n      dup3\n        /* \"#utility.yul\":15894:15908   */\n      add\n        /* \"#utility.yul\":15879:15908   */\n      swap1\n      pop\n        /* \"#utility.yul\":15745:15914   */\n      swap3\n      swap2\n      pop\n      pop\n      jump\t// out\n        /* \"#utility.yul\":15920:16089   */\n    tag_251:\n        /* \"#utility.yul\":16060:16081   */\n      0x566f74696e672074696d65206973206f76657200000000000000000000000000\n        /* \"#utility.yul\":16056:16057   */\n      0x00\n        /* \"#utility.yul\":16048:16054   */\n      dup3\n        /* \"#utility.yul\":16044:16058   */\n      add\n        /* \"#utility.yul\":16037:16082   */\n      mstore\n        /* \"#utility.yul\":15920:16089   */\n      pop\n      jump\t// out\n        /* \"#utility.yul\":16095:16461   */\n    tag_252:\n        /* \"#utility.yul\":16237:16240   */\n      0x00\n        /* \"#utility.yul\":16258:16325   */\n      tag_431\n        /* \"#utility.yul\":16322:16324   */\n      0x13\n        /* \"#utility.yul\":16317:16320   */\n      dup4\n        /* \"#utility.yul\":16258:16325   */\n      tag_250\n      jump\t// in\n    tag_431:\n        /* \"#utility.yul\":16251:16325   */\n      swap2\n      pop\n        /* \"#utility.yul\":16334:16427   */\n      tag_432\n        /* \"#utility.yul\":16423:16426   */\n      dup3\n        /* \"#utility.yul\":16334:16427   */\n      tag_251\n      jump\t// in\n    tag_432:\n        /* \"#utility.yul\":16452:16454   */\n      0x20\n        /* \"#utility.yul\":16447:16450   */\n      dup3\n        /* \"#utility.yul\":16443:16455   */\n      add\n        /* \"#utility.yul\":16436:16455   */\n      swap1\n      pop\n        /* \"#utility.yul\":16095:16461   */\n      swap2\n      swap1\n      pop\n      jump\t// out\n        /* \"#utility.yul\":16467:16886   */\n    tag_57:\n        /* \"#utility.yul\":16633:16637   */\n      0x00\n        /* \"#utility.yul\":16671:16673   */\n      0x20\n        /* \"#utility.yul\":16660:16669   */\n      dup3\n        /* \"#utility.yul\":16656:16674   */\n      add\n        /* \"#utility.yul\":16648:16674   */\n      swap1\n      pop\n        /* \"#utility.yul\":16720:16729   */\n      dup2\n        /* \"#utility.yul\":16714:16718   */\n      dup2\n        /* \"#utility.yul\":16710:16730   */\n      sub\n        /* \"#utility.yul\":16706:16707   */\n      0x00\n        /* \"#utility.yul\":16695:16704   */\n      dup4\n        /* \"#utility.yul\":16691:16708   */\n      add\n        /* \"#utility.yul\":16684:16731   */\n      mstore\n        /* \"#utility.yul\":16748:16879   */\n      tag_434\n        /* \"#utility.yul\":16874:16878   */\n      dup2\n        /* \"#utility.yul\":16748:16879   */\n      tag_252\n      jump\t// in\n    tag_434:\n        /* \"#utility.yul\":16740:16879   */\n      swap1\n      pop\n        /* \"#utility.yul\":16467:16886   */\n      swap2\n      swap1\n      pop\n      jump\t// out\n        /* \"#utility.yul\":16892:17063   */\n    tag_253:\n        /* \"#utility.yul\":17032:17055   */\n      0x796f75206861766520616c726561647920766f74650000000000000000000000\n        /* \"#utility.yul\":17028:17029   */\n      0x00\n        /* \"#utility.yul\":17020:17026   */\n      dup3\n        /* \"#utility.yul\":17016:17030   */\n      add\n        /* \"#utility.yul\":17009:17056   */\n      mstore\n        /* \"#utility.yul\":16892:17063   */\n      pop\n      jump\t// out\n        /* \"#utility.yul\":17069:17435   */\n    tag_254:\n        /* \"#utility.yul\":17211:17214   */\n      0x00\n        /* \"#utility.yul\":17232:17299   */\n      tag_437\n        /* \"#utility.yul\":17296:17298   */\n      0x15\n        /* \"#utility.yul\":17291:17294   */\n      dup4\n        /* \"#utility.yul\":17232:17299   */\n      tag_250\n      jump\t// in\n    tag_437:\n        /* \"#utility.yul\":17225:17299   */\n      swap2\n      pop\n        /* \"#utility.yul\":17308:17401   */\n      tag_438\n        /* \"#utility.yul\":17397:17400   */\n      dup3\n        /* \"#utility.yul\":17308:17401   */\n      tag_253\n      jump\t// in\n    tag_438:\n        /* \"#utility.yul\":17426:17428   */\n      0x20\n        /* \"#utility.yul\":17421:17424   */\n      dup3\n        /* \"#utility.yul\":17417:17429   */\n      add\n        /* \"#utility.yul\":17410:17429   */\n      swap1\n      pop\n        /* \"#utility.yul\":17069:17435   */\n      swap2\n      swap1\n      pop\n      jump\t// out\n        /* \"#utility.yul\":17441:17860   */\n    tag_61:\n        /* \"#utility.yul\":17607:17611   */\n      0x00\n        /* \"#utility.yul\":17645:17647   */\n      0x20\n        /* \"#utility.yul\":17634:17643   */\n      dup3\n        /* \"#utility.yul\":17630:17648   */\n      add\n        /* \"#utility.yul\":17622:17648   */\n      swap1\n      pop\n        /* \"#utility.yul\":17694:17703   */\n      dup2\n        /* \"#utility.yul\":17688:17692   */\n      dup2\n        /* \"#utility.yul\":17684:17704   */\n      sub\n        /* \"#utility.yul\":17680:17681   */\n      0x00\n        /* \"#utility.yul\":17669:17678   */\n      dup4\n        /* \"#utility.yul\":17665:17682   */\n      add\n        /* \"#utility.yul\":17658:17705   */\n      mstore\n        /* \"#utility.yul\":17722:17853   */\n      tag_440\n        /* \"#utility.yul\":17848:17852   */\n      dup2\n        /* \"#utility.yul\":17722:17853   */\n      tag_254\n      jump\t// in\n    tag_440:\n        /* \"#utility.yul\":17714:17853   */\n      swap1\n      pop\n        /* \"#utility.yul\":17441:17860   */\n      swap2\n      swap1\n      pop\n      jump\t// out\n        /* \"#utility.yul\":17866:18047   */\n    tag_255:\n        /* \"#utility.yul\":18006:18039   */\n      0x596f7520646f6e742062656c6f6e6720746f2074686973206163636f756e7400\n        /* \"#utility.yul\":18002:18003   */\n      0x00\n        /* \"#utility.yul\":17994:18000   */\n      dup3\n        /* \"#utility.yul\":17990:18004   */\n      add\n        /* \"#utility.yul\":17983:18040   */\n      mstore\n        /* \"#utility.yul\":17866:18047   */\n      pop\n      jump\t// out\n        /* \"#utility.yul\":18053:18419   */\n    tag_256:\n        /* \"#utility.yul\":18195:18198   */\n      0x00\n        /* \"#utility.yul\":18216:18283   */\n      tag_443\n        /* \"#utility.yul\":18280:18282   */\n      0x1f\n        /* \"#utility.yul\":18275:18278   */\n      dup4\n        /* \"#utility.yul\":18216:18283   */\n      tag_250\n      jump\t// in\n    tag_443:\n        /* \"#utility.yul\":18209:18283   */\n      swap2\n      pop\n        /* \"#utility.yul\":18292:18385   */\n      tag_444\n        /* \"#utility.yul\":18381:18384   */\n      dup3\n        /* \"#utility.yul\":18292:18385   */\n      tag_255\n      jump\t// in\n    tag_444:\n        /* \"#utility.yul\":18410:18412   */\n      0x20\n        /* \"#utility.yul\":18405:18408   */\n      dup3\n        /* \"#utility.yul\":18401:18413   */\n      add\n        /* \"#utility.yul\":18394:18413   */\n      swap1\n      pop\n        /* \"#utility.yul\":18053:18419   */\n      swap2\n      swap1\n      pop\n      jump\t// out\n        /* \"#utility.yul\":18425:18844   */\n    tag_64:\n        /* \"#utility.yul\":18591:18595   */\n      0x00\n        /* \"#utility.yul\":18629:18631   */\n      0x20\n        /* \"#utility.yul\":18618:18627   */\n      dup3\n        /* \"#utility.yul\":18614:18632   */\n      add\n        /* \"#utility.yul\":18606:18632   */\n      swap1\n      pop\n        /* \"#utility.yul\":18678:18687   */\n      dup2\n        /* \"#utility.yul\":18672:18676   */\n      dup2\n        /* \"#utility.yul\":18668:18688   */\n      sub\n        /* \"#utility.yul\":18664:18665   */\n      0x00\n        /* \"#utility.yul\":18653:18662   */\n      dup4\n        /* \"#utility.yul\":18649:18666   */\n      add\n        /* \"#utility.yul\":18642:18689   */\n      mstore\n        /* \"#utility.yul\":18706:18837   */\n      tag_446\n        /* \"#utility.yul\":18832:18836   */\n      dup2\n        /* \"#utility.yul\":18706:18837   */\n      tag_256\n      jump\t// in\n    tag_446:\n        /* \"#utility.yul\":18698:18837   */\n      swap1\n      pop\n        /* \"#utility.yul\":18425:18844   */\n      swap2\n      swap1\n      pop\n      jump\t// out\n        /* \"#utility.yul\":18850:19024   */\n    tag_257:\n        /* \"#utility.yul\":18990:19016   */\n      0x43616e646964617465206973206e6f7420636f72726563740000000000000000\n        /* \"#utility.yul\":18986:18987   */\n      0x00\n        /* \"#utility.yul\":18978:18984   */\n      dup3\n        /* \"#utility.yul\":18974:18988   */\n      add\n        /* \"#utility.yul\":18967:19017   */\n      mstore\n        /* \"#utility.yul\":18850:19024   */\n      pop\n      jump\t// out\n        /* \"#utility.yul\":19030:19396   */\n    tag_258:\n        /* \"#utility.yul\":19172:19175   */\n      0x00\n        /* \"#utility.yul\":19193:19260   */\n      tag_449\n        /* \"#utility.yul\":19257:19259   */\n      0x18\n        /* \"#utility.yul\":19252:19255   */\n      dup4\n        /* \"#utility.yul\":19193:19260   */\n      tag_250\n      jump\t// in\n    tag_449:\n        /* \"#utility.yul\":19186:19260   */\n      swap2\n      pop\n        /* \"#utility.yul\":19269:19362   */\n      tag_450\n        /* \"#utility.yul\":19358:19361   */\n      dup3\n        /* \"#utility.yul\":19269:19362   */\n      tag_257\n      jump\t// in\n    tag_450:\n        /* \"#utility.yul\":19387:19389   */\n      0x20\n        /* \"#utility.yul\":19382:19385   */\n      dup3\n        /* \"#utility.yul\":19378:19390   */\n      add\n        /* \"#utility.yul\":19371:19390   */\n      swap1\n      pop\n        /* \"#utility.yul\":19030:19396   */\n      swap2\n      swap1\n      pop\n      jump\t// out\n        /* \"#utility.yul\":19402:19821   */\n    tag_68:\n        /* \"#utility.yul\":19568:19572   */\n      0x00\n        /* \"#utility.yul\":19606:19608   */\n      0x20\n        /* \"#utility.yul\":19595:19604   */\n      dup3\n        /* \"#utility.yul\":19591:19609   */\n      add\n        /* \"#utility.yul\":19583:19609   */\n      swap1\n      pop\n        /* \"#utility.yul\":19655:19664   */\n      dup2\n        /* \"#utility.yul\":19649:19653   */\n      dup2\n        /* \"#utility.yul\":19645:19665   */\n      sub\n        /* \"#utility.yul\":19641:19642   */\n      0x00\n        /* \"#utility.yul\":19630:19639   */\n      dup4\n        /* \"#utility.yul\":19626:19643   */\n      add\n        /* \"#utility.yul\":19619:19666   */\n      mstore\n        /* \"#utility.yul\":19683:19814   */\n      tag_452\n        /* \"#utility.yul\":19809:19813   */\n      dup2\n        /* \"#utility.yul\":19683:19814   */\n      tag_258\n      jump\t// in\n    tag_452:\n        /* \"#utility.yul\":19675:19814   */\n      swap1\n      pop\n        /* \"#utility.yul\":19402:19821   */\n      swap2\n      swap1\n      pop\n      jump\t// out\n        /* \"#utility.yul\":19827:20007   */\n    tag_259:\n        /* \"#utility.yul\":19875:19952   */\n      0x4e487b7100000000000000000000000000000000000000000000000000000000\n        /* \"#utility.yul\":19872:19873   */\n      0x00\n        /* \"#utility.yul\":19865:19953   */\n      mstore\n        /* \"#utility.yul\":19972:19976   */\n      0x11\n        /* \"#utility.yul\":19969:19970   */\n      0x04\n        /* \"#utility.yul\":19962:19977   */\n      mstore\n        /* \"#utility.yul\":19996:20000   */\n      0x24\n        /* \"#utility.yul\":19993:19994   */\n      0x00\n        /* \"#utility.yul\":19986:20001   */\n      revert\n        /* \"#utility.yul\":20013:20246   */\n    tag_70:\n        /* \"#utility.yul\":20052:20055   */\n      0x00\n        /* \"#utility.yul\":20075:20099   */\n      tag_455\n        /* \"#utility.yul\":20093:20098   */\n      dup3\n        /* \"#utility.yul\":20075:20099   */\n      tag_209\n      jump\t// in\n    tag_455:\n        /* \"#utility.yul\":20066:20099   */\n      swap2\n      pop\n        /* \"#utility.yul\":20121:20187   */\n      0xffffffffffffffffffffffffffffffffffffffffffffffffffffffffffffffff\n        /* \"#utility.yul\":20114:20119   */\n      dup3\n        /* \"#utility.yul\":20111:20188   */\n      sub\n        /* \"#utility.yul\":20108:20211   */\n      tag_456\n      jumpi\n        /* \"#utility.yul\":20191:20209   */\n      tag_457\n      tag_259\n      jump\t// in\n    tag_457:\n        /* \"#utility.yul\":20108:20211   */\n    tag_456:\n        /* \"#utility.yul\":20238:20239   */\n      0x01\n        /* \"#utility.yul\":20231:20236   */\n      dup3\n        /* \"#utility.yul\":20227:20240   */\n      add\n        /* \"#utility.yul\":20220:20240   */\n      swap1\n      pop\n        /* \"#utility.yul\":20013:20246   */\n      swap2\n      swap1\n      pop\n      jump\t// out\n        /* \"#utility.yul\":20252:20417   */\n    tag_260:\n        /* \"#utility.yul\":20392:20409   */\n      0x4e6f742061757468756f72697a65640000000000000000000000000000000000\n        /* \"#utility.yul\":20388:20389   */\n      0x00\n        /* \"#utility.yul\":20380:20386   */\n      dup3\n        /* \"#utility.yul\":20376:20390   */\n      add\n        /* \"#utility.yul\":20369:20410   */\n      mstore\n        /* \"#utility.yul\":20252:20417   */\n      pop\n      jump\t// out\n        /* \"#utility.yul\":20423:20789   */\n    tag_261:\n        /* \"#utility.yul\":20565:20568   */\n      0x00\n        /* \"#utility.yul\":20586:20653   */\n      tag_460\n        /* \"#utility.yul\":20650:20652   */\n      0x0f\n        /* \"#utility.yul\":20645:20648   */\n      dup4\n        /* \"#utility.yul\":20586:20653   */\n      tag_250\n      jump\t// in\n    tag_460:\n        /* \"#utility.yul\":20579:20653   */\n      swap2\n      pop\n        /* \"#utility.yul\":20662:20755   */\n      tag_461\n        /* \"#utility.yul\":20751:20754   */\n      dup3\n        /* \"#utility.yul\":20662:20755   */\n      tag_260\n      jump\t// in\n    tag_461:\n        /* \"#utility.yul\":20780:20782   */\n      0x20\n        /* \"#utility.yul\":20775:20778   */\n      dup3\n        /* \"#utility.yul\":20771:20783   */\n      add\n        /* \"#utility.yul\":20764:20783   */\n      swap1\n      pop\n        /* \"#utility.yul\":20423:20789   */\n      swap2\n      swap1\n      pop\n      jump\t// out\n        /* \"#utility.yul\":20795:21214   */\n    tag_80:\n        /* \"#utility.yul\":20961:20965   */\n      0x00\n        /* \"#utility.yul\":20999:21001   */\n      0x20\n        /* \"#utility.yul\":20988:20997   */\n      dup3\n        /* \"#utility.yul\":20984:21002   */\n      add\n        /* \"#utility.yul\":20976:21002   */\n      swap1\n      pop\n        /* \"#utility.yul\":21048:21057   */\n      dup2\n        /* \"#utility.yul\":21042:21046   */\n      dup2\n        /* \"#utility.yul\":21038:21058   */\n      sub\n        /* \"#utility.yul\":21034:21035   */\n      0x00\n        /* \"#utility.yul\":21023:21032   */\n      dup4\n        /* \"#utility.yul\":21019:21036   */\n      add\n        /* \"#utility.yul\":21012:21059   */\n      mstore\n        /* \"#utility.yul\":21076:21207   */\n      tag_463\n        /* \"#utility.yul\":21202:21206   */\n      dup2\n        /* \"#utility.yul\":21076:21207   */\n      tag_261\n      jump\t// in\n    tag_463:\n        /* \"#utility.yul\":21068:21207   */\n      swap1\n      pop\n        /* \"#utility.yul\":20795:21214   */\n      swap2\n      swap1\n      pop\n      jump\t// out\n        /* \"#utility.yul\":21220:21384   */\n    tag_262:\n        /* \"#utility.yul\":21360:21376   */\n      0x4e6f20766f74657320636173742e000000000000000000000000000000000000\n        /* \"#utility.yul\":21356:21357   */\n      0x00\n        /* \"#utility.yul\":21348:21354   */\n      dup3\n        /* \"#utility.yul\":21344:21358   */\n      add\n        /* \"#utility.yul\":21337:21377   */\n      mstore\n        /* \"#utility.yul\":21220:21384   */\n      pop\n      jump\t// out\n        /* \"#utility.yul\":21390:21756   */\n    tag_263:\n        /* \"#utility.yul\":21532:21535   */\n      0x00\n        /* \"#utility.yul\":21553:21620   */\n      tag_466\n        /* \"#utility.yul\":21617:21619   */\n      0x0e\n        /* \"#utility.yul\":21612:21615   */\n      dup4\n        /* \"#utility.yul\":21553:21620   */\n      tag_250\n      jump\t// in\n    tag_466:\n        /* \"#utility.yul\":21546:21620   */\n      swap2\n      pop\n        /* \"#utility.yul\":21629:21722   */\n      tag_467\n        /* \"#utility.yul\":21718:21721   */\n      dup3\n        /* \"#utility.yul\":21629:21722   */\n      tag_262\n      jump\t// in\n    tag_467:\n        /* \"#utility.yul\":21747:21749   */\n      0x20\n        /* \"#utility.yul\":21742:21745   */\n      dup3\n        /* \"#utility.yul\":21738:21750   */\n      add\n        /* \"#utility.yul\":21731:21750   */\n      swap1\n      pop\n        /* \"#utility.yul\":21390:21756   */\n      swap2\n      swap1\n      pop\n      jump\t// out\n        /* \"#utility.yul\":21762:22181   */\n    tag_88:\n        /* \"#utility.yul\":21928:21932   */\n      0x00\n        /* \"#utility.yul\":21966:21968   */\n      0x20\n        /* \"#utility.yul\":21955:21964   */\n      dup3\n        /* \"#utility.yul\":21951:21969   */\n      add\n        /* \"#utility.yul\":21943:21969   */\n      swap1\n      pop\n        /* \"#utility.yul\":22015:22024   */\n      dup2\n        /* \"#utility.yul\":22009:22013   */\n      dup2\n        /* \"#utility.yul\":22005:22025   */\n      sub\n        /* \"#utility.yul\":22001:22002   */\n      0x00\n        /* \"#utility.yul\":21990:21999   */\n      dup4\n        /* \"#utility.yul\":21986:22003   */\n      add\n        /* \"#utility.yul\":21979:22026   */\n      mstore\n        /* \"#utility.yul\":22043:22174   */\n      tag_469\n        /* \"#utility.yul\":22169:22173   */\n      dup2\n        /* \"#utility.yul\":22043:22174   */\n      tag_263\n      jump\t// in\n    tag_469:\n        /* \"#utility.yul\":22035:22174   */\n      swap1\n      pop\n        /* \"#utility.yul\":21762:22181   */\n      swap2\n      swap1\n      pop\n      jump\t// out\n        /* \"#utility.yul\":22187:22359   */\n    tag_264:\n        /* \"#utility.yul\":22327:22351   */\n      0x596f75206861766520616c726561647920566f74656400000000000000000000\n        /* \"#utility.yul\":22323:22324   */\n      0x00\n        /* \"#utility.yul\":22315:22321   */\n      dup3\n        /* \"#utility.yul\":22311:22325   */\n      add\n        /* \"#utility.yul\":22304:22352   */\n      mstore\n        /* \"#utility.yul\":22187:22359   */\n      pop\n      jump\t// out\n        /* \"#utility.yul\":22365:22731   */\n    tag_265:\n        /* \"#utility.yul\":22507:22510   */\n      0x00\n        /* \"#utility.yul\":22528:22595   */\n      tag_472\n        /* \"#utility.yul\":22592:22594   */\n      0x16\n        /* \"#utility.yul\":22587:22590   */\n      dup4\n        /* \"#utility.yul\":22528:22595   */\n      tag_250\n      jump\t// in\n    tag_472:\n        /* \"#utility.yul\":22521:22595   */\n      swap2\n      pop\n        /* \"#utility.yul\":22604:22697   */\n      tag_473\n        /* \"#utility.yul\":22693:22696   */\n      dup3\n        /* \"#utility.yul\":22604:22697   */\n      tag_264\n      jump\t// in\n    tag_473:\n        /* \"#utility.yul\":22722:22724   */\n      0x20\n        /* \"#utility.yul\":22717:22720   */\n      dup3\n        /* \"#utility.yul\":22713:22725   */\n      add\n        /* \"#utility.yul\":22706:22725   */\n      swap1\n      pop\n        /* \"#utility.yul\":22365:22731   */\n      swap2\n      swap1\n      pop\n      jump\t// out\n        /* \"#utility.yul\":22737:23156   */\n    tag_94:\n        /* \"#utility.yul\":22903:22907   */\n      0x00\n        /* \"#utility.yul\":22941:22943   */\n      0x20\n        /* \"#utility.yul\":22930:22939   */\n      dup3\n        /* \"#utility.yul\":22926:22944   */\n      add\n        /* \"#utility.yul\":22918:22944   */\n      swap1\n      pop\n        /* \"#utility.yul\":22990:22999   */\n      dup2\n        /* \"#utility.yul\":22984:22988   */\n      dup2\n        /* \"#utility.yul\":22980:23000   */\n      sub\n        /* \"#utility.yul\":22976:22977   */\n      0x00\n        /* \"#utility.yul\":22965:22974   */\n      dup4\n        /* \"#utility.yul\":22961:22978   */\n      add\n        /* \"#utility.yul\":22954:23001   */\n      mstore\n        /* \"#utility.yul\":23018:23149   */\n      tag_475\n        /* \"#utility.yul\":23144:23148   */\n      dup2\n        /* \"#utility.yul\":23018:23149   */\n      tag_265\n      jump\t// in\n    tag_475:\n        /* \"#utility.yul\":23010:23149   */\n      swap1\n      pop\n        /* \"#utility.yul\":22737:23156   */\n      swap2\n      swap1\n      pop\n      jump\t// out\n        /* \"#utility.yul\":23162:23342   */\n    tag_142:\n        /* \"#utility.yul\":23210:23287   */\n      0x4e487b7100000000000000000000000000000000000000000000000000000000\n        /* \"#utility.yul\":23207:23208   */\n      0x00\n        /* \"#utility.yul\":23200:23288   */\n      mstore\n        /* \"#utility.yul\":23307:23311   */\n      0x41\n        /* \"#utility.yul\":23304:23305   */\n      0x04\n        /* \"#utility.yul\":23297:23312   */\n      mstore\n        /* \"#utility.yul\":23331:23335   */\n      0x24\n        /* \"#utility.yul\":23328:23329   */\n      0x00\n        /* \"#utility.yul\":23321:23336   */\n      revert\n        /* \"#utility.yul\":23348:23528   */\n    tag_266:\n        /* \"#utility.yul\":23396:23473   */\n      0x4e487b7100000000000000000000000000000000000000000000000000000000\n        /* \"#utility.yul\":23393:23394   */\n      0x00\n        /* \"#utility.yul\":23386:23474   */\n      mstore\n        /* \"#utility.yul\":23493:23497   */\n      0x22\n        /* \"#utility.yul\":23490:23491   */\n      0x04\n        /* \"#utility.yul\":23483:23498   */\n      mstore\n        /* \"#utility.yul\":23517:23521   */\n      0x24\n        /* \"#utility.yul\":23514:23515   */\n      0x00\n        /* \"#utility.yul\":23507:23522   */\n      revert\n        /* \"#utility.yul\":23534:23854   */\n    tag_152:\n        /* \"#utility.yul\":23578:23584   */\n      0x00\n        /* \"#utility.yul\":23615:23616   */\n      0x02\n        /* \"#utility.yul\":23609:23613   */\n      dup3\n        /* \"#utility.yul\":23605:23617   */\n      div\n        /* \"#utility.yul\":23595:23617   */\n      swap1\n      pop\n        /* \"#utility.yul\":23662:23663   */\n      0x01\n        /* \"#utility.yul\":23656:23660   */\n      dup3\n        /* \"#utility.yul\":23652:23664   */\n      and\n        /* \"#utility.yul\":23683:23701   */\n      dup1\n        /* \"#utility.yul\":23673:23754   */\n      tag_479\n      jumpi\n        /* \"#utility.yul\":23739:23743   */\n      0x7f\n        /* \"#utility.yul\":23731:23737   */\n      dup3\n        /* \"#utility.yul\":23727:23744   */\n      and\n        /* \"#utility.yul\":23717:23744   */\n      swap2\n      pop\n        /* \"#utility.yul\":23673:23754   */\n    tag_479:\n        /* \"#utility.yul\":23801:23803   */\n      0x20\n        /* \"#utility.yul\":23793:23799   */\n      dup3\n        /* \"#utility.yul\":23790:23804   */\n      lt\n        /* \"#utility.yul\":23770:23788   */\n      dup2\n        /* \"#utility.yul\":23767:23805   */\n      sub\n        /* \"#utility.yul\":23764:23848   */\n      tag_480\n      jumpi\n        /* \"#utility.yul\":23820:23838   */\n      tag_481\n      tag_266\n      jump\t// in\n    tag_481:\n        /* \"#utility.yul\":23764:23848   */\n    tag_480:\n        /* \"#utility.yul\":23585:23854   */\n      pop\n        /* \"#utility.yul\":23534:23854   */\n      swap2\n      swap1\n      pop\n      jump\t// out\n        /* \"#utility.yul\":23860:24001   */\n    tag_267:\n        /* \"#utility.yul\":23909:23913   */\n      0x00\n        /* \"#utility.yul\":23932:23935   */\n      dup2\n        /* \"#utility.yul\":23924:23935   */\n      swap1\n      pop\n        /* \"#utility.yul\":23955:23958   */\n      dup2\n        /* \"#utility.yul\":23952:23953   */\n      0x00\n        /* \"#utility.yul\":23945:23959   */\n      mstore\n        /* \"#utility.yul\":23989:23993   */\n      0x20\n        /* \"#utility.yul\":23986:23987   */\n      0x00\n        /* \"#utility.yul\":23976:23994   */\n      keccak256\n        /* \"#utility.yul\":23968:23994   */\n      swap1\n      pop\n        /* \"#utility.yul\":23860:24001   */\n      swap2\n      swap1\n      pop\n      jump\t// out\n        /* \"#utility.yul\":24007:24100   */\n    tag_268:\n        /* \"#utility.yul\":24044:24050   */\n      0x00\n        /* \"#utility.yul\":24091:24093   */\n      0x20\n        /* \"#utility.yul\":24086:24088   */\n      0x1f\n        /* \"#utility.yul\":24079:24084   */\n      dup4\n        /* \"#utility.yul\":24075:24089   */\n      add\n        /* \"#utility.yul\":24071:24094   */\n      div\n        /* \"#utility.yul\":24061:24094   */\n      swap1\n      pop\n        /* \"#utility.yul\":24007:24100   */\n      swap2\n      swap1\n      pop\n      jump\t// out\n        /* \"#utility.yul\":24106:24213   */\n    tag_269:\n        /* \"#utility.yul\":24150:24158   */\n      0x00\n        /* \"#utility.yul\":24200:24205   */\n      dup3\n        /* \"#utility.yul\":24194:24198   */\n      dup3\n        /* \"#utility.yul\":24190:24206   */\n      shl\n        /* \"#utility.yul\":24169:24206   */\n      swap1\n      pop\n        /* \"#utility.yul\":24106:24213   */\n      swap3\n      swap2\n      pop\n      pop\n      jump\t// out\n        /* \"#utility.yul\":24219:24612   */\n    tag_270:\n        /* \"#utility.yul\":24288:24294   */\n      0x00\n        /* \"#utility.yul\":24338:24339   */\n      0x08\n        /* \"#utility.yul\":24326:24336   */\n      dup4\n        /* \"#utility.yul\":24322:24340   */\n      mul\n        /* \"#utility.yul\":24361:24458   */\n      tag_486\n        /* \"#utility.yul\":24391:24457   */\n      0xffffffffffffffffffffffffffffffffffffffffffffffffffffffffffffffff\n        /* \"#utility.yul\":24380:24389   */\n      dup3\n        /* \"#utility.yul\":24361:24458   */\n      tag_269\n      jump\t// in\n    tag_486:\n        /* \"#utility.yul\":24479:24518   */\n      tag_487\n        /* \"#utility.yul\":24509:24517   */\n      dup7\n        /* \"#utility.yul\":24498:24507   */\n      dup4\n        /* \"#utility.yul\":24479:24518   */\n      tag_269\n      jump\t// in\n    tag_487:\n        /* \"#utility.yul\":24467:24518   */\n      swap6\n      pop\n        /* \"#utility.yul\":24551:24555   */\n      dup1\n        /* \"#utility.yul\":24547:24556   */\n      not\n        /* \"#utility.yul\":24540:24545   */\n      dup5\n        /* \"#utility.yul\":24536:24557   */\n      and\n        /* \"#utility.yul\":24527:24557   */\n      swap4\n      pop\n        /* \"#utility.yul\":24600:24604   */\n      dup1\n        /* \"#utility.yul\":24590:24598   */\n      dup7\n        /* \"#utility.yul\":24586:24605   */\n      and\n        /* \"#utility.yul\":24579:24584   */\n      dup5\n        /* \"#utility.yul\":24576:24606   */\n      or\n        /* \"#utility.yul\":24566:24606   */\n      swap3\n      pop\n        /* \"#utility.yul\":24295:24612   */\n      pop\n      pop\n        /* \"#utility.yul\":24219:24612   */\n      swap4\n      swap3\n      pop\n      pop\n      pop\n      jump\t// out\n        /* \"#utility.yul\":24618:24678   */\n    tag_271:\n        /* \"#utility.yul\":24646:24649   */\n      0x00\n        /* \"#utility.yul\":24667:24672   */\n      dup2\n        /* \"#utility.yul\":24660:24672   */\n      swap1\n      pop\n        /* \"#utility.yul\":24618:24678   */\n      swap2\n      swap1\n      pop\n      jump\t// out\n        /* \"#utility.yul\":24684:24826   */\n    tag_272:\n        /* \"#utility.yul\":24734:24743   */\n      0x00\n        /* \"#utility.yul\":24767:24820   */\n      tag_490\n        /* \"#utility.yul\":24785:24819   */\n      tag_491\n        /* \"#utility.yul\":24794:24818   */\n      tag_492\n        /* \"#utility.yul\":24812:24817   */\n      dup5\n        /* \"#utility.yul\":24794:24818   */\n      tag_209\n      jump\t// in\n    tag_492:\n        /* \"#utility.yul\":24785:24819   */\n      tag_271\n      jump\t// in\n    tag_491:\n        /* \"#utility.yul\":24767:24820   */\n      tag_209\n      jump\t// in\n    tag_490:\n        /* \"#utility.yul\":24754:24820   */\n      swap1\n      pop\n        /* \"#utility.yul\":24684:24826   */\n      swap2\n      swap1\n      pop\n      jump\t// out\n        /* \"#utility.yul\":24832:24907   */\n    tag_273:\n        /* \"#utility.yul\":24875:24878   */\n      0x00\n        /* \"#utility.yul\":24896:24901   */\n      dup2\n        /* \"#utility.yul\":24889:24901   */\n      swap1\n      pop\n        /* \"#utility.yul\":24832:24907   */\n      swap2\n      swap1\n      pop\n      jump\t// out\n        /* \"#utility.yul\":24913:25182   */\n    tag_274:\n        /* \"#utility.yul\":25023:25062   */\n      tag_495\n        /* \"#utility.yul\":25054:25061   */\n      dup4\n        /* \"#utility.yul\":25023:25062   */\n      tag_272\n      jump\t// in\n    tag_495:\n        /* \"#utility.yul\":25084:25175   */\n      tag_496\n        /* \"#utility.yul\":25133:25174   */\n      tag_497\n        /* \"#utility.yul\":25157:25173   */\n      dup3\n        /* \"#utility.yul\":25133:25174   */\n      tag_273\n      jump\t// in\n    tag_497:\n        /* \"#utility.yul\":25125:25131   */\n      dup5\n        /* \"#utility.yul\":25118:25122   */\n      dup5\n        /* \"#utility.yul\":25112:25123   */\n      sload\n        /* \"#utility.yul\":25084:25175   */\n      tag_270\n      jump\t// in\n    tag_496:\n        /* \"#utility.yul\":25078:25082   */\n      dup3\n        /* \"#utility.yul\":25071:25176   */\n      sstore\n        /* \"#utility.yul\":24989:25182   */\n      pop\n        /* \"#utility.yul\":24913:25182   */\n      pop\n      pop\n      pop\n      jump\t// out\n        /* \"#utility.yul\":25188:25261   */\n    tag_275:\n        /* \"#utility.yul\":25233:25236   */\n      0x00\n        /* \"#utility.yul\":25254:25255   */\n      0x00\n        /* \"#utility.yul\":25247:25255   */\n      swap1\n      pop\n        /* \"#utility.yul\":25188:25261   */\n      swap1\n      jump\t// out\n        /* \"#utility.yul\":25267:25456   */\n    tag_276:\n        /* \"#utility.yul\":25344:25376   */\n      tag_500\n      tag_275\n      jump\t// in\n    tag_500:\n        /* \"#utility.yul\":25385:25450   */\n      tag_501\n        /* \"#utility.yul\":25443:25449   */\n      dup2\n        /* \"#utility.yul\":25435:25441   */\n      dup5\n        /* \"#utility.yul\":25429:25433   */\n      dup5\n        /* \"#utility.yul\":25385:25450   */\n      tag_274\n      jump\t// in\n    tag_501:\n        /* \"#utility.yul\":25320:25456   */\n      pop\n        /* \"#utility.yul\":25267:25456   */\n      pop\n      pop\n      jump\t// out\n        /* \"#utility.yul\":25462:25648   */\n    tag_277:\n        /* \"#utility.yul\":25522:25642   */\n    tag_503:\n        /* \"#utility.yul\":25539:25542   */\n      dup2\n        /* \"#utility.yul\":25532:25537   */\n      dup2\n        /* \"#utility.yul\":25529:25543   */\n      lt\n        /* \"#utility.yul\":25522:25642   */\n      iszero\n      tag_505\n      jumpi\n        /* \"#utility.yul\":25593:25632   */\n      tag_506\n        /* \"#utility.yul\":25630:25631   */\n      0x00\n        /* \"#utility.yul\":25623:25628   */\n      dup3\n        /* \"#utility.yul\":25593:25632   */\n      tag_276\n      jump\t// in\n    tag_506:\n        /* \"#utility.yul\":25566:25567   */\n      0x01\n        /* \"#utility.yul\":25559:25564   */\n      dup2\n        /* \"#utility.yul\":25555:25568   */\n      add\n        /* \"#utility.yul\":25546:25568   */\n      swap1\n      pop\n        /* \"#utility.yul\":25522:25642   */\n      jump(tag_503)\n    tag_505:\n        /* \"#utility.yul\":25462:25648   */\n      pop\n      pop\n      jump\t// out\n        /* \"#utility.yul\":25654:26197   */\n    tag_278:\n        /* \"#utility.yul\":25755:25757   */\n      0x1f\n        /* \"#utility.yul\":25750:25753   */\n      dup3\n        /* \"#utility.yul\":25747:25758   */\n      gt\n        /* \"#utility.yul\":25744:26190   */\n      iszero\n      tag_508\n      jumpi\n        /* \"#utility.yul\":25789:25827   */\n      tag_509\n        /* \"#utility.yul\":25821:25826   */\n      dup2\n        /* \"#utility.yul\":25789:25827   */\n      tag_267\n      jump\t// in\n    tag_509:\n        /* \"#utility.yul\":25873:25902   */\n      tag_510\n        /* \"#utility.yul\":25891:25901   */\n      dup5\n        /* \"#utility.yul\":25873:25902   */\n      tag_268\n      jump\t// in\n    tag_510:\n        /* \"#utility.yul\":25863:25871   */\n      dup2\n        /* \"#utility.yul\":25859:25903   */\n      add\n        /* \"#utility.yul\":26056:26058   */\n      0x20\n        /* \"#utility.yul\":26044:26054   */\n      dup6\n        /* \"#utility.yul\":26041:26059   */\n      lt\n        /* \"#utility.yul\":26038:26087   */\n      iszero\n      tag_511\n      jumpi\n        /* \"#utility.yul\":26077:26085   */\n      dup2\n        /* \"#utility.yul\":26062:26085   */\n      swap1\n      pop\n        /* \"#utility.yul\":26038:26087   */\n    tag_511:\n        /* \"#utility.yul\":26100:26180   */\n      tag_512\n        /* \"#utility.yul\":26156:26178   */\n      tag_513\n        /* \"#utility.yul\":26174:26177   */\n      dup6\n        /* \"#utility.yul\":26156:26178   */\n      tag_268\n      jump\t// in\n    tag_513:\n        /* \"#utility.yul\":26146:26154   */\n      dup4\n        /* \"#utility.yul\":26142:26179   */\n      add\n        /* \"#utility.yul\":26129:26140   */\n      dup3\n        /* \"#utility.yul\":26100:26180   */\n      tag_277\n      jump\t// in\n    tag_512:\n        /* \"#utility.yul\":25759:26190   */\n      pop\n      pop\n        /* \"#utility.yul\":25744:26190   */\n    tag_508:\n        /* \"#utility.yul\":25654:26197   */\n      pop\n      pop\n      pop\n      jump\t// out\n        /* \"#utility.yul\":26203:26320   */\n    tag_279:\n        /* \"#utility.yul\":26257:26265   */\n      0x00\n        /* \"#utility.yul\":26307:26312   */\n      dup3\n        /* \"#utility.yul\":26301:26305   */\n      dup3\n        /* \"#utility.yul\":26297:26313   */\n      shr\n        /* \"#utility.yul\":26276:26313   */\n      swap1\n      pop\n        /* \"#utility.yul\":26203:26320   */\n      swap3\n      swap2\n      pop\n      pop\n      jump\t// out\n        /* \"#utility.yul\":26326:26495   */\n    tag_280:\n        /* \"#utility.yul\":26370:26376   */\n      0x00\n        /* \"#utility.yul\":26403:26454   */\n      tag_516\n        /* \"#utility.yul\":26451:26452   */\n      0x00\n        /* \"#utility.yul\":26447:26453   */\n      not\n        /* \"#utility.yul\":26439:26444   */\n      dup5\n        /* \"#utility.yul\":26436:26437   */\n      0x08\n        /* \"#utility.yul\":26432:26445   */\n      mul\n        /* \"#utility.yul\":26403:26454   */\n      tag_279\n      jump\t// in\n    tag_516:\n        /* \"#utility.yul\":26399:26455   */\n      not\n        /* \"#utility.yul\":26484:26488   */\n      dup1\n        /* \"#utility.yul\":26478:26482   */\n      dup4\n        /* \"#utility.yul\":26474:26489   */\n      and\n        /* \"#utility.yul\":26464:26489   */\n      swap2\n      pop\n        /* \"#utility.yul\":26377:26495   */\n      pop\n        /* \"#utility.yul\":26326:26495   */\n      swap3\n      swap2\n      pop\n      pop\n      jump\t// out\n        /* \"#utility.yul\":26500:26795   */\n    tag_281:\n        /* \"#utility.yul\":26576:26580   */\n      0x00\n        /* \"#utility.yul\":26722:26751   */\n      tag_518\n        /* \"#utility.yul\":26747:26750   */\n      dup4\n        /* \"#utility.yul\":26741:26745   */\n      dup4\n        /* \"#utility.yul\":26722:26751   */\n      tag_280\n      jump\t// in\n    tag_518:\n        /* \"#utility.yul\":26714:26751   */\n      swap2\n      pop\n        /* \"#utility.yul\":26784:26787   */\n      dup3\n        /* \"#utility.yul\":26781:26782   */\n      0x02\n        /* \"#utility.yul\":26777:26788   */\n      mul\n        /* \"#utility.yul\":26771:26775   */\n      dup3\n        /* \"#utility.yul\":26768:26789   */\n      or\n        /* \"#utility.yul\":26760:26789   */\n      swap1\n      pop\n        /* \"#utility.yul\":26500:26795   */\n      swap3\n      swap2\n      pop\n      pop\n      jump\t// out\n        /* \"#utility.yul\":26800:28195   */\n    tag_99:\n        /* \"#utility.yul\":26917:26954   */\n      tag_520\n        /* \"#utility.yul\":26950:26953   */\n      dup3\n        /* \"#utility.yul\":26917:26954   */\n      tag_228\n      jump\t// in\n    tag_520:\n        /* \"#utility.yul\":27019:27037   */\n      0xffffffffffffffff\n        /* \"#utility.yul\":27011:27017   */\n      dup2\n        /* \"#utility.yul\":27008:27038   */\n      gt\n        /* \"#utility.yul\":27005:27061   */\n      iszero\n      tag_521\n      jumpi\n        /* \"#utility.yul\":27041:27059   */\n      tag_522\n      tag_142\n      jump\t// in\n    tag_522:\n        /* \"#utility.yul\":27005:27061   */\n    tag_521:\n        /* \"#utility.yul\":27085:27123   */\n      tag_523\n        /* \"#utility.yul\":27117:27121   */\n      dup3\n        /* \"#utility.yul\":27111:27122   */\n      sload\n        /* \"#utility.yul\":27085:27123   */\n      tag_152\n      jump\t// in\n    tag_523:\n        /* \"#utility.yul\":27170:27237   */\n      tag_524\n        /* \"#utility.yul\":27230:27236   */\n      dup3\n        /* \"#utility.yul\":27222:27228   */\n      dup3\n        /* \"#utility.yul\":27216:27220   */\n      dup6\n        /* \"#utility.yul\":27170:27237   */\n      tag_278\n      jump\t// in\n    tag_524:\n        /* \"#utility.yul\":27264:27265   */\n      0x00\n        /* \"#utility.yul\":27288:27292   */\n      0x20\n        /* \"#utility.yul\":27275:27292   */\n      swap1\n      pop\n        /* \"#utility.yul\":27320:27322   */\n      0x1f\n        /* \"#utility.yul\":27312:27318   */\n      dup4\n        /* \"#utility.yul\":27309:27323   */\n      gt\n        /* \"#utility.yul\":27337:27338   */\n      0x01\n        /* \"#utility.yul\":27332:27950   */\n      dup2\n      eq\n      tag_526\n      jumpi\n        /* \"#utility.yul\":27994:27995   */\n      0x00\n        /* \"#utility.yul\":28011:28017   */\n      dup5\n        /* \"#utility.yul\":28008:28085   */\n      iszero\n      tag_527\n      jumpi\n        /* \"#utility.yul\":28060:28069   */\n      dup3\n        /* \"#utility.yul\":28055:28058   */\n      dup8\n        /* \"#utility.yul\":28051:28070   */\n      add\n        /* \"#utility.yul\":28045:28071   */\n      mload\n        /* \"#utility.yul\":28036:28071   */\n      swap1\n      pop\n        /* \"#utility.yul\":28008:28085   */\n    tag_527:\n        /* \"#utility.yul\":28111:28178   */\n      tag_528\n        /* \"#utility.yul\":28171:28177   */\n      dup6\n        /* \"#utility.yul\":28164:28169   */\n      dup3\n        /* \"#utility.yul\":28111:28178   */\n      tag_281\n      jump\t// in\n    tag_528:\n        /* \"#utility.yul\":28105:28109   */\n      dup7\n        /* \"#utility.yul\":28098:28179   */\n      sstore\n        /* \"#utility.yul\":27967:28189   */\n      pop\n        /* \"#utility.yul\":27302:28189   */\n      jump(tag_525)\n        /* \"#utility.yul\":27332:27950   */\n    tag_526:\n        /* \"#utility.yul\":27384:27388   */\n      0x1f\n        /* \"#utility.yul\":27380:27389   */\n      not\n        /* \"#utility.yul\":27372:27378   */\n      dup5\n        /* \"#utility.yul\":27368:27390   */\n      and\n        /* \"#utility.yul\":27418:27455   */\n      tag_529\n        /* \"#utility.yul\":27450:27454   */\n      dup7\n        /* \"#utility.yul\":27418:27455   */\n      tag_267\n      jump\t// in\n    tag_529:\n        /* \"#utility.yul\":27477:27478   */\n      0x00\n        /* \"#utility.yul\":27491:27699   */\n    tag_530:\n        /* \"#utility.yul\":27505:27512   */\n      dup3\n        /* \"#utility.yul\":27502:27503   */\n      dup2\n        /* \"#utility.yul\":27499:27513   */\n      lt\n        /* \"#utility.yul\":27491:27699   */\n      iszero\n      tag_532\n      jumpi\n        /* \"#utility.yul\":27584:27593   */\n      dup5\n        /* \"#utility.yul\":27579:27582   */\n      dup10\n        /* \"#utility.yul\":27575:27594   */\n      add\n        /* \"#utility.yul\":27569:27595   */\n      mload\n        /* \"#utility.yul\":27561:27567   */\n      dup3\n        /* \"#utility.yul\":27554:27596   */\n      sstore\n        /* \"#utility.yul\":27635:27636   */\n      0x01\n        /* \"#utility.yul\":27627:27633   */\n      dup3\n        /* \"#utility.yul\":27623:27637   */\n      add\n        /* \"#utility.yul\":27613:27637   */\n      swap2\n      pop\n        /* \"#utility.yul\":27682:27684   */\n      0x20\n        /* \"#utility.yul\":27671:27680   */\n      dup6\n        /* \"#utility.yul\":27667:27685   */\n      add\n        /* \"#utility.yul\":27654:27685   */\n      swap5\n      pop\n        /* \"#utility.yul\":27528:27532   */\n      0x20\n        /* \"#utility.yul\":27525:27526   */\n      dup2\n        /* \"#utility.yul\":27521:27533   */\n      add\n        /* \"#utility.yul\":27516:27533   */\n      swap1\n      pop\n        /* \"#utility.yul\":27491:27699   */\n      jump(tag_530)\n    tag_532:\n        /* \"#utility.yul\":27727:27733   */\n      dup7\n        /* \"#utility.yul\":27718:27725   */\n      dup4\n        /* \"#utility.yul\":27715:27734   */\n      lt\n        /* \"#utility.yul\":27712:27891   */\n      iszero\n      tag_533\n      jumpi\n        /* \"#utility.yul\":27785:27794   */\n      dup5\n        /* \"#utility.yul\":27780:27783   */\n      dup10\n        /* \"#utility.yul\":27776:27795   */\n      add\n        /* \"#utility.yul\":27770:27796   */\n      mload\n        /* \"#utility.yul\":27828:27876   */\n      tag_534\n        /* \"#utility.yul\":27870:27874   */\n      0x1f\n        /* \"#utility.yul\":27862:27868   */\n      dup10\n        /* \"#utility.yul\":27858:27875   */\n      and\n        /* \"#utility.yul\":27847:27856   */\n      dup3\n        /* \"#utility.yul\":27828:27876   */\n      tag_280\n      jump\t// in\n    tag_534:\n        /* \"#utility.yul\":27820:27826   */\n      dup4\n        /* \"#utility.yul\":27813:27877   */\n      sstore\n        /* \"#utility.yul\":27735:27891   */\n      pop\n        /* \"#utility.yul\":27712:27891   */\n    tag_533:\n        /* \"#utility.yul\":27937:27938   */\n      0x01\n        /* \"#utility.yul\":27933:27934   */\n      0x02\n        /* \"#utility.yul\":27925:27931   */\n      dup9\n        /* \"#utility.yul\":27921:27935   */\n      mul\n        /* \"#utility.yul\":27917:27939   */\n      add\n        /* \"#utility.yul\":27911:27915   */\n      dup9\n        /* \"#utility.yul\":27904:27940   */\n      sstore\n        /* \"#utility.yul\":27339:27950   */\n      pop\n      pop\n      pop\n        /* \"#utility.yul\":27302:28189   */\n    tag_525:\n      pop\n        /* \"#utility.yul\":26892:28195   */\n      pop\n      pop\n      pop\n        /* \"#utility.yul\":26800:28195   */\n      pop\n      pop\n      jump\t// out\n        /* \"#utility.yul\":28201:28370   */\n    tag_282:\n        /* \"#utility.yul\":28341:28362   */\n      0x596f7520617265206e6f7420456c6967626c6500000000000000000000000000\n        /* \"#utility.yul\":28337:28338   */\n      0x00\n        /* \"#utility.yul\":28329:28335   */\n      dup3\n        /* \"#utility.yul\":28325:28339   */\n      add\n        /* \"#utility.yul\":28318:28363   */\n      mstore\n        /* \"#utility.yul\":28201:28370   */\n      pop\n      jump\t// out\n        /* \"#utility.yul\":28376:28742   */\n    tag_283:\n        /* \"#utility.yul\":28518:28521   */\n      0x00\n        /* \"#utility.yul\":28539:28606   */\n      tag_537\n        /* \"#utility.yul\":28603:28605   */\n      0x13\n        /* \"#utility.yul\":28598:28601   */\n      dup4\n        /* \"#utility.yul\":28539:28606   */\n      tag_250\n      jump\t// in\n    tag_537:\n        /* \"#utility.yul\":28532:28606   */\n      swap2\n      pop\n        /* \"#utility.yul\":28615:28708   */\n      tag_538\n        /* \"#utility.yul\":28704:28707   */\n      dup3\n        /* \"#utility.yul\":28615:28708   */\n      tag_282\n      jump\t// in\n    tag_538:\n        /* \"#utility.yul\":28733:28735   */\n      0x20\n        /* \"#utility.yul\":28728:28731   */\n      dup3\n        /* \"#utility.yul\":28724:28736   */\n      add\n        /* \"#utility.yul\":28717:28736   */\n      swap1\n      pop\n        /* \"#utility.yul\":28376:28742   */\n      swap2\n      swap1\n      pop\n      jump\t// out\n        /* \"#utility.yul\":28748:29167   */\n    tag_106:\n        /* \"#utility.yul\":28914:28918   */\n      0x00\n        /* \"#utility.yul\":28952:28954   */\n      0x20\n        /* \"#utility.yul\":28941:28950   */\n      dup3\n        /* \"#utility.yul\":28937:28955   */\n      add\n        /* \"#utility.yul\":28929:28955   */\n      swap1\n      pop\n        /* \"#utility.yul\":29001:29010   */\n      dup2\n        /* \"#utility.yul\":28995:28999   */\n      dup2\n        /* \"#utility.yul\":28991:29011   */\n      sub\n        /* \"#utility.yul\":28987:28988   */\n      0x00\n        /* \"#utility.yul\":28976:28985   */\n      dup4\n        /* \"#utility.yul\":28972:28989   */\n      add\n        /* \"#utility.yul\":28965:29012   */\n      mstore\n        /* \"#utility.yul\":29029:29160   */\n      tag_540\n        /* \"#utility.yul\":29155:29159   */\n      dup2\n        /* \"#utility.yul\":29029:29160   */\n      tag_283\n      jump\t// in\n    tag_540:\n        /* \"#utility.yul\":29021:29160   */\n      swap1\n      pop\n        /* \"#utility.yul\":28748:29167   */\n      swap2\n      swap1\n      pop\n      jump\t// out\n        /* \"#utility.yul\":29173:29350   */\n    tag_284:\n        /* \"#utility.yul\":29313:29342   */\n      0x596f75206861766520616c726561647920726567697374657265640000000000\n        /* \"#utility.yul\":29309:29310   */\n      0x00\n        /* \"#utility.yul\":29301:29307   */\n      dup3\n        /* \"#utility.yul\":29297:29311   */\n      add\n        /* \"#utility.yul\":29290:29343   */\n      mstore\n        /* \"#utility.yul\":29173:29350   */\n      pop\n      jump\t// out\n        /* \"#utility.yul\":29356:29722   */\n    tag_285:\n        /* \"#utility.yul\":29498:29501   */\n      0x00\n        /* \"#utility.yul\":29519:29586   */\n      tag_543\n        /* \"#utility.yul\":29583:29585   */\n      0x1b\n        /* \"#utility.yul\":29578:29581   */\n      dup4\n        /* \"#utility.yul\":29519:29586   */\n      tag_250\n      jump\t// in\n    tag_543:\n        /* \"#utility.yul\":29512:29586   */\n      swap2\n      pop\n        /* \"#utility.yul\":29595:29688   */\n      tag_544\n        /* \"#utility.yul\":29684:29687   */\n      dup3\n        /* \"#utility.yul\":29595:29688   */\n      tag_284\n      jump\t// in\n    tag_544:\n        /* \"#utility.yul\":29713:29715   */\n      0x20\n        /* \"#utility.yul\":29708:29711   */\n      dup3\n        /* \"#utility.yul\":29704:29716   */\n      add\n        /* \"#utility.yul\":29697:29716   */\n      swap1\n      pop\n        /* \"#utility.yul\":29356:29722   */\n      swap2\n      swap1\n      pop\n      jump\t// out\n        /* \"#utility.yul\":29728:30147   */\n    tag_112:\n        /* \"#utility.yul\":29894:29898   */\n      0x00\n        /* \"#utility.yul\":29932:29934   */\n      0x20\n        /* \"#utility.yul\":29921:29930   */\n      dup3\n        /* \"#utility.yul\":29917:29935   */\n      add\n        /* \"#utility.yul\":29909:29935   */\n      swap1\n      pop\n        /* \"#utility.yul\":29981:29990   */\n      dup2\n        /* \"#utility.yul\":29975:29979   */\n      dup2\n        /* \"#utility.yul\":29971:29991   */\n      sub\n        /* \"#utility.yul\":29967:29968   */\n      0x00\n        /* \"#utility.yul\":29956:29965   */\n      dup4\n        /* \"#utility.yul\":29952:29969   */\n      add\n        /* \"#utility.yul\":29945:29992   */\n      mstore\n        /* \"#utility.yul\":30009:30140   */\n      tag_546\n        /* \"#utility.yul\":30135:30139   */\n      dup2\n        /* \"#utility.yul\":30009:30140   */\n      tag_285\n      jump\t// in\n    tag_546:\n        /* \"#utility.yul\":30001:30140   */\n      swap1\n      pop\n        /* \"#utility.yul\":29728:30147   */\n      swap2\n      swap1\n      pop\n      jump\t// out\n        /* \"#utility.yul\":30153:30329   */\n    tag_286:\n        /* \"#utility.yul\":30293:30321   */\n      0x43616e6469646174652052656769737465722069732046756c6c000000000000\n        /* \"#utility.yul\":30289:30290   */\n      0x00\n        /* \"#utility.yul\":30281:30287   */\n      dup3\n        /* \"#utility.yul\":30277:30291   */\n      add\n        /* \"#utility.yul\":30270:30322   */\n      mstore\n        /* \"#utility.yul\":30153:30329   */\n      pop\n      jump\t// out\n        /* \"#utility.yul\":30335:30701   */\n    tag_287:\n        /* \"#utility.yul\":30477:30480   */\n      0x00\n        /* \"#utility.yul\":30498:30565   */\n      tag_549\n        /* \"#utility.yul\":30562:30564   */\n      0x1a\n        /* \"#utility.yul\":30557:30560   */\n      dup4\n        /* \"#utility.yul\":30498:30565   */\n      tag_250\n      jump\t// in\n    tag_549:\n        /* \"#utility.yul\":30491:30565   */\n      swap2\n      pop\n        /* \"#utility.yul\":30574:30667   */\n      tag_550\n        /* \"#utility.yul\":30663:30666   */\n      dup3\n        /* \"#utility.yul\":30574:30667   */\n      tag_286\n      jump\t// in\n    tag_550:\n        /* \"#utility.yul\":30692:30694   */\n      0x20\n        /* \"#utility.yul\":30687:30690   */\n      dup3\n        /* \"#utility.yul\":30683:30695   */\n      add\n        /* \"#utility.yul\":30676:30695   */\n      swap1\n      pop\n        /* \"#utility.yul\":30335:30701   */\n      swap2\n      swap1\n      pop\n      jump\t// out\n        /* \"#utility.yul\":30707:31126   */\n    tag_115:\n        /* \"#utility.yul\":30873:30877   */\n      0x00\n        /* \"#utility.yul\":30911:30913   */\n      0x20\n        /* \"#utility.yul\":30900:30909   */\n      dup3\n        /* \"#utility.yul\":30896:30914   */\n      add\n        /* \"#utility.yul\":30888:30914   */\n      swap1\n      pop\n        /* \"#utility.yul\":30960:30969   */\n      dup2\n        /* \"#utility.yul\":30954:30958   */\n      dup2\n        /* \"#utility.yul\":30950:30970   */\n      sub\n        /* \"#utility.yul\":30946:30947   */\n      0x00\n        /* \"#utility.yul\":30935:30944   */\n      dup4\n        /* \"#utility.yul\":30931:30948   */\n      add\n        /* \"#utility.yul\":30924:30971   */\n      mstore\n        /* \"#utility.yul\":30988:31119   */\n      tag_552\n        /* \"#utility.yul\":31114:31118   */\n      dup2\n        /* \"#utility.yul\":30988:31119   */\n      tag_287\n      jump\t// in\n    tag_552:\n        /* \"#utility.yul\":30980:31119   */\n      swap1\n      pop\n        /* \"#utility.yul\":30707:31126   */\n      swap2\n      swap1\n      pop\n      jump\t// out\n        /* \"#utility.yul\":31132:31377   */\n    tag_288:\n        /* \"#utility.yul\":31272:31306   */\n      0x596f752063616e27742062652043616e64696461746520616e6420656c656374\n        /* \"#utility.yul\":31268:31269   */\n      0x00\n        /* \"#utility.yul\":31260:31266   */\n      dup3\n        /* \"#utility.yul\":31256:31270   */\n      add\n        /* \"#utility.yul\":31249:31307   */\n      mstore\n        /* \"#utility.yul\":31341:31369   */\n      0x696f6e436f6d6d697373696f6e2061742073616d652074696d65000000000000\n        /* \"#utility.yul\":31336:31338   */\n      0x20\n        /* \"#utility.yul\":31328:31334   */\n      dup3\n        /* \"#utility.yul\":31324:31339   */\n      add\n        /* \"#utility.yul\":31317:31370   */\n      mstore\n        /* \"#utility.yul\":31132:31377   */\n      pop\n      jump\t// out\n        /* \"#utility.yul\":31383:31749   */\n    tag_289:\n        /* \"#utility.yul\":31525:31528   */\n      0x00\n        /* \"#utility.yul\":31546:31613   */\n      tag_555\n        /* \"#utility.yul\":31610:31612   */\n      0x3a\n        /* \"#utility.yul\":31605:31608   */\n      dup4\n        /* \"#utility.yul\":31546:31613   */\n      tag_250\n      jump\t// in\n    tag_555:\n        /* \"#utility.yul\":31539:31613   */\n      swap2\n      pop\n        /* \"#utility.yul\":31622:31715   */\n      tag_556\n        /* \"#utility.yul\":31711:31714   */\n      dup3\n        /* \"#utility.yul\":31622:31715   */\n      tag_288\n      jump\t// in\n    tag_556:\n        /* \"#utility.yul\":31740:31742   */\n      0x40\n        /* \"#utility.yul\":31735:31738   */\n      dup3\n        /* \"#utility.yul\":31731:31743   */\n      add\n        /* \"#utility.yul\":31724:31743   */\n      swap1\n      pop\n        /* \"#utility.yul\":31383:31749   */\n      swap2\n      swap1\n      pop\n      jump\t// out\n        /* \"#utility.yul\":31755:32174   */\n    tag_118:\n        /* \"#utility.yul\":31921:31925   */\n      0x00\n        /* \"#utility.yul\":31959:31961   */\n      0x20\n        /* \"#utility.yul\":31948:31957   */\n      dup3\n        /* \"#utility.yul\":31944:31962   */\n      add\n        /* \"#utility.yul\":31936:31962   */\n      swap1\n      pop\n        /* \"#utility.yul\":32008:32017   */\n      dup2\n        /* \"#utility.yul\":32002:32006   */\n      dup2\n        /* \"#utility.yul\":31998:32018   */\n      sub\n        /* \"#utility.yul\":31994:31995   */\n      0x00\n        /* \"#utility.yul\":31983:31992   */\n      dup4\n        /* \"#utility.yul\":31979:31996   */\n      add\n        /* \"#utility.yul\":31972:32019   */\n      mstore\n        /* \"#utility.yul\":32036:32167   */\n      tag_558\n        /* \"#utility.yul\":32162:32166   */\n      dup2\n        /* \"#utility.yul\":32036:32167   */\n      tag_289\n      jump\t// in\n    tag_558:\n        /* \"#utility.yul\":32028:32167   */\n      swap1\n      pop\n        /* \"#utility.yul\":31755:32174   */\n      swap2\n      swap1\n      pop\n      jump\t// out\n        /* \"#utility.yul\":32180:32371   */\n    tag_135:\n        /* \"#utility.yul\":32220:32223   */\n      0x00\n        /* \"#utility.yul\":32239:32259   */\n      tag_560\n        /* \"#utility.yul\":32257:32258   */\n      dup3\n        /* \"#utility.yul\":32239:32259   */\n      tag_209\n      jump\t// in\n    tag_560:\n        /* \"#utility.yul\":32234:32259   */\n      swap2\n      pop\n        /* \"#utility.yul\":32273:32293   */\n      tag_561\n        /* \"#utility.yul\":32291:32292   */\n      dup4\n        /* \"#utility.yul\":32273:32293   */\n      tag_209\n      jump\t// in\n    tag_561:\n        /* \"#utility.yul\":32268:32293   */\n      swap3\n      pop\n        /* \"#utility.yul\":32316:32317   */\n      dup3\n        /* \"#utility.yul\":32313:32314   */\n      dup3\n        /* \"#utility.yul\":32309:32318   */\n      add\n        /* \"#utility.yul\":32302:32318   */\n      swap1\n      pop\n        /* \"#utility.yul\":32337:32340   */\n      dup1\n        /* \"#utility.yul\":32334:32335   */\n      dup3\n        /* \"#utility.yul\":32331:32341   */\n      gt\n        /* \"#utility.yul\":32328:32364   */\n      iszero\n      tag_562\n      jumpi\n        /* \"#utility.yul\":32344:32362   */\n      tag_563\n      tag_259\n      jump\t// in\n    tag_563:\n        /* \"#utility.yul\":32328:32364   */\n    tag_562:\n        /* \"#utility.yul\":32180:32371   */\n      swap3\n      swap2\n      pop\n      pop\n      jump\t// out\n        /* \"#utility.yul\":32377:32571   */\n    tag_139:\n        /* \"#utility.yul\":32417:32421   */\n      0x00\n        /* \"#utility.yul\":32437:32457   */\n      tag_565\n        /* \"#utility.yul\":32455:32456   */\n      dup3\n        /* \"#utility.yul\":32437:32457   */\n      tag_209\n      jump\t// in\n    tag_565:\n        /* \"#utility.yul\":32432:32457   */\n      swap2\n      pop\n        /* \"#utility.yul\":32471:32491   */\n      tag_566\n        /* \"#utility.yul\":32489:32490   */\n      dup4\n        /* \"#utility.yul\":32471:32491   */\n      tag_209\n      jump\t// in\n    tag_566:\n        /* \"#utility.yul\":32466:32491   */\n      swap3\n      pop\n        /* \"#utility.yul\":32515:32516   */\n      dup3\n        /* \"#utility.yul\":32512:32513   */\n      dup3\n        /* \"#utility.yul\":32508:32517   */\n      sub\n        /* \"#utility.yul\":32500:32517   */\n      swap1\n      pop\n        /* \"#utility.yul\":32539:32540   */\n      dup2\n        /* \"#utility.yul\":32533:32537   */\n      dup2\n        /* \"#utility.yul\":32530:32541   */\n      gt\n        /* \"#utility.yul\":32527:32564   */\n      iszero\n      tag_567\n      jumpi\n        /* \"#utility.yul\":32544:32562   */\n      tag_568\n      tag_259\n      jump\t// in\n    tag_568:\n        /* \"#utility.yul\":32527:32564   */\n    tag_567:\n        /* \"#utility.yul\":32377:32571   */\n      swap3\n      swap2\n      pop\n      pop\n      jump\t// out\n        /* \"#utility.yul\":32577:32757   */\n    tag_163:\n        /* \"#utility.yul\":32625:32702   */\n      0x4e487b7100000000000000000000000000000000000000000000000000000000\n        /* \"#utility.yul\":32622:32623   */\n      0x00\n        /* \"#utility.yul\":32615:32703   */\n      mstore\n        /* \"#utility.yul\":32722:32726   */\n      0x32\n        /* \"#utility.yul\":32719:32720   */\n      0x04\n        /* \"#utility.yul\":32712:32727   */\n      mstore\n        /* \"#utility.yul\":32746:32750   */\n      0x24\n        /* \"#utility.yul\":32743:32744   */\n      0x00\n        /* \"#utility.yul\":32736:32751   */\n      revert\n\n    auxdata: 0xa26469706673582212209baf1a392936777f7551645ac921bbe75ac505b53a993c17895bc650db31f57464736f6c634300081b0033\n}\n",
				"bytecode": {
					"linkReferences": {},
					"object": "6080604052600160025560016003553480156018575f5ffd5b50335f5f6101000a81548173ffffffffffffffffffffffffffffffffffffffff021916908373ffffffffffffffffffffffffffffffffffffffff160217905550612255806100655f395ff3fe608060405234801561000f575f5ffd5b50600436106100a7575f3560e01c80639fa4e4401161006f5780639fa4e44014610127578063a15a36c714610131578063aab46b7f1461014d578063b28d92ae1461016b578063dfbf53ae14610189578063fdbc4006146101a7576100a7565b80632c0a3f89146100ab578063581c281c146100c75780636ce2ccc0146100e557806381ba732f146100ef578063982c777d1461010b575b5f5ffd5b6100c560048036038101906100c09190611307565b6101c5565b005b6100cf6103b4565b6040516100dc91906113b8565b60405180910390f35b6100ed6103fe565b005b61010960048036038101906101049190611455565b61059f565b005b610125600480360381019061012091906114c6565b61075b565b005b61012f610a90565b005b61014b60048036038101906101469190611307565b610b3a565b005b610155610bf2565b60405161016291906115a8565b60405180910390f35b610173610c16565b60405161018091906117d6565b60405180910390f35b610191610e22565b60405161019e91906115a8565b60405180910390f35b6101af610e47565b6040516101bc9190611951565b60405180910390f35b60055442111580156101e857505f151560065f9054906101000a900460ff161515145b610227576040517f08c379a000000000000000000000000000000000000000000000000000000000815260040161021e906119cb565b60405180910390fd5b5f60075f8481526020019081526020015f20600401541461027d576040517f08c379a000000000000000000000000000000000000000000000000000000000815260040161027490611a33565b60405180910390fd5b3373ffffffffffffffffffffffffffffffffffffffff1660075f8481526020019081526020015f206005015f9054906101000a900473ffffffffffffffffffffffffffffffffffffffff1673ffffffffffffffffffffffffffffffffffffffff161461031e576040517f08c379a000000000000000000000000000000000000000000000000000000000815260040161031590611a9b565b60405180910390fd5b6001811015801561032f5750600381105b61036e576040517f08c379a000000000000000000000000000000000000000000000000000000000815260040161036590611b03565b60405180910390fd5b8060075f8481526020019081526020015f206004018190555060085f8281526020019081526020015f206006015f8154809291906103ab90611b4e565b91905055505050565b5f5f600454036103c6575f90506103fb565b426005541180156103e857505f151560065f9054906101000a900460ff161515145b156103f657600190506103fb565b600290505b90565b5f5f9054906101000a900473ffffffffffffffffffffffffffffffffffffffff1673ffffffffffffffffffffffffffffffffffffffff163373ffffffffffffffffffffffffffffffffffffffff161461048c576040517f08c379a000000000000000000000000000000000000000000000000000000000815260040161048390611bdf565b60405180910390fd5b5f5f90505f5f600190505b600354811015610518578260085f8381526020019081526020015f2060060154111561050b5760085f8281526020019081526020015f2060060154925060085f8281526020019081526020015f206005015f9054906101000a900473ffffffffffffffffffffffffffffffffffffffff1691505b8080600101915050610497565b505f821161055b576040517f08c379a000000000000000000000000000000000000000000000000000000000815260040161055290611c47565b60405180910390fd5b8060015f6101000a81548173ffffffffffffffffffffffffffffffffffffffff021916908373ffffffffffffffffffffffffffffffffffffffff1602179055505050565b6105a8336110e3565b6105e7576040517f08c379a00000000000000000000000000000000000000000000000000000000081526004016105de90611caf565b60405180910390fd5b6040518060c0016040528085858080601f0160208091040260200160405190810160405280939291908181526020018383808284375f81840152601f19601f820116905080830192505050505050508152602001838152602001600254815260200182600381111561065c5761065b611345565b5b81526020015f81526020013373ffffffffffffffffffffffffffffffffffffffff1681525060075f60025481526020019081526020015f205f820151815f0190816106a79190611ef7565b5060208201518160010155604082015181600201556060820151816003015f6101000a81548160ff021916908360038111156106e6576106e5611345565b5b02179055506080820151816004015560a0820151816005015f6101000a81548173ffffffffffffffffffffffffffffffffffffffff021916908373ffffffffffffffffffffffffffffffffffffffff16021790555090505060025f81548092919061075090611b4e565b919050555050505050565b8160128110156107a0576040517f08c379a000000000000000000000000000000000000000000000000000000000815260040161079790612010565b60405180910390fd5b6107a93361117b565b6107e8576040517f08c379a00000000000000000000000000000000000000000000000000000000081526004016107df90612078565b60405180910390fd5b600380541061082c576040517f08c379a0000000000000000000000000000000000000000000000000000000008152600401610823906120e0565b60405180910390fd5b5f5f9054906101000a900473ffffffffffffffffffffffffffffffffffffffff1673ffffffffffffffffffffffffffffffffffffffff163373ffffffffffffffffffffffffffffffffffffffff16036108ba576040517f08c379a00000000000000000000000000000000000000000000000000000000081526004016108b19061216e565b60405180910390fd5b6040518060e0016040528088888080601f0160208091040260200160405190810160405280939291908181526020018383808284375f81840152601f19601f82011690508083019250505050505050815260200186868080601f0160208091040260200160405190810160405280939291908181526020018383808284375f81840152601f19601f8201169050808301925050505050505081526020018481526020018360038111156109705761096f611345565b5b815260200160035481526020013373ffffffffffffffffffffffffffffffffffffffff1681526020015f81525060085f60035481526020019081526020015f205f820151815f0190816109c39190611ef7565b5060208201518160010190816109d99190611ef7565b50604082015181600201556060820151816003015f6101000a81548160ff02191690836003811115610a0e57610a0d611345565b5b02179055506080820151816004015560a0820151816005015f6101000a81548173ffffffffffffffffffffffffffffffffffffffff021916908373ffffffffffffffffffffffffffffffffffffffff16021790555060c0820151816006015590505060035f815480929190610a8290611b4e565b919050555050505050505050565b5f5f9054906101000a900473ffffffffffffffffffffffffffffffffffffffff1673ffffffffffffffffffffffffffffffffffffffff163373ffffffffffffffffffffffffffffffffffffffff1614610b1e576040517f08c379a0000000000000000000000000000000000000000000000000000000008152600401610b1590611bdf565b60405180910390fd5b600160065f6101000a81548160ff021916908315150217905550565b5f5f9054906101000a900473ffffffffffffffffffffffffffffffffffffffff1673ffffffffffffffffffffffffffffffffffffffff163373ffffffffffffffffffffffffffffffffffffffff1614610bc8576040517f08c379a0000000000000000000000000000000000000000000000000000000008152600401610bbf90611bdf565b60405180910390fd5b8142610bd4919061218c565b60048190555080600454610be8919061218c565b6005819055505050565b5f5f9054906101000a900473ffffffffffffffffffffffffffffffffffffffff1681565b60605f6001600254610c2891906121bf565b67ffffffffffffffff811115610c4157610c40611ccd565b5b604051908082528060200260200182016040528015610c7a57816020015b610c67611213565b815260200190600190039081610c5f5790505b5090505f5f90505b8151811015610e1a5760075f600183610c9b919061218c565b81526020019081526020015f206040518060c00160405290815f82018054610cc290611d27565b80601f0160208091040260200160405190810160405280929190818152602001828054610cee90611d27565b8015610d395780601f10610d1057610100808354040283529160200191610d39565b820191905f5260205f20905b815481529060010190602001808311610d1c57829003601f168201915b505050505081526020016001820154815260200160028201548152602001600382015f9054906101000a900460ff166003811115610d7a57610d79611345565b5b6003811115610d8c57610d8b611345565b5b815260200160048201548152602001600582015f9054906101000a900473ffffffffffffffffffffffffffffffffffffffff1673ffffffffffffffffffffffffffffffffffffffff1673ffffffffffffffffffffffffffffffffffffffff1681525050828281518110610e0257610e016121f2565b5b60200260200101819052508080600101915050610c82565b508091505090565b60015f9054906101000a900473ffffffffffffffffffffffffffffffffffffffff1681565b60605f6001600354610e5991906121bf565b67ffffffffffffffff811115610e7257610e71611ccd565b5b604051908082528060200260200182016040528015610eab57816020015b610e9861126c565b815260200190600190039081610e905790505b5090505f5f90505b81518110156110db5760085f600183610ecc919061218c565b81526020019081526020015f206040518060e00160405290815f82018054610ef390611d27565b80601f0160208091040260200160405190810160405280929190818152602001828054610f1f90611d27565b8015610f6a5780601f10610f4157610100808354040283529160200191610f6a565b820191905f5260205f20905b815481529060010190602001808311610f4d57829003601f168201915b50505050508152602001600182018054610f8390611d27565b80601f0160208091040260200160405190810160405280929190818152602001828054610faf90611d27565b8015610ffa5780601f10610fd157610100808354040283529160200191610ffa565b820191905f5260205f20905b815481529060010190602001808311610fdd57829003601f168201915b5050505050815260200160028201548152602001600382015f9054906101000a900460ff16600381111561103157611030611345565b5b600381111561104357611042611345565b5b815260200160048201548152602001600582015f9054906101000a900473ffffffffffffffffffffffffffffffffffffffff1673ffffffffffffffffffffffffffffffffffffffff1673ffffffffffffffffffffffffffffffffffffffff1681526020016006820154815250508282815181106110c3576110c26121f2565b5b60200260200101819052508080600101915050610eb3565b508091505090565b5f5f600190505b600254811015611170578273ffffffffffffffffffffffffffffffffffffffff1660075f8381526020019081526020015f206005015f9054906101000a900473ffffffffffffffffffffffffffffffffffffffff1673ffffffffffffffffffffffffffffffffffffffff1603611163575f915050611176565b80806001019150506110ea565b50600190505b919050565b5f5f600190505b600354811015611208578273ffffffffffffffffffffffffffffffffffffffff1660085f8381526020019081526020015f206005015f9054906101000a900473ffffffffffffffffffffffffffffffffffffffff1673ffffffffffffffffffffffffffffffffffffffff16036111fb575f91505061120e565b8080600101915050611182565b50600190505b919050565b6040518060c00160405280606081526020015f81526020015f81526020015f600381111561124457611243611345565b5b81526020015f81526020015f73ffffffffffffffffffffffffffffffffffffffff1681525090565b6040518060e0016040528060608152602001606081526020015f81526020015f600381111561129e5761129d611345565b5b81526020015f81526020015f73ffffffffffffffffffffffffffffffffffffffff1681526020015f81525090565b5f5ffd5b5f5ffd5b5f819050919050565b6112e6816112d4565b81146112f0575f5ffd5b50565b5f81359050611301816112dd565b92915050565b5f5f6040838503121561131d5761131c6112cc565b5b5f61132a858286016112f3565b925050602061133b858286016112f3565b9150509250929050565b7f4e487b71000000000000000000000000000000000000000000000000000000005f52602160045260245ffd5b6003811061138357611382611345565b5b50565b5f81905061139382611372565b919050565b5f6113a282611386565b9050919050565b6113b281611398565b82525050565b5f6020820190506113cb5f8301846113a9565b92915050565b5f5ffd5b5f5ffd5b5f5ffd5b5f5f83601f8401126113f2576113f16113d1565b5b8235905067ffffffffffffffff81111561140f5761140e6113d5565b5b60208301915083600182028301111561142b5761142a6113d9565b5b9250929050565b6004811061143e575f5ffd5b50565b5f8135905061144f81611432565b92915050565b5f5f5f5f6060858703121561146d5761146c6112cc565b5b5f85013567ffffffffffffffff81111561148a576114896112d0565b5b611496878288016113dd565b945094505060206114a9878288016112f3565b92505060406114ba87828801611441565b91505092959194509250565b5f5f5f5f5f5f608087890312156114e0576114df6112cc565b5b5f87013567ffffffffffffffff8111156114fd576114fc6112d0565b5b61150989828a016113dd565b9650965050602087013567ffffffffffffffff81111561152c5761152b6112d0565b5b61153889828a016113dd565b9450945050604061154b89828a016112f3565b925050606061155c89828a01611441565b9150509295509295509295565b5f73ffffffffffffffffffffffffffffffffffffffff82169050919050565b5f61159282611569565b9050919050565b6115a281611588565b82525050565b5f6020820190506115bb5f830184611599565b92915050565b5f81519050919050565b5f82825260208201905092915050565b5f819050602082019050919050565b5f81519050919050565b5f82825260208201905092915050565b8281835e5f83830152505050565b5f601f19601f8301169050919050565b5f61162c826115ea565b61163681856115f4565b9350611646818560208601611604565b61164f81611612565b840191505092915050565b611663816112d4565b82525050565b6004811061167a57611679611345565b5b50565b5f81905061168a82611669565b919050565b5f6116998261167d565b9050919050565b6116a98161168f565b82525050565b6116b881611588565b82525050565b5f60c083015f8301518482035f8601526116d88282611622565b91505060208301516116ed602086018261165a565b506040830151611700604086018261165a565b50606083015161171360608601826116a0565b506080830151611726608086018261165a565b5060a083015161173960a08601826116af565b508091505092915050565b5f61174f83836116be565b905092915050565b5f602082019050919050565b5f61176d826115c1565b61177781856115cb565b935083602082028501611789856115db565b805f5b858110156117c457848403895281516117a58582611744565b94506117b083611757565b925060208a0199505060018101905061178c565b50829750879550505050505092915050565b5f6020820190508181035f8301526117ee8184611763565b905092915050565b5f81519050919050565b5f82825260208201905092915050565b5f819050602082019050919050565b5f60e083015f8301518482035f8601526118398282611622565b915050602083015184820360208601526118538282611622565b9150506040830151611868604086018261165a565b50606083015161187b60608601826116a0565b50608083015161188e608086018261165a565b5060a08301516118a160a08601826116af565b5060c08301516118b460c086018261165a565b508091505092915050565b5f6118ca838361181f565b905092915050565b5f602082019050919050565b5f6118e8826117f6565b6118f28185611800565b93508360208202850161190485611810565b805f5b8581101561193f578484038952815161192085826118bf565b945061192b836118d2565b925060208a01995050600181019050611907565b50829750879550505050505092915050565b5f6020820190508181035f83015261196981846118de565b905092915050565b5f82825260208201905092915050565b7f566f74696e672074696d65206973206f766572000000000000000000000000005f82015250565b5f6119b5601383611971565b91506119c082611981565b602082019050919050565b5f6020820190508181035f8301526119e2816119a9565b9050919050565b7f796f75206861766520616c726561647920766f746500000000000000000000005f82015250565b5f611a1d601583611971565b9150611a28826119e9565b602082019050919050565b5f6020820190508181035f830152611a4a81611a11565b9050919050565b7f596f7520646f6e742062656c6f6e6720746f2074686973206163636f756e74005f82015250565b5f611a85601f83611971565b9150611a9082611a51565b602082019050919050565b5f6020820190508181035f830152611ab281611a79565b9050919050565b7f43616e646964617465206973206e6f7420636f727265637400000000000000005f82015250565b5f611aed601883611971565b9150611af882611ab9565b602082019050919050565b5f6020820190508181035f830152611b1a81611ae1565b9050919050565b7f4e487b71000000000000000000000000000000000000000000000000000000005f52601160045260245ffd5b5f611b58826112d4565b91507fffffffffffffffffffffffffffffffffffffffffffffffffffffffffffffffff8203611b8a57611b89611b21565b5b600182019050919050565b7f4e6f742061757468756f72697a656400000000000000000000000000000000005f82015250565b5f611bc9600f83611971565b9150611bd482611b95565b602082019050919050565b5f6020820190508181035f830152611bf681611bbd565b9050919050565b7f4e6f20766f74657320636173742e0000000000000000000000000000000000005f82015250565b5f611c31600e83611971565b9150611c3c82611bfd565b602082019050919050565b5f6020820190508181035f830152611c5e81611c25565b9050919050565b7f596f75206861766520616c726561647920566f746564000000000000000000005f82015250565b5f611c99601683611971565b9150611ca482611c65565b602082019050919050565b5f6020820190508181035f830152611cc681611c8d565b9050919050565b7f4e487b71000000000000000000000000000000000000000000000000000000005f52604160045260245ffd5b7f4e487b71000000000000000000000000000000000000000000000000000000005f52602260045260245ffd5b5f6002820490506001821680611d3e57607f821691505b602082108103611d5157611d50611cfa565b5b50919050565b5f819050815f5260205f209050919050565b5f6020601f8301049050919050565b5f82821b905092915050565b5f60088302611db37fffffffffffffffffffffffffffffffffffffffffffffffffffffffffffffffff82611d78565b611dbd8683611d78565b95508019841693508086168417925050509392505050565b5f819050919050565b5f611df8611df3611dee846112d4565b611dd5565b6112d4565b9050919050565b5f819050919050565b611e1183611dde565b611e25611e1d82611dff565b848454611d84565b825550505050565b5f5f905090565b611e3c611e2d565b611e47818484611e08565b505050565b5b81811015611e6a57611e5f5f82611e34565b600181019050611e4d565b5050565b601f821115611eaf57611e8081611d57565b611e8984611d69565b81016020851015611e98578190505b611eac611ea485611d69565b830182611e4c565b50505b505050565b5f82821c905092915050565b5f611ecf5f1984600802611eb4565b1980831691505092915050565b5f611ee78383611ec0565b9150826002028217905092915050565b611f00826115ea565b67ffffffffffffffff811115611f1957611f18611ccd565b5b611f238254611d27565b611f2e828285611e6e565b5f60209050601f831160018114611f5f575f8415611f4d578287015190505b611f578582611edc565b865550611fbe565b601f198416611f6d86611d57565b5f5b82811015611f9457848901518255600182019150602085019450602081019050611f6f565b86831015611fb15784890151611fad601f891682611ec0565b8355505b6001600288020188555050505b505050505050565b7f596f7520617265206e6f7420456c6967626c65000000000000000000000000005f82015250565b5f611ffa601383611971565b915061200582611fc6565b602082019050919050565b5f6020820190508181035f83015261202781611fee565b9050919050565b7f596f75206861766520616c7265616479207265676973746572656400000000005f82015250565b5f612062601b83611971565b915061206d8261202e565b602082019050919050565b5f6020820190508181035f83015261208f81612056565b9050919050565b7f43616e6469646174652052656769737465722069732046756c6c0000000000005f82015250565b5f6120ca601a83611971565b91506120d582612096565b602082019050919050565b5f6020820190508181035f8301526120f7816120be565b9050919050565b7f596f752063616e27742062652043616e64696461746520616e6420656c6563745f8201527f696f6e436f6d6d697373696f6e2061742073616d652074696d65000000000000602082015250565b5f612158603a83611971565b9150612163826120fe565b604082019050919050565b5f6020820190508181035f8301526121858161214c565b9050919050565b5f612196826112d4565b91506121a1836112d4565b92508282019050808211156121b9576121b8611b21565b5b92915050565b5f6121c9826112d4565b91506121d4836112d4565b92508282039050818111156121ec576121eb611b21565b5b92915050565b7f4e487b71000000000000000000000000000000000000000000000000000000005f52603260045260245ffdfea26469706673582212209baf1a392936777f7551645ac921bbe75ac505b53a993c17895bc650db31f57464736f6c634300081b0033",
					"opcodes": "PUSH1 0x80 PUSH1 0x40 MSTORE PUSH1 0x1 PUSH1 0x2 SSTORE PUSH1 0x1 PUSH1 0x3 SSTORE CALLVALUE DUP1 ISZERO PUSH1 0x18 JUMPI PUSH0 PUSH0 REVERT JUMPDEST POP CALLER PUSH0 PUSH0 PUSH2 0x100 EXP DUP2 SLOAD DUP2 PUSH20 0xFFFFFFFFFFFFFFFFFFFFFFFFFFFFFFFFFFFFFFFF MUL NOT AND SWAP1 DUP4 PUSH20 0xFFFFFFFFFFFFFFFFFFFFFFFFFFFFFFFFFFFFFFFF AND MUL OR SWAP1 SSTORE POP PUSH2 0x2255 DUP1 PUSH2 0x65 PUSH0 CODECOPY PUSH0 RETURN INVALID PUSH1 0x80 PUSH1 0x40 MSTORE CALLVALUE DUP1 ISZERO PUSH2 0xF JUMPI PUSH0 PUSH0 REVERT JUMPDEST POP PUSH1 0x4 CALLDATASIZE LT PUSH2 0xA7 JUMPI PUSH0 CALLDATALOAD PUSH1 0xE0 SHR DUP1 PUSH4 0x9FA4E440 GT PUSH2 0x6F JUMPI DUP1 PUSH4 0x9FA4E440 EQ PUSH2 0x127 JUMPI DUP1 PUSH4 0xA15A36C7 EQ PUSH2 0x131 JUMPI DUP1 PUSH4 0xAAB46B7F EQ PUSH2 0x14D JUMPI DUP1 PUSH4 0xB28D92AE EQ PUSH2 0x16B JUMPI DUP1 PUSH4 0xDFBF53AE EQ PUSH2 0x189 JUMPI DUP1 PUSH4 0xFDBC4006 EQ PUSH2 0x1A7 JUMPI PUSH2 0xA7 JUMP JUMPDEST DUP1 PUSH4 0x2C0A3F89 EQ PUSH2 0xAB JUMPI DUP1 PUSH4 0x581C281C EQ PUSH2 0xC7 JUMPI DUP1 PUSH4 0x6CE2CCC0 EQ PUSH2 0xE5 JUMPI DUP1 PUSH4 0x81BA732F EQ PUSH2 0xEF JUMPI DUP1 PUSH4 0x982C777D EQ PUSH2 0x10B JUMPI JUMPDEST PUSH0 PUSH0 REVERT JUMPDEST PUSH2 0xC5 PUSH1 0x4 DUP1 CALLDATASIZE SUB DUP2 ADD SWAP1 PUSH2 0xC0 SWAP2 SWAP1 PUSH2 0x1307 JUMP JUMPDEST PUSH2 0x1C5 JUMP JUMPDEST STOP JUMPDEST PUSH2 0xCF PUSH2 0x3B4 JUMP JUMPDEST PUSH1 0x40 MLOAD PUSH2 0xDC SWAP2 SWAP1 PUSH2 0x13B8 JUMP JUMPDEST PUSH1 0x40 MLOAD DUP1 SWAP2 SUB SWAP1 RETURN JUMPDEST PUSH2 0xED PUSH2 0x3FE JUMP JUMPDEST STOP JUMPDEST PUSH2 0x109 PUSH1 0x4 DUP1 CALLDATASIZE SUB DUP2 ADD SWAP1 PUSH2 0x104 SWAP2 SWAP1 PUSH2 0x1455 JUMP JUMPDEST PUSH2 0x59F JUMP JUMPDEST STOP JUMPDEST PUSH2 0x125 PUSH1 0x4 DUP1 CALLDATASIZE SUB DUP2 ADD SWAP1 PUSH2 0x120 SWAP2 SWAP1 PUSH2 0x14C6 JUMP JUMPDEST PUSH2 0x75B JUMP JUMPDEST STOP JUMPDEST PUSH2 0x12F PUSH2 0xA90 JUMP JUMPDEST STOP JUMPDEST PUSH2 0x14B PUSH1 0x4 DUP1 CALLDATASIZE SUB DUP2 ADD SWAP1 PUSH2 0x146 SWAP2 SWAP1 PUSH2 0x1307 JUMP JUMPDEST PUSH2 0xB3A JUMP JUMPDEST STOP JUMPDEST PUSH2 0x155 PUSH2 0xBF2 JUMP JUMPDEST PUSH1 0x40 MLOAD PUSH2 0x162 SWAP2 SWAP1 PUSH2 0x15A8 JUMP JUMPDEST PUSH1 0x40 MLOAD DUP1 SWAP2 SUB SWAP1 RETURN JUMPDEST PUSH2 0x173 PUSH2 0xC16 JUMP JUMPDEST PUSH1 0x40 MLOAD PUSH2 0x180 SWAP2 SWAP1 PUSH2 0x17D6 JUMP JUMPDEST PUSH1 0x40 MLOAD DUP1 SWAP2 SUB SWAP1 RETURN JUMPDEST PUSH2 0x191 PUSH2 0xE22 JUMP JUMPDEST PUSH1 0x40 MLOAD PUSH2 0x19E SWAP2 SWAP1 PUSH2 0x15A8 JUMP JUMPDEST PUSH1 0x40 MLOAD DUP1 SWAP2 SUB SWAP1 RETURN JUMPDEST PUSH2 0x1AF PUSH2 0xE47 JUMP JUMPDEST PUSH1 0x40 MLOAD PUSH2 0x1BC SWAP2 SWAP1 PUSH2 0x1951 JUMP JUMPDEST PUSH1 0x40 MLOAD DUP1 SWAP2 SUB SWAP1 RETURN JUMPDEST PUSH1 0x5 SLOAD TIMESTAMP GT ISZERO DUP1 ISZERO PUSH2 0x1E8 JUMPI POP PUSH0 ISZERO ISZERO PUSH1 0x6 PUSH0 SWAP1 SLOAD SWAP1 PUSH2 0x100 EXP SWAP1 DIV PUSH1 0xFF AND ISZERO ISZERO EQ JUMPDEST PUSH2 0x227 JUMPI PUSH1 0x40 MLOAD PUSH32 0x8C379A000000000000000000000000000000000000000000000000000000000 DUP2 MSTORE PUSH1 0x4 ADD PUSH2 0x21E SWAP1 PUSH2 0x19CB JUMP JUMPDEST PUSH1 0x40 MLOAD DUP1 SWAP2 SUB SWAP1 REVERT JUMPDEST PUSH0 PUSH1 0x7 PUSH0 DUP5 DUP2 MSTORE PUSH1 0x20 ADD SWAP1 DUP2 MSTORE PUSH1 0x20 ADD PUSH0 KECCAK256 PUSH1 0x4 ADD SLOAD EQ PUSH2 0x27D JUMPI PUSH1 0x40 MLOAD PUSH32 0x8C379A000000000000000000000000000000000000000000000000000000000 DUP2 MSTORE PUSH1 0x4 ADD PUSH2 0x274 SWAP1 PUSH2 0x1A33 JUMP JUMPDEST PUSH1 0x40 MLOAD DUP1 SWAP2 SUB SWAP1 REVERT JUMPDEST CALLER PUSH20 0xFFFFFFFFFFFFFFFFFFFFFFFFFFFFFFFFFFFFFFFF AND PUSH1 0x7 PUSH0 DUP5 DUP2 MSTORE PUSH1 0x20 ADD SWAP1 DUP2 MSTORE PUSH1 0x20 ADD PUSH0 KECCAK256 PUSH1 0x5 ADD PUSH0 SWAP1 SLOAD SWAP1 PUSH2 0x100 EXP SWAP1 DIV PUSH20 0xFFFFFFFFFFFFFFFFFFFFFFFFFFFFFFFFFFFFFFFF AND PUSH20 0xFFFFFFFFFFFFFFFFFFFFFFFFFFFFFFFFFFFFFFFF AND EQ PUSH2 0x31E JUMPI PUSH1 0x40 MLOAD PUSH32 0x8C379A000000000000000000000000000000000000000000000000000000000 DUP2 MSTORE PUSH1 0x4 ADD PUSH2 0x315 SWAP1 PUSH2 0x1A9B JUMP JUMPDEST PUSH1 0x40 MLOAD DUP1 SWAP2 SUB SWAP1 REVERT JUMPDEST PUSH1 0x1 DUP2 LT ISZERO DUP1 ISZERO PUSH2 0x32F JUMPI POP PUSH1 0x3 DUP2 LT JUMPDEST PUSH2 0x36E JUMPI PUSH1 0x40 MLOAD PUSH32 0x8C379A000000000000000000000000000000000000000000000000000000000 DUP2 MSTORE PUSH1 0x4 ADD PUSH2 0x365 SWAP1 PUSH2 0x1B03 JUMP JUMPDEST PUSH1 0x40 MLOAD DUP1 SWAP2 SUB SWAP1 REVERT JUMPDEST DUP1 PUSH1 0x7 PUSH0 DUP5 DUP2 MSTORE PUSH1 0x20 ADD SWAP1 DUP2 MSTORE PUSH1 0x20 ADD PUSH0 KECCAK256 PUSH1 0x4 ADD DUP2 SWAP1 SSTORE POP PUSH1 0x8 PUSH0 DUP3 DUP2 MSTORE PUSH1 0x20 ADD SWAP1 DUP2 MSTORE PUSH1 0x20 ADD PUSH0 KECCAK256 PUSH1 0x6 ADD PUSH0 DUP2 SLOAD DUP1 SWAP3 SWAP2 SWAP1 PUSH2 0x3AB SWAP1 PUSH2 0x1B4E JUMP JUMPDEST SWAP2 SWAP1 POP SSTORE POP POP POP JUMP JUMPDEST PUSH0 PUSH0 PUSH1 0x4 SLOAD SUB PUSH2 0x3C6 JUMPI PUSH0 SWAP1 POP PUSH2 0x3FB JUMP JUMPDEST TIMESTAMP PUSH1 0x5 SLOAD GT DUP1 ISZERO PUSH2 0x3E8 JUMPI POP PUSH0 ISZERO ISZERO PUSH1 0x6 PUSH0 SWAP1 SLOAD SWAP1 PUSH2 0x100 EXP SWAP1 DIV PUSH1 0xFF AND ISZERO ISZERO EQ JUMPDEST ISZERO PUSH2 0x3F6 JUMPI PUSH1 0x1 SWAP1 POP PUSH2 0x3FB JUMP JUMPDEST PUSH1 0x2 SWAP1 POP JUMPDEST SWAP1 JUMP JUMPDEST PUSH0 PUSH0 SWAP1 SLOAD SWAP1 PUSH2 0x100 EXP SWAP1 DIV PUSH20 0xFFFFFFFFFFFFFFFFFFFFFFFFFFFFFFFFFFFFFFFF AND PUSH20 0xFFFFFFFFFFFFFFFFFFFFFFFFFFFFFFFFFFFFFFFF AND CALLER PUSH20 0xFFFFFFFFFFFFFFFFFFFFFFFFFFFFFFFFFFFFFFFF AND EQ PUSH2 0x48C JUMPI PUSH1 0x40 MLOAD PUSH32 0x8C379A000000000000000000000000000000000000000000000000000000000 DUP2 MSTORE PUSH1 0x4 ADD PUSH2 0x483 SWAP1 PUSH2 0x1BDF JUMP JUMPDEST PUSH1 0x40 MLOAD DUP1 SWAP2 SUB SWAP1 REVERT JUMPDEST PUSH0 PUSH0 SWAP1 POP PUSH0 PUSH0 PUSH1 0x1 SWAP1 POP JUMPDEST PUSH1 0x3 SLOAD DUP2 LT ISZERO PUSH2 0x518 JUMPI DUP3 PUSH1 0x8 PUSH0 DUP4 DUP2 MSTORE PUSH1 0x20 ADD SWAP1 DUP2 MSTORE PUSH1 0x20 ADD PUSH0 KECCAK256 PUSH1 0x6 ADD SLOAD GT ISZERO PUSH2 0x50B JUMPI PUSH1 0x8 PUSH0 DUP3 DUP2 MSTORE PUSH1 0x20 ADD SWAP1 DUP2 MSTORE PUSH1 0x20 ADD PUSH0 KECCAK256 PUSH1 0x6 ADD SLOAD SWAP3 POP PUSH1 0x8 PUSH0 DUP3 DUP2 MSTORE PUSH1 0x20 ADD SWAP1 DUP2 MSTORE PUSH1 0x20 ADD PUSH0 KECCAK256 PUSH1 0x5 ADD PUSH0 SWAP1 SLOAD SWAP1 PUSH2 0x100 EXP SWAP1 DIV PUSH20 0xFFFFFFFFFFFFFFFFFFFFFFFFFFFFFFFFFFFFFFFF AND SWAP2 POP JUMPDEST DUP1 DUP1 PUSH1 0x1 ADD SWAP2 POP POP PUSH2 0x497 JUMP JUMPDEST POP PUSH0 DUP3 GT PUSH2 0x55B JUMPI PUSH1 0x40 MLOAD PUSH32 0x8C379A000000000000000000000000000000000000000000000000000000000 DUP2 MSTORE PUSH1 0x4 ADD PUSH2 0x552 SWAP1 PUSH2 0x1C47 JUMP JUMPDEST PUSH1 0x40 MLOAD DUP1 SWAP2 SUB SWAP1 REVERT JUMPDEST DUP1 PUSH1 0x1 PUSH0 PUSH2 0x100 EXP DUP2 SLOAD DUP2 PUSH20 0xFFFFFFFFFFFFFFFFFFFFFFFFFFFFFFFFFFFFFFFF MUL NOT AND SWAP1 DUP4 PUSH20 0xFFFFFFFFFFFFFFFFFFFFFFFFFFFFFFFFFFFFFFFF AND MUL OR SWAP1 SSTORE POP POP POP JUMP JUMPDEST PUSH2 0x5A8 CALLER PUSH2 0x10E3 JUMP JUMPDEST PUSH2 0x5E7 JUMPI PUSH1 0x40 MLOAD PUSH32 0x8C379A000000000000000000000000000000000000000000000000000000000 DUP2 MSTORE PUSH1 0x4 ADD PUSH2 0x5DE SWAP1 PUSH2 0x1CAF JUMP JUMPDEST PUSH1 0x40 MLOAD DUP1 SWAP2 SUB SWAP1 REVERT JUMPDEST PUSH1 0x40 MLOAD DUP1 PUSH1 0xC0 ADD PUSH1 0x40 MSTORE DUP1 DUP6 DUP6 DUP1 DUP1 PUSH1 0x1F ADD PUSH1 0x20 DUP1 SWAP2 DIV MUL PUSH1 0x20 ADD PUSH1 0x40 MLOAD SWAP1 DUP2 ADD PUSH1 0x40 MSTORE DUP1 SWAP4 SWAP3 SWAP2 SWAP1 DUP2 DUP2 MSTORE PUSH1 0x20 ADD DUP4 DUP4 DUP1 DUP3 DUP5 CALLDATACOPY PUSH0 DUP2 DUP5 ADD MSTORE PUSH1 0x1F NOT PUSH1 0x1F DUP3 ADD AND SWAP1 POP DUP1 DUP4 ADD SWAP3 POP POP POP POP POP POP POP DUP2 MSTORE PUSH1 0x20 ADD DUP4 DUP2 MSTORE PUSH1 0x20 ADD PUSH1 0x2 SLOAD DUP2 MSTORE PUSH1 0x20 ADD DUP3 PUSH1 0x3 DUP2 GT ISZERO PUSH2 0x65C JUMPI PUSH2 0x65B PUSH2 0x1345 JUMP JUMPDEST JUMPDEST DUP2 MSTORE PUSH1 0x20 ADD PUSH0 DUP2 MSTORE PUSH1 0x20 ADD CALLER PUSH20 0xFFFFFFFFFFFFFFFFFFFFFFFFFFFFFFFFFFFFFFFF AND DUP2 MSTORE POP PUSH1 0x7 PUSH0 PUSH1 0x2 SLOAD DUP2 MSTORE PUSH1 0x20 ADD SWAP1 DUP2 MSTORE PUSH1 0x20 ADD PUSH0 KECCAK256 PUSH0 DUP3 ADD MLOAD DUP2 PUSH0 ADD SWAP1 DUP2 PUSH2 0x6A7 SWAP2 SWAP1 PUSH2 0x1EF7 JUMP JUMPDEST POP PUSH1 0x20 DUP3 ADD MLOAD DUP2 PUSH1 0x1 ADD SSTORE PUSH1 0x40 DUP3 ADD MLOAD DUP2 PUSH1 0x2 ADD SSTORE PUSH1 0x60 DUP3 ADD MLOAD DUP2 PUSH1 0x3 ADD PUSH0 PUSH2 0x100 EXP DUP2 SLOAD DUP2 PUSH1 0xFF MUL NOT AND SWAP1 DUP4 PUSH1 0x3 DUP2 GT ISZERO PUSH2 0x6E6 JUMPI PUSH2 0x6E5 PUSH2 0x1345 JUMP JUMPDEST JUMPDEST MUL OR SWAP1 SSTORE POP PUSH1 0x80 DUP3 ADD MLOAD DUP2 PUSH1 0x4 ADD SSTORE PUSH1 0xA0 DUP3 ADD MLOAD DUP2 PUSH1 0x5 ADD PUSH0 PUSH2 0x100 EXP DUP2 SLOAD DUP2 PUSH20 0xFFFFFFFFFFFFFFFFFFFFFFFFFFFFFFFFFFFFFFFF MUL NOT AND SWAP1 DUP4 PUSH20 0xFFFFFFFFFFFFFFFFFFFFFFFFFFFFFFFFFFFFFFFF AND MUL OR SWAP1 SSTORE POP SWAP1 POP POP PUSH1 0x2 PUSH0 DUP2 SLOAD DUP1 SWAP3 SWAP2 SWAP1 PUSH2 0x750 SWAP1 PUSH2 0x1B4E JUMP JUMPDEST SWAP2 SWAP1 POP SSTORE POP POP POP POP POP JUMP JUMPDEST DUP2 PUSH1 0x12 DUP2 LT ISZERO PUSH2 0x7A0 JUMPI PUSH1 0x40 MLOAD PUSH32 0x8C379A000000000000000000000000000000000000000000000000000000000 DUP2 MSTORE PUSH1 0x4 ADD PUSH2 0x797 SWAP1 PUSH2 0x2010 JUMP JUMPDEST PUSH1 0x40 MLOAD DUP1 SWAP2 SUB SWAP1 REVERT JUMPDEST PUSH2 0x7A9 CALLER PUSH2 0x117B JUMP JUMPDEST PUSH2 0x7E8 JUMPI PUSH1 0x40 MLOAD PUSH32 0x8C379A000000000000000000000000000000000000000000000000000000000 DUP2 MSTORE PUSH1 0x4 ADD PUSH2 0x7DF SWAP1 PUSH2 0x2078 JUMP JUMPDEST PUSH1 0x40 MLOAD DUP1 SWAP2 SUB SWAP1 REVERT JUMPDEST PUSH1 0x3 DUP1 SLOAD LT PUSH2 0x82C JUMPI PUSH1 0x40 MLOAD PUSH32 0x8C379A000000000000000000000000000000000000000000000000000000000 DUP2 MSTORE PUSH1 0x4 ADD PUSH2 0x823 SWAP1 PUSH2 0x20E0 JUMP JUMPDEST PUSH1 0x40 MLOAD DUP1 SWAP2 SUB SWAP1 REVERT JUMPDEST PUSH0 PUSH0 SWAP1 SLOAD SWAP1 PUSH2 0x100 EXP SWAP1 DIV PUSH20 0xFFFFFFFFFFFFFFFFFFFFFFFFFFFFFFFFFFFFFFFF AND PUSH20 0xFFFFFFFFFFFFFFFFFFFFFFFFFFFFFFFFFFFFFFFF AND CALLER PUSH20 0xFFFFFFFFFFFFFFFFFFFFFFFFFFFFFFFFFFFFFFFF AND SUB PUSH2 0x8BA JUMPI PUSH1 0x40 MLOAD PUSH32 0x8C379A000000000000000000000000000000000000000000000000000000000 DUP2 MSTORE PUSH1 0x4 ADD PUSH2 0x8B1 SWAP1 PUSH2 0x216E JUMP JUMPDEST PUSH1 0x40 MLOAD DUP1 SWAP2 SUB SWAP1 REVERT JUMPDEST PUSH1 0x40 MLOAD DUP1 PUSH1 0xE0 ADD PUSH1 0x40 MSTORE DUP1 DUP9 DUP9 DUP1 DUP1 PUSH1 0x1F ADD PUSH1 0x20 DUP1 SWAP2 DIV MUL PUSH1 0x20 ADD PUSH1 0x40 MLOAD SWAP1 DUP2 ADD PUSH1 0x40 MSTORE DUP1 SWAP4 SWAP3 SWAP2 SWAP1 DUP2 DUP2 MSTORE PUSH1 0x20 ADD DUP4 DUP4 DUP1 DUP3 DUP5 CALLDATACOPY PUSH0 DUP2 DUP5 ADD MSTORE PUSH1 0x1F NOT PUSH1 0x1F DUP3 ADD AND SWAP1 POP DUP1 DUP4 ADD SWAP3 POP POP POP POP POP POP POP DUP2 MSTORE PUSH1 0x20 ADD DUP7 DUP7 DUP1 DUP1 PUSH1 0x1F ADD PUSH1 0x20 DUP1 SWAP2 DIV MUL PUSH1 0x20 ADD PUSH1 0x40 MLOAD SWAP1 DUP2 ADD PUSH1 0x40 MSTORE DUP1 SWAP4 SWAP3 SWAP2 SWAP1 DUP2 DUP2 MSTORE PUSH1 0x20 ADD DUP4 DUP4 DUP1 DUP3 DUP5 CALLDATACOPY PUSH0 DUP2 DUP5 ADD MSTORE PUSH1 0x1F NOT PUSH1 0x1F DUP3 ADD AND SWAP1 POP DUP1 DUP4 ADD SWAP3 POP POP POP POP POP POP POP DUP2 MSTORE PUSH1 0x20 ADD DUP5 DUP2 MSTORE PUSH1 0x20 ADD DUP4 PUSH1 0x3 DUP2 GT ISZERO PUSH2 0x970 JUMPI PUSH2 0x96F PUSH2 0x1345 JUMP JUMPDEST JUMPDEST DUP2 MSTORE PUSH1 0x20 ADD PUSH1 0x3 SLOAD DUP2 MSTORE PUSH1 0x20 ADD CALLER PUSH20 0xFFFFFFFFFFFFFFFFFFFFFFFFFFFFFFFFFFFFFFFF AND DUP2 MSTORE PUSH1 0x20 ADD PUSH0 DUP2 MSTORE POP PUSH1 0x8 PUSH0 PUSH1 0x3 SLOAD DUP2 MSTORE PUSH1 0x20 ADD SWAP1 DUP2 MSTORE PUSH1 0x20 ADD PUSH0 KECCAK256 PUSH0 DUP3 ADD MLOAD DUP2 PUSH0 ADD SWAP1 DUP2 PUSH2 0x9C3 SWAP2 SWAP1 PUSH2 0x1EF7 JUMP JUMPDEST POP PUSH1 0x20 DUP3 ADD MLOAD DUP2 PUSH1 0x1 ADD SWAP1 DUP2 PUSH2 0x9D9 SWAP2 SWAP1 PUSH2 0x1EF7 JUMP JUMPDEST POP PUSH1 0x40 DUP3 ADD MLOAD DUP2 PUSH1 0x2 ADD SSTORE PUSH1 0x60 DUP3 ADD MLOAD DUP2 PUSH1 0x3 ADD PUSH0 PUSH2 0x100 EXP DUP2 SLOAD DUP2 PUSH1 0xFF MUL NOT AND SWAP1 DUP4 PUSH1 0x3 DUP2 GT ISZERO PUSH2 0xA0E JUMPI PUSH2 0xA0D PUSH2 0x1345 JUMP JUMPDEST JUMPDEST MUL OR SWAP1 SSTORE POP PUSH1 0x80 DUP3 ADD MLOAD DUP2 PUSH1 0x4 ADD SSTORE PUSH1 0xA0 DUP3 ADD MLOAD DUP2 PUSH1 0x5 ADD PUSH0 PUSH2 0x100 EXP DUP2 SLOAD DUP2 PUSH20 0xFFFFFFFFFFFFFFFFFFFFFFFFFFFFFFFFFFFFFFFF MUL NOT AND SWAP1 DUP4 PUSH20 0xFFFFFFFFFFFFFFFFFFFFFFFFFFFFFFFFFFFFFFFF AND MUL OR SWAP1 SSTORE POP PUSH1 0xC0 DUP3 ADD MLOAD DUP2 PUSH1 0x6 ADD SSTORE SWAP1 POP POP PUSH1 0x3 PUSH0 DUP2 SLOAD DUP1 SWAP3 SWAP2 SWAP1 PUSH2 0xA82 SWAP1 PUSH2 0x1B4E JUMP JUMPDEST SWAP2 SWAP1 POP SSTORE POP POP POP POP POP POP POP POP JUMP JUMPDEST PUSH0 PUSH0 SWAP1 SLOAD SWAP1 PUSH2 0x100 EXP SWAP1 DIV PUSH20 0xFFFFFFFFFFFFFFFFFFFFFFFFFFFFFFFFFFFFFFFF AND PUSH20 0xFFFFFFFFFFFFFFFFFFFFFFFFFFFFFFFFFFFFFFFF AND CALLER PUSH20 0xFFFFFFFFFFFFFFFFFFFFFFFFFFFFFFFFFFFFFFFF AND EQ PUSH2 0xB1E JUMPI PUSH1 0x40 MLOAD PUSH32 0x8C379A000000000000000000000000000000000000000000000000000000000 DUP2 MSTORE PUSH1 0x4 ADD PUSH2 0xB15 SWAP1 PUSH2 0x1BDF JUMP JUMPDEST PUSH1 0x40 MLOAD DUP1 SWAP2 SUB SWAP1 REVERT JUMPDEST PUSH1 0x1 PUSH1 0x6 PUSH0 PUSH2 0x100 EXP DUP2 SLOAD DUP2 PUSH1 0xFF MUL NOT AND SWAP1 DUP4 ISZERO ISZERO MUL OR SWAP1 SSTORE POP JUMP JUMPDEST PUSH0 PUSH0 SWAP1 SLOAD SWAP1 PUSH2 0x100 EXP SWAP1 DIV PUSH20 0xFFFFFFFFFFFFFFFFFFFFFFFFFFFFFFFFFFFFFFFF AND PUSH20 0xFFFFFFFFFFFFFFFFFFFFFFFFFFFFFFFFFFFFFFFF AND CALLER PUSH20 0xFFFFFFFFFFFFFFFFFFFFFFFFFFFFFFFFFFFFFFFF AND EQ PUSH2 0xBC8 JUMPI PUSH1 0x40 MLOAD PUSH32 0x8C379A000000000000000000000000000000000000000000000000000000000 DUP2 MSTORE PUSH1 0x4 ADD PUSH2 0xBBF SWAP1 PUSH2 0x1BDF JUMP JUMPDEST PUSH1 0x40 MLOAD DUP1 SWAP2 SUB SWAP1 REVERT JUMPDEST DUP2 TIMESTAMP PUSH2 0xBD4 SWAP2 SWAP1 PUSH2 0x218C JUMP JUMPDEST PUSH1 0x4 DUP2 SWAP1 SSTORE POP DUP1 PUSH1 0x4 SLOAD PUSH2 0xBE8 SWAP2 SWAP1 PUSH2 0x218C JUMP JUMPDEST PUSH1 0x5 DUP2 SWAP1 SSTORE POP POP POP JUMP JUMPDEST PUSH0 PUSH0 SWAP1 SLOAD SWAP1 PUSH2 0x100 EXP SWAP1 DIV PUSH20 0xFFFFFFFFFFFFFFFFFFFFFFFFFFFFFFFFFFFFFFFF AND DUP2 JUMP JUMPDEST PUSH1 0x60 PUSH0 PUSH1 0x1 PUSH1 0x2 SLOAD PUSH2 0xC28 SWAP2 SWAP1 PUSH2 0x21BF JUMP JUMPDEST PUSH8 0xFFFFFFFFFFFFFFFF DUP2 GT ISZERO PUSH2 0xC41 JUMPI PUSH2 0xC40 PUSH2 0x1CCD JUMP JUMPDEST JUMPDEST PUSH1 0x40 MLOAD SWAP1 DUP1 DUP3 MSTORE DUP1 PUSH1 0x20 MUL PUSH1 0x20 ADD DUP3 ADD PUSH1 0x40 MSTORE DUP1 ISZERO PUSH2 0xC7A JUMPI DUP2 PUSH1 0x20 ADD JUMPDEST PUSH2 0xC67 PUSH2 0x1213 JUMP JUMPDEST DUP2 MSTORE PUSH1 0x20 ADD SWAP1 PUSH1 0x1 SWAP1 SUB SWAP1 DUP2 PUSH2 0xC5F JUMPI SWAP1 POP JUMPDEST POP SWAP1 POP PUSH0 PUSH0 SWAP1 POP JUMPDEST DUP2 MLOAD DUP2 LT ISZERO PUSH2 0xE1A JUMPI PUSH1 0x7 PUSH0 PUSH1 0x1 DUP4 PUSH2 0xC9B SWAP2 SWAP1 PUSH2 0x218C JUMP JUMPDEST DUP2 MSTORE PUSH1 0x20 ADD SWAP1 DUP2 MSTORE PUSH1 0x20 ADD PUSH0 KECCAK256 PUSH1 0x40 MLOAD DUP1 PUSH1 0xC0 ADD PUSH1 0x40 MSTORE SWAP1 DUP2 PUSH0 DUP3 ADD DUP1 SLOAD PUSH2 0xCC2 SWAP1 PUSH2 0x1D27 JUMP JUMPDEST DUP1 PUSH1 0x1F ADD PUSH1 0x20 DUP1 SWAP2 DIV MUL PUSH1 0x20 ADD PUSH1 0x40 MLOAD SWAP1 DUP2 ADD PUSH1 0x40 MSTORE DUP1 SWAP3 SWAP2 SWAP1 DUP2 DUP2 MSTORE PUSH1 0x20 ADD DUP3 DUP1 SLOAD PUSH2 0xCEE SWAP1 PUSH2 0x1D27 JUMP JUMPDEST DUP1 ISZERO PUSH2 0xD39 JUMPI DUP1 PUSH1 0x1F LT PUSH2 0xD10 JUMPI PUSH2 0x100 DUP1 DUP4 SLOAD DIV MUL DUP4 MSTORE SWAP2 PUSH1 0x20 ADD SWAP2 PUSH2 0xD39 JUMP JUMPDEST DUP3 ADD SWAP2 SWAP1 PUSH0 MSTORE PUSH1 0x20 PUSH0 KECCAK256 SWAP1 JUMPDEST DUP2 SLOAD DUP2 MSTORE SWAP1 PUSH1 0x1 ADD SWAP1 PUSH1 0x20 ADD DUP1 DUP4 GT PUSH2 0xD1C JUMPI DUP3 SWAP1 SUB PUSH1 0x1F AND DUP3 ADD SWAP2 JUMPDEST POP POP POP POP POP DUP2 MSTORE PUSH1 0x20 ADD PUSH1 0x1 DUP3 ADD SLOAD DUP2 MSTORE PUSH1 0x20 ADD PUSH1 0x2 DUP3 ADD SLOAD DUP2 MSTORE PUSH1 0x20 ADD PUSH1 0x3 DUP3 ADD PUSH0 SWAP1 SLOAD SWAP1 PUSH2 0x100 EXP SWAP1 DIV PUSH1 0xFF AND PUSH1 0x3 DUP2 GT ISZERO PUSH2 0xD7A JUMPI PUSH2 0xD79 PUSH2 0x1345 JUMP JUMPDEST JUMPDEST PUSH1 0x3 DUP2 GT ISZERO PUSH2 0xD8C JUMPI PUSH2 0xD8B PUSH2 0x1345 JUMP JUMPDEST JUMPDEST DUP2 MSTORE PUSH1 0x20 ADD PUSH1 0x4 DUP3 ADD SLOAD DUP2 MSTORE PUSH1 0x20 ADD PUSH1 0x5 DUP3 ADD PUSH0 SWAP1 SLOAD SWAP1 PUSH2 0x100 EXP SWAP1 DIV PUSH20 0xFFFFFFFFFFFFFFFFFFFFFFFFFFFFFFFFFFFFFFFF AND PUSH20 0xFFFFFFFFFFFFFFFFFFFFFFFFFFFFFFFFFFFFFFFF AND PUSH20 0xFFFFFFFFFFFFFFFFFFFFFFFFFFFFFFFFFFFFFFFF AND DUP2 MSTORE POP POP DUP3 DUP3 DUP2 MLOAD DUP2 LT PUSH2 0xE02 JUMPI PUSH2 0xE01 PUSH2 0x21F2 JUMP JUMPDEST JUMPDEST PUSH1 0x20 MUL PUSH1 0x20 ADD ADD DUP2 SWAP1 MSTORE POP DUP1 DUP1 PUSH1 0x1 ADD SWAP2 POP POP PUSH2 0xC82 JUMP JUMPDEST POP DUP1 SWAP2 POP POP SWAP1 JUMP JUMPDEST PUSH1 0x1 PUSH0 SWAP1 SLOAD SWAP1 PUSH2 0x100 EXP SWAP1 DIV PUSH20 0xFFFFFFFFFFFFFFFFFFFFFFFFFFFFFFFFFFFFFFFF AND DUP2 JUMP JUMPDEST PUSH1 0x60 PUSH0 PUSH1 0x1 PUSH1 0x3 SLOAD PUSH2 0xE59 SWAP2 SWAP1 PUSH2 0x21BF JUMP JUMPDEST PUSH8 0xFFFFFFFFFFFFFFFF DUP2 GT ISZERO PUSH2 0xE72 JUMPI PUSH2 0xE71 PUSH2 0x1CCD JUMP JUMPDEST JUMPDEST PUSH1 0x40 MLOAD SWAP1 DUP1 DUP3 MSTORE DUP1 PUSH1 0x20 MUL PUSH1 0x20 ADD DUP3 ADD PUSH1 0x40 MSTORE DUP1 ISZERO PUSH2 0xEAB JUMPI DUP2 PUSH1 0x20 ADD JUMPDEST PUSH2 0xE98 PUSH2 0x126C JUMP JUMPDEST DUP2 MSTORE PUSH1 0x20 ADD SWAP1 PUSH1 0x1 SWAP1 SUB SWAP1 DUP2 PUSH2 0xE90 JUMPI SWAP1 POP JUMPDEST POP SWAP1 POP PUSH0 PUSH0 SWAP1 POP JUMPDEST DUP2 MLOAD DUP2 LT ISZERO PUSH2 0x10DB JUMPI PUSH1 0x8 PUSH0 PUSH1 0x1 DUP4 PUSH2 0xECC SWAP2 SWAP1 PUSH2 0x218C JUMP JUMPDEST DUP2 MSTORE PUSH1 0x20 ADD SWAP1 DUP2 MSTORE PUSH1 0x20 ADD PUSH0 KECCAK256 PUSH1 0x40 MLOAD DUP1 PUSH1 0xE0 ADD PUSH1 0x40 MSTORE SWAP1 DUP2 PUSH0 DUP3 ADD DUP1 SLOAD PUSH2 0xEF3 SWAP1 PUSH2 0x1D27 JUMP JUMPDEST DUP1 PUSH1 0x1F ADD PUSH1 0x20 DUP1 SWAP2 DIV MUL PUSH1 0x20 ADD PUSH1 0x40 MLOAD SWAP1 DUP2 ADD PUSH1 0x40 MSTORE DUP1 SWAP3 SWAP2 SWAP1 DUP2 DUP2 MSTORE PUSH1 0x20 ADD DUP3 DUP1 SLOAD PUSH2 0xF1F SWAP1 PUSH2 0x1D27 JUMP JUMPDEST DUP1 ISZERO PUSH2 0xF6A JUMPI DUP1 PUSH1 0x1F LT PUSH2 0xF41 JUMPI PUSH2 0x100 DUP1 DUP4 SLOAD DIV MUL DUP4 MSTORE SWAP2 PUSH1 0x20 ADD SWAP2 PUSH2 0xF6A JUMP JUMPDEST DUP3 ADD SWAP2 SWAP1 PUSH0 MSTORE PUSH1 0x20 PUSH0 KECCAK256 SWAP1 JUMPDEST DUP2 SLOAD DUP2 MSTORE SWAP1 PUSH1 0x1 ADD SWAP1 PUSH1 0x20 ADD DUP1 DUP4 GT PUSH2 0xF4D JUMPI DUP3 SWAP1 SUB PUSH1 0x1F AND DUP3 ADD SWAP2 JUMPDEST POP POP POP POP POP DUP2 MSTORE PUSH1 0x20 ADD PUSH1 0x1 DUP3 ADD DUP1 SLOAD PUSH2 0xF83 SWAP1 PUSH2 0x1D27 JUMP JUMPDEST DUP1 PUSH1 0x1F ADD PUSH1 0x20 DUP1 SWAP2 DIV MUL PUSH1 0x20 ADD PUSH1 0x40 MLOAD SWAP1 DUP2 ADD PUSH1 0x40 MSTORE DUP1 SWAP3 SWAP2 SWAP1 DUP2 DUP2 MSTORE PUSH1 0x20 ADD DUP3 DUP1 SLOAD PUSH2 0xFAF SWAP1 PUSH2 0x1D27 JUMP JUMPDEST DUP1 ISZERO PUSH2 0xFFA JUMPI DUP1 PUSH1 0x1F LT PUSH2 0xFD1 JUMPI PUSH2 0x100 DUP1 DUP4 SLOAD DIV MUL DUP4 MSTORE SWAP2 PUSH1 0x20 ADD SWAP2 PUSH2 0xFFA JUMP JUMPDEST DUP3 ADD SWAP2 SWAP1 PUSH0 MSTORE PUSH1 0x20 PUSH0 KECCAK256 SWAP1 JUMPDEST DUP2 SLOAD DUP2 MSTORE SWAP1 PUSH1 0x1 ADD SWAP1 PUSH1 0x20 ADD DUP1 DUP4 GT PUSH2 0xFDD JUMPI DUP3 SWAP1 SUB PUSH1 0x1F AND DUP3 ADD SWAP2 JUMPDEST POP POP POP POP POP DUP2 MSTORE PUSH1 0x20 ADD PUSH1 0x2 DUP3 ADD SLOAD DUP2 MSTORE PUSH1 0x20 ADD PUSH1 0x3 DUP3 ADD PUSH0 SWAP1 SLOAD SWAP1 PUSH2 0x100 EXP SWAP1 DIV PUSH1 0xFF AND PUSH1 0x3 DUP2 GT ISZERO PUSH2 0x1031 JUMPI PUSH2 0x1030 PUSH2 0x1345 JUMP JUMPDEST JUMPDEST PUSH1 0x3 DUP2 GT ISZERO PUSH2 0x1043 JUMPI PUSH2 0x1042 PUSH2 0x1345 JUMP JUMPDEST JUMPDEST DUP2 MSTORE PUSH1 0x20 ADD PUSH1 0x4 DUP3 ADD SLOAD DUP2 MSTORE PUSH1 0x20 ADD PUSH1 0x5 DUP3 ADD PUSH0 SWAP1 SLOAD SWAP1 PUSH2 0x100 EXP SWAP1 DIV PUSH20 0xFFFFFFFFFFFFFFFFFFFFFFFFFFFFFFFFFFFFFFFF AND PUSH20 0xFFFFFFFFFFFFFFFFFFFFFFFFFFFFFFFFFFFFFFFF AND PUSH20 0xFFFFFFFFFFFFFFFFFFFFFFFFFFFFFFFFFFFFFFFF AND DUP2 MSTORE PUSH1 0x20 ADD PUSH1 0x6 DUP3 ADD SLOAD DUP2 MSTORE POP POP DUP3 DUP3 DUP2 MLOAD DUP2 LT PUSH2 0x10C3 JUMPI PUSH2 0x10C2 PUSH2 0x21F2 JUMP JUMPDEST JUMPDEST PUSH1 0x20 MUL PUSH1 0x20 ADD ADD DUP2 SWAP1 MSTORE POP DUP1 DUP1 PUSH1 0x1 ADD SWAP2 POP POP PUSH2 0xEB3 JUMP JUMPDEST POP DUP1 SWAP2 POP POP SWAP1 JUMP JUMPDEST PUSH0 PUSH0 PUSH1 0x1 SWAP1 POP JUMPDEST PUSH1 0x2 SLOAD DUP2 LT ISZERO PUSH2 0x1170 JUMPI DUP3 PUSH20 0xFFFFFFFFFFFFFFFFFFFFFFFFFFFFFFFFFFFFFFFF AND PUSH1 0x7 PUSH0 DUP4 DUP2 MSTORE PUSH1 0x20 ADD SWAP1 DUP2 MSTORE PUSH1 0x20 ADD PUSH0 KECCAK256 PUSH1 0x5 ADD PUSH0 SWAP1 SLOAD SWAP1 PUSH2 0x100 EXP SWAP1 DIV PUSH20 0xFFFFFFFFFFFFFFFFFFFFFFFFFFFFFFFFFFFFFFFF AND PUSH20 0xFFFFFFFFFFFFFFFFFFFFFFFFFFFFFFFFFFFFFFFF AND SUB PUSH2 0x1163 JUMPI PUSH0 SWAP2 POP POP PUSH2 0x1176 JUMP JUMPDEST DUP1 DUP1 PUSH1 0x1 ADD SWAP2 POP POP PUSH2 0x10EA JUMP JUMPDEST POP PUSH1 0x1 SWAP1 POP JUMPDEST SWAP2 SWAP1 POP JUMP JUMPDEST PUSH0 PUSH0 PUSH1 0x1 SWAP1 POP JUMPDEST PUSH1 0x3 SLOAD DUP2 LT ISZERO PUSH2 0x1208 JUMPI DUP3 PUSH20 0xFFFFFFFFFFFFFFFFFFFFFFFFFFFFFFFFFFFFFFFF AND PUSH1 0x8 PUSH0 DUP4 DUP2 MSTORE PUSH1 0x20 ADD SWAP1 DUP2 MSTORE PUSH1 0x20 ADD PUSH0 KECCAK256 PUSH1 0x5 ADD PUSH0 SWAP1 SLOAD SWAP1 PUSH2 0x100 EXP SWAP1 DIV PUSH20 0xFFFFFFFFFFFFFFFFFFFFFFFFFFFFFFFFFFFFFFFF AND PUSH20 0xFFFFFFFFFFFFFFFFFFFFFFFFFFFFFFFFFFFFFFFF AND SUB PUSH2 0x11FB JUMPI PUSH0 SWAP2 POP POP PUSH2 0x120E JUMP JUMPDEST DUP1 DUP1 PUSH1 0x1 ADD SWAP2 POP POP PUSH2 0x1182 JUMP JUMPDEST POP PUSH1 0x1 SWAP1 POP JUMPDEST SWAP2 SWAP1 POP JUMP JUMPDEST PUSH1 0x40 MLOAD DUP1 PUSH1 0xC0 ADD PUSH1 0x40 MSTORE DUP1 PUSH1 0x60 DUP2 MSTORE PUSH1 0x20 ADD PUSH0 DUP2 MSTORE PUSH1 0x20 ADD PUSH0 DUP2 MSTORE PUSH1 0x20 ADD PUSH0 PUSH1 0x3 DUP2 GT ISZERO PUSH2 0x1244 JUMPI PUSH2 0x1243 PUSH2 0x1345 JUMP JUMPDEST JUMPDEST DUP2 MSTORE PUSH1 0x20 ADD PUSH0 DUP2 MSTORE PUSH1 0x20 ADD PUSH0 PUSH20 0xFFFFFFFFFFFFFFFFFFFFFFFFFFFFFFFFFFFFFFFF AND DUP2 MSTORE POP SWAP1 JUMP JUMPDEST PUSH1 0x40 MLOAD DUP1 PUSH1 0xE0 ADD PUSH1 0x40 MSTORE DUP1 PUSH1 0x60 DUP2 MSTORE PUSH1 0x20 ADD PUSH1 0x60 DUP2 MSTORE PUSH1 0x20 ADD PUSH0 DUP2 MSTORE PUSH1 0x20 ADD PUSH0 PUSH1 0x3 DUP2 GT ISZERO PUSH2 0x129E JUMPI PUSH2 0x129D PUSH2 0x1345 JUMP JUMPDEST JUMPDEST DUP2 MSTORE PUSH1 0x20 ADD PUSH0 DUP2 MSTORE PUSH1 0x20 ADD PUSH0 PUSH20 0xFFFFFFFFFFFFFFFFFFFFFFFFFFFFFFFFFFFFFFFF AND DUP2 MSTORE PUSH1 0x20 ADD PUSH0 DUP2 MSTORE POP SWAP1 JUMP JUMPDEST PUSH0 PUSH0 REVERT JUMPDEST PUSH0 PUSH0 REVERT JUMPDEST PUSH0 DUP2 SWAP1 POP SWAP2 SWAP1 POP JUMP JUMPDEST PUSH2 0x12E6 DUP2 PUSH2 0x12D4 JUMP JUMPDEST DUP2 EQ PUSH2 0x12F0 JUMPI PUSH0 PUSH0 REVERT JUMPDEST POP JUMP JUMPDEST PUSH0 DUP2 CALLDATALOAD SWAP1 POP PUSH2 0x1301 DUP2 PUSH2 0x12DD JUMP JUMPDEST SWAP3 SWAP2 POP POP JUMP JUMPDEST PUSH0 PUSH0 PUSH1 0x40 DUP4 DUP6 SUB SLT ISZERO PUSH2 0x131D JUMPI PUSH2 0x131C PUSH2 0x12CC JUMP JUMPDEST JUMPDEST PUSH0 PUSH2 0x132A DUP6 DUP3 DUP7 ADD PUSH2 0x12F3 JUMP JUMPDEST SWAP3 POP POP PUSH1 0x20 PUSH2 0x133B DUP6 DUP3 DUP7 ADD PUSH2 0x12F3 JUMP JUMPDEST SWAP2 POP POP SWAP3 POP SWAP3 SWAP1 POP JUMP JUMPDEST PUSH32 0x4E487B7100000000000000000000000000000000000000000000000000000000 PUSH0 MSTORE PUSH1 0x21 PUSH1 0x4 MSTORE PUSH1 0x24 PUSH0 REVERT JUMPDEST PUSH1 0x3 DUP2 LT PUSH2 0x1383 JUMPI PUSH2 0x1382 PUSH2 0x1345 JUMP JUMPDEST JUMPDEST POP JUMP JUMPDEST PUSH0 DUP2 SWAP1 POP PUSH2 0x1393 DUP3 PUSH2 0x1372 JUMP JUMPDEST SWAP2 SWAP1 POP JUMP JUMPDEST PUSH0 PUSH2 0x13A2 DUP3 PUSH2 0x1386 JUMP JUMPDEST SWAP1 POP SWAP2 SWAP1 POP JUMP JUMPDEST PUSH2 0x13B2 DUP2 PUSH2 0x1398 JUMP JUMPDEST DUP3 MSTORE POP POP JUMP JUMPDEST PUSH0 PUSH1 0x20 DUP3 ADD SWAP1 POP PUSH2 0x13CB PUSH0 DUP4 ADD DUP5 PUSH2 0x13A9 JUMP JUMPDEST SWAP3 SWAP2 POP POP JUMP JUMPDEST PUSH0 PUSH0 REVERT JUMPDEST PUSH0 PUSH0 REVERT JUMPDEST PUSH0 PUSH0 REVERT JUMPDEST PUSH0 PUSH0 DUP4 PUSH1 0x1F DUP5 ADD SLT PUSH2 0x13F2 JUMPI PUSH2 0x13F1 PUSH2 0x13D1 JUMP JUMPDEST JUMPDEST DUP3 CALLDATALOAD SWAP1 POP PUSH8 0xFFFFFFFFFFFFFFFF DUP2 GT ISZERO PUSH2 0x140F JUMPI PUSH2 0x140E PUSH2 0x13D5 JUMP JUMPDEST JUMPDEST PUSH1 0x20 DUP4 ADD SWAP2 POP DUP4 PUSH1 0x1 DUP3 MUL DUP4 ADD GT ISZERO PUSH2 0x142B JUMPI PUSH2 0x142A PUSH2 0x13D9 JUMP JUMPDEST JUMPDEST SWAP3 POP SWAP3 SWAP1 POP JUMP JUMPDEST PUSH1 0x4 DUP2 LT PUSH2 0x143E JUMPI PUSH0 PUSH0 REVERT JUMPDEST POP JUMP JUMPDEST PUSH0 DUP2 CALLDATALOAD SWAP1 POP PUSH2 0x144F DUP2 PUSH2 0x1432 JUMP JUMPDEST SWAP3 SWAP2 POP POP JUMP JUMPDEST PUSH0 PUSH0 PUSH0 PUSH0 PUSH1 0x60 DUP6 DUP8 SUB SLT ISZERO PUSH2 0x146D JUMPI PUSH2 0x146C PUSH2 0x12CC JUMP JUMPDEST JUMPDEST PUSH0 DUP6 ADD CALLDATALOAD PUSH8 0xFFFFFFFFFFFFFFFF DUP2 GT ISZERO PUSH2 0x148A JUMPI PUSH2 0x1489 PUSH2 0x12D0 JUMP JUMPDEST JUMPDEST PUSH2 0x1496 DUP8 DUP3 DUP9 ADD PUSH2 0x13DD JUMP JUMPDEST SWAP5 POP SWAP5 POP POP PUSH1 0x20 PUSH2 0x14A9 DUP8 DUP3 DUP9 ADD PUSH2 0x12F3 JUMP JUMPDEST SWAP3 POP POP PUSH1 0x40 PUSH2 0x14BA DUP8 DUP3 DUP9 ADD PUSH2 0x1441 JUMP JUMPDEST SWAP2 POP POP SWAP3 SWAP6 SWAP2 SWAP5 POP SWAP3 POP JUMP JUMPDEST PUSH0 PUSH0 PUSH0 PUSH0 PUSH0 PUSH0 PUSH1 0x80 DUP8 DUP10 SUB SLT ISZERO PUSH2 0x14E0 JUMPI PUSH2 0x14DF PUSH2 0x12CC JUMP JUMPDEST JUMPDEST PUSH0 DUP8 ADD CALLDATALOAD PUSH8 0xFFFFFFFFFFFFFFFF DUP2 GT ISZERO PUSH2 0x14FD JUMPI PUSH2 0x14FC PUSH2 0x12D0 JUMP JUMPDEST JUMPDEST PUSH2 0x1509 DUP10 DUP3 DUP11 ADD PUSH2 0x13DD JUMP JUMPDEST SWAP7 POP SWAP7 POP POP PUSH1 0x20 DUP8 ADD CALLDATALOAD PUSH8 0xFFFFFFFFFFFFFFFF DUP2 GT ISZERO PUSH2 0x152C JUMPI PUSH2 0x152B PUSH2 0x12D0 JUMP JUMPDEST JUMPDEST PUSH2 0x1538 DUP10 DUP3 DUP11 ADD PUSH2 0x13DD JUMP JUMPDEST SWAP5 POP SWAP5 POP POP PUSH1 0x40 PUSH2 0x154B DUP10 DUP3 DUP11 ADD PUSH2 0x12F3 JUMP JUMPDEST SWAP3 POP POP PUSH1 0x60 PUSH2 0x155C DUP10 DUP3 DUP11 ADD PUSH2 0x1441 JUMP JUMPDEST SWAP2 POP POP SWAP3 SWAP6 POP SWAP3 SWAP6 POP SWAP3 SWAP6 JUMP JUMPDEST PUSH0 PUSH20 0xFFFFFFFFFFFFFFFFFFFFFFFFFFFFFFFFFFFFFFFF DUP3 AND SWAP1 POP SWAP2 SWAP1 POP JUMP JUMPDEST PUSH0 PUSH2 0x1592 DUP3 PUSH2 0x1569 JUMP JUMPDEST SWAP1 POP SWAP2 SWAP1 POP JUMP JUMPDEST PUSH2 0x15A2 DUP2 PUSH2 0x1588 JUMP JUMPDEST DUP3 MSTORE POP POP JUMP JUMPDEST PUSH0 PUSH1 0x20 DUP3 ADD SWAP1 POP PUSH2 0x15BB PUSH0 DUP4 ADD DUP5 PUSH2 0x1599 JUMP JUMPDEST SWAP3 SWAP2 POP POP JUMP JUMPDEST PUSH0 DUP2 MLOAD SWAP1 POP SWAP2 SWAP1 POP JUMP JUMPDEST PUSH0 DUP3 DUP3 MSTORE PUSH1 0x20 DUP3 ADD SWAP1 POP SWAP3 SWAP2 POP POP JUMP JUMPDEST PUSH0 DUP2 SWAP1 POP PUSH1 0x20 DUP3 ADD SWAP1 POP SWAP2 SWAP1 POP JUMP JUMPDEST PUSH0 DUP2 MLOAD SWAP1 POP SWAP2 SWAP1 POP JUMP JUMPDEST PUSH0 DUP3 DUP3 MSTORE PUSH1 0x20 DUP3 ADD SWAP1 POP SWAP3 SWAP2 POP POP JUMP JUMPDEST DUP3 DUP2 DUP4 MCOPY PUSH0 DUP4 DUP4 ADD MSTORE POP POP POP JUMP JUMPDEST PUSH0 PUSH1 0x1F NOT PUSH1 0x1F DUP4 ADD AND SWAP1 POP SWAP2 SWAP1 POP JUMP JUMPDEST PUSH0 PUSH2 0x162C DUP3 PUSH2 0x15EA JUMP JUMPDEST PUSH2 0x1636 DUP2 DUP6 PUSH2 0x15F4 JUMP JUMPDEST SWAP4 POP PUSH2 0x1646 DUP2 DUP6 PUSH1 0x20 DUP7 ADD PUSH2 0x1604 JUMP JUMPDEST PUSH2 0x164F DUP2 PUSH2 0x1612 JUMP JUMPDEST DUP5 ADD SWAP2 POP POP SWAP3 SWAP2 POP POP JUMP JUMPDEST PUSH2 0x1663 DUP2 PUSH2 0x12D4 JUMP JUMPDEST DUP3 MSTORE POP POP JUMP JUMPDEST PUSH1 0x4 DUP2 LT PUSH2 0x167A JUMPI PUSH2 0x1679 PUSH2 0x1345 JUMP JUMPDEST JUMPDEST POP JUMP JUMPDEST PUSH0 DUP2 SWAP1 POP PUSH2 0x168A DUP3 PUSH2 0x1669 JUMP JUMPDEST SWAP2 SWAP1 POP JUMP JUMPDEST PUSH0 PUSH2 0x1699 DUP3 PUSH2 0x167D JUMP JUMPDEST SWAP1 POP SWAP2 SWAP1 POP JUMP JUMPDEST PUSH2 0x16A9 DUP2 PUSH2 0x168F JUMP JUMPDEST DUP3 MSTORE POP POP JUMP JUMPDEST PUSH2 0x16B8 DUP2 PUSH2 0x1588 JUMP JUMPDEST DUP3 MSTORE POP POP JUMP JUMPDEST PUSH0 PUSH1 0xC0 DUP4 ADD PUSH0 DUP4 ADD MLOAD DUP5 DUP3 SUB PUSH0 DUP7 ADD MSTORE PUSH2 0x16D8 DUP3 DUP3 PUSH2 0x1622 JUMP JUMPDEST SWAP2 POP POP PUSH1 0x20 DUP4 ADD MLOAD PUSH2 0x16ED PUSH1 0x20 DUP7 ADD DUP3 PUSH2 0x165A JUMP JUMPDEST POP PUSH1 0x40 DUP4 ADD MLOAD PUSH2 0x1700 PUSH1 0x40 DUP7 ADD DUP3 PUSH2 0x165A JUMP JUMPDEST POP PUSH1 0x60 DUP4 ADD MLOAD PUSH2 0x1713 PUSH1 0x60 DUP7 ADD DUP3 PUSH2 0x16A0 JUMP JUMPDEST POP PUSH1 0x80 DUP4 ADD MLOAD PUSH2 0x1726 PUSH1 0x80 DUP7 ADD DUP3 PUSH2 0x165A JUMP JUMPDEST POP PUSH1 0xA0 DUP4 ADD MLOAD PUSH2 0x1739 PUSH1 0xA0 DUP7 ADD DUP3 PUSH2 0x16AF JUMP JUMPDEST POP DUP1 SWAP2 POP POP SWAP3 SWAP2 POP POP JUMP JUMPDEST PUSH0 PUSH2 0x174F DUP4 DUP4 PUSH2 0x16BE JUMP JUMPDEST SWAP1 POP SWAP3 SWAP2 POP POP JUMP JUMPDEST PUSH0 PUSH1 0x20 DUP3 ADD SWAP1 POP SWAP2 SWAP1 POP JUMP JUMPDEST PUSH0 PUSH2 0x176D DUP3 PUSH2 0x15C1 JUMP JUMPDEST PUSH2 0x1777 DUP2 DUP6 PUSH2 0x15CB JUMP JUMPDEST SWAP4 POP DUP4 PUSH1 0x20 DUP3 MUL DUP6 ADD PUSH2 0x1789 DUP6 PUSH2 0x15DB JUMP JUMPDEST DUP1 PUSH0 JUMPDEST DUP6 DUP2 LT ISZERO PUSH2 0x17C4 JUMPI DUP5 DUP5 SUB DUP10 MSTORE DUP2 MLOAD PUSH2 0x17A5 DUP6 DUP3 PUSH2 0x1744 JUMP JUMPDEST SWAP5 POP PUSH2 0x17B0 DUP4 PUSH2 0x1757 JUMP JUMPDEST SWAP3 POP PUSH1 0x20 DUP11 ADD SWAP10 POP POP PUSH1 0x1 DUP2 ADD SWAP1 POP PUSH2 0x178C JUMP JUMPDEST POP DUP3 SWAP8 POP DUP8 SWAP6 POP POP POP POP POP POP SWAP3 SWAP2 POP POP JUMP JUMPDEST PUSH0 PUSH1 0x20 DUP3 ADD SWAP1 POP DUP2 DUP2 SUB PUSH0 DUP4 ADD MSTORE PUSH2 0x17EE DUP2 DUP5 PUSH2 0x1763 JUMP JUMPDEST SWAP1 POP SWAP3 SWAP2 POP POP JUMP JUMPDEST PUSH0 DUP2 MLOAD SWAP1 POP SWAP2 SWAP1 POP JUMP JUMPDEST PUSH0 DUP3 DUP3 MSTORE PUSH1 0x20 DUP3 ADD SWAP1 POP SWAP3 SWAP2 POP POP JUMP JUMPDEST PUSH0 DUP2 SWAP1 POP PUSH1 0x20 DUP3 ADD SWAP1 POP SWAP2 SWAP1 POP JUMP JUMPDEST PUSH0 PUSH1 0xE0 DUP4 ADD PUSH0 DUP4 ADD MLOAD DUP5 DUP3 SUB PUSH0 DUP7 ADD MSTORE PUSH2 0x1839 DUP3 DUP3 PUSH2 0x1622 JUMP JUMPDEST SWAP2 POP POP PUSH1 0x20 DUP4 ADD MLOAD DUP5 DUP3 SUB PUSH1 0x20 DUP7 ADD MSTORE PUSH2 0x1853 DUP3 DUP3 PUSH2 0x1622 JUMP JUMPDEST SWAP2 POP POP PUSH1 0x40 DUP4 ADD MLOAD PUSH2 0x1868 PUSH1 0x40 DUP7 ADD DUP3 PUSH2 0x165A JUMP JUMPDEST POP PUSH1 0x60 DUP4 ADD MLOAD PUSH2 0x187B PUSH1 0x60 DUP7 ADD DUP3 PUSH2 0x16A0 JUMP JUMPDEST POP PUSH1 0x80 DUP4 ADD MLOAD PUSH2 0x188E PUSH1 0x80 DUP7 ADD DUP3 PUSH2 0x165A JUMP JUMPDEST POP PUSH1 0xA0 DUP4 ADD MLOAD PUSH2 0x18A1 PUSH1 0xA0 DUP7 ADD DUP3 PUSH2 0x16AF JUMP JUMPDEST POP PUSH1 0xC0 DUP4 ADD MLOAD PUSH2 0x18B4 PUSH1 0xC0 DUP7 ADD DUP3 PUSH2 0x165A JUMP JUMPDEST POP DUP1 SWAP2 POP POP SWAP3 SWAP2 POP POP JUMP JUMPDEST PUSH0 PUSH2 0x18CA DUP4 DUP4 PUSH2 0x181F JUMP JUMPDEST SWAP1 POP SWAP3 SWAP2 POP POP JUMP JUMPDEST PUSH0 PUSH1 0x20 DUP3 ADD SWAP1 POP SWAP2 SWAP1 POP JUMP JUMPDEST PUSH0 PUSH2 0x18E8 DUP3 PUSH2 0x17F6 JUMP JUMPDEST PUSH2 0x18F2 DUP2 DUP6 PUSH2 0x1800 JUMP JUMPDEST SWAP4 POP DUP4 PUSH1 0x20 DUP3 MUL DUP6 ADD PUSH2 0x1904 DUP6 PUSH2 0x1810 JUMP JUMPDEST DUP1 PUSH0 JUMPDEST DUP6 DUP2 LT ISZERO PUSH2 0x193F JUMPI DUP5 DUP5 SUB DUP10 MSTORE DUP2 MLOAD PUSH2 0x1920 DUP6 DUP3 PUSH2 0x18BF JUMP JUMPDEST SWAP5 POP PUSH2 0x192B DUP4 PUSH2 0x18D2 JUMP JUMPDEST SWAP3 POP PUSH1 0x20 DUP11 ADD SWAP10 POP POP PUSH1 0x1 DUP2 ADD SWAP1 POP PUSH2 0x1907 JUMP JUMPDEST POP DUP3 SWAP8 POP DUP8 SWAP6 POP POP POP POP POP POP SWAP3 SWAP2 POP POP JUMP JUMPDEST PUSH0 PUSH1 0x20 DUP3 ADD SWAP1 POP DUP2 DUP2 SUB PUSH0 DUP4 ADD MSTORE PUSH2 0x1969 DUP2 DUP5 PUSH2 0x18DE JUMP JUMPDEST SWAP1 POP SWAP3 SWAP2 POP POP JUMP JUMPDEST PUSH0 DUP3 DUP3 MSTORE PUSH1 0x20 DUP3 ADD SWAP1 POP SWAP3 SWAP2 POP POP JUMP JUMPDEST PUSH32 0x566F74696E672074696D65206973206F76657200000000000000000000000000 PUSH0 DUP3 ADD MSTORE POP JUMP JUMPDEST PUSH0 PUSH2 0x19B5 PUSH1 0x13 DUP4 PUSH2 0x1971 JUMP JUMPDEST SWAP2 POP PUSH2 0x19C0 DUP3 PUSH2 0x1981 JUMP JUMPDEST PUSH1 0x20 DUP3 ADD SWAP1 POP SWAP2 SWAP1 POP JUMP JUMPDEST PUSH0 PUSH1 0x20 DUP3 ADD SWAP1 POP DUP2 DUP2 SUB PUSH0 DUP4 ADD MSTORE PUSH2 0x19E2 DUP2 PUSH2 0x19A9 JUMP JUMPDEST SWAP1 POP SWAP2 SWAP1 POP JUMP JUMPDEST PUSH32 0x796F75206861766520616C726561647920766F74650000000000000000000000 PUSH0 DUP3 ADD MSTORE POP JUMP JUMPDEST PUSH0 PUSH2 0x1A1D PUSH1 0x15 DUP4 PUSH2 0x1971 JUMP JUMPDEST SWAP2 POP PUSH2 0x1A28 DUP3 PUSH2 0x19E9 JUMP JUMPDEST PUSH1 0x20 DUP3 ADD SWAP1 POP SWAP2 SWAP1 POP JUMP JUMPDEST PUSH0 PUSH1 0x20 DUP3 ADD SWAP1 POP DUP2 DUP2 SUB PUSH0 DUP4 ADD MSTORE PUSH2 0x1A4A DUP2 PUSH2 0x1A11 JUMP JUMPDEST SWAP1 POP SWAP2 SWAP1 POP JUMP JUMPDEST PUSH32 0x596F7520646F6E742062656C6F6E6720746F2074686973206163636F756E7400 PUSH0 DUP3 ADD MSTORE POP JUMP JUMPDEST PUSH0 PUSH2 0x1A85 PUSH1 0x1F DUP4 PUSH2 0x1971 JUMP JUMPDEST SWAP2 POP PUSH2 0x1A90 DUP3 PUSH2 0x1A51 JUMP JUMPDEST PUSH1 0x20 DUP3 ADD SWAP1 POP SWAP2 SWAP1 POP JUMP JUMPDEST PUSH0 PUSH1 0x20 DUP3 ADD SWAP1 POP DUP2 DUP2 SUB PUSH0 DUP4 ADD MSTORE PUSH2 0x1AB2 DUP2 PUSH2 0x1A79 JUMP JUMPDEST SWAP1 POP SWAP2 SWAP1 POP JUMP JUMPDEST PUSH32 0x43616E646964617465206973206E6F7420636F72726563740000000000000000 PUSH0 DUP3 ADD MSTORE POP JUMP JUMPDEST PUSH0 PUSH2 0x1AED PUSH1 0x18 DUP4 PUSH2 0x1971 JUMP JUMPDEST SWAP2 POP PUSH2 0x1AF8 DUP3 PUSH2 0x1AB9 JUMP JUMPDEST PUSH1 0x20 DUP3 ADD SWAP1 POP SWAP2 SWAP1 POP JUMP JUMPDEST PUSH0 PUSH1 0x20 DUP3 ADD SWAP1 POP DUP2 DUP2 SUB PUSH0 DUP4 ADD MSTORE PUSH2 0x1B1A DUP2 PUSH2 0x1AE1 JUMP JUMPDEST SWAP1 POP SWAP2 SWAP1 POP JUMP JUMPDEST PUSH32 0x4E487B7100000000000000000000000000000000000000000000000000000000 PUSH0 MSTORE PUSH1 0x11 PUSH1 0x4 MSTORE PUSH1 0x24 PUSH0 REVERT JUMPDEST PUSH0 PUSH2 0x1B58 DUP3 PUSH2 0x12D4 JUMP JUMPDEST SWAP2 POP PUSH32 0xFFFFFFFFFFFFFFFFFFFFFFFFFFFFFFFFFFFFFFFFFFFFFFFFFFFFFFFFFFFFFFFF DUP3 SUB PUSH2 0x1B8A JUMPI PUSH2 0x1B89 PUSH2 0x1B21 JUMP JUMPDEST JUMPDEST PUSH1 0x1 DUP3 ADD SWAP1 POP SWAP2 SWAP1 POP JUMP JUMPDEST PUSH32 0x4E6F742061757468756F72697A65640000000000000000000000000000000000 PUSH0 DUP3 ADD MSTORE POP JUMP JUMPDEST PUSH0 PUSH2 0x1BC9 PUSH1 0xF DUP4 PUSH2 0x1971 JUMP JUMPDEST SWAP2 POP PUSH2 0x1BD4 DUP3 PUSH2 0x1B95 JUMP JUMPDEST PUSH1 0x20 DUP3 ADD SWAP1 POP SWAP2 SWAP1 POP JUMP JUMPDEST PUSH0 PUSH1 0x20 DUP3 ADD SWAP1 POP DUP2 DUP2 SUB PUSH0 DUP4 ADD MSTORE PUSH2 0x1BF6 DUP2 PUSH2 0x1BBD JUMP JUMPDEST SWAP1 POP SWAP2 SWAP1 POP JUMP JUMPDEST PUSH32 0x4E6F20766F74657320636173742E000000000000000000000000000000000000 PUSH0 DUP3 ADD MSTORE POP JUMP JUMPDEST PUSH0 PUSH2 0x1C31 PUSH1 0xE DUP4 PUSH2 0x1971 JUMP JUMPDEST SWAP2 POP PUSH2 0x1C3C DUP3 PUSH2 0x1BFD JUMP JUMPDEST PUSH1 0x20 DUP3 ADD SWAP1 POP SWAP2 SWAP1 POP JUMP JUMPDEST PUSH0 PUSH1 0x20 DUP3 ADD SWAP1 POP DUP2 DUP2 SUB PUSH0 DUP4 ADD MSTORE PUSH2 0x1C5E DUP2 PUSH2 0x1C25 JUMP JUMPDEST SWAP1 POP SWAP2 SWAP1 POP JUMP JUMPDEST PUSH32 0x596F75206861766520616C726561647920566F74656400000000000000000000 PUSH0 DUP3 ADD MSTORE POP JUMP JUMPDEST PUSH0 PUSH2 0x1C99 PUSH1 0x16 DUP4 PUSH2 0x1971 JUMP JUMPDEST SWAP2 POP PUSH2 0x1CA4 DUP3 PUSH2 0x1C65 JUMP JUMPDEST PUSH1 0x20 DUP3 ADD SWAP1 POP SWAP2 SWAP1 POP JUMP JUMPDEST PUSH0 PUSH1 0x20 DUP3 ADD SWAP1 POP DUP2 DUP2 SUB PUSH0 DUP4 ADD MSTORE PUSH2 0x1CC6 DUP2 PUSH2 0x1C8D JUMP JUMPDEST SWAP1 POP SWAP2 SWAP1 POP JUMP JUMPDEST PUSH32 0x4E487B7100000000000000000000000000000000000000000000000000000000 PUSH0 MSTORE PUSH1 0x41 PUSH1 0x4 MSTORE PUSH1 0x24 PUSH0 REVERT JUMPDEST PUSH32 0x4E487B7100000000000000000000000000000000000000000000000000000000 PUSH0 MSTORE PUSH1 0x22 PUSH1 0x4 MSTORE PUSH1 0x24 PUSH0 REVERT JUMPDEST PUSH0 PUSH1 0x2 DUP3 DIV SWAP1 POP PUSH1 0x1 DUP3 AND DUP1 PUSH2 0x1D3E JUMPI PUSH1 0x7F DUP3 AND SWAP2 POP JUMPDEST PUSH1 0x20 DUP3 LT DUP2 SUB PUSH2 0x1D51 JUMPI PUSH2 0x1D50 PUSH2 0x1CFA JUMP JUMPDEST JUMPDEST POP SWAP2 SWAP1 POP JUMP JUMPDEST PUSH0 DUP2 SWAP1 POP DUP2 PUSH0 MSTORE PUSH1 0x20 PUSH0 KECCAK256 SWAP1 POP SWAP2 SWAP1 POP JUMP JUMPDEST PUSH0 PUSH1 0x20 PUSH1 0x1F DUP4 ADD DIV SWAP1 POP SWAP2 SWAP1 POP JUMP JUMPDEST PUSH0 DUP3 DUP3 SHL SWAP1 POP SWAP3 SWAP2 POP POP JUMP JUMPDEST PUSH0 PUSH1 0x8 DUP4 MUL PUSH2 0x1DB3 PUSH32 0xFFFFFFFFFFFFFFFFFFFFFFFFFFFFFFFFFFFFFFFFFFFFFFFFFFFFFFFFFFFFFFFF DUP3 PUSH2 0x1D78 JUMP JUMPDEST PUSH2 0x1DBD DUP7 DUP4 PUSH2 0x1D78 JUMP JUMPDEST SWAP6 POP DUP1 NOT DUP5 AND SWAP4 POP DUP1 DUP7 AND DUP5 OR SWAP3 POP POP POP SWAP4 SWAP3 POP POP POP JUMP JUMPDEST PUSH0 DUP2 SWAP1 POP SWAP2 SWAP1 POP JUMP JUMPDEST PUSH0 PUSH2 0x1DF8 PUSH2 0x1DF3 PUSH2 0x1DEE DUP5 PUSH2 0x12D4 JUMP JUMPDEST PUSH2 0x1DD5 JUMP JUMPDEST PUSH2 0x12D4 JUMP JUMPDEST SWAP1 POP SWAP2 SWAP1 POP JUMP JUMPDEST PUSH0 DUP2 SWAP1 POP SWAP2 SWAP1 POP JUMP JUMPDEST PUSH2 0x1E11 DUP4 PUSH2 0x1DDE JUMP JUMPDEST PUSH2 0x1E25 PUSH2 0x1E1D DUP3 PUSH2 0x1DFF JUMP JUMPDEST DUP5 DUP5 SLOAD PUSH2 0x1D84 JUMP JUMPDEST DUP3 SSTORE POP POP POP POP JUMP JUMPDEST PUSH0 PUSH0 SWAP1 POP SWAP1 JUMP JUMPDEST PUSH2 0x1E3C PUSH2 0x1E2D JUMP JUMPDEST PUSH2 0x1E47 DUP2 DUP5 DUP5 PUSH2 0x1E08 JUMP JUMPDEST POP POP POP JUMP JUMPDEST JUMPDEST DUP2 DUP2 LT ISZERO PUSH2 0x1E6A JUMPI PUSH2 0x1E5F PUSH0 DUP3 PUSH2 0x1E34 JUMP JUMPDEST PUSH1 0x1 DUP2 ADD SWAP1 POP PUSH2 0x1E4D JUMP JUMPDEST POP POP JUMP JUMPDEST PUSH1 0x1F DUP3 GT ISZERO PUSH2 0x1EAF JUMPI PUSH2 0x1E80 DUP2 PUSH2 0x1D57 JUMP JUMPDEST PUSH2 0x1E89 DUP5 PUSH2 0x1D69 JUMP JUMPDEST DUP2 ADD PUSH1 0x20 DUP6 LT ISZERO PUSH2 0x1E98 JUMPI DUP2 SWAP1 POP JUMPDEST PUSH2 0x1EAC PUSH2 0x1EA4 DUP6 PUSH2 0x1D69 JUMP JUMPDEST DUP4 ADD DUP3 PUSH2 0x1E4C JUMP JUMPDEST POP POP JUMPDEST POP POP POP JUMP JUMPDEST PUSH0 DUP3 DUP3 SHR SWAP1 POP SWAP3 SWAP2 POP POP JUMP JUMPDEST PUSH0 PUSH2 0x1ECF PUSH0 NOT DUP5 PUSH1 0x8 MUL PUSH2 0x1EB4 JUMP JUMPDEST NOT DUP1 DUP4 AND SWAP2 POP POP SWAP3 SWAP2 POP POP JUMP JUMPDEST PUSH0 PUSH2 0x1EE7 DUP4 DUP4 PUSH2 0x1EC0 JUMP JUMPDEST SWAP2 POP DUP3 PUSH1 0x2 MUL DUP3 OR SWAP1 POP SWAP3 SWAP2 POP POP JUMP JUMPDEST PUSH2 0x1F00 DUP3 PUSH2 0x15EA JUMP JUMPDEST PUSH8 0xFFFFFFFFFFFFFFFF DUP2 GT ISZERO PUSH2 0x1F19 JUMPI PUSH2 0x1F18 PUSH2 0x1CCD JUMP JUMPDEST JUMPDEST PUSH2 0x1F23 DUP3 SLOAD PUSH2 0x1D27 JUMP JUMPDEST PUSH2 0x1F2E DUP3 DUP3 DUP6 PUSH2 0x1E6E JUMP JUMPDEST PUSH0 PUSH1 0x20 SWAP1 POP PUSH1 0x1F DUP4 GT PUSH1 0x1 DUP2 EQ PUSH2 0x1F5F JUMPI PUSH0 DUP5 ISZERO PUSH2 0x1F4D JUMPI DUP3 DUP8 ADD MLOAD SWAP1 POP JUMPDEST PUSH2 0x1F57 DUP6 DUP3 PUSH2 0x1EDC JUMP JUMPDEST DUP7 SSTORE POP PUSH2 0x1FBE JUMP JUMPDEST PUSH1 0x1F NOT DUP5 AND PUSH2 0x1F6D DUP7 PUSH2 0x1D57 JUMP JUMPDEST PUSH0 JUMPDEST DUP3 DUP2 LT ISZERO PUSH2 0x1F94 JUMPI DUP5 DUP10 ADD MLOAD DUP3 SSTORE PUSH1 0x1 DUP3 ADD SWAP2 POP PUSH1 0x20 DUP6 ADD SWAP5 POP PUSH1 0x20 DUP2 ADD SWAP1 POP PUSH2 0x1F6F JUMP JUMPDEST DUP7 DUP4 LT ISZERO PUSH2 0x1FB1 JUMPI DUP5 DUP10 ADD MLOAD PUSH2 0x1FAD PUSH1 0x1F DUP10 AND DUP3 PUSH2 0x1EC0 JUMP JUMPDEST DUP4 SSTORE POP JUMPDEST PUSH1 0x1 PUSH1 0x2 DUP9 MUL ADD DUP9 SSTORE POP POP POP JUMPDEST POP POP POP POP POP POP JUMP JUMPDEST PUSH32 0x596F7520617265206E6F7420456C6967626C6500000000000000000000000000 PUSH0 DUP3 ADD MSTORE POP JUMP JUMPDEST PUSH0 PUSH2 0x1FFA PUSH1 0x13 DUP4 PUSH2 0x1971 JUMP JUMPDEST SWAP2 POP PUSH2 0x2005 DUP3 PUSH2 0x1FC6 JUMP JUMPDEST PUSH1 0x20 DUP3 ADD SWAP1 POP SWAP2 SWAP1 POP JUMP JUMPDEST PUSH0 PUSH1 0x20 DUP3 ADD SWAP1 POP DUP2 DUP2 SUB PUSH0 DUP4 ADD MSTORE PUSH2 0x2027 DUP2 PUSH2 0x1FEE JUMP JUMPDEST SWAP1 POP SWAP2 SWAP1 POP JUMP JUMPDEST PUSH32 0x596F75206861766520616C726561647920726567697374657265640000000000 PUSH0 DUP3 ADD MSTORE POP JUMP JUMPDEST PUSH0 PUSH2 0x2062 PUSH1 0x1B DUP4 PUSH2 0x1971 JUMP JUMPDEST SWAP2 POP PUSH2 0x206D DUP3 PUSH2 0x202E JUMP JUMPDEST PUSH1 0x20 DUP3 ADD SWAP1 POP SWAP2 SWAP1 POP JUMP JUMPDEST PUSH0 PUSH1 0x20 DUP3 ADD SWAP1 POP DUP2 DUP2 SUB PUSH0 DUP4 ADD MSTORE PUSH2 0x208F DUP2 PUSH2 0x2056 JUMP JUMPDEST SWAP1 POP SWAP2 SWAP1 POP JUMP JUMPDEST PUSH32 0x43616E6469646174652052656769737465722069732046756C6C000000000000 PUSH0 DUP3 ADD MSTORE POP JUMP JUMPDEST PUSH0 PUSH2 0x20CA PUSH1 0x1A DUP4 PUSH2 0x1971 JUMP JUMPDEST SWAP2 POP PUSH2 0x20D5 DUP3 PUSH2 0x2096 JUMP JUMPDEST PUSH1 0x20 DUP3 ADD SWAP1 POP SWAP2 SWAP1 POP JUMP JUMPDEST PUSH0 PUSH1 0x20 DUP3 ADD SWAP1 POP DUP2 DUP2 SUB PUSH0 DUP4 ADD MSTORE PUSH2 0x20F7 DUP2 PUSH2 0x20BE JUMP JUMPDEST SWAP1 POP SWAP2 SWAP1 POP JUMP JUMPDEST PUSH32 0x596F752063616E27742062652043616E64696461746520616E6420656C656374 PUSH0 DUP3 ADD MSTORE PUSH32 0x696F6E436F6D6D697373696F6E2061742073616D652074696D65000000000000 PUSH1 0x20 DUP3 ADD MSTORE POP JUMP JUMPDEST PUSH0 PUSH2 0x2158 PUSH1 0x3A DUP4 PUSH2 0x1971 JUMP JUMPDEST SWAP2 POP PUSH2 0x2163 DUP3 PUSH2 0x20FE JUMP JUMPDEST PUSH1 0x40 DUP3 ADD SWAP1 POP SWAP2 SWAP1 POP JUMP JUMPDEST PUSH0 PUSH1 0x20 DUP3 ADD SWAP1 POP DUP2 DUP2 SUB PUSH0 DUP4 ADD MSTORE PUSH2 0x2185 DUP2 PUSH2 0x214C JUMP JUMPDEST SWAP1 POP SWAP2 SWAP1 POP JUMP JUMPDEST PUSH0 PUSH2 0x2196 DUP3 PUSH2 0x12D4 JUMP JUMPDEST SWAP2 POP PUSH2 0x21A1 DUP4 PUSH2 0x12D4 JUMP JUMPDEST SWAP3 POP DUP3 DUP3 ADD SWAP1 POP DUP1 DUP3 GT ISZERO PUSH2 0x21B9 JUMPI PUSH2 0x21B8 PUSH2 0x1B21 JUMP JUMPDEST JUMPDEST SWAP3 SWAP2 POP POP JUMP JUMPDEST PUSH0 PUSH2 0x21C9 DUP3 PUSH2 0x12D4 JUMP JUMPDEST SWAP2 POP PUSH2 0x21D4 DUP4 PUSH2 0x12D4 JUMP JUMPDEST SWAP3 POP DUP3 DUP3 SUB SWAP1 POP DUP2 DUP2 GT ISZERO PUSH2 0x21EC JUMPI PUSH2 0x21EB PUSH2 0x1B21 JUMP JUMPDEST JUMPDEST SWAP3 SWAP2 POP POP JUMP JUMPDEST PUSH32 0x4E487B7100000000000000000000000000000000000000000000000000000000 PUSH0 MSTORE PUSH1 0x32 PUSH1 0x4 MSTORE PUSH1 0x24 PUSH0 REVERT INVALID LOG2 PUSH5 0x6970667358 0x22 SLT KECCAK256 SWAP12 0xAF BYTE CODECOPY 0x29 CALLDATASIZE PUSH24 0x7F7551645AC921BBE75AC505B53A993C17895BC650DB31F5 PUSH21 0x64736F6C634300081B003300000000000000000000 "
				},
				"gasEstimates": {
					"creation": {
						"codeDepositCost": "1757800",
						"executionCost": "70322",
						"totalCost": "1828122"
					},
					"external": {
						"announceVotingResult()": "infinite",
						"castVote(uint256,uint256)": "infinite",
						"electionCommission()": "2551",
						"emergencyStopVoting()": "26577",
						"getCandidateList()": "infinite",
						"getVoterList()": "infinite",
						"getVotingStatus()": "6884",
						"registerCandidate(string,string,uint256,uint8)": "infinite",
						"registerVoter(string,uint256,uint8)": "infinite",
						"setVotingPeriod(uint256,uint256)": "infinite",
						"winner()": "2596"
					},
					"internal": {
						"isCandidateNotRegistered(address)": "infinite",
						"isVoterNotRegistered(address)": "infinite"
					}
				},
				"methodIdentifiers": {
					"announceVotingResult()": "6ce2ccc0",
					"castVote(uint256,uint256)": "2c0a3f89",
					"electionCommission()": "aab46b7f",
					"emergencyStopVoting()": "9fa4e440",
					"getCandidateList()": "fdbc4006",
					"getVoterList()": "b28d92ae",
					"getVotingStatus()": "581c281c",
					"registerCandidate(string,string,uint256,uint8)": "982c777d",
					"registerVoter(string,uint256,uint8)": "81ba732f",
					"setVotingPeriod(uint256,uint256)": "a15a36c7",
					"winner()": "dfbf53ae"
				}
			},
			"storageLayout": {
				"storage": [
					{
						"astId": 33,
						"contract": "contracts/voting_samartContract1.sol:Vote",
						"label": "electionCommission",
						"offset": 0,
						"slot": "0",
						"type": "t_address"
					},
					{
						"astId": 35,
						"contract": "contracts/voting_samartContract1.sol:Vote",
						"label": "winner",
						"offset": 0,
						"slot": "1",
						"type": "t_address"
					},
					{
						"astId": 38,
						"contract": "contracts/voting_samartContract1.sol:Vote",
						"label": "nextVoterId",
						"offset": 0,
						"slot": "2",
						"type": "t_uint256"
					},
					{
						"astId": 41,
						"contract": "contracts/voting_samartContract1.sol:Vote",
						"label": "nextCandidateId",
						"offset": 0,
						"slot": "3",
						"type": "t_uint256"
					},
					{
						"astId": 43,
						"contract": "contracts/voting_samartContract1.sol:Vote",
						"label": "startTime",
						"offset": 0,
						"slot": "4",
						"type": "t_uint256"
					},
					{
						"astId": 45,
						"contract": "contracts/voting_samartContract1.sol:Vote",
						"label": "endTime",
						"offset": 0,
						"slot": "5",
						"type": "t_uint256"
					},
					{
						"astId": 47,
						"contract": "contracts/voting_samartContract1.sol:Vote",
						"label": "stopVoting",
						"offset": 0,
						"slot": "6",
						"type": "t_bool"
					},
					{
						"astId": 52,
						"contract": "contracts/voting_samartContract1.sol:Vote",
						"label": "voterDetails",
						"offset": 0,
						"slot": "7",
						"type": "t_mapping(t_uint256,t_struct(Voter)15_storage)"
					},
					{
						"astId": 57,
						"contract": "contracts/voting_samartContract1.sol:Vote",
						"label": "candidateDetails",
						"offset": 0,
						"slot": "8",
						"type": "t_mapping(t_uint256,t_struct(Candidate)31_storage)"
					}
				],
				"types": {
					"t_address": {
						"encoding": "inplace",
						"label": "address",
						"numberOfBytes": "20"
					},
					"t_bool": {
						"encoding": "inplace",
						"label": "bool",
						"numberOfBytes": "1"
					},
					"t_enum(Gender)66": {
						"encoding": "inplace",
						"label": "enum Vote.Gender",
						"numberOfBytes": "1"
					},
					"t_mapping(t_uint256,t_struct(Candidate)31_storage)": {
						"encoding": "mapping",
						"key": "t_uint256",
						"label": "mapping(uint256 => struct Vote.Candidate)",
						"numberOfBytes": "32",
						"value": "t_struct(Candidate)31_storage"
					},
					"t_mapping(t_uint256,t_struct(Voter)15_storage)": {
						"encoding": "mapping",
						"key": "t_uint256",
						"label": "mapping(uint256 => struct Vote.Voter)",
						"numberOfBytes": "32",
						"value": "t_struct(Voter)15_storage"
					},
					"t_string_storage": {
						"encoding": "bytes",
						"label": "string",
						"numberOfBytes": "32"
					},
					"t_struct(Candidate)31_storage": {
						"encoding": "inplace",
						"label": "struct Vote.Candidate",
						"members": [
							{
								"astId": 17,
								"contract": "contracts/voting_samartContract1.sol:Vote",
								"label": "name",
								"offset": 0,
								"slot": "0",
								"type": "t_string_storage"
							},
							{
								"astId": 19,
								"contract": "contracts/voting_samartContract1.sol:Vote",
								"label": "party",
								"offset": 0,
								"slot": "1",
								"type": "t_string_storage"
							},
							{
								"astId": 21,
								"contract": "contracts/voting_samartContract1.sol:Vote",
								"label": "age",
								"offset": 0,
								"slot": "2",
								"type": "t_uint256"
							},
							{
								"astId": 24,
								"contract": "contracts/voting_samartContract1.sol:Vote",
								"label": "gender",
								"offset": 0,
								"slot": "3",
								"type": "t_enum(Gender)66"
							},
							{
								"astId": 26,
								"contract": "contracts/voting_samartContract1.sol:Vote",
								"label": "candidateId",
								"offset": 0,
								"slot": "4",
								"type": "t_uint256"
							},
							{
								"astId": 28,
								"contract": "contracts/voting_samartContract1.sol:Vote",
								"label": "candidateAddress",
								"offset": 0,
								"slot": "5",
								"type": "t_address"
							},
							{
								"astId": 30,
								"contract": "contracts/voting_samartContract1.sol:Vote",
								"label": "votes",
								"offset": 0,
								"slot": "6",
								"type": "t_uint256"
							}
						],
						"numberOfBytes": "224"
					},
					"t_struct(Voter)15_storage": {
						"encoding": "inplace",
						"label": "struct Vote.Voter",
						"members": [
							{
								"astId": 3,
								"contract": "contracts/voting_samartContract1.sol:Vote",
								"label": "name",
								"offset": 0,
								"slot": "0",
								"type": "t_string_storage"
							},
							{
								"astId": 5,
								"contract": "contracts/voting_samartContract1.sol:Vote",
								"label": "age",
								"offset": 0,
								"slot": "1",
								"type": "t_uint256"
							},
							{
								"astId": 7,
								"contract": "contracts/voting_samartContract1.sol:Vote",
								"label": "voterId",
								"offset": 0,
								"slot": "2",
								"type": "t_uint256"
							},
							{
								"astId": 10,
								"contract": "contracts/voting_samartContract1.sol:Vote",
								"label": "gender",
								"offset": 0,
								"slot": "3",
								"type": "t_enum(Gender)66"
							},
							{
								"astId": 12,
								"contract": "contracts/voting_samartContract1.sol:Vote",
								"label": "voteCandidateId",
								"offset": 0,
								"slot": "4",
								"type": "t_uint256"
							},
							{
								"astId": 14,
								"contract": "contracts/voting_samartContract1.sol:Vote",
								"label": "voterAddress",
								"offset": 0,
								"slot": "5",
								"type": "t_address"
							}
						],
						"numberOfBytes": "192"
					},
					"t_uint256": {
						"encoding": "inplace",
						"label": "uint256",
						"numberOfBytes": "32"
					}
				}
			},
			"userdoc": {
				"kind": "user",
				"methods": {},
				"version": 1
			}
		}
	}
}