{
	"contracts/intro_solidity_2.sol": {
		"Harsh": {
			"abi": [
				{
					"inputs": [
						{
							"internalType": "int256",
							"name": "_counter",
							"type": "int256"
						}
					],
					"stateMutability": "nonpayable",
					"type": "constructor"
				},
				{
					"inputs": [],
					"name": "changeStateVariable",
					"outputs": [],
					"stateMutability": "nonpayable",
					"type": "function"
				},
				{
					"inputs": [],
					"name": "counter",
					"outputs": [
						{
							"internalType": "int256",
							"name": "",
							"type": "int256"
						}
					],
					"stateMutability": "view",
					"type": "function"
				},
				{
					"inputs": [
						{
							"internalType": "int256",
							"name": "_number",
							"type": "int256"
						}
					],
					"name": "params",
					"outputs": [
						{
							"internalType": "int256",
							"name": "",
							"type": "int256"
						}
					],
					"stateMutability": "nonpayable",
					"type": "function"
				},
				{
					"inputs": [],
					"name": "readAndWriteStateVariable",
					"outputs": [
						{
							"internalType": "int256",
							"name": "",
							"type": "int256"
						}
					],
					"stateMutability": "nonpayable",
					"type": "function"
				},
				{
					"inputs": [],
					"name": "returnLocalVariable",
					"outputs": [
						{
							"internalType": "bool",
							"name": "",
							"type": "bool"
						}
					],
					"stateMutability": "pure",
					"type": "function"
				},
				{
					"inputs": [],
					"name": "returnStateVariable",
					"outputs": [
						{
							"internalType": "int256",
							"name": "",
							"type": "int256"
						}
					],
					"stateMutability": "view",
					"type": "function"
				}
			],
			"devdoc": {
				"kind": "dev",
				"methods": {},
				"version": 1
			},
			"evm": {
				"assembly": "    /* \"contracts/intro_solidity_2.sol\":70:791  contract Harsh{... */\n  mstore(0x40, 0x80)\n    /* \"contracts/intro_solidity_2.sol\":109:111  10 */\n  0x0a\n    /* \"contracts/intro_solidity_2.sol\":90:111  int public counter=10 */\n  0x00\n  sstore\n    /* \"contracts/intro_solidity_2.sol\":225:283  constructor(int _counter){... */\n  callvalue\n  dup1\n  iszero\n  tag_1\n  jumpi\n  0x00\n  dup1\n  revert\ntag_1:\n  pop\n  mload(0x40)\n  sub(codesize, bytecodeSize)\n  dup1\n  bytecodeSize\n  dup4\n  codecopy\n  dup2\n  dup2\n  add\n  0x40\n  mstore\n  dup2\n  add\n  swap1\n  tag_2\n  swap2\n  swap1\n  tag_3\n  jump\t// in\ntag_2:\n    /* \"contracts/intro_solidity_2.sol\":268:276  _counter */\n  dup1\n    /* \"contracts/intro_solidity_2.sol\":260:267  counter */\n  0x00\n    /* \"contracts/intro_solidity_2.sol\":260:276  counter=_counter */\n  dup2\n  swap1\n  sstore\n  pop\n    /* \"contracts/intro_solidity_2.sol\":225:283  constructor(int _counter){... */\n  pop\n    /* \"contracts/intro_solidity_2.sol\":70:791  contract Harsh{... */\n  jump(tag_6)\n    /* \"#utility.yul\":88:205   */\ntag_8:\n    /* \"#utility.yul\":197:198   */\n  0x00\n    /* \"#utility.yul\":194:195   */\n  dup1\n    /* \"#utility.yul\":187:199   */\n  revert\n    /* \"#utility.yul\":334:410   */\ntag_10:\n    /* \"#utility.yul\":370:377   */\n  0x00\n    /* \"#utility.yul\":399:404   */\n  dup2\n    /* \"#utility.yul\":388:404   */\n  swap1\n  pop\n    /* \"#utility.yul\":334:410   */\n  swap2\n  swap1\n  pop\n  jump\t// out\n    /* \"#utility.yul\":416:536   */\ntag_11:\n    /* \"#utility.yul\":488:511   */\n  tag_19\n    /* \"#utility.yul\":505:510   */\n  dup2\n    /* \"#utility.yul\":488:511   */\n  tag_10\n  jump\t// in\ntag_19:\n    /* \"#utility.yul\":481:486   */\n  dup2\n    /* \"#utility.yul\":478:512   */\n  eq\n    /* \"#utility.yul\":468:530   */\n  tag_20\n  jumpi\n    /* \"#utility.yul\":526:527   */\n  0x00\n    /* \"#utility.yul\":523:524   */\n  dup1\n    /* \"#utility.yul\":516:528   */\n  revert\n    /* \"#utility.yul\":468:530   */\ntag_20:\n    /* \"#utility.yul\":416:536   */\n  pop\n  jump\t// out\n    /* \"#utility.yul\":542:683   */\ntag_12:\n    /* \"#utility.yul\":598:603   */\n  0x00\n    /* \"#utility.yul\":629:635   */\n  dup2\n    /* \"#utility.yul\":623:636   */\n  mload\n    /* \"#utility.yul\":614:636   */\n  swap1\n  pop\n    /* \"#utility.yul\":645:677   */\n  tag_22\n    /* \"#utility.yul\":671:676   */\n  dup2\n    /* \"#utility.yul\":645:677   */\n  tag_11\n  jump\t// in\ntag_22:\n    /* \"#utility.yul\":542:683   */\n  swap3\n  swap2\n  pop\n  pop\n  jump\t// out\n    /* \"#utility.yul\":689:1038   */\ntag_3:\n    /* \"#utility.yul\":758:764   */\n  0x00\n    /* \"#utility.yul\":807:809   */\n  0x20\n    /* \"#utility.yul\":795:804   */\n  dup3\n    /* \"#utility.yul\":786:793   */\n  dup5\n    /* \"#utility.yul\":782:805   */\n  sub\n    /* \"#utility.yul\":778:810   */\n  slt\n    /* \"#utility.yul\":775:894   */\n  iszero\n  tag_24\n  jumpi\n    /* \"#utility.yul\":813:892   */\n  tag_25\n  tag_8\n  jump\t// in\ntag_25:\n    /* \"#utility.yul\":775:894   */\ntag_24:\n    /* \"#utility.yul\":933:934   */\n  0x00\n    /* \"#utility.yul\":958:1021   */\n  tag_26\n    /* \"#utility.yul\":1013:1020   */\n  dup5\n    /* \"#utility.yul\":1004:1010   */\n  dup3\n    /* \"#utility.yul\":993:1002   */\n  dup6\n    /* \"#utility.yul\":989:1011   */\n  add\n    /* \"#utility.yul\":958:1021   */\n  tag_12\n  jump\t// in\ntag_26:\n    /* \"#utility.yul\":948:1021   */\n  swap2\n  pop\n    /* \"#utility.yul\":904:1031   */\n  pop\n    /* \"#utility.yul\":689:1038   */\n  swap3\n  swap2\n  pop\n  pop\n  jump\t// out\n    /* \"contracts/intro_solidity_2.sol\":70:791  contract Harsh{... */\ntag_6:\n  dataSize(sub_0)\n  dup1\n  dataOffset(sub_0)\n  0x00\n  codecopy\n  0x00\n  return\nstop\n\nsub_0: assembly {\n        /* \"contracts/intro_solidity_2.sol\":70:791  contract Harsh{... */\n      mstore(0x40, 0x80)\n      callvalue\n      dup1\n      iszero\n      tag_1\n      jumpi\n      0x00\n      dup1\n      revert\n    tag_1:\n      pop\n      jumpi(tag_2, lt(calldatasize, 0x04))\n      shr(0xe0, calldataload(0x00))\n      dup1\n      0x21133afe\n      eq\n      tag_3\n      jumpi\n      dup1\n      0x2c26a2b9\n      eq\n      tag_4\n      jumpi\n      dup1\n      0x61bc221a\n      eq\n      tag_5\n      jumpi\n      dup1\n      0xc0f61afc\n      eq\n      tag_6\n      jumpi\n      dup1\n      0xcd3c1ed4\n      eq\n      tag_7\n      jumpi\n      dup1\n      0xd4e74ec6\n      eq\n      tag_8\n      jumpi\n    tag_2:\n      0x00\n      dup1\n      revert\n        /* \"contracts/intro_solidity_2.sol\":681:787  function params(int _number)public returns(int) {... */\n    tag_3:\n      tag_9\n      0x04\n      dup1\n      calldatasize\n      sub\n      dup2\n      add\n      swap1\n      tag_10\n      swap2\n      swap1\n      tag_11\n      jump\t// in\n    tag_10:\n      tag_12\n      jump\t// in\n    tag_9:\n      mload(0x40)\n      tag_13\n      swap2\n      swap1\n      tag_14\n      jump\t// in\n    tag_13:\n      mload(0x40)\n      dup1\n      swap2\n      sub\n      swap1\n      return\n        /* \"contracts/intro_solidity_2.sol\":289:352  function changeStateVariable()public{... */\n    tag_4:\n      tag_15\n      tag_16\n      jump\t// in\n    tag_15:\n      stop\n        /* \"contracts/intro_solidity_2.sol\":90:111  int public counter=10 */\n    tag_5:\n      tag_17\n      tag_18\n      jump\t// in\n    tag_17:\n      mload(0x40)\n      tag_19\n      swap2\n      swap1\n      tag_14\n      jump\t// in\n    tag_19:\n      mload(0x40)\n      dup1\n      swap2\n      sub\n      swap1\n      return\n        /* \"contracts/intro_solidity_2.sol\":358:444  function returnStateVariable() public view returns(int){... */\n    tag_6:\n      tag_20\n      tag_21\n      jump\t// in\n    tag_20:\n      mload(0x40)\n      tag_22\n      swap2\n      swap1\n      tag_14\n      jump\t// in\n    tag_22:\n      mload(0x40)\n      dup1\n      swap2\n      sub\n      swap1\n      return\n        /* \"contracts/intro_solidity_2.sol\":564:675  function returnLocalVariable() public pure returns(bool){... */\n    tag_7:\n      tag_23\n      tag_24\n      jump\t// in\n    tag_23:\n      mload(0x40)\n      tag_25\n      swap2\n      swap1\n      tag_26\n      jump\t// in\n    tag_25:\n      mload(0x40)\n      dup1\n      swap2\n      sub\n      swap1\n      return\n        /* \"contracts/intro_solidity_2.sol\":450:558  function readAndWriteStateVariable() public returns(int){... */\n    tag_8:\n      tag_27\n      tag_28\n      jump\t// in\n    tag_27:\n      mload(0x40)\n      tag_29\n      swap2\n      swap1\n      tag_14\n      jump\t// in\n    tag_29:\n      mload(0x40)\n      dup1\n      swap2\n      sub\n      swap1\n      return\n        /* \"contracts/intro_solidity_2.sol\":681:787  function params(int _number)public returns(int) {... */\n    tag_12:\n        /* \"contracts/intro_solidity_2.sol\":724:727  int */\n      0x00\n        /* \"contracts/intro_solidity_2.sol\":749:756  _number */\n      dup2\n        /* \"contracts/intro_solidity_2.sol\":739:746  counter */\n      0x00\n        /* \"contracts/intro_solidity_2.sol\":739:756  counter = _number */\n      dup2\n      swap1\n      sstore\n      pop\n        /* \"contracts/intro_solidity_2.sol\":773:780  counter */\n      sload(0x00)\n        /* \"contracts/intro_solidity_2.sol\":766:780  return counter */\n      swap1\n      pop\n        /* \"contracts/intro_solidity_2.sol\":681:787  function params(int _number)public returns(int) {... */\n      swap2\n      swap1\n      pop\n      jump\t// out\n        /* \"contracts/intro_solidity_2.sol\":289:352  function changeStateVariable()public{... */\n    tag_16:\n        /* \"contracts/intro_solidity_2.sol\":343:345  20 */\n      0x14\n        /* \"contracts/intro_solidity_2.sol\":335:342  counter */\n      0x00\n        /* \"contracts/intro_solidity_2.sol\":335:345  counter=20 */\n      dup2\n      swap1\n      sstore\n      pop\n        /* \"contracts/intro_solidity_2.sol\":289:352  function changeStateVariable()public{... */\n      jump\t// out\n        /* \"contracts/intro_solidity_2.sol\":90:111  int public counter=10 */\n    tag_18:\n      sload(0x00)\n      dup2\n      jump\t// out\n        /* \"contracts/intro_solidity_2.sol\":358:444  function returnStateVariable() public view returns(int){... */\n    tag_21:\n        /* \"contracts/intro_solidity_2.sol\":409:412  int */\n      0x00\n        /* \"contracts/intro_solidity_2.sol\":430:437  counter */\n      dup1\n      sload\n        /* \"contracts/intro_solidity_2.sol\":423:437  return counter */\n      swap1\n      pop\n        /* \"contracts/intro_solidity_2.sol\":358:444  function returnStateVariable() public view returns(int){... */\n      swap1\n      jump\t// out\n        /* \"contracts/intro_solidity_2.sol\":564:675  function returnLocalVariable() public pure returns(bool){... */\n    tag_24:\n        /* \"contracts/intro_solidity_2.sol\":615:619  bool */\n      0x00\n        /* \"contracts/intro_solidity_2.sol\":630:640  bool value */\n      dup1\n        /* \"contracts/intro_solidity_2.sol\":641:645  true */\n      0x01\n        /* \"contracts/intro_solidity_2.sol\":630:645  bool value=true */\n      swap1\n      pop\n        /* \"contracts/intro_solidity_2.sol\":663:668  value */\n      dup1\n        /* \"contracts/intro_solidity_2.sol\":656:668  return value */\n      swap2\n      pop\n      pop\n        /* \"contracts/intro_solidity_2.sol\":564:675  function returnLocalVariable() public pure returns(bool){... */\n      swap1\n      jump\t// out\n        /* \"contracts/intro_solidity_2.sol\":450:558  function readAndWriteStateVariable() public returns(int){... */\n    tag_28:\n        /* \"contracts/intro_solidity_2.sol\":502:505  int */\n      0x00\n        /* \"contracts/intro_solidity_2.sol\":524:527  100 */\n      0x64\n        /* \"contracts/intro_solidity_2.sol\":516:523  counter */\n      0x00\n        /* \"contracts/intro_solidity_2.sol\":516:527  counter=100 */\n      dup2\n      swap1\n      sstore\n      pop\n        /* \"contracts/intro_solidity_2.sol\":544:551  counter */\n      sload(0x00)\n        /* \"contracts/intro_solidity_2.sol\":537:551  return counter */\n      swap1\n      pop\n        /* \"contracts/intro_solidity_2.sol\":450:558  function readAndWriteStateVariable() public returns(int){... */\n      swap1\n      jump\t// out\n        /* \"#utility.yul\":88:205   */\n    tag_36:\n        /* \"#utility.yul\":197:198   */\n      0x00\n        /* \"#utility.yul\":194:195   */\n      dup1\n        /* \"#utility.yul\":187:199   */\n      revert\n        /* \"#utility.yul\":334:410   */\n    tag_38:\n        /* \"#utility.yul\":370:377   */\n      0x00\n        /* \"#utility.yul\":399:404   */\n      dup2\n        /* \"#utility.yul\":388:404   */\n      swap1\n      pop\n        /* \"#utility.yul\":334:410   */\n      swap2\n      swap1\n      pop\n      jump\t// out\n        /* \"#utility.yul\":416:536   */\n    tag_39:\n        /* \"#utility.yul\":488:511   */\n      tag_50\n        /* \"#utility.yul\":505:510   */\n      dup2\n        /* \"#utility.yul\":488:511   */\n      tag_38\n      jump\t// in\n    tag_50:\n        /* \"#utility.yul\":481:486   */\n      dup2\n        /* \"#utility.yul\":478:512   */\n      eq\n        /* \"#utility.yul\":468:530   */\n      tag_51\n      jumpi\n        /* \"#utility.yul\":526:527   */\n      0x00\n        /* \"#utility.yul\":523:524   */\n      dup1\n        /* \"#utility.yul\":516:528   */\n      revert\n        /* \"#utility.yul\":468:530   */\n    tag_51:\n        /* \"#utility.yul\":416:536   */\n      pop\n      jump\t// out\n        /* \"#utility.yul\":542:679   */\n    tag_40:\n        /* \"#utility.yul\":587:592   */\n      0x00\n        /* \"#utility.yul\":625:631   */\n      dup2\n        /* \"#utility.yul\":612:632   */\n      calldataload\n        /* \"#utility.yul\":603:632   */\n      swap1\n      pop\n        /* \"#utility.yul\":641:673   */\n      tag_53\n        /* \"#utility.yul\":667:672   */\n      dup2\n        /* \"#utility.yul\":641:673   */\n      tag_39\n      jump\t// in\n    tag_53:\n        /* \"#utility.yul\":542:679   */\n      swap3\n      swap2\n      pop\n      pop\n      jump\t// out\n        /* \"#utility.yul\":685:1012   */\n    tag_11:\n        /* \"#utility.yul\":743:749   */\n      0x00\n        /* \"#utility.yul\":792:794   */\n      0x20\n        /* \"#utility.yul\":780:789   */\n      dup3\n        /* \"#utility.yul\":771:778   */\n      dup5\n        /* \"#utility.yul\":767:790   */\n      sub\n        /* \"#utility.yul\":763:795   */\n      slt\n        /* \"#utility.yul\":760:879   */\n      iszero\n      tag_55\n      jumpi\n        /* \"#utility.yul\":798:877   */\n      tag_56\n      tag_36\n      jump\t// in\n    tag_56:\n        /* \"#utility.yul\":760:879   */\n    tag_55:\n        /* \"#utility.yul\":918:919   */\n      0x00\n        /* \"#utility.yul\":943:995   */\n      tag_57\n        /* \"#utility.yul\":987:994   */\n      dup5\n        /* \"#utility.yul\":978:984   */\n      dup3\n        /* \"#utility.yul\":967:976   */\n      dup6\n        /* \"#utility.yul\":963:985   */\n      add\n        /* \"#utility.yul\":943:995   */\n      tag_40\n      jump\t// in\n    tag_57:\n        /* \"#utility.yul\":933:995   */\n      swap2\n      pop\n        /* \"#utility.yul\":889:1005   */\n      pop\n        /* \"#utility.yul\":685:1012   */\n      swap3\n      swap2\n      pop\n      pop\n      jump\t// out\n        /* \"#utility.yul\":1018:1133   */\n    tag_41:\n        /* \"#utility.yul\":1103:1126   */\n      tag_59\n        /* \"#utility.yul\":1120:1125   */\n      dup2\n        /* \"#utility.yul\":1103:1126   */\n      tag_38\n      jump\t// in\n    tag_59:\n        /* \"#utility.yul\":1098:1101   */\n      dup3\n        /* \"#utility.yul\":1091:1127   */\n      mstore\n        /* \"#utility.yul\":1018:1133   */\n      pop\n      pop\n      jump\t// out\n        /* \"#utility.yul\":1139:1357   */\n    tag_14:\n        /* \"#utility.yul\":1230:1234   */\n      0x00\n        /* \"#utility.yul\":1268:1270   */\n      0x20\n        /* \"#utility.yul\":1257:1266   */\n      dup3\n        /* \"#utility.yul\":1253:1271   */\n      add\n        /* \"#utility.yul\":1245:1271   */\n      swap1\n      pop\n        /* \"#utility.yul\":1281:1350   */\n      tag_61\n        /* \"#utility.yul\":1347:1348   */\n      0x00\n        /* \"#utility.yul\":1336:1345   */\n      dup4\n        /* \"#utility.yul\":1332:1349   */\n      add\n        /* \"#utility.yul\":1323:1329   */\n      dup5\n        /* \"#utility.yul\":1281:1350   */\n      tag_41\n      jump\t// in\n    tag_61:\n        /* \"#utility.yul\":1139:1357   */\n      swap3\n      swap2\n      pop\n      pop\n      jump\t// out\n        /* \"#utility.yul\":1363:1453   */\n    tag_42:\n        /* \"#utility.yul\":1397:1404   */\n      0x00\n        /* \"#utility.yul\":1440:1445   */\n      dup2\n        /* \"#utility.yul\":1433:1446   */\n      iszero\n        /* \"#utility.yul\":1426:1447   */\n      iszero\n        /* \"#utility.yul\":1415:1447   */\n      swap1\n      pop\n        /* \"#utility.yul\":1363:1453   */\n      swap2\n      swap1\n      pop\n      jump\t// out\n        /* \"#utility.yul\":1459:1568   */\n    tag_43:\n        /* \"#utility.yul\":1540:1561   */\n      tag_64\n        /* \"#utility.yul\":1555:1560   */\n      dup2\n        /* \"#utility.yul\":1540:1561   */\n      tag_42\n      jump\t// in\n    tag_64:\n        /* \"#utility.yul\":1535:1538   */\n      dup3\n        /* \"#utility.yul\":1528:1562   */\n      mstore\n        /* \"#utility.yul\":1459:1568   */\n      pop\n      pop\n      jump\t// out\n        /* \"#utility.yul\":1574:1784   */\n    tag_26:\n        /* \"#utility.yul\":1661:1665   */\n      0x00\n        /* \"#utility.yul\":1699:1701   */\n      0x20\n        /* \"#utility.yul\":1688:1697   */\n      dup3\n        /* \"#utility.yul\":1684:1702   */\n      add\n        /* \"#utility.yul\":1676:1702   */\n      swap1\n      pop\n        /* \"#utility.yul\":1712:1777   */\n      tag_66\n        /* \"#utility.yul\":1774:1775   */\n      0x00\n        /* \"#utility.yul\":1763:1772   */\n      dup4\n        /* \"#utility.yul\":1759:1776   */\n      add\n        /* \"#utility.yul\":1750:1756   */\n      dup5\n        /* \"#utility.yul\":1712:1777   */\n      tag_43\n      jump\t// in\n    tag_66:\n        /* \"#utility.yul\":1574:1784   */\n      swap3\n      swap2\n      pop\n      pop\n      jump\t// out\n\n    auxdata: 0xa2646970667358221220caaa4b66ef525e6b18c7b0bc84d074cab9f116e44bad07f9c1794ef3d5cd4fe264736f6c634300081a0033\n}\n",
				"bytecode": {
					"linkReferences": {},
					"object": "6080604052600a5f553480156012575f80fd5b506040516102ed3803806102ed833981810160405281019060329190606f565b805f81905550506095565b5f80fd5b5f819050919050565b6051816041565b8114605a575f80fd5b50565b5f81519050606981604a565b92915050565b5f602082840312156081576080603d565b5b5f608c84828501605d565b91505092915050565b61024b806100a25f395ff3fe608060405234801561000f575f80fd5b5060043610610060575f3560e01c806321133afe146100645780632c26a2b91461009457806361bc221a1461009e578063c0f61afc146100bc578063cd3c1ed4146100da578063d4e74ec6146100f8575b5f80fd5b61007e6004803603810190610079919061018f565b610116565b60405161008b91906101c9565b60405180910390f35b61009c610126565b005b6100a661012f565b6040516100b391906101c9565b60405180910390f35b6100c4610134565b6040516100d191906101c9565b60405180910390f35b6100e261013c565b6040516100ef91906101fc565b60405180910390f35b610100610149565b60405161010d91906101c9565b60405180910390f35b5f815f819055505f549050919050565b60145f81905550565b5f5481565b5f8054905090565b5f80600190508091505090565b5f60645f819055505f54905090565b5f80fd5b5f819050919050565b61016e8161015c565b8114610178575f80fd5b50565b5f8135905061018981610165565b92915050565b5f602082840312156101a4576101a3610158565b5b5f6101b18482850161017b565b91505092915050565b6101c38161015c565b82525050565b5f6020820190506101dc5f8301846101ba565b92915050565b5f8115159050919050565b6101f6816101e2565b82525050565b5f60208201905061020f5f8301846101ed565b9291505056fea2646970667358221220caaa4b66ef525e6b18c7b0bc84d074cab9f116e44bad07f9c1794ef3d5cd4fe264736f6c634300081a0033",
					"opcodes": "PUSH1 0x80 PUSH1 0x40 MSTORE PUSH1 0xA PUSH0 SSTORE CALLVALUE DUP1 ISZERO PUSH1 0x12 JUMPI PUSH0 DUP1 REVERT JUMPDEST POP PUSH1 0x40 MLOAD PUSH2 0x2ED CODESIZE SUB DUP1 PUSH2 0x2ED DUP4 CODECOPY DUP2 DUP2 ADD PUSH1 0x40 MSTORE DUP2 ADD SWAP1 PUSH1 0x32 SWAP2 SWAP1 PUSH1 0x6F JUMP JUMPDEST DUP1 PUSH0 DUP2 SWAP1 SSTORE POP POP PUSH1 0x95 JUMP JUMPDEST PUSH0 DUP1 REVERT JUMPDEST PUSH0 DUP2 SWAP1 POP SWAP2 SWAP1 POP JUMP JUMPDEST PUSH1 0x51 DUP2 PUSH1 0x41 JUMP JUMPDEST DUP2 EQ PUSH1 0x5A JUMPI PUSH0 DUP1 REVERT JUMPDEST POP JUMP JUMPDEST PUSH0 DUP2 MLOAD SWAP1 POP PUSH1 0x69 DUP2 PUSH1 0x4A JUMP JUMPDEST SWAP3 SWAP2 POP POP JUMP JUMPDEST PUSH0 PUSH1 0x20 DUP3 DUP5 SUB SLT ISZERO PUSH1 0x81 JUMPI PUSH1 0x80 PUSH1 0x3D JUMP JUMPDEST JUMPDEST PUSH0 PUSH1 0x8C DUP5 DUP3 DUP6 ADD PUSH1 0x5D JUMP JUMPDEST SWAP2 POP POP SWAP3 SWAP2 POP POP JUMP JUMPDEST PUSH2 0x24B DUP1 PUSH2 0xA2 PUSH0 CODECOPY PUSH0 RETURN INVALID PUSH1 0x80 PUSH1 0x40 MSTORE CALLVALUE DUP1 ISZERO PUSH2 0xF JUMPI PUSH0 DUP1 REVERT JUMPDEST POP PUSH1 0x4 CALLDATASIZE LT PUSH2 0x60 JUMPI PUSH0 CALLDATALOAD PUSH1 0xE0 SHR DUP1 PUSH4 0x21133AFE EQ PUSH2 0x64 JUMPI DUP1 PUSH4 0x2C26A2B9 EQ PUSH2 0x94 JUMPI DUP1 PUSH4 0x61BC221A EQ PUSH2 0x9E JUMPI DUP1 PUSH4 0xC0F61AFC EQ PUSH2 0xBC JUMPI DUP1 PUSH4 0xCD3C1ED4 EQ PUSH2 0xDA JUMPI DUP1 PUSH4 0xD4E74EC6 EQ PUSH2 0xF8 JUMPI JUMPDEST PUSH0 DUP1 REVERT JUMPDEST PUSH2 0x7E PUSH1 0x4 DUP1 CALLDATASIZE SUB DUP2 ADD SWAP1 PUSH2 0x79 SWAP2 SWAP1 PUSH2 0x18F JUMP JUMPDEST PUSH2 0x116 JUMP JUMPDEST PUSH1 0x40 MLOAD PUSH2 0x8B SWAP2 SWAP1 PUSH2 0x1C9 JUMP JUMPDEST PUSH1 0x40 MLOAD DUP1 SWAP2 SUB SWAP1 RETURN JUMPDEST PUSH2 0x9C PUSH2 0x126 JUMP JUMPDEST STOP JUMPDEST PUSH2 0xA6 PUSH2 0x12F JUMP JUMPDEST PUSH1 0x40 MLOAD PUSH2 0xB3 SWAP2 SWAP1 PUSH2 0x1C9 JUMP JUMPDEST PUSH1 0x40 MLOAD DUP1 SWAP2 SUB SWAP1 RETURN JUMPDEST PUSH2 0xC4 PUSH2 0x134 JUMP JUMPDEST PUSH1 0x40 MLOAD PUSH2 0xD1 SWAP2 SWAP1 PUSH2 0x1C9 JUMP JUMPDEST PUSH1 0x40 MLOAD DUP1 SWAP2 SUB SWAP1 RETURN JUMPDEST PUSH2 0xE2 PUSH2 0x13C JUMP JUMPDEST PUSH1 0x40 MLOAD PUSH2 0xEF SWAP2 SWAP1 PUSH2 0x1FC JUMP JUMPDEST PUSH1 0x40 MLOAD DUP1 SWAP2 SUB SWAP1 RETURN JUMPDEST PUSH2 0x100 PUSH2 0x149 JUMP JUMPDEST PUSH1 0x40 MLOAD PUSH2 0x10D SWAP2 SWAP1 PUSH2 0x1C9 JUMP JUMPDEST PUSH1 0x40 MLOAD DUP1 SWAP2 SUB SWAP1 RETURN JUMPDEST PUSH0 DUP2 PUSH0 DUP2 SWAP1 SSTORE POP PUSH0 SLOAD SWAP1 POP SWAP2 SWAP1 POP JUMP JUMPDEST PUSH1 0x14 PUSH0 DUP2 SWAP1 SSTORE POP JUMP JUMPDEST PUSH0 SLOAD DUP2 JUMP JUMPDEST PUSH0 DUP1 SLOAD SWAP1 POP SWAP1 JUMP JUMPDEST PUSH0 DUP1 PUSH1 0x1 SWAP1 POP DUP1 SWAP2 POP POP SWAP1 JUMP JUMPDEST PUSH0 PUSH1 0x64 PUSH0 DUP2 SWAP1 SSTORE POP PUSH0 SLOAD SWAP1 POP SWAP1 JUMP JUMPDEST PUSH0 DUP1 REVERT JUMPDEST PUSH0 DUP2 SWAP1 POP SWAP2 SWAP1 POP JUMP JUMPDEST PUSH2 0x16E DUP2 PUSH2 0x15C JUMP JUMPDEST DUP2 EQ PUSH2 0x178 JUMPI PUSH0 DUP1 REVERT JUMPDEST POP JUMP JUMPDEST PUSH0 DUP2 CALLDATALOAD SWAP1 POP PUSH2 0x189 DUP2 PUSH2 0x165 JUMP JUMPDEST SWAP3 SWAP2 POP POP JUMP JUMPDEST PUSH0 PUSH1 0x20 DUP3 DUP5 SUB SLT ISZERO PUSH2 0x1A4 JUMPI PUSH2 0x1A3 PUSH2 0x158 JUMP JUMPDEST JUMPDEST PUSH0 PUSH2 0x1B1 DUP5 DUP3 DUP6 ADD PUSH2 0x17B JUMP JUMPDEST SWAP2 POP POP SWAP3 SWAP2 POP POP JUMP JUMPDEST PUSH2 0x1C3 DUP2 PUSH2 0x15C JUMP JUMPDEST DUP3 MSTORE POP POP JUMP JUMPDEST PUSH0 PUSH1 0x20 DUP3 ADD SWAP1 POP PUSH2 0x1DC PUSH0 DUP4 ADD DUP5 PUSH2 0x1BA JUMP JUMPDEST SWAP3 SWAP2 POP POP JUMP JUMPDEST PUSH0 DUP2 ISZERO ISZERO SWAP1 POP SWAP2 SWAP1 POP JUMP JUMPDEST PUSH2 0x1F6 DUP2 PUSH2 0x1E2 JUMP JUMPDEST DUP3 MSTORE POP POP JUMP JUMPDEST PUSH0 PUSH1 0x20 DUP3 ADD SWAP1 POP PUSH2 0x20F PUSH0 DUP4 ADD DUP5 PUSH2 0x1ED JUMP JUMPDEST SWAP3 SWAP2 POP POP JUMP INVALID LOG2 PUSH5 0x6970667358 0x22 SLT KECCAK256 0xCA 0xAA 0x4B PUSH7 0xEF525E6B18C7B0 0xBC DUP5 0xD0 PUSH21 0xCAB9F116E44BAD07F9C1794EF3D5CD4FE264736F6C PUSH4 0x4300081A STOP CALLER "
				},
				"gasEstimates": {
					"creation": {
						"codeDepositCost": "117400",
						"executionCost": "infinite",
						"totalCost": "infinite"
					},
					"external": {
						"changeStateVariable()": "22256",
						"counter()": "2446",
						"params(int256)": "infinite",
						"readAndWriteStateVariable()": "24632",
						"returnLocalVariable()": "417",
						"returnStateVariable()": "2476"
					}
				},
				"methodIdentifiers": {
					"changeStateVariable()": "2c26a2b9",
					"counter()": "61bc221a",
					"params(int256)": "21133afe",
					"readAndWriteStateVariable()": "d4e74ec6",
					"returnLocalVariable()": "cd3c1ed4",
					"returnStateVariable()": "c0f61afc"
				}
			},
			"storageLayout": {
				"storage": [
					{
						"astId": 4,
						"contract": "contracts/intro_solidity_2.sol:Harsh",
						"label": "counter",
						"offset": 0,
						"slot": "0",
						"type": "t_int256"
					}
				],
				"types": {
					"t_int256": {
						"encoding": "inplace",
						"label": "int256",
						"numberOfBytes": "32"
					}
				}
			},
			"userdoc": {
				"kind": "user",
				"methods": {},
				"version": 1
			}
		}
	}
}