{
	"contracts/wallet.sol": {
		"SimpleWallet": {
			"abi": [
				{
					"inputs": [],
					"stateMutability": "nonpayable",
					"type": "constructor"
				},
				{
					"anonymous": false,
					"inputs": [
						{
							"indexed": false,
							"internalType": "address",
							"name": "sender",
							"type": "address"
						},
						{
							"indexed": false,
							"internalType": "uint256",
							"name": "amonut",
							"type": "uint256"
						}
					],
					"name": "Receive",
					"type": "event"
				},
				{
					"anonymous": false,
					"inputs": [
						{
							"indexed": false,
							"internalType": "address",
							"name": "sender",
							"type": "address"
						},
						{
							"indexed": false,
							"internalType": "address",
							"name": "receiver",
							"type": "address"
						},
						{
							"indexed": false,
							"internalType": "uint256",
							"name": "amount",
							"type": "uint256"
						}
					],
					"name": "ReceiveUser",
					"type": "event"
				},
				{
					"anonymous": false,
					"inputs": [
						{
							"indexed": false,
							"internalType": "address",
							"name": "receiver",
							"type": "address"
						},
						{
							"indexed": false,
							"internalType": "uint256",
							"name": "amount",
							"type": "uint256"
						}
					],
					"name": "Transfer",
					"type": "event"
				},
				{
					"stateMutability": "payable",
					"type": "fallback"
				},
				{
					"inputs": [
						{
							"internalType": "address",
							"name": "newOwner",
							"type": "address"
						}
					],
					"name": "changOwner",
					"outputs": [],
					"stateMutability": "nonpayable",
					"type": "function"
				},
				{
					"inputs": [],
					"name": "emergencyWithdrawl",
					"outputs": [],
					"stateMutability": "payable",
					"type": "function"
				},
				{
					"inputs": [],
					"name": "getContractBalanceInWei",
					"outputs": [
						{
							"internalType": "uint256",
							"name": "",
							"type": "uint256"
						}
					],
					"stateMutability": "view",
					"type": "function"
				},
				{
					"inputs": [],
					"name": "getOwnerBalanceInWei",
					"outputs": [
						{
							"internalType": "uint256",
							"name": "",
							"type": "uint256"
						}
					],
					"stateMutability": "view",
					"type": "function"
				},
				{
					"inputs": [],
					"name": "getTransactionHistory",
					"outputs": [
						{
							"components": [
								{
									"internalType": "address",
									"name": "from",
									"type": "address"
								},
								{
									"internalType": "address",
									"name": "to",
									"type": "address"
								},
								{
									"internalType": "uint256",
									"name": "timestamp",
									"type": "uint256"
								},
								{
									"internalType": "uint256",
									"name": "amount",
									"type": "uint256"
								}
							],
							"internalType": "struct SimpleWallet.Transaction[]",
							"name": "",
							"type": "tuple[]"
						}
					],
					"stateMutability": "view",
					"type": "function"
				},
				{
					"inputs": [],
					"name": "owner",
					"outputs": [
						{
							"internalType": "address",
							"name": "",
							"type": "address"
						}
					],
					"stateMutability": "view",
					"type": "function"
				},
				{
					"inputs": [],
					"name": "receiveFromUser",
					"outputs": [],
					"stateMutability": "payable",
					"type": "function"
				},
				{
					"inputs": [],
					"name": "stop",
					"outputs": [
						{
							"internalType": "bool",
							"name": "",
							"type": "bool"
						}
					],
					"stateMutability": "view",
					"type": "function"
				},
				{
					"inputs": [],
					"name": "str",
					"outputs": [
						{
							"internalType": "string",
							"name": "",
							"type": "string"
						}
					],
					"stateMutability": "view",
					"type": "function"
				},
				{
					"inputs": [
						{
							"internalType": "address",
							"name": "_sender",
							"type": "address"
						}
					],
					"name": "suspiciousActivity",
					"outputs": [],
					"stateMutability": "nonpayable",
					"type": "function"
				},
				{
					"inputs": [],
					"name": "toggleStop",
					"outputs": [],
					"stateMutability": "nonpayable",
					"type": "function"
				},
				{
					"inputs": [
						{
							"internalType": "uint256",
							"name": "",
							"type": "uint256"
						}
					],
					"name": "transactionHistory",
					"outputs": [
						{
							"internalType": "address",
							"name": "from",
							"type": "address"
						},
						{
							"internalType": "address",
							"name": "to",
							"type": "address"
						},
						{
							"internalType": "uint256",
							"name": "timestamp",
							"type": "uint256"
						},
						{
							"internalType": "uint256",
							"name": "amount",
							"type": "uint256"
						}
					],
					"stateMutability": "view",
					"type": "function"
				},
				{
					"inputs": [],
					"name": "transferToContract",
					"outputs": [],
					"stateMutability": "payable",
					"type": "function"
				},
				{
					"inputs": [
						{
							"internalType": "address payable",
							"name": "_to",
							"type": "address"
						},
						{
							"internalType": "uint256",
							"name": "_weiAmount",
							"type": "uint256"
						}
					],
					"name": "transferToUserViaContract",
					"outputs": [],
					"stateMutability": "nonpayable",
					"type": "function"
				},
				{
					"inputs": [
						{
							"internalType": "address",
							"name": "_to",
							"type": "address"
						}
					],
					"name": "transferToUserViaMsgValue",
					"outputs": [],
					"stateMutability": "payable",
					"type": "function"
				},
				{
					"inputs": [
						{
							"internalType": "uint256",
							"name": "_weiAmount",
							"type": "uint256"
						}
					],
					"name": "withdrawFromContract",
					"outputs": [],
					"stateMutability": "nonpayable",
					"type": "function"
				},
				{
					"stateMutability": "payable",
					"type": "receive"
				}
			],
			"devdoc": {
				"kind": "dev",
				"methods": {},
				"version": 1
			},
			"evm": {
				"assembly": "    /* \"contracts/wallet.sol\":109:4189  contract SimpleWallet {... */\n  mstore(0x40, 0x80)\n    /* \"contracts/wallet.sol\":557:606  constructor() {... */\n  callvalue\n  dup1\n  iszero\n  tag_1\n  jumpi\n  revert(0x00, 0x00)\ntag_1:\n  pop\n    /* \"contracts/wallet.sol\":589:599  msg.sender */\n  caller\n    /* \"contracts/wallet.sol\":581:586  owner */\n  0x01\n  0x00\n    /* \"contracts/wallet.sol\":581:599  owner = msg.sender */\n  0x0100\n  exp\n  dup2\n  sload\n  dup2\n  0xffffffffffffffffffffffffffffffffffffffff\n  mul\n  not\n  and\n  swap1\n  dup4\n  0xffffffffffffffffffffffffffffffffffffffff\n  and\n  mul\n  or\n  swap1\n  sstore\n  pop\n    /* \"contracts/wallet.sol\":109:4189  contract SimpleWallet {... */\n  dataSize(sub_0)\n  dup1\n  dataOffset(sub_0)\n  0x00\n  codecopy\n  0x00\n  return\nstop\n\nsub_0: assembly {\n        /* \"contracts/wallet.sol\":109:4189  contract SimpleWallet {... */\n      mstore(0x40, 0x80)\n      jumpi(tag_1, lt(calldatasize, 0x04))\n      shr(0xe0, calldataload(0x00))\n      dup1\n      0x9a70eef1\n      gt\n      tag_19\n      jumpi\n      dup1\n      0xc15bae84\n      gt\n      tag_20\n      jumpi\n      dup1\n      0xc15bae84\n      eq\n      tag_15\n      jumpi\n      dup1\n      0xcf87f052\n      eq\n      tag_16\n      jumpi\n      dup1\n      0xd2b53948\n      eq\n      tag_17\n      jumpi\n      dup1\n      0xeb2d9fd3\n      eq\n      tag_18\n      jumpi\n      jump(tag_2)\n    tag_20:\n      dup1\n      0x9a70eef1\n      eq\n      tag_11\n      jumpi\n      dup1\n      0xaeae547d\n      eq\n      tag_12\n      jumpi\n      dup1\n      0xb76d4fc3\n      eq\n      tag_13\n      jumpi\n      dup1\n      0xbfa698de\n      eq\n      tag_14\n      jumpi\n      jump(tag_2)\n    tag_19:\n      dup1\n      0x547fbe8e\n      gt\n      tag_21\n      jumpi\n      dup1\n      0x547fbe8e\n      eq\n      tag_7\n      jumpi\n      dup1\n      0x6f3f42ac\n      eq\n      tag_8\n      jumpi\n      dup1\n      0x7935e5a3\n      eq\n      tag_9\n      jumpi\n      dup1\n      0x8da5cb5b\n      eq\n      tag_10\n      jumpi\n      jump(tag_2)\n    tag_21:\n      dup1\n      0x07da68f5\n      eq\n      tag_3\n      jumpi\n      dup1\n      0x12cccb34\n      eq\n      tag_4\n      jumpi\n      dup1\n      0x243e7a87\n      eq\n      tag_5\n      jumpi\n      dup1\n      0x47cdcc1f\n      eq\n      tag_6\n      jumpi\n      jump(tag_2)\n    tag_1:\n      jumpi(tag_2, calldatasize)\n        /* \"contracts/wallet.sol\":3498:3528  Receive(msg.sender, msg.value) */\n      0xd6717f327e0cb88b4a97a7f67a453e9258252c34937ccbdd86de7cb840e7def3\n        /* \"contracts/wallet.sol\":3506:3516  msg.sender */\n      caller\n        /* \"contracts/wallet.sol\":3518:3527  msg.value */\n      callvalue\n        /* \"contracts/wallet.sol\":3498:3528  Receive(msg.sender, msg.value) */\n      mload(0x40)\n      tag_24\n      swap3\n      swap2\n      swap1\n      tag_25\n      jump\t// in\n    tag_24:\n      mload(0x40)\n      dup1\n      swap2\n      sub\n      swap1\n      log1\n        /* \"contracts/wallet.sol\":3539:3557  transactionHistory */\n      0x00\n        /* \"contracts/wallet.sol\":3576:3751  Transaction({... */\n      mload(0x40)\n      dup1\n      0x80\n      add\n      0x40\n      mstore\n      dup1\n        /* \"contracts/wallet.sol\":3612:3622  msg.sender */\n      caller\n        /* \"contracts/wallet.sol\":3576:3751  Transaction({... */\n      0xffffffffffffffffffffffffffffffffffffffff\n      and\n      dup2\n      mstore\n      0x20\n      add\n        /* \"contracts/wallet.sol\":3652:3656  this */\n      address\n        /* \"contracts/wallet.sol\":3576:3751  Transaction({... */\n      0xffffffffffffffffffffffffffffffffffffffff\n      and\n      dup2\n      mstore\n      0x20\n      add\n        /* \"contracts/wallet.sol\":3686:3701  block.timestamp */\n      timestamp\n        /* \"contracts/wallet.sol\":3576:3751  Transaction({... */\n      dup2\n      mstore\n      0x20\n      add\n        /* \"contracts/wallet.sol\":3727:3736  msg.value */\n      callvalue\n        /* \"contracts/wallet.sol\":3576:3751  Transaction({... */\n      dup2\n      mstore\n      pop\n        /* \"contracts/wallet.sol\":3539:3761  transactionHistory.push(... */\n      swap1\n      dup1\n      0x01\n      dup2\n      sload\n      add\n      dup1\n      dup3\n      sstore\n      dup1\n      swap2\n      pop\n      pop\n      0x01\n      swap1\n      sub\n      swap1\n      0x00\n      mstore\n      keccak256(0x00, 0x20)\n      swap1\n      0x04\n      mul\n      add\n      0x00\n      swap1\n      swap2\n      swap1\n      swap2\n      swap1\n      swap2\n      pop\n      0x00\n      dup3\n      add\n      mload\n      dup2\n      0x00\n      add\n      exp(0x0100, 0x00)\n      dup2\n      sload\n      dup2\n      0xffffffffffffffffffffffffffffffffffffffff\n      mul\n      not\n      and\n      swap1\n      dup4\n      0xffffffffffffffffffffffffffffffffffffffff\n      and\n      mul\n      or\n      swap1\n      sstore\n      pop\n      0x20\n      dup3\n      add\n      mload\n      dup2\n      0x01\n      add\n      exp(0x0100, 0x00)\n      dup2\n      sload\n      dup2\n      0xffffffffffffffffffffffffffffffffffffffff\n      mul\n      not\n      and\n      swap1\n      dup4\n      0xffffffffffffffffffffffffffffffffffffffff\n      and\n      mul\n      or\n      swap1\n      sstore\n      pop\n      0x40\n      dup3\n      add\n      mload\n      dup2\n      0x02\n      add\n      sstore\n      0x60\n      dup3\n      add\n      mload\n      dup2\n      0x03\n      add\n      sstore\n      stop\n        /* \"contracts/wallet.sol\":109:4189  contract SimpleWallet {... */\n    tag_2:\n        /* \"contracts/wallet.sol\":3880:3890  msg.sender */\n      caller\n        /* \"contracts/wallet.sol\":3872:3900  payable(msg.sender).transfer */\n      0xffffffffffffffffffffffffffffffffffffffff\n      and\n        /* \"contracts/wallet.sol\":3872:3911  payable(msg.sender).transfer(msg.value) */\n      0x08fc\n        /* \"contracts/wallet.sol\":3901:3910  msg.value */\n      callvalue\n        /* \"contracts/wallet.sol\":3872:3911  payable(msg.sender).transfer(msg.value) */\n      swap1\n      dup2\n      iszero\n      mul\n      swap1\n      mload(0x40)\n      0x00\n      mload(0x40)\n      dup1\n      dup4\n      sub\n      dup2\n      dup6\n      dup9\n      dup9\n      call\n      swap4\n      pop\n      pop\n      pop\n      pop\n      iszero\n      dup1\n      iszero\n      tag_30\n      jumpi\n      returndatacopy(0x00, 0x00, returndatasize)\n      revert(0x00, returndatasize)\n    tag_30:\n      stop\n        /* \"contracts/wallet.sol\":356:372  bool public stop */\n    tag_3:\n      callvalue\n      dup1\n      iszero\n      tag_31\n      jumpi\n      revert(0x00, 0x00)\n    tag_31:\n      pop\n      tag_32\n      tag_33\n      jump\t// in\n    tag_32:\n      mload(0x40)\n      tag_34\n      swap2\n      swap1\n      tag_35\n      jump\t// in\n    tag_34:\n      mload(0x40)\n      dup1\n      swap2\n      sub\n      swap1\n      return\n        /* \"contracts/wallet.sol\":1118:1404  function transferToContract() external payable {... */\n    tag_4:\n      tag_36\n      tag_37\n      jump\t// in\n    tag_36:\n      stop\n        /* \"contracts/wallet.sol\":261:300  Transaction[] public transactionHistory */\n    tag_5:\n      callvalue\n      dup1\n      iszero\n      tag_38\n      jumpi\n      revert(0x00, 0x00)\n    tag_38:\n      pop\n      tag_39\n      0x04\n      dup1\n      calldatasize\n      sub\n      dup2\n      add\n      swap1\n      tag_40\n      swap2\n      swap1\n      tag_41\n      jump\t// in\n    tag_40:\n      tag_42\n      jump\t// in\n    tag_39:\n      mload(0x40)\n      tag_43\n      swap5\n      swap4\n      swap3\n      swap2\n      swap1\n      tag_44\n      jump\t// in\n    tag_43:\n      mload(0x40)\n      dup1\n      swap2\n      sub\n      swap1\n      return\n        /* \"contracts/wallet.sol\":1410:1908  function transferToUserViaContract(address payable _to, uint256 _weiAmount)... */\n    tag_6:\n      callvalue\n      dup1\n      iszero\n      tag_45\n      jumpi\n      revert(0x00, 0x00)\n    tag_45:\n      pop\n      tag_46\n      0x04\n      dup1\n      calldatasize\n      sub\n      dup2\n      add\n      swap1\n      tag_47\n      swap2\n      swap1\n      tag_48\n      jump\t// in\n    tag_47:\n      tag_49\n      jump\t// in\n    tag_46:\n      stop\n        /* \"contracts/wallet.sol\":3349:3450  function getOwnerBalanceInWei() external view returns (uint256) {... */\n    tag_7:\n      callvalue\n      dup1\n      iszero\n      tag_50\n      jumpi\n      revert(0x00, 0x00)\n    tag_50:\n      pop\n      tag_51\n      tag_52\n      jump\t// in\n    tag_51:\n      mload(0x40)\n      tag_53\n      swap2\n      swap1\n      tag_54\n      jump\t// in\n    tag_53:\n      mload(0x40)\n      dup1\n      swap2\n      sub\n      swap1\n      return\n        /* \"contracts/wallet.sol\":2426:2899  function transferToUserViaMsgValue(address _to) external payable {... */\n    tag_8:\n      tag_55\n      0x04\n      dup1\n      calldatasize\n      sub\n      dup2\n      add\n      swap1\n      tag_56\n      swap2\n      swap1\n      tag_57\n      jump\t// in\n    tag_56:\n      tag_58\n      jump\t// in\n    tag_55:\n      stop\n        /* \"contracts/wallet.sol\":4078:4187  function emergencyWithdrawl() external payable{... */\n    tag_9:\n      tag_59\n      tag_60\n      jump\t// in\n    tag_59:\n      stop\n        /* \"contracts/wallet.sol\":307:327  address public owner */\n    tag_10:\n      callvalue\n      dup1\n      iszero\n      tag_61\n      jumpi\n      revert(0x00, 0x00)\n    tag_61:\n      pop\n      tag_62\n      tag_63\n      jump\t// in\n    tag_62:\n      mload(0x40)\n      tag_64\n      swap2\n      swap1\n      tag_65\n      jump\t// in\n    tag_64:\n      mload(0x40)\n      dup1\n      swap2\n      sub\n      swap1\n      return\n        /* \"contracts/wallet.sol\":890:933  function toggleStop() external onlyOwner {} */\n    tag_11:\n      callvalue\n      dup1\n      iszero\n      tag_66\n      jumpi\n      revert(0x00, 0x00)\n    tag_66:\n      pop\n      tag_67\n      tag_68\n      jump\t// in\n    tag_67:\n      stop\n        /* \"contracts/wallet.sol\":1914:2268  function withdrawFromContract(uint256 _weiAmount) external onlyOwner {... */\n    tag_12:\n      callvalue\n      dup1\n      iszero\n      tag_69\n      jumpi\n      revert(0x00, 0x00)\n    tag_69:\n      pop\n      tag_70\n      0x04\n      dup1\n      calldatasize\n      sub\n      dup2\n      add\n      swap1\n      tag_71\n      swap2\n      swap1\n      tag_41\n      jump\t// in\n    tag_71:\n      tag_72\n      jump\t// in\n    tag_70:\n      stop\n        /* \"contracts/wallet.sol\":3924:4072  function getTransactionHistory()... */\n    tag_13:\n      callvalue\n      dup1\n      iszero\n      tag_73\n      jumpi\n      revert(0x00, 0x00)\n    tag_73:\n      pop\n      tag_74\n      tag_75\n      jump\t// in\n    tag_74:\n      mload(0x40)\n      tag_76\n      swap2\n      swap1\n      tag_77\n      jump\t// in\n    tag_76:\n      mload(0x40)\n      dup1\n      swap2\n      sub\n      swap1\n      return\n        /* \"contracts/wallet.sol\":2274:2386  function getContractBalanceInWei() external view returns (uint256) {... */\n    tag_14:\n      callvalue\n      dup1\n      iszero\n      tag_78\n      jumpi\n      revert(0x00, 0x00)\n    tag_78:\n      pop\n      tag_79\n      tag_80\n      jump\t// in\n    tag_79:\n      mload(0x40)\n      tag_81\n      swap2\n      swap1\n      tag_54\n      jump\t// in\n    tag_81:\n      mload(0x40)\n      dup1\n      swap2\n      sub\n      swap1\n      return\n        /* \"contracts/wallet.sol\":333:350  string public str */\n    tag_15:\n      callvalue\n      dup1\n      iszero\n      tag_82\n      jumpi\n      revert(0x00, 0x00)\n    tag_82:\n      pop\n      tag_83\n      tag_84\n      jump\t// in\n    tag_83:\n      mload(0x40)\n      tag_85\n      swap2\n      swap1\n      tag_86\n      jump\t// in\n    tag_85:\n      mload(0x40)\n      dup1\n      swap2\n      sub\n      swap1\n      return\n        /* \"contracts/wallet.sol\":3774:3828  function suspiciousActivity(address _sender) public {} */\n    tag_16:\n      callvalue\n      dup1\n      iszero\n      tag_87\n      jumpi\n      revert(0x00, 0x00)\n    tag_87:\n      pop\n      tag_88\n      0x04\n      dup1\n      calldatasize\n      sub\n      dup2\n      add\n      swap1\n      tag_89\n      swap2\n      swap1\n      tag_57\n      jump\t// in\n    tag_89:\n      tag_90\n      jump\t// in\n    tag_88:\n      stop\n        /* \"contracts/wallet.sol\":2943:3343  function receiveFromUser() external payable {... */\n    tag_17:\n      tag_91\n      tag_92\n      jump\t// in\n    tag_91:\n      stop\n        /* \"contracts/wallet.sol\":939:1075  function changOwner(address newOwner)... */\n    tag_18:\n      callvalue\n      dup1\n      iszero\n      tag_93\n      jumpi\n      revert(0x00, 0x00)\n    tag_93:\n      pop\n      tag_94\n      0x04\n      dup1\n      calldatasize\n      sub\n      dup2\n      add\n      swap1\n      tag_95\n      swap2\n      swap1\n      tag_57\n      jump\t// in\n    tag_95:\n      tag_96\n      jump\t// in\n    tag_94:\n      stop\n        /* \"contracts/wallet.sol\":356:372  bool public stop */\n    tag_33:\n      0x03\n      0x00\n      swap1\n      sload\n      swap1\n      0x0100\n      exp\n      swap1\n      div\n      0xff\n      and\n      dup2\n      jump\t// out\n        /* \"contracts/wallet.sol\":1118:1404  function transferToContract() external payable {... */\n    tag_37:\n        /* \"contracts/wallet.sol\":1175:1193  transactionHistory */\n      0x00\n        /* \"contracts/wallet.sol\":1212:1387  Transaction({... */\n      mload(0x40)\n      dup1\n      0x80\n      add\n      0x40\n      mstore\n      dup1\n        /* \"contracts/wallet.sol\":1248:1258  msg.sender */\n      caller\n        /* \"contracts/wallet.sol\":1212:1387  Transaction({... */\n      0xffffffffffffffffffffffffffffffffffffffff\n      and\n      dup2\n      mstore\n      0x20\n      add\n        /* \"contracts/wallet.sol\":1288:1292  this */\n      address\n        /* \"contracts/wallet.sol\":1212:1387  Transaction({... */\n      0xffffffffffffffffffffffffffffffffffffffff\n      and\n      dup2\n      mstore\n      0x20\n      add\n        /* \"contracts/wallet.sol\":1322:1337  block.timestamp */\n      timestamp\n        /* \"contracts/wallet.sol\":1212:1387  Transaction({... */\n      dup2\n      mstore\n      0x20\n      add\n        /* \"contracts/wallet.sol\":1363:1372  msg.value */\n      callvalue\n        /* \"contracts/wallet.sol\":1212:1387  Transaction({... */\n      dup2\n      mstore\n      pop\n        /* \"contracts/wallet.sol\":1175:1397  transactionHistory.push(... */\n      swap1\n      dup1\n      0x01\n      dup2\n      sload\n      add\n      dup1\n      dup3\n      sstore\n      dup1\n      swap2\n      pop\n      pop\n      0x01\n      swap1\n      sub\n      swap1\n      0x00\n      mstore\n      keccak256(0x00, 0x20)\n      swap1\n      0x04\n      mul\n      add\n      0x00\n      swap1\n      swap2\n      swap1\n      swap2\n      swap1\n      swap2\n      pop\n      0x00\n      dup3\n      add\n      mload\n      dup2\n      0x00\n      add\n      exp(0x0100, 0x00)\n      dup2\n      sload\n      dup2\n      0xffffffffffffffffffffffffffffffffffffffff\n      mul\n      not\n      and\n      swap1\n      dup4\n      0xffffffffffffffffffffffffffffffffffffffff\n      and\n      mul\n      or\n      swap1\n      sstore\n      pop\n      0x20\n      dup3\n      add\n      mload\n      dup2\n      0x01\n      add\n      exp(0x0100, 0x00)\n      dup2\n      sload\n      dup2\n      0xffffffffffffffffffffffffffffffffffffffff\n      mul\n      not\n      and\n      swap1\n      dup4\n      0xffffffffffffffffffffffffffffffffffffffff\n      and\n      mul\n      or\n      swap1\n      sstore\n      pop\n      0x40\n      dup3\n      add\n      mload\n      dup2\n      0x02\n      add\n      sstore\n      0x60\n      dup3\n      add\n      mload\n      dup2\n      0x03\n      add\n      sstore\n      pop\n      pop\n        /* \"contracts/wallet.sol\":1118:1404  function transferToContract() external payable {... */\n      jump\t// out\n        /* \"contracts/wallet.sol\":261:300  Transaction[] public transactionHistory */\n    tag_42:\n      0x00\n      dup2\n      dup2\n      sload\n      dup2\n      lt\n      tag_99\n      jumpi\n      0x00\n      dup1\n      revert\n    tag_99:\n      swap1\n      0x00\n      mstore\n      keccak256(0x00, 0x20)\n      swap1\n      0x04\n      mul\n      add\n      0x00\n      swap2\n      pop\n      swap1\n      pop\n      dup1\n      0x00\n      add\n      0x00\n      swap1\n      sload\n      swap1\n      0x0100\n      exp\n      swap1\n      div\n      0xffffffffffffffffffffffffffffffffffffffff\n      and\n      swap1\n      dup1\n      0x01\n      add\n      0x00\n      swap1\n      sload\n      swap1\n      0x0100\n      exp\n      swap1\n      div\n      0xffffffffffffffffffffffffffffffffffffffff\n      and\n      swap1\n      dup1\n      0x02\n      add\n      sload\n      swap1\n      dup1\n      0x03\n      add\n      sload\n      swap1\n      pop\n      dup5\n      jump\t// out\n        /* \"contracts/wallet.sol\":1410:1908  function transferToUserViaContract(address payable _to, uint256 _weiAmount)... */\n    tag_49:\n        /* \"contracts/wallet.sol\":665:670  owner */\n      0x01\n      0x00\n      swap1\n      sload\n      swap1\n      0x0100\n      exp\n      swap1\n      div\n      0xffffffffffffffffffffffffffffffffffffffff\n      and\n        /* \"contracts/wallet.sol\":651:670  msg.sender == owner */\n      0xffffffffffffffffffffffffffffffffffffffff\n      and\n        /* \"contracts/wallet.sol\":651:661  msg.sender */\n      caller\n        /* \"contracts/wallet.sol\":651:670  msg.sender == owner */\n      0xffffffffffffffffffffffffffffffffffffffff\n      and\n      eq\n        /* \"contracts/wallet.sol\":643:695  require(msg.sender == owner, \"You dont have access\") */\n      tag_102\n      jumpi\n      mload(0x40)\n      0x08c379a000000000000000000000000000000000000000000000000000000000\n      dup2\n      mstore\n      0x04\n      add\n      tag_103\n      swap1\n      tag_104\n      jump\t// in\n    tag_103:\n      mload(0x40)\n      dup1\n      swap2\n      sub\n      swap1\n      revert\n    tag_102:\n        /* \"contracts/wallet.sol\":1568:1578  _weiAmount */\n      dup1\n        /* \"contracts/wallet.sol\":1543:1564  address(this).balance */\n      selfbalance\n        /* \"contracts/wallet.sol\":1543:1578  address(this).balance >= _weiAmount */\n      lt\n      iszero\n        /* \"contracts/wallet.sol\":1535:1603  require(address(this).balance >= _weiAmount, \"Insufficient Balance\") */\n      tag_106\n      jumpi\n      mload(0x40)\n      0x08c379a000000000000000000000000000000000000000000000000000000000\n      dup2\n      mstore\n      0x04\n      add\n      tag_107\n      swap1\n      tag_108\n      jump\t// in\n    tag_107:\n      mload(0x40)\n      dup1\n      swap2\n      sub\n      swap1\n      revert\n    tag_106:\n        /* \"contracts/wallet.sol\":1613:1616  _to */\n      dup2\n        /* \"contracts/wallet.sol\":1613:1625  _to.transfer */\n      0xffffffffffffffffffffffffffffffffffffffff\n      and\n        /* \"contracts/wallet.sol\":1613:1637  _to.transfer(_weiAmount) */\n      0x08fc\n        /* \"contracts/wallet.sol\":1626:1636  _weiAmount */\n      dup3\n        /* \"contracts/wallet.sol\":1613:1637  _to.transfer(_weiAmount) */\n      swap1\n      dup2\n      iszero\n      mul\n      swap1\n      mload(0x40)\n      0x00\n      mload(0x40)\n      dup1\n      dup4\n      sub\n      dup2\n      dup6\n      dup9\n      dup9\n      call\n      swap4\n      pop\n      pop\n      pop\n      pop\n      iszero\n      dup1\n      iszero\n      tag_110\n      jumpi\n      returndatacopy(0x00, 0x00, returndatasize)\n      revert(0x00, returndatasize)\n    tag_110:\n      pop\n        /* \"contracts/wallet.sol\":1652:1677  Transfer(_to, _weiAmount) */\n      0x69ca02dd4edd7bf0a4abb9ed3b7af3f14778db5d61921c7dc7cd545266326de2\n        /* \"contracts/wallet.sol\":1661:1664  _to */\n      dup3\n        /* \"contracts/wallet.sol\":1666:1676  _weiAmount */\n      dup3\n        /* \"contracts/wallet.sol\":1652:1677  Transfer(_to, _weiAmount) */\n      mload(0x40)\n      tag_111\n      swap3\n      swap2\n      swap1\n      tag_112\n      jump\t// in\n    tag_111:\n      mload(0x40)\n      dup1\n      swap2\n      sub\n      swap1\n      log1\n        /* \"contracts/wallet.sol\":1688:1706  transactionHistory */\n      0x00\n        /* \"contracts/wallet.sol\":1725:1891  Transaction({... */\n      mload(0x40)\n      dup1\n      0x80\n      add\n      0x40\n      mstore\n      dup1\n        /* \"contracts/wallet.sol\":1761:1771  msg.sender */\n      caller\n        /* \"contracts/wallet.sol\":1725:1891  Transaction({... */\n      0xffffffffffffffffffffffffffffffffffffffff\n      and\n      dup2\n      mstore\n      0x20\n      add\n        /* \"contracts/wallet.sol\":1793:1796  _to */\n      dup5\n        /* \"contracts/wallet.sol\":1725:1891  Transaction({... */\n      0xffffffffffffffffffffffffffffffffffffffff\n      and\n      dup2\n      mstore\n      0x20\n      add\n        /* \"contracts/wallet.sol\":1825:1840  block.timestamp */\n      timestamp\n        /* \"contracts/wallet.sol\":1725:1891  Transaction({... */\n      dup2\n      mstore\n      0x20\n      add\n        /* \"contracts/wallet.sol\":1866:1876  _weiAmount */\n      dup4\n        /* \"contracts/wallet.sol\":1725:1891  Transaction({... */\n      dup2\n      mstore\n      pop\n        /* \"contracts/wallet.sol\":1688:1901  transactionHistory.push(... */\n      swap1\n      dup1\n      0x01\n      dup2\n      sload\n      add\n      dup1\n      dup3\n      sstore\n      dup1\n      swap2\n      pop\n      pop\n      0x01\n      swap1\n      sub\n      swap1\n      0x00\n      mstore\n      keccak256(0x00, 0x20)\n      swap1\n      0x04\n      mul\n      add\n      0x00\n      swap1\n      swap2\n      swap1\n      swap2\n      swap1\n      swap2\n      pop\n      0x00\n      dup3\n      add\n      mload\n      dup2\n      0x00\n      add\n      exp(0x0100, 0x00)\n      dup2\n      sload\n      dup2\n      0xffffffffffffffffffffffffffffffffffffffff\n      mul\n      not\n      and\n      swap1\n      dup4\n      0xffffffffffffffffffffffffffffffffffffffff\n      and\n      mul\n      or\n      swap1\n      sstore\n      pop\n      0x20\n      dup3\n      add\n      mload\n      dup2\n      0x01\n      add\n      exp(0x0100, 0x00)\n      dup2\n      sload\n      dup2\n      0xffffffffffffffffffffffffffffffffffffffff\n      mul\n      not\n      and\n      swap1\n      dup4\n      0xffffffffffffffffffffffffffffffffffffffff\n      and\n      mul\n      or\n      swap1\n      sstore\n      pop\n      0x40\n      dup3\n      add\n      mload\n      dup2\n      0x02\n      add\n      sstore\n      0x60\n      dup3\n      add\n      mload\n      dup2\n      0x03\n      add\n      sstore\n      pop\n      pop\n        /* \"contracts/wallet.sol\":1410:1908  function transferToUserViaContract(address payable _to, uint256 _weiAmount)... */\n      pop\n      pop\n      jump\t// out\n        /* \"contracts/wallet.sol\":3349:3450  function getOwnerBalanceInWei() external view returns (uint256) {... */\n    tag_52:\n        /* \"contracts/wallet.sol\":3404:3411  uint256 */\n      0x00\n        /* \"contracts/wallet.sol\":3430:3435  owner */\n      0x01\n      0x00\n      swap1\n      sload\n      swap1\n      0x0100\n      exp\n      swap1\n      div\n      0xffffffffffffffffffffffffffffffffffffffff\n      and\n        /* \"contracts/wallet.sol\":3430:3443  owner.balance */\n      0xffffffffffffffffffffffffffffffffffffffff\n      and\n      balance\n        /* \"contracts/wallet.sol\":3423:3443  return owner.balance */\n      swap1\n      pop\n        /* \"contracts/wallet.sol\":3349:3450  function getOwnerBalanceInWei() external view returns (uint256) {... */\n      swap1\n      jump\t// out\n        /* \"contracts/wallet.sol\":2426:2899  function transferToUserViaMsgValue(address _to) external payable {... */\n    tag_58:\n        /* \"contracts/wallet.sol\":2534:2543  msg.value */\n      callvalue\n        /* \"contracts/wallet.sol\":2509:2530  address(this).balance */\n      selfbalance\n        /* \"contracts/wallet.sol\":2509:2543  address(this).balance >= msg.value */\n      lt\n      iszero\n        /* \"contracts/wallet.sol\":2501:2568  require(address(this).balance >= msg.value, \"Insufficient Balance\") */\n      tag_116\n      jumpi\n      mload(0x40)\n      0x08c379a000000000000000000000000000000000000000000000000000000000\n      dup2\n      mstore\n      0x04\n      add\n      tag_117\n      swap1\n      tag_108\n      jump\t// in\n    tag_117:\n      mload(0x40)\n      dup1\n      swap2\n      sub\n      swap1\n      revert\n    tag_116:\n        /* \"contracts/wallet.sol\":2600:2601  0 */\n      0x00\n        /* \"contracts/wallet.sol\":2586:2602  _to!= address(0) */\n      0xffffffffffffffffffffffffffffffffffffffff\n      and\n        /* \"contracts/wallet.sol\":2586:2589  _to */\n      dup2\n        /* \"contracts/wallet.sol\":2586:2602  _to!= address(0) */\n      0xffffffffffffffffffffffffffffffffffffffff\n      and\n      sub\n        /* \"contracts/wallet.sol\":2578:2627  require(_to!= address(0), \"Insufficient Balance\") */\n      tag_118\n      jumpi\n      mload(0x40)\n      0x08c379a000000000000000000000000000000000000000000000000000000000\n      dup2\n      mstore\n      0x04\n      add\n      tag_119\n      swap1\n      tag_108\n      jump\t// in\n    tag_119:\n      mload(0x40)\n      dup1\n      swap2\n      sub\n      swap1\n      revert\n    tag_118:\n        /* \"contracts/wallet.sol\":2645:2648  _to */\n      dup1\n        /* \"contracts/wallet.sol\":2637:2658  payable(_to).transfer */\n      0xffffffffffffffffffffffffffffffffffffffff\n      and\n        /* \"contracts/wallet.sol\":2637:2669  payable(_to).transfer(msg.value) */\n      0x08fc\n        /* \"contracts/wallet.sol\":2659:2668  msg.value */\n      callvalue\n        /* \"contracts/wallet.sol\":2637:2669  payable(_to).transfer(msg.value) */\n      swap1\n      dup2\n      iszero\n      mul\n      swap1\n      mload(0x40)\n      0x00\n      mload(0x40)\n      dup1\n      dup4\n      sub\n      dup2\n      dup6\n      dup9\n      dup9\n      call\n      swap4\n      pop\n      pop\n      pop\n      pop\n      iszero\n      dup1\n      iszero\n      tag_121\n      jumpi\n      returndatacopy(0x00, 0x00, returndatasize)\n      revert(0x00, returndatasize)\n    tag_121:\n      pop\n        /* \"contracts/wallet.sol\":2680:2698  transactionHistory */\n      0x00\n        /* \"contracts/wallet.sol\":2717:2882  Transaction({... */\n      mload(0x40)\n      dup1\n      0x80\n      add\n      0x40\n      mstore\n      dup1\n        /* \"contracts/wallet.sol\":2753:2763  msg.sender */\n      caller\n        /* \"contracts/wallet.sol\":2717:2882  Transaction({... */\n      0xffffffffffffffffffffffffffffffffffffffff\n      and\n      dup2\n      mstore\n      0x20\n      add\n        /* \"contracts/wallet.sol\":2785:2788  _to */\n      dup4\n        /* \"contracts/wallet.sol\":2717:2882  Transaction({... */\n      0xffffffffffffffffffffffffffffffffffffffff\n      and\n      dup2\n      mstore\n      0x20\n      add\n        /* \"contracts/wallet.sol\":2817:2832  block.timestamp */\n      timestamp\n        /* \"contracts/wallet.sol\":2717:2882  Transaction({... */\n      dup2\n      mstore\n      0x20\n      add\n        /* \"contracts/wallet.sol\":2858:2867  msg.value */\n      callvalue\n        /* \"contracts/wallet.sol\":2717:2882  Transaction({... */\n      dup2\n      mstore\n      pop\n        /* \"contracts/wallet.sol\":2680:2892  transactionHistory.push(... */\n      swap1\n      dup1\n      0x01\n      dup2\n      sload\n      add\n      dup1\n      dup3\n      sstore\n      dup1\n      swap2\n      pop\n      pop\n      0x01\n      swap1\n      sub\n      swap1\n      0x00\n      mstore\n      keccak256(0x00, 0x20)\n      swap1\n      0x04\n      mul\n      add\n      0x00\n      swap1\n      swap2\n      swap1\n      swap2\n      swap1\n      swap2\n      pop\n      0x00\n      dup3\n      add\n      mload\n      dup2\n      0x00\n      add\n      exp(0x0100, 0x00)\n      dup2\n      sload\n      dup2\n      0xffffffffffffffffffffffffffffffffffffffff\n      mul\n      not\n      and\n      swap1\n      dup4\n      0xffffffffffffffffffffffffffffffffffffffff\n      and\n      mul\n      or\n      swap1\n      sstore\n      pop\n      0x20\n      dup3\n      add\n      mload\n      dup2\n      0x01\n      add\n      exp(0x0100, 0x00)\n      dup2\n      sload\n      dup2\n      0xffffffffffffffffffffffffffffffffffffffff\n      mul\n      not\n      and\n      swap1\n      dup4\n      0xffffffffffffffffffffffffffffffffffffffff\n      and\n      mul\n      or\n      swap1\n      sstore\n      pop\n      0x40\n      dup3\n      add\n      mload\n      dup2\n      0x02\n      add\n      sstore\n      0x60\n      dup3\n      add\n      mload\n      dup2\n      0x03\n      add\n      sstore\n      pop\n      pop\n        /* \"contracts/wallet.sol\":2426:2899  function transferToUserViaMsgValue(address _to) external payable {... */\n      pop\n      jump\t// out\n        /* \"contracts/wallet.sol\":4078:4187  function emergencyWithdrawl() external payable{... */\n    tag_60:\n        /* \"contracts/wallet.sol\":4142:4147  owner */\n      0x01\n      0x00\n      swap1\n      sload\n      swap1\n      0x0100\n      exp\n      swap1\n      div\n      0xffffffffffffffffffffffffffffffffffffffff\n      and\n        /* \"contracts/wallet.sol\":4134:4157  payable(owner).transfer */\n      0xffffffffffffffffffffffffffffffffffffffff\n      and\n        /* \"contracts/wallet.sol\":4134:4180  payable(owner).transfer(address(this).balance) */\n      0x08fc\n        /* \"contracts/wallet.sol\":4158:4179  address(this).balance */\n      selfbalance\n        /* \"contracts/wallet.sol\":4134:4180  payable(owner).transfer(address(this).balance) */\n      swap1\n      dup2\n      iszero\n      mul\n      swap1\n      mload(0x40)\n      0x00\n      mload(0x40)\n      dup1\n      dup4\n      sub\n      dup2\n      dup6\n      dup9\n      dup9\n      call\n      swap4\n      pop\n      pop\n      pop\n      pop\n      iszero\n      dup1\n      iszero\n      tag_125\n      jumpi\n      returndatacopy(0x00, 0x00, returndatasize)\n      revert(0x00, returndatasize)\n    tag_125:\n      pop\n        /* \"contracts/wallet.sol\":4078:4187  function emergencyWithdrawl() external payable{... */\n      jump\t// out\n        /* \"contracts/wallet.sol\":307:327  address public owner */\n    tag_63:\n      0x01\n      0x00\n      swap1\n      sload\n      swap1\n      0x0100\n      exp\n      swap1\n      div\n      0xffffffffffffffffffffffffffffffffffffffff\n      and\n      dup2\n      jump\t// out\n        /* \"contracts/wallet.sol\":890:933  function toggleStop() external onlyOwner {} */\n    tag_68:\n        /* \"contracts/wallet.sol\":665:670  owner */\n      0x01\n      0x00\n      swap1\n      sload\n      swap1\n      0x0100\n      exp\n      swap1\n      div\n      0xffffffffffffffffffffffffffffffffffffffff\n      and\n        /* \"contracts/wallet.sol\":651:670  msg.sender == owner */\n      0xffffffffffffffffffffffffffffffffffffffff\n      and\n        /* \"contracts/wallet.sol\":651:661  msg.sender */\n      caller\n        /* \"contracts/wallet.sol\":651:670  msg.sender == owner */\n      0xffffffffffffffffffffffffffffffffffffffff\n      and\n      eq\n        /* \"contracts/wallet.sol\":643:695  require(msg.sender == owner, \"You dont have access\") */\n      tag_127\n      jumpi\n      mload(0x40)\n      0x08c379a000000000000000000000000000000000000000000000000000000000\n      dup2\n      mstore\n      0x04\n      add\n      tag_128\n      swap1\n      tag_104\n      jump\t// in\n    tag_128:\n      mload(0x40)\n      dup1\n      swap2\n      sub\n      swap1\n      revert\n    tag_127:\n        /* \"contracts/wallet.sol\":890:933  function toggleStop() external onlyOwner {} */\n      jump\t// out\n        /* \"contracts/wallet.sol\":1914:2268  function withdrawFromContract(uint256 _weiAmount) external onlyOwner {... */\n    tag_72:\n        /* \"contracts/wallet.sol\":665:670  owner */\n      0x01\n      0x00\n      swap1\n      sload\n      swap1\n      0x0100\n      exp\n      swap1\n      div\n      0xffffffffffffffffffffffffffffffffffffffff\n      and\n        /* \"contracts/wallet.sol\":651:670  msg.sender == owner */\n      0xffffffffffffffffffffffffffffffffffffffff\n      and\n        /* \"contracts/wallet.sol\":651:661  msg.sender */\n      caller\n        /* \"contracts/wallet.sol\":651:670  msg.sender == owner */\n      0xffffffffffffffffffffffffffffffffffffffff\n      and\n      eq\n        /* \"contracts/wallet.sol\":643:695  require(msg.sender == owner, \"You dont have access\") */\n      tag_131\n      jumpi\n      mload(0x40)\n      0x08c379a000000000000000000000000000000000000000000000000000000000\n      dup2\n      mstore\n      0x04\n      add\n      tag_132\n      swap1\n      tag_104\n      jump\t// in\n    tag_132:\n      mload(0x40)\n      dup1\n      swap2\n      sub\n      swap1\n      revert\n    tag_131:\n        /* \"contracts/wallet.sol\":2001:2006  owner */\n      0x01\n      0x00\n      swap1\n      sload\n      swap1\n      0x0100\n      exp\n      swap1\n      div\n      0xffffffffffffffffffffffffffffffffffffffff\n      and\n        /* \"contracts/wallet.sol\":1993:2016  payable(owner).transfer */\n      0xffffffffffffffffffffffffffffffffffffffff\n      and\n        /* \"contracts/wallet.sol\":1993:2028  payable(owner).transfer(_weiAmount) */\n      0x08fc\n        /* \"contracts/wallet.sol\":2017:2027  _weiAmount */\n      dup3\n        /* \"contracts/wallet.sol\":1993:2028  payable(owner).transfer(_weiAmount) */\n      swap1\n      dup2\n      iszero\n      mul\n      swap1\n      mload(0x40)\n      0x00\n      mload(0x40)\n      dup1\n      dup4\n      sub\n      dup2\n      dup6\n      dup9\n      dup9\n      call\n      swap4\n      pop\n      pop\n      pop\n      pop\n      iszero\n      dup1\n      iszero\n      tag_135\n      jumpi\n      returndatacopy(0x00, 0x00, returndatasize)\n      revert(0x00, returndatasize)\n    tag_135:\n      pop\n        /* \"contracts/wallet.sol\":2038:2056  transactionHistory */\n      0x00\n        /* \"contracts/wallet.sol\":2075:2246  Transaction({... */\n      mload(0x40)\n      dup1\n      0x80\n      add\n      0x40\n      mstore\n      dup1\n        /* \"contracts/wallet.sol\":2119:2123  this */\n      address\n        /* \"contracts/wallet.sol\":2075:2246  Transaction({... */\n      0xffffffffffffffffffffffffffffffffffffffff\n      and\n      dup2\n      mstore\n      0x20\n      add\n        /* \"contracts/wallet.sol\":2146:2151  owner */\n      0x01\n      0x00\n      swap1\n      sload\n      swap1\n      0x0100\n      exp\n      swap1\n      div\n      0xffffffffffffffffffffffffffffffffffffffff\n      and\n        /* \"contracts/wallet.sol\":2075:2246  Transaction({... */\n      0xffffffffffffffffffffffffffffffffffffffff\n      and\n      dup2\n      mstore\n      0x20\n      add\n        /* \"contracts/wallet.sol\":2180:2195  block.timestamp */\n      timestamp\n        /* \"contracts/wallet.sol\":2075:2246  Transaction({... */\n      dup2\n      mstore\n      0x20\n      add\n        /* \"contracts/wallet.sol\":2221:2231  _weiAmount */\n      dup4\n        /* \"contracts/wallet.sol\":2075:2246  Transaction({... */\n      dup2\n      mstore\n      pop\n        /* \"contracts/wallet.sol\":2038:2256  transactionHistory.push(... */\n      swap1\n      dup1\n      0x01\n      dup2\n      sload\n      add\n      dup1\n      dup3\n      sstore\n      dup1\n      swap2\n      pop\n      pop\n      0x01\n      swap1\n      sub\n      swap1\n      0x00\n      mstore\n      keccak256(0x00, 0x20)\n      swap1\n      0x04\n      mul\n      add\n      0x00\n      swap1\n      swap2\n      swap1\n      swap2\n      swap1\n      swap2\n      pop\n      0x00\n      dup3\n      add\n      mload\n      dup2\n      0x00\n      add\n      exp(0x0100, 0x00)\n      dup2\n      sload\n      dup2\n      0xffffffffffffffffffffffffffffffffffffffff\n      mul\n      not\n      and\n      swap1\n      dup4\n      0xffffffffffffffffffffffffffffffffffffffff\n      and\n      mul\n      or\n      swap1\n      sstore\n      pop\n      0x20\n      dup3\n      add\n      mload\n      dup2\n      0x01\n      add\n      exp(0x0100, 0x00)\n      dup2\n      sload\n      dup2\n      0xffffffffffffffffffffffffffffffffffffffff\n      mul\n      not\n      and\n      swap1\n      dup4\n      0xffffffffffffffffffffffffffffffffffffffff\n      and\n      mul\n      or\n      swap1\n      sstore\n      pop\n      0x40\n      dup3\n      add\n      mload\n      dup2\n      0x02\n      add\n      sstore\n      0x60\n      dup3\n      add\n      mload\n      dup2\n      0x03\n      add\n      sstore\n      pop\n      pop\n        /* \"contracts/wallet.sol\":1914:2268  function withdrawFromContract(uint256 _weiAmount) external onlyOwner {... */\n      pop\n      jump\t// out\n        /* \"contracts/wallet.sol\":3924:4072  function getTransactionHistory()... */\n    tag_75:\n        /* \"contracts/wallet.sol\":4004:4024  Transaction[] memory */\n      0x60\n        /* \"contracts/wallet.sol\":4047:4065  transactionHistory */\n      0x00\n        /* \"contracts/wallet.sol\":4040:4065  return transactionHistory */\n      dup1\n      sload\n      dup1\n      0x20\n      mul\n      0x20\n      add\n      mload(0x40)\n      swap1\n      dup2\n      add\n      0x40\n      mstore\n      dup1\n      swap3\n      swap2\n      swap1\n      dup2\n      dup2\n      mstore\n      0x20\n      add\n      0x00\n      swap1\n    tag_138:\n      dup3\n      dup3\n      lt\n      iszero\n      tag_139\n      jumpi\n      dup4\n      dup3\n      swap1\n      0x00\n      mstore\n      keccak256(0x00, 0x20)\n      swap1\n      0x04\n      mul\n      add\n      mload(0x40)\n      dup1\n      0x80\n      add\n      0x40\n      mstore\n      swap1\n      dup2\n      0x00\n      dup3\n      add\n      0x00\n      swap1\n      sload\n      swap1\n      0x0100\n      exp\n      swap1\n      div\n      0xffffffffffffffffffffffffffffffffffffffff\n      and\n      0xffffffffffffffffffffffffffffffffffffffff\n      and\n      0xffffffffffffffffffffffffffffffffffffffff\n      and\n      dup2\n      mstore\n      0x20\n      add\n      0x01\n      dup3\n      add\n      0x00\n      swap1\n      sload\n      swap1\n      0x0100\n      exp\n      swap1\n      div\n      0xffffffffffffffffffffffffffffffffffffffff\n      and\n      0xffffffffffffffffffffffffffffffffffffffff\n      and\n      0xffffffffffffffffffffffffffffffffffffffff\n      and\n      dup2\n      mstore\n      0x20\n      add\n      0x02\n      dup3\n      add\n      sload\n      dup2\n      mstore\n      0x20\n      add\n      0x03\n      dup3\n      add\n      sload\n      dup2\n      mstore\n      pop\n      pop\n      dup2\n      mstore\n      0x20\n      add\n      swap1\n      0x01\n      add\n      swap1\n      jump(tag_138)\n    tag_139:\n      pop\n      pop\n      pop\n      pop\n      swap1\n      pop\n        /* \"contracts/wallet.sol\":3924:4072  function getTransactionHistory()... */\n      swap1\n      jump\t// out\n        /* \"contracts/wallet.sol\":2274:2386  function getContractBalanceInWei() external view returns (uint256) {... */\n    tag_80:\n        /* \"contracts/wallet.sol\":2332:2339  uint256 */\n      0x00\n        /* \"contracts/wallet.sol\":2358:2379  address(this).balance */\n      selfbalance\n        /* \"contracts/wallet.sol\":2351:2379  return address(this).balance */\n      swap1\n      pop\n        /* \"contracts/wallet.sol\":2274:2386  function getContractBalanceInWei() external view returns (uint256) {... */\n      swap1\n      jump\t// out\n        /* \"contracts/wallet.sol\":333:350  string public str */\n    tag_84:\n      0x02\n      dup1\n      sload\n      tag_142\n      swap1\n      tag_143\n      jump\t// in\n    tag_142:\n      dup1\n      0x1f\n      add\n      0x20\n      dup1\n      swap2\n      div\n      mul\n      0x20\n      add\n      mload(0x40)\n      swap1\n      dup2\n      add\n      0x40\n      mstore\n      dup1\n      swap3\n      swap2\n      swap1\n      dup2\n      dup2\n      mstore\n      0x20\n      add\n      dup3\n      dup1\n      sload\n      tag_144\n      swap1\n      tag_143\n      jump\t// in\n    tag_144:\n      dup1\n      iszero\n      tag_145\n      jumpi\n      dup1\n      0x1f\n      lt\n      tag_146\n      jumpi\n      0x0100\n      dup1\n      dup4\n      sload\n      div\n      mul\n      dup4\n      mstore\n      swap2\n      0x20\n      add\n      swap2\n      jump(tag_145)\n    tag_146:\n      dup3\n      add\n      swap2\n      swap1\n      0x00\n      mstore\n      keccak256(0x00, 0x20)\n      swap1\n    tag_147:\n      dup2\n      sload\n      dup2\n      mstore\n      swap1\n      0x01\n      add\n      swap1\n      0x20\n      add\n      dup1\n      dup4\n      gt\n      tag_147\n      jumpi\n      dup3\n      swap1\n      sub\n      0x1f\n      and\n      dup3\n      add\n      swap2\n    tag_145:\n      pop\n      pop\n      pop\n      pop\n      pop\n      dup2\n      jump\t// out\n        /* \"contracts/wallet.sol\":3774:3828  function suspiciousActivity(address _sender) public {} */\n    tag_90:\n      pop\n      jump\t// out\n        /* \"contracts/wallet.sol\":2943:3343  function receiveFromUser() external payable {... */\n    tag_92:\n        /* \"contracts/wallet.sol\":3013:3017  this */\n      address\n        /* \"contracts/wallet.sol\":2997:3028  payable(address(this)).transfer */\n      0xffffffffffffffffffffffffffffffffffffffff\n      and\n        /* \"contracts/wallet.sol\":2997:3039  payable(address(this)).transfer(msg.value) */\n      0x08fc\n        /* \"contracts/wallet.sol\":3029:3038  msg.value */\n      callvalue\n        /* \"contracts/wallet.sol\":2997:3039  payable(address(this)).transfer(msg.value) */\n      swap1\n      dup2\n      iszero\n      mul\n      swap1\n      mload(0x40)\n      0x00\n      mload(0x40)\n      dup1\n      dup4\n      sub\n      dup2\n      dup6\n      dup9\n      dup9\n      call\n      swap4\n      pop\n      pop\n      pop\n      pop\n      iszero\n      dup1\n      iszero\n      tag_151\n      jumpi\n      returndatacopy(0x00, 0x00, returndatasize)\n      revert(0x00, returndatasize)\n    tag_151:\n      pop\n        /* \"contracts/wallet.sol\":3054:3103  ReceiveUser(msg.sender, address(this), msg.value) */\n      0x6bff45ea56524a93993203a4991ca550597cbc6392508dd91678a3cc936c5577\n        /* \"contracts/wallet.sol\":3066:3076  msg.sender */\n      caller\n        /* \"contracts/wallet.sol\":3086:3090  this */\n      address\n        /* \"contracts/wallet.sol\":3093:3102  msg.value */\n      callvalue\n        /* \"contracts/wallet.sol\":3054:3103  ReceiveUser(msg.sender, address(this), msg.value) */\n      mload(0x40)\n      tag_152\n      swap4\n      swap3\n      swap2\n      swap1\n      tag_153\n      jump\t// in\n    tag_152:\n      mload(0x40)\n      dup1\n      swap2\n      sub\n      swap1\n      log1\n        /* \"contracts/wallet.sol\":3114:3132  transactionHistory */\n      0x00\n        /* \"contracts/wallet.sol\":3151:3326  Transaction({... */\n      mload(0x40)\n      dup1\n      0x80\n      add\n      0x40\n      mstore\n      dup1\n        /* \"contracts/wallet.sol\":3187:3197  msg.sender */\n      caller\n        /* \"contracts/wallet.sol\":3151:3326  Transaction({... */\n      0xffffffffffffffffffffffffffffffffffffffff\n      and\n      dup2\n      mstore\n      0x20\n      add\n        /* \"contracts/wallet.sol\":3227:3231  this */\n      address\n        /* \"contracts/wallet.sol\":3151:3326  Transaction({... */\n      0xffffffffffffffffffffffffffffffffffffffff\n      and\n      dup2\n      mstore\n      0x20\n      add\n        /* \"contracts/wallet.sol\":3261:3276  block.timestamp */\n      timestamp\n        /* \"contracts/wallet.sol\":3151:3326  Transaction({... */\n      dup2\n      mstore\n      0x20\n      add\n        /* \"contracts/wallet.sol\":3302:3311  msg.value */\n      callvalue\n        /* \"contracts/wallet.sol\":3151:3326  Transaction({... */\n      dup2\n      mstore\n      pop\n        /* \"contracts/wallet.sol\":3114:3336  transactionHistory.push(... */\n      swap1\n      dup1\n      0x01\n      dup2\n      sload\n      add\n      dup1\n      dup3\n      sstore\n      dup1\n      swap2\n      pop\n      pop\n      0x01\n      swap1\n      sub\n      swap1\n      0x00\n      mstore\n      keccak256(0x00, 0x20)\n      swap1\n      0x04\n      mul\n      add\n      0x00\n      swap1\n      swap2\n      swap1\n      swap2\n      swap1\n      swap2\n      pop\n      0x00\n      dup3\n      add\n      mload\n      dup2\n      0x00\n      add\n      exp(0x0100, 0x00)\n      dup2\n      sload\n      dup2\n      0xffffffffffffffffffffffffffffffffffffffff\n      mul\n      not\n      and\n      swap1\n      dup4\n      0xffffffffffffffffffffffffffffffffffffffff\n      and\n      mul\n      or\n      swap1\n      sstore\n      pop\n      0x20\n      dup3\n      add\n      mload\n      dup2\n      0x01\n      add\n      exp(0x0100, 0x00)\n      dup2\n      sload\n      dup2\n      0xffffffffffffffffffffffffffffffffffffffff\n      mul\n      not\n      and\n      swap1\n      dup4\n      0xffffffffffffffffffffffffffffffffffffffff\n      and\n      mul\n      or\n      swap1\n      sstore\n      pop\n      0x40\n      dup3\n      add\n      mload\n      dup2\n      0x02\n      add\n      sstore\n      0x60\n      dup3\n      add\n      mload\n      dup2\n      0x03\n      add\n      sstore\n      pop\n      pop\n        /* \"contracts/wallet.sol\":2943:3343  function receiveFromUser() external payable {... */\n      jump\t// out\n        /* \"contracts/wallet.sol\":939:1075  function changOwner(address newOwner)... */\n    tag_96:\n        /* \"contracts/wallet.sol\":665:670  owner */\n      0x01\n      0x00\n      swap1\n      sload\n      swap1\n      0x0100\n      exp\n      swap1\n      div\n      0xffffffffffffffffffffffffffffffffffffffff\n      and\n        /* \"contracts/wallet.sol\":651:670  msg.sender == owner */\n      0xffffffffffffffffffffffffffffffffffffffff\n      and\n        /* \"contracts/wallet.sol\":651:661  msg.sender */\n      caller\n        /* \"contracts/wallet.sol\":651:670  msg.sender == owner */\n      0xffffffffffffffffffffffffffffffffffffffff\n      and\n      eq\n        /* \"contracts/wallet.sol\":643:695  require(msg.sender == owner, \"You dont have access\") */\n      tag_156\n      jumpi\n      mload(0x40)\n      0x08c379a000000000000000000000000000000000000000000000000000000000\n      dup2\n      mstore\n      0x04\n      add\n      tag_157\n      swap1\n      tag_104\n      jump\t// in\n    tag_157:\n      mload(0x40)\n      dup1\n      swap2\n      sub\n      swap1\n      revert\n    tag_156:\n        /* \"contracts/wallet.sol\":1060:1068  newOwner */\n      dup1\n        /* \"contracts/wallet.sol\":1052:1057  owner */\n      0x01\n      0x00\n        /* \"contracts/wallet.sol\":1052:1068  owner = newOwner */\n      0x0100\n      exp\n      dup2\n      sload\n      dup2\n      0xffffffffffffffffffffffffffffffffffffffff\n      mul\n      not\n      and\n      swap1\n      dup4\n      0xffffffffffffffffffffffffffffffffffffffff\n      and\n      mul\n      or\n      swap1\n      sstore\n      pop\n        /* \"contracts/wallet.sol\":939:1075  function changOwner(address newOwner)... */\n      pop\n      jump\t// out\n        /* \"#utility.yul\":7:133   */\n    tag_160:\n        /* \"#utility.yul\":44:51   */\n      0x00\n        /* \"#utility.yul\":84:126   */\n      0xffffffffffffffffffffffffffffffffffffffff\n        /* \"#utility.yul\":77:82   */\n      dup3\n        /* \"#utility.yul\":73:127   */\n      and\n        /* \"#utility.yul\":62:127   */\n      swap1\n      pop\n        /* \"#utility.yul\":7:133   */\n      swap2\n      swap1\n      pop\n      jump\t// out\n        /* \"#utility.yul\":139:235   */\n    tag_161:\n        /* \"#utility.yul\":176:183   */\n      0x00\n        /* \"#utility.yul\":205:229   */\n      tag_204\n        /* \"#utility.yul\":223:228   */\n      dup3\n        /* \"#utility.yul\":205:229   */\n      tag_160\n      jump\t// in\n    tag_204:\n        /* \"#utility.yul\":194:229   */\n      swap1\n      pop\n        /* \"#utility.yul\":139:235   */\n      swap2\n      swap1\n      pop\n      jump\t// out\n        /* \"#utility.yul\":241:359   */\n    tag_162:\n        /* \"#utility.yul\":328:352   */\n      tag_206\n        /* \"#utility.yul\":346:351   */\n      dup2\n        /* \"#utility.yul\":328:352   */\n      tag_161\n      jump\t// in\n    tag_206:\n        /* \"#utility.yul\":323:326   */\n      dup3\n        /* \"#utility.yul\":316:353   */\n      mstore\n        /* \"#utility.yul\":241:359   */\n      pop\n      pop\n      jump\t// out\n        /* \"#utility.yul\":365:442   */\n    tag_163:\n        /* \"#utility.yul\":402:409   */\n      0x00\n        /* \"#utility.yul\":431:436   */\n      dup2\n        /* \"#utility.yul\":420:436   */\n      swap1\n      pop\n        /* \"#utility.yul\":365:442   */\n      swap2\n      swap1\n      pop\n      jump\t// out\n        /* \"#utility.yul\":448:566   */\n    tag_164:\n        /* \"#utility.yul\":535:559   */\n      tag_209\n        /* \"#utility.yul\":553:558   */\n      dup2\n        /* \"#utility.yul\":535:559   */\n      tag_163\n      jump\t// in\n    tag_209:\n        /* \"#utility.yul\":530:533   */\n      dup3\n        /* \"#utility.yul\":523:560   */\n      mstore\n        /* \"#utility.yul\":448:566   */\n      pop\n      pop\n      jump\t// out\n        /* \"#utility.yul\":572:904   */\n    tag_25:\n        /* \"#utility.yul\":693:697   */\n      0x00\n        /* \"#utility.yul\":731:733   */\n      0x40\n        /* \"#utility.yul\":720:729   */\n      dup3\n        /* \"#utility.yul\":716:734   */\n      add\n        /* \"#utility.yul\":708:734   */\n      swap1\n      pop\n        /* \"#utility.yul\":744:815   */\n      tag_211\n        /* \"#utility.yul\":812:813   */\n      0x00\n        /* \"#utility.yul\":801:810   */\n      dup4\n        /* \"#utility.yul\":797:814   */\n      add\n        /* \"#utility.yul\":788:794   */\n      dup6\n        /* \"#utility.yul\":744:815   */\n      tag_162\n      jump\t// in\n    tag_211:\n        /* \"#utility.yul\":825:897   */\n      tag_212\n        /* \"#utility.yul\":893:895   */\n      0x20\n        /* \"#utility.yul\":882:891   */\n      dup4\n        /* \"#utility.yul\":878:896   */\n      add\n        /* \"#utility.yul\":869:875   */\n      dup5\n        /* \"#utility.yul\":825:897   */\n      tag_164\n      jump\t// in\n    tag_212:\n        /* \"#utility.yul\":572:904   */\n      swap4\n      swap3\n      pop\n      pop\n      pop\n      jump\t// out\n        /* \"#utility.yul\":910:1000   */\n    tag_165:\n        /* \"#utility.yul\":944:951   */\n      0x00\n        /* \"#utility.yul\":987:992   */\n      dup2\n        /* \"#utility.yul\":980:993   */\n      iszero\n        /* \"#utility.yul\":973:994   */\n      iszero\n        /* \"#utility.yul\":962:994   */\n      swap1\n      pop\n        /* \"#utility.yul\":910:1000   */\n      swap2\n      swap1\n      pop\n      jump\t// out\n        /* \"#utility.yul\":1006:1115   */\n    tag_166:\n        /* \"#utility.yul\":1087:1108   */\n      tag_215\n        /* \"#utility.yul\":1102:1107   */\n      dup2\n        /* \"#utility.yul\":1087:1108   */\n      tag_165\n      jump\t// in\n    tag_215:\n        /* \"#utility.yul\":1082:1085   */\n      dup3\n        /* \"#utility.yul\":1075:1109   */\n      mstore\n        /* \"#utility.yul\":1006:1115   */\n      pop\n      pop\n      jump\t// out\n        /* \"#utility.yul\":1121:1331   */\n    tag_35:\n        /* \"#utility.yul\":1208:1212   */\n      0x00\n        /* \"#utility.yul\":1246:1248   */\n      0x20\n        /* \"#utility.yul\":1235:1244   */\n      dup3\n        /* \"#utility.yul\":1231:1249   */\n      add\n        /* \"#utility.yul\":1223:1249   */\n      swap1\n      pop\n        /* \"#utility.yul\":1259:1324   */\n      tag_217\n        /* \"#utility.yul\":1321:1322   */\n      0x00\n        /* \"#utility.yul\":1310:1319   */\n      dup4\n        /* \"#utility.yul\":1306:1323   */\n      add\n        /* \"#utility.yul\":1297:1303   */\n      dup5\n        /* \"#utility.yul\":1259:1324   */\n      tag_166\n      jump\t// in\n    tag_217:\n        /* \"#utility.yul\":1121:1331   */\n      swap3\n      swap2\n      pop\n      pop\n      jump\t// out\n        /* \"#utility.yul\":1418:1535   */\n    tag_168:\n        /* \"#utility.yul\":1527:1528   */\n      0x00\n        /* \"#utility.yul\":1524:1525   */\n      0x00\n        /* \"#utility.yul\":1517:1529   */\n      revert\n        /* \"#utility.yul\":1664:1786   */\n    tag_170:\n        /* \"#utility.yul\":1737:1761   */\n      tag_222\n        /* \"#utility.yul\":1755:1760   */\n      dup2\n        /* \"#utility.yul\":1737:1761   */\n      tag_163\n      jump\t// in\n    tag_222:\n        /* \"#utility.yul\":1730:1735   */\n      dup2\n        /* \"#utility.yul\":1727:1762   */\n      eq\n        /* \"#utility.yul\":1717:1780   */\n      tag_223\n      jumpi\n        /* \"#utility.yul\":1776:1777   */\n      0x00\n        /* \"#utility.yul\":1773:1774   */\n      0x00\n        /* \"#utility.yul\":1766:1778   */\n      revert\n        /* \"#utility.yul\":1717:1780   */\n    tag_223:\n        /* \"#utility.yul\":1664:1786   */\n      pop\n      jump\t// out\n        /* \"#utility.yul\":1792:1931   */\n    tag_171:\n        /* \"#utility.yul\":1838:1843   */\n      0x00\n        /* \"#utility.yul\":1876:1882   */\n      dup2\n        /* \"#utility.yul\":1863:1883   */\n      calldataload\n        /* \"#utility.yul\":1854:1883   */\n      swap1\n      pop\n        /* \"#utility.yul\":1892:1925   */\n      tag_225\n        /* \"#utility.yul\":1919:1924   */\n      dup2\n        /* \"#utility.yul\":1892:1925   */\n      tag_170\n      jump\t// in\n    tag_225:\n        /* \"#utility.yul\":1792:1931   */\n      swap3\n      swap2\n      pop\n      pop\n      jump\t// out\n        /* \"#utility.yul\":1937:2266   */\n    tag_41:\n        /* \"#utility.yul\":1996:2002   */\n      0x00\n        /* \"#utility.yul\":2045:2047   */\n      0x20\n        /* \"#utility.yul\":2033:2042   */\n      dup3\n        /* \"#utility.yul\":2024:2031   */\n      dup5\n        /* \"#utility.yul\":2020:2043   */\n      sub\n        /* \"#utility.yul\":2016:2048   */\n      slt\n        /* \"#utility.yul\":2013:2132   */\n      iszero\n      tag_227\n      jumpi\n        /* \"#utility.yul\":2051:2130   */\n      tag_228\n      tag_168\n      jump\t// in\n    tag_228:\n        /* \"#utility.yul\":2013:2132   */\n    tag_227:\n        /* \"#utility.yul\":2171:2172   */\n      0x00\n        /* \"#utility.yul\":2196:2249   */\n      tag_229\n        /* \"#utility.yul\":2241:2248   */\n      dup5\n        /* \"#utility.yul\":2232:2238   */\n      dup3\n        /* \"#utility.yul\":2221:2230   */\n      dup6\n        /* \"#utility.yul\":2217:2239   */\n      add\n        /* \"#utility.yul\":2196:2249   */\n      tag_171\n      jump\t// in\n    tag_229:\n        /* \"#utility.yul\":2186:2249   */\n      swap2\n      pop\n        /* \"#utility.yul\":2142:2259   */\n      pop\n        /* \"#utility.yul\":1937:2266   */\n      swap3\n      swap2\n      pop\n      pop\n      jump\t// out\n        /* \"#utility.yul\":2272:2825   */\n    tag_44:\n        /* \"#utility.yul\":2449:2453   */\n      0x00\n        /* \"#utility.yul\":2487:2490   */\n      0x80\n        /* \"#utility.yul\":2476:2485   */\n      dup3\n        /* \"#utility.yul\":2472:2491   */\n      add\n        /* \"#utility.yul\":2464:2491   */\n      swap1\n      pop\n        /* \"#utility.yul\":2501:2572   */\n      tag_231\n        /* \"#utility.yul\":2569:2570   */\n      0x00\n        /* \"#utility.yul\":2558:2567   */\n      dup4\n        /* \"#utility.yul\":2554:2571   */\n      add\n        /* \"#utility.yul\":2545:2551   */\n      dup8\n        /* \"#utility.yul\":2501:2572   */\n      tag_162\n      jump\t// in\n    tag_231:\n        /* \"#utility.yul\":2582:2654   */\n      tag_232\n        /* \"#utility.yul\":2650:2652   */\n      0x20\n        /* \"#utility.yul\":2639:2648   */\n      dup4\n        /* \"#utility.yul\":2635:2653   */\n      add\n        /* \"#utility.yul\":2626:2632   */\n      dup7\n        /* \"#utility.yul\":2582:2654   */\n      tag_162\n      jump\t// in\n    tag_232:\n        /* \"#utility.yul\":2664:2736   */\n      tag_233\n        /* \"#utility.yul\":2732:2734   */\n      0x40\n        /* \"#utility.yul\":2721:2730   */\n      dup4\n        /* \"#utility.yul\":2717:2735   */\n      add\n        /* \"#utility.yul\":2708:2714   */\n      dup6\n        /* \"#utility.yul\":2664:2736   */\n      tag_164\n      jump\t// in\n    tag_233:\n        /* \"#utility.yul\":2746:2818   */\n      tag_234\n        /* \"#utility.yul\":2814:2816   */\n      0x60\n        /* \"#utility.yul\":2803:2812   */\n      dup4\n        /* \"#utility.yul\":2799:2817   */\n      add\n        /* \"#utility.yul\":2790:2796   */\n      dup5\n        /* \"#utility.yul\":2746:2818   */\n      tag_164\n      jump\t// in\n    tag_234:\n        /* \"#utility.yul\":2272:2825   */\n      swap6\n      swap5\n      pop\n      pop\n      pop\n      pop\n      pop\n      jump\t// out\n        /* \"#utility.yul\":2831:2935   */\n    tag_172:\n        /* \"#utility.yul\":2876:2883   */\n      0x00\n        /* \"#utility.yul\":2905:2929   */\n      tag_236\n        /* \"#utility.yul\":2923:2928   */\n      dup3\n        /* \"#utility.yul\":2905:2929   */\n      tag_160\n      jump\t// in\n    tag_236:\n        /* \"#utility.yul\":2894:2929   */\n      swap1\n      pop\n        /* \"#utility.yul\":2831:2935   */\n      swap2\n      swap1\n      pop\n      jump\t// out\n        /* \"#utility.yul\":2941:3079   */\n    tag_173:\n        /* \"#utility.yul\":3022:3054   */\n      tag_238\n        /* \"#utility.yul\":3048:3053   */\n      dup2\n        /* \"#utility.yul\":3022:3054   */\n      tag_172\n      jump\t// in\n    tag_238:\n        /* \"#utility.yul\":3015:3020   */\n      dup2\n        /* \"#utility.yul\":3012:3055   */\n      eq\n        /* \"#utility.yul\":3002:3073   */\n      tag_239\n      jumpi\n        /* \"#utility.yul\":3069:3070   */\n      0x00\n        /* \"#utility.yul\":3066:3067   */\n      0x00\n        /* \"#utility.yul\":3059:3071   */\n      revert\n        /* \"#utility.yul\":3002:3073   */\n    tag_239:\n        /* \"#utility.yul\":2941:3079   */\n      pop\n      jump\t// out\n        /* \"#utility.yul\":3085:3240   */\n    tag_174:\n        /* \"#utility.yul\":3139:3144   */\n      0x00\n        /* \"#utility.yul\":3177:3183   */\n      dup2\n        /* \"#utility.yul\":3164:3184   */\n      calldataload\n        /* \"#utility.yul\":3155:3184   */\n      swap1\n      pop\n        /* \"#utility.yul\":3193:3234   */\n      tag_241\n        /* \"#utility.yul\":3228:3233   */\n      dup2\n        /* \"#utility.yul\":3193:3234   */\n      tag_173\n      jump\t// in\n    tag_241:\n        /* \"#utility.yul\":3085:3240   */\n      swap3\n      swap2\n      pop\n      pop\n      jump\t// out\n        /* \"#utility.yul\":3246:3736   */\n    tag_48:\n        /* \"#utility.yul\":3322:3328   */\n      0x00\n        /* \"#utility.yul\":3330:3336   */\n      0x00\n        /* \"#utility.yul\":3379:3381   */\n      0x40\n        /* \"#utility.yul\":3367:3376   */\n      dup4\n        /* \"#utility.yul\":3358:3365   */\n      dup6\n        /* \"#utility.yul\":3354:3377   */\n      sub\n        /* \"#utility.yul\":3350:3382   */\n      slt\n        /* \"#utility.yul\":3347:3466   */\n      iszero\n      tag_243\n      jumpi\n        /* \"#utility.yul\":3385:3464   */\n      tag_244\n      tag_168\n      jump\t// in\n    tag_244:\n        /* \"#utility.yul\":3347:3466   */\n    tag_243:\n        /* \"#utility.yul\":3505:3506   */\n      0x00\n        /* \"#utility.yul\":3530:3591   */\n      tag_245\n        /* \"#utility.yul\":3583:3590   */\n      dup6\n        /* \"#utility.yul\":3574:3580   */\n      dup3\n        /* \"#utility.yul\":3563:3572   */\n      dup7\n        /* \"#utility.yul\":3559:3581   */\n      add\n        /* \"#utility.yul\":3530:3591   */\n      tag_174\n      jump\t// in\n    tag_245:\n        /* \"#utility.yul\":3520:3591   */\n      swap3\n      pop\n        /* \"#utility.yul\":3476:3601   */\n      pop\n        /* \"#utility.yul\":3640:3642   */\n      0x20\n        /* \"#utility.yul\":3666:3719   */\n      tag_246\n        /* \"#utility.yul\":3711:3718   */\n      dup6\n        /* \"#utility.yul\":3702:3708   */\n      dup3\n        /* \"#utility.yul\":3691:3700   */\n      dup7\n        /* \"#utility.yul\":3687:3709   */\n      add\n        /* \"#utility.yul\":3666:3719   */\n      tag_171\n      jump\t// in\n    tag_246:\n        /* \"#utility.yul\":3656:3719   */\n      swap2\n      pop\n        /* \"#utility.yul\":3611:3729   */\n      pop\n        /* \"#utility.yul\":3246:3736   */\n      swap3\n      pop\n      swap3\n      swap1\n      pop\n      jump\t// out\n        /* \"#utility.yul\":3742:3964   */\n    tag_54:\n        /* \"#utility.yul\":3835:3839   */\n      0x00\n        /* \"#utility.yul\":3873:3875   */\n      0x20\n        /* \"#utility.yul\":3862:3871   */\n      dup3\n        /* \"#utility.yul\":3858:3876   */\n      add\n        /* \"#utility.yul\":3850:3876   */\n      swap1\n      pop\n        /* \"#utility.yul\":3886:3957   */\n      tag_248\n        /* \"#utility.yul\":3954:3955   */\n      0x00\n        /* \"#utility.yul\":3943:3952   */\n      dup4\n        /* \"#utility.yul\":3939:3956   */\n      add\n        /* \"#utility.yul\":3930:3936   */\n      dup5\n        /* \"#utility.yul\":3886:3957   */\n      tag_164\n      jump\t// in\n    tag_248:\n        /* \"#utility.yul\":3742:3964   */\n      swap3\n      swap2\n      pop\n      pop\n      jump\t// out\n        /* \"#utility.yul\":3970:4092   */\n    tag_175:\n        /* \"#utility.yul\":4043:4067   */\n      tag_250\n        /* \"#utility.yul\":4061:4066   */\n      dup2\n        /* \"#utility.yul\":4043:4067   */\n      tag_161\n      jump\t// in\n    tag_250:\n        /* \"#utility.yul\":4036:4041   */\n      dup2\n        /* \"#utility.yul\":4033:4068   */\n      eq\n        /* \"#utility.yul\":4023:4086   */\n      tag_251\n      jumpi\n        /* \"#utility.yul\":4082:4083   */\n      0x00\n        /* \"#utility.yul\":4079:4080   */\n      0x00\n        /* \"#utility.yul\":4072:4084   */\n      revert\n        /* \"#utility.yul\":4023:4086   */\n    tag_251:\n        /* \"#utility.yul\":3970:4092   */\n      pop\n      jump\t// out\n        /* \"#utility.yul\":4098:4237   */\n    tag_176:\n        /* \"#utility.yul\":4144:4149   */\n      0x00\n        /* \"#utility.yul\":4182:4188   */\n      dup2\n        /* \"#utility.yul\":4169:4189   */\n      calldataload\n        /* \"#utility.yul\":4160:4189   */\n      swap1\n      pop\n        /* \"#utility.yul\":4198:4231   */\n      tag_253\n        /* \"#utility.yul\":4225:4230   */\n      dup2\n        /* \"#utility.yul\":4198:4231   */\n      tag_175\n      jump\t// in\n    tag_253:\n        /* \"#utility.yul\":4098:4237   */\n      swap3\n      swap2\n      pop\n      pop\n      jump\t// out\n        /* \"#utility.yul\":4243:4572   */\n    tag_57:\n        /* \"#utility.yul\":4302:4308   */\n      0x00\n        /* \"#utility.yul\":4351:4353   */\n      0x20\n        /* \"#utility.yul\":4339:4348   */\n      dup3\n        /* \"#utility.yul\":4330:4337   */\n      dup5\n        /* \"#utility.yul\":4326:4349   */\n      sub\n        /* \"#utility.yul\":4322:4354   */\n      slt\n        /* \"#utility.yul\":4319:4438   */\n      iszero\n      tag_255\n      jumpi\n        /* \"#utility.yul\":4357:4436   */\n      tag_256\n      tag_168\n      jump\t// in\n    tag_256:\n        /* \"#utility.yul\":4319:4438   */\n    tag_255:\n        /* \"#utility.yul\":4477:4478   */\n      0x00\n        /* \"#utility.yul\":4502:4555   */\n      tag_257\n        /* \"#utility.yul\":4547:4554   */\n      dup5\n        /* \"#utility.yul\":4538:4544   */\n      dup3\n        /* \"#utility.yul\":4527:4536   */\n      dup6\n        /* \"#utility.yul\":4523:4545   */\n      add\n        /* \"#utility.yul\":4502:4555   */\n      tag_176\n      jump\t// in\n    tag_257:\n        /* \"#utility.yul\":4492:4555   */\n      swap2\n      pop\n        /* \"#utility.yul\":4448:4565   */\n      pop\n        /* \"#utility.yul\":4243:4572   */\n      swap3\n      swap2\n      pop\n      pop\n      jump\t// out\n        /* \"#utility.yul\":4578:4800   */\n    tag_65:\n        /* \"#utility.yul\":4671:4675   */\n      0x00\n        /* \"#utility.yul\":4709:4711   */\n      0x20\n        /* \"#utility.yul\":4698:4707   */\n      dup3\n        /* \"#utility.yul\":4694:4712   */\n      add\n        /* \"#utility.yul\":4686:4712   */\n      swap1\n      pop\n        /* \"#utility.yul\":4722:4793   */\n      tag_259\n        /* \"#utility.yul\":4790:4791   */\n      0x00\n        /* \"#utility.yul\":4779:4788   */\n      dup4\n        /* \"#utility.yul\":4775:4792   */\n      add\n        /* \"#utility.yul\":4766:4772   */\n      dup5\n        /* \"#utility.yul\":4722:4793   */\n      tag_162\n      jump\t// in\n    tag_259:\n        /* \"#utility.yul\":4578:4800   */\n      swap3\n      swap2\n      pop\n      pop\n      jump\t// out\n        /* \"#utility.yul\":4806:4947   */\n    tag_177:\n        /* \"#utility.yul\":4900:4906   */\n      0x00\n        /* \"#utility.yul\":4934:4939   */\n      dup2\n        /* \"#utility.yul\":4928:4940   */\n      mload\n        /* \"#utility.yul\":4918:4940   */\n      swap1\n      pop\n        /* \"#utility.yul\":4806:4947   */\n      swap2\n      swap1\n      pop\n      jump\t// out\n        /* \"#utility.yul\":4953:5164   */\n    tag_178:\n        /* \"#utility.yul\":5079:5090   */\n      0x00\n        /* \"#utility.yul\":5113:5119   */\n      dup3\n        /* \"#utility.yul\":5108:5111   */\n      dup3\n        /* \"#utility.yul\":5101:5120   */\n      mstore\n        /* \"#utility.yul\":5153:5157   */\n      0x20\n        /* \"#utility.yul\":5148:5151   */\n      dup3\n        /* \"#utility.yul\":5144:5158   */\n      add\n        /* \"#utility.yul\":5129:5158   */\n      swap1\n      pop\n        /* \"#utility.yul\":4953:5164   */\n      swap3\n      swap2\n      pop\n      pop\n      jump\t// out\n        /* \"#utility.yul\":5170:5329   */\n    tag_179:\n        /* \"#utility.yul\":5264:5268   */\n      0x00\n        /* \"#utility.yul\":5287:5290   */\n      dup2\n        /* \"#utility.yul\":5279:5290   */\n      swap1\n      pop\n        /* \"#utility.yul\":5317:5321   */\n      0x20\n        /* \"#utility.yul\":5312:5315   */\n      dup3\n        /* \"#utility.yul\":5308:5322   */\n      add\n        /* \"#utility.yul\":5300:5322   */\n      swap1\n      pop\n        /* \"#utility.yul\":5170:5329   */\n      swap2\n      swap1\n      pop\n      jump\t// out\n        /* \"#utility.yul\":5335:5443   */\n    tag_180:\n        /* \"#utility.yul\":5412:5436   */\n      tag_264\n        /* \"#utility.yul\":5430:5435   */\n      dup2\n        /* \"#utility.yul\":5412:5436   */\n      tag_161\n      jump\t// in\n    tag_264:\n        /* \"#utility.yul\":5407:5410   */\n      dup3\n        /* \"#utility.yul\":5400:5437   */\n      mstore\n        /* \"#utility.yul\":5335:5443   */\n      pop\n      pop\n      jump\t// out\n        /* \"#utility.yul\":5449:5557   */\n    tag_181:\n        /* \"#utility.yul\":5526:5550   */\n      tag_266\n        /* \"#utility.yul\":5544:5549   */\n      dup2\n        /* \"#utility.yul\":5526:5550   */\n      tag_163\n      jump\t// in\n    tag_266:\n        /* \"#utility.yul\":5521:5524   */\n      dup3\n        /* \"#utility.yul\":5514:5551   */\n      mstore\n        /* \"#utility.yul\":5449:5557   */\n      pop\n      pop\n      jump\t// out\n        /* \"#utility.yul\":5637:6491   */\n    tag_182:\n        /* \"#utility.yul\":5778:5782   */\n      0x80\n        /* \"#utility.yul\":5773:5776   */\n      dup3\n        /* \"#utility.yul\":5769:5783   */\n      add\n        /* \"#utility.yul\":5865:5869   */\n      0x00\n        /* \"#utility.yul\":5858:5863   */\n      dup3\n        /* \"#utility.yul\":5854:5870   */\n      add\n        /* \"#utility.yul\":5848:5871   */\n      mload\n        /* \"#utility.yul\":5884:5947   */\n      tag_268\n        /* \"#utility.yul\":5941:5945   */\n      0x00\n        /* \"#utility.yul\":5936:5939   */\n      dup6\n        /* \"#utility.yul\":5932:5946   */\n      add\n        /* \"#utility.yul\":5918:5930   */\n      dup3\n        /* \"#utility.yul\":5884:5947   */\n      tag_180\n      jump\t// in\n    tag_268:\n        /* \"#utility.yul\":5793:5957   */\n      pop\n        /* \"#utility.yul\":6037:6041   */\n      0x20\n        /* \"#utility.yul\":6030:6035   */\n      dup3\n        /* \"#utility.yul\":6026:6042   */\n      add\n        /* \"#utility.yul\":6020:6043   */\n      mload\n        /* \"#utility.yul\":6056:6119   */\n      tag_269\n        /* \"#utility.yul\":6113:6117   */\n      0x20\n        /* \"#utility.yul\":6108:6111   */\n      dup6\n        /* \"#utility.yul\":6104:6118   */\n      add\n        /* \"#utility.yul\":6090:6102   */\n      dup3\n        /* \"#utility.yul\":6056:6119   */\n      tag_180\n      jump\t// in\n    tag_269:\n        /* \"#utility.yul\":5967:6129   */\n      pop\n        /* \"#utility.yul\":6216:6220   */\n      0x40\n        /* \"#utility.yul\":6209:6214   */\n      dup3\n        /* \"#utility.yul\":6205:6221   */\n      add\n        /* \"#utility.yul\":6199:6222   */\n      mload\n        /* \"#utility.yul\":6235:6298   */\n      tag_270\n        /* \"#utility.yul\":6292:6296   */\n      0x40\n        /* \"#utility.yul\":6287:6290   */\n      dup6\n        /* \"#utility.yul\":6283:6297   */\n      add\n        /* \"#utility.yul\":6269:6281   */\n      dup3\n        /* \"#utility.yul\":6235:6298   */\n      tag_181\n      jump\t// in\n    tag_270:\n        /* \"#utility.yul\":6139:6308   */\n      pop\n        /* \"#utility.yul\":6392:6396   */\n      0x60\n        /* \"#utility.yul\":6385:6390   */\n      dup3\n        /* \"#utility.yul\":6381:6397   */\n      add\n        /* \"#utility.yul\":6375:6398   */\n      mload\n        /* \"#utility.yul\":6411:6474   */\n      tag_271\n        /* \"#utility.yul\":6468:6472   */\n      0x60\n        /* \"#utility.yul\":6463:6466   */\n      dup6\n        /* \"#utility.yul\":6459:6473   */\n      add\n        /* \"#utility.yul\":6445:6457   */\n      dup3\n        /* \"#utility.yul\":6411:6474   */\n      tag_181\n      jump\t// in\n    tag_271:\n        /* \"#utility.yul\":6318:6484   */\n      pop\n        /* \"#utility.yul\":5747:6491   */\n      pop\n        /* \"#utility.yul\":5637:6491   */\n      pop\n      pop\n      jump\t// out\n        /* \"#utility.yul\":6497:6784   */\n    tag_183:\n        /* \"#utility.yul\":6620:6630   */\n      0x00\n        /* \"#utility.yul\":6641:6741   */\n      tag_273\n        /* \"#utility.yul\":6737:6740   */\n      dup4\n        /* \"#utility.yul\":6729:6735   */\n      dup4\n        /* \"#utility.yul\":6641:6741   */\n      tag_182\n      jump\t// in\n    tag_273:\n        /* \"#utility.yul\":6773:6777   */\n      0x80\n        /* \"#utility.yul\":6768:6771   */\n      dup4\n        /* \"#utility.yul\":6764:6778   */\n      add\n        /* \"#utility.yul\":6750:6778   */\n      swap1\n      pop\n        /* \"#utility.yul\":6497:6784   */\n      swap3\n      swap2\n      pop\n      pop\n      jump\t// out\n        /* \"#utility.yul\":6790:6930   */\n    tag_184:\n        /* \"#utility.yul\":6887:6891   */\n      0x00\n        /* \"#utility.yul\":6919:6923   */\n      0x20\n        /* \"#utility.yul\":6914:6917   */\n      dup3\n        /* \"#utility.yul\":6910:6924   */\n      add\n        /* \"#utility.yul\":6902:6924   */\n      swap1\n      pop\n        /* \"#utility.yul\":6790:6930   */\n      swap2\n      swap1\n      pop\n      jump\t// out\n        /* \"#utility.yul\":7014:7962   */\n    tag_185:\n        /* \"#utility.yul\":7187:7190   */\n      0x00\n        /* \"#utility.yul\":7216:7297   */\n      tag_276\n        /* \"#utility.yul\":7291:7296   */\n      dup3\n        /* \"#utility.yul\":7216:7297   */\n      tag_177\n      jump\t// in\n    tag_276:\n        /* \"#utility.yul\":7313:7426   */\n      tag_277\n        /* \"#utility.yul\":7419:7425   */\n      dup2\n        /* \"#utility.yul\":7414:7417   */\n      dup6\n        /* \"#utility.yul\":7313:7426   */\n      tag_178\n      jump\t// in\n    tag_277:\n        /* \"#utility.yul\":7306:7426   */\n      swap4\n      pop\n        /* \"#utility.yul\":7450:7533   */\n      tag_278\n        /* \"#utility.yul\":7527:7532   */\n      dup4\n        /* \"#utility.yul\":7450:7533   */\n      tag_179\n      jump\t// in\n    tag_278:\n        /* \"#utility.yul\":7556:7563   */\n      dup1\n        /* \"#utility.yul\":7587:7588   */\n      0x00\n        /* \"#utility.yul\":7572:7937   */\n    tag_279:\n        /* \"#utility.yul\":7597:7603   */\n      dup4\n        /* \"#utility.yul\":7594:7595   */\n      dup2\n        /* \"#utility.yul\":7591:7604   */\n      lt\n        /* \"#utility.yul\":7572:7937   */\n      iszero\n      tag_281\n      jumpi\n        /* \"#utility.yul\":7673:7679   */\n      dup2\n        /* \"#utility.yul\":7667:7680   */\n      mload\n        /* \"#utility.yul\":7700:7817   */\n      tag_282\n        /* \"#utility.yul\":7813:7816   */\n      dup9\n        /* \"#utility.yul\":7798:7811   */\n      dup3\n        /* \"#utility.yul\":7700:7817   */\n      tag_183\n      jump\t// in\n    tag_282:\n        /* \"#utility.yul\":7693:7817   */\n      swap8\n      pop\n        /* \"#utility.yul\":7840:7927   */\n      tag_283\n        /* \"#utility.yul\":7920:7926   */\n      dup4\n        /* \"#utility.yul\":7840:7927   */\n      tag_184\n      jump\t// in\n    tag_283:\n        /* \"#utility.yul\":7830:7927   */\n      swap3\n      pop\n        /* \"#utility.yul\":7632:7937   */\n      pop\n        /* \"#utility.yul\":7619:7620   */\n      0x01\n        /* \"#utility.yul\":7616:7617   */\n      dup2\n        /* \"#utility.yul\":7612:7621   */\n      add\n        /* \"#utility.yul\":7607:7621   */\n      swap1\n      pop\n        /* \"#utility.yul\":7572:7937   */\n      jump(tag_279)\n    tag_281:\n        /* \"#utility.yul\":7576:7590   */\n      pop\n        /* \"#utility.yul\":7953:7956   */\n      dup6\n        /* \"#utility.yul\":7946:7956   */\n      swap4\n      pop\n        /* \"#utility.yul\":7192:7962   */\n      pop\n      pop\n      pop\n        /* \"#utility.yul\":7014:7962   */\n      swap3\n      swap2\n      pop\n      pop\n      jump\t// out\n        /* \"#utility.yul\":7968:8449   */\n    tag_77:\n        /* \"#utility.yul\":8165:8169   */\n      0x00\n        /* \"#utility.yul\":8203:8205   */\n      0x20\n        /* \"#utility.yul\":8192:8201   */\n      dup3\n        /* \"#utility.yul\":8188:8206   */\n      add\n        /* \"#utility.yul\":8180:8206   */\n      swap1\n      pop\n        /* \"#utility.yul\":8252:8261   */\n      dup2\n        /* \"#utility.yul\":8246:8250   */\n      dup2\n        /* \"#utility.yul\":8242:8262   */\n      sub\n        /* \"#utility.yul\":8238:8239   */\n      0x00\n        /* \"#utility.yul\":8227:8236   */\n      dup4\n        /* \"#utility.yul\":8223:8240   */\n      add\n        /* \"#utility.yul\":8216:8263   */\n      mstore\n        /* \"#utility.yul\":8280:8442   */\n      tag_285\n        /* \"#utility.yul\":8437:8441   */\n      dup2\n        /* \"#utility.yul\":8428:8434   */\n      dup5\n        /* \"#utility.yul\":8280:8442   */\n      tag_185\n      jump\t// in\n    tag_285:\n        /* \"#utility.yul\":8272:8442   */\n      swap1\n      pop\n        /* \"#utility.yul\":7968:8449   */\n      swap3\n      swap2\n      pop\n      pop\n      jump\t// out\n        /* \"#utility.yul\":8455:8554   */\n    tag_186:\n        /* \"#utility.yul\":8507:8513   */\n      0x00\n        /* \"#utility.yul\":8541:8546   */\n      dup2\n        /* \"#utility.yul\":8535:8547   */\n      mload\n        /* \"#utility.yul\":8525:8547   */\n      swap1\n      pop\n        /* \"#utility.yul\":8455:8554   */\n      swap2\n      swap1\n      pop\n      jump\t// out\n        /* \"#utility.yul\":8560:8729   */\n    tag_187:\n        /* \"#utility.yul\":8644:8655   */\n      0x00\n        /* \"#utility.yul\":8678:8684   */\n      dup3\n        /* \"#utility.yul\":8673:8676   */\n      dup3\n        /* \"#utility.yul\":8666:8685   */\n      mstore\n        /* \"#utility.yul\":8718:8722   */\n      0x20\n        /* \"#utility.yul\":8713:8716   */\n      dup3\n        /* \"#utility.yul\":8709:8723   */\n      add\n        /* \"#utility.yul\":8694:8723   */\n      swap1\n      pop\n        /* \"#utility.yul\":8560:8729   */\n      swap3\n      swap2\n      pop\n      pop\n      jump\t// out\n        /* \"#utility.yul\":8735:8874   */\n    tag_188:\n        /* \"#utility.yul\":8824:8830   */\n      dup3\n        /* \"#utility.yul\":8819:8822   */\n      dup2\n        /* \"#utility.yul\":8814:8817   */\n      dup4\n        /* \"#utility.yul\":8808:8831   */\n      mcopy\n        /* \"#utility.yul\":8865:8866   */\n      0x00\n        /* \"#utility.yul\":8856:8862   */\n      dup4\n        /* \"#utility.yul\":8851:8854   */\n      dup4\n        /* \"#utility.yul\":8847:8863   */\n      add\n        /* \"#utility.yul\":8840:8867   */\n      mstore\n        /* \"#utility.yul\":8735:8874   */\n      pop\n      pop\n      pop\n      jump\t// out\n        /* \"#utility.yul\":8880:8982   */\n    tag_189:\n        /* \"#utility.yul\":8921:8927   */\n      0x00\n        /* \"#utility.yul\":8972:8974   */\n      0x1f\n        /* \"#utility.yul\":8968:8975   */\n      not\n        /* \"#utility.yul\":8963:8965   */\n      0x1f\n        /* \"#utility.yul\":8956:8961   */\n      dup4\n        /* \"#utility.yul\":8952:8966   */\n      add\n        /* \"#utility.yul\":8948:8976   */\n      and\n        /* \"#utility.yul\":8938:8976   */\n      swap1\n      pop\n        /* \"#utility.yul\":8880:8982   */\n      swap2\n      swap1\n      pop\n      jump\t// out\n        /* \"#utility.yul\":8988:9365   */\n    tag_190:\n        /* \"#utility.yul\":9076:9079   */\n      0x00\n        /* \"#utility.yul\":9104:9143   */\n      tag_291\n        /* \"#utility.yul\":9137:9142   */\n      dup3\n        /* \"#utility.yul\":9104:9143   */\n      tag_186\n      jump\t// in\n    tag_291:\n        /* \"#utility.yul\":9159:9230   */\n      tag_292\n        /* \"#utility.yul\":9223:9229   */\n      dup2\n        /* \"#utility.yul\":9218:9221   */\n      dup6\n        /* \"#utility.yul\":9159:9230   */\n      tag_187\n      jump\t// in\n    tag_292:\n        /* \"#utility.yul\":9152:9230   */\n      swap4\n      pop\n        /* \"#utility.yul\":9239:9304   */\n      tag_293\n        /* \"#utility.yul\":9297:9303   */\n      dup2\n        /* \"#utility.yul\":9292:9295   */\n      dup6\n        /* \"#utility.yul\":9285:9289   */\n      0x20\n        /* \"#utility.yul\":9278:9283   */\n      dup7\n        /* \"#utility.yul\":9274:9290   */\n      add\n        /* \"#utility.yul\":9239:9304   */\n      tag_188\n      jump\t// in\n    tag_293:\n        /* \"#utility.yul\":9329:9358   */\n      tag_294\n        /* \"#utility.yul\":9351:9357   */\n      dup2\n        /* \"#utility.yul\":9329:9358   */\n      tag_189\n      jump\t// in\n    tag_294:\n        /* \"#utility.yul\":9324:9327   */\n      dup5\n        /* \"#utility.yul\":9320:9359   */\n      add\n        /* \"#utility.yul\":9313:9359   */\n      swap2\n      pop\n        /* \"#utility.yul\":9080:9365   */\n      pop\n        /* \"#utility.yul\":8988:9365   */\n      swap3\n      swap2\n      pop\n      pop\n      jump\t// out\n        /* \"#utility.yul\":9371:9684   */\n    tag_86:\n        /* \"#utility.yul\":9484:9488   */\n      0x00\n        /* \"#utility.yul\":9522:9524   */\n      0x20\n        /* \"#utility.yul\":9511:9520   */\n      dup3\n        /* \"#utility.yul\":9507:9525   */\n      add\n        /* \"#utility.yul\":9499:9525   */\n      swap1\n      pop\n        /* \"#utility.yul\":9571:9580   */\n      dup2\n        /* \"#utility.yul\":9565:9569   */\n      dup2\n        /* \"#utility.yul\":9561:9581   */\n      sub\n        /* \"#utility.yul\":9557:9558   */\n      0x00\n        /* \"#utility.yul\":9546:9555   */\n      dup4\n        /* \"#utility.yul\":9542:9559   */\n      add\n        /* \"#utility.yul\":9535:9582   */\n      mstore\n        /* \"#utility.yul\":9599:9677   */\n      tag_296\n        /* \"#utility.yul\":9672:9676   */\n      dup2\n        /* \"#utility.yul\":9663:9669   */\n      dup5\n        /* \"#utility.yul\":9599:9677   */\n      tag_190\n      jump\t// in\n    tag_296:\n        /* \"#utility.yul\":9591:9677   */\n      swap1\n      pop\n        /* \"#utility.yul\":9371:9684   */\n      swap3\n      swap2\n      pop\n      pop\n      jump\t// out\n        /* \"#utility.yul\":9690:9860   */\n    tag_191:\n        /* \"#utility.yul\":9830:9852   */\n      0x596f7520646f6e74206861766520616363657373000000000000000000000000\n        /* \"#utility.yul\":9826:9827   */\n      0x00\n        /* \"#utility.yul\":9818:9824   */\n      dup3\n        /* \"#utility.yul\":9814:9828   */\n      add\n        /* \"#utility.yul\":9807:9853   */\n      mstore\n        /* \"#utility.yul\":9690:9860   */\n      pop\n      jump\t// out\n        /* \"#utility.yul\":9866:10232   */\n    tag_192:\n        /* \"#utility.yul\":10008:10011   */\n      0x00\n        /* \"#utility.yul\":10029:10096   */\n      tag_299\n        /* \"#utility.yul\":10093:10095   */\n      0x14\n        /* \"#utility.yul\":10088:10091   */\n      dup4\n        /* \"#utility.yul\":10029:10096   */\n      tag_187\n      jump\t// in\n    tag_299:\n        /* \"#utility.yul\":10022:10096   */\n      swap2\n      pop\n        /* \"#utility.yul\":10105:10198   */\n      tag_300\n        /* \"#utility.yul\":10194:10197   */\n      dup3\n        /* \"#utility.yul\":10105:10198   */\n      tag_191\n      jump\t// in\n    tag_300:\n        /* \"#utility.yul\":10223:10225   */\n      0x20\n        /* \"#utility.yul\":10218:10221   */\n      dup3\n        /* \"#utility.yul\":10214:10226   */\n      add\n        /* \"#utility.yul\":10207:10226   */\n      swap1\n      pop\n        /* \"#utility.yul\":9866:10232   */\n      swap2\n      swap1\n      pop\n      jump\t// out\n        /* \"#utility.yul\":10238:10657   */\n    tag_104:\n        /* \"#utility.yul\":10404:10408   */\n      0x00\n        /* \"#utility.yul\":10442:10444   */\n      0x20\n        /* \"#utility.yul\":10431:10440   */\n      dup3\n        /* \"#utility.yul\":10427:10445   */\n      add\n        /* \"#utility.yul\":10419:10445   */\n      swap1\n      pop\n        /* \"#utility.yul\":10491:10500   */\n      dup2\n        /* \"#utility.yul\":10485:10489   */\n      dup2\n        /* \"#utility.yul\":10481:10501   */\n      sub\n        /* \"#utility.yul\":10477:10478   */\n      0x00\n        /* \"#utility.yul\":10466:10475   */\n      dup4\n        /* \"#utility.yul\":10462:10479   */\n      add\n        /* \"#utility.yul\":10455:10502   */\n      mstore\n        /* \"#utility.yul\":10519:10650   */\n      tag_302\n        /* \"#utility.yul\":10645:10649   */\n      dup2\n        /* \"#utility.yul\":10519:10650   */\n      tag_192\n      jump\t// in\n    tag_302:\n        /* \"#utility.yul\":10511:10650   */\n      swap1\n      pop\n        /* \"#utility.yul\":10238:10657   */\n      swap2\n      swap1\n      pop\n      jump\t// out\n        /* \"#utility.yul\":10663:10833   */\n    tag_193:\n        /* \"#utility.yul\":10803:10825   */\n      0x496e73756666696369656e742042616c616e6365000000000000000000000000\n        /* \"#utility.yul\":10799:10800   */\n      0x00\n        /* \"#utility.yul\":10791:10797   */\n      dup3\n        /* \"#utility.yul\":10787:10801   */\n      add\n        /* \"#utility.yul\":10780:10826   */\n      mstore\n        /* \"#utility.yul\":10663:10833   */\n      pop\n      jump\t// out\n        /* \"#utility.yul\":10839:11205   */\n    tag_194:\n        /* \"#utility.yul\":10981:10984   */\n      0x00\n        /* \"#utility.yul\":11002:11069   */\n      tag_305\n        /* \"#utility.yul\":11066:11068   */\n      0x14\n        /* \"#utility.yul\":11061:11064   */\n      dup4\n        /* \"#utility.yul\":11002:11069   */\n      tag_187\n      jump\t// in\n    tag_305:\n        /* \"#utility.yul\":10995:11069   */\n      swap2\n      pop\n        /* \"#utility.yul\":11078:11171   */\n      tag_306\n        /* \"#utility.yul\":11167:11170   */\n      dup3\n        /* \"#utility.yul\":11078:11171   */\n      tag_193\n      jump\t// in\n    tag_306:\n        /* \"#utility.yul\":11196:11198   */\n      0x20\n        /* \"#utility.yul\":11191:11194   */\n      dup3\n        /* \"#utility.yul\":11187:11199   */\n      add\n        /* \"#utility.yul\":11180:11199   */\n      swap1\n      pop\n        /* \"#utility.yul\":10839:11205   */\n      swap2\n      swap1\n      pop\n      jump\t// out\n        /* \"#utility.yul\":11211:11630   */\n    tag_108:\n        /* \"#utility.yul\":11377:11381   */\n      0x00\n        /* \"#utility.yul\":11415:11417   */\n      0x20\n        /* \"#utility.yul\":11404:11413   */\n      dup3\n        /* \"#utility.yul\":11400:11418   */\n      add\n        /* \"#utility.yul\":11392:11418   */\n      swap1\n      pop\n        /* \"#utility.yul\":11464:11473   */\n      dup2\n        /* \"#utility.yul\":11458:11462   */\n      dup2\n        /* \"#utility.yul\":11454:11474   */\n      sub\n        /* \"#utility.yul\":11450:11451   */\n      0x00\n        /* \"#utility.yul\":11439:11448   */\n      dup4\n        /* \"#utility.yul\":11435:11452   */\n      add\n        /* \"#utility.yul\":11428:11475   */\n      mstore\n        /* \"#utility.yul\":11492:11623   */\n      tag_308\n        /* \"#utility.yul\":11618:11622   */\n      dup2\n        /* \"#utility.yul\":11492:11623   */\n      tag_194\n      jump\t// in\n    tag_308:\n        /* \"#utility.yul\":11484:11623   */\n      swap1\n      pop\n        /* \"#utility.yul\":11211:11630   */\n      swap2\n      swap1\n      pop\n      jump\t// out\n        /* \"#utility.yul\":11636:11696   */\n    tag_195:\n        /* \"#utility.yul\":11664:11667   */\n      0x00\n        /* \"#utility.yul\":11685:11690   */\n      dup2\n        /* \"#utility.yul\":11678:11690   */\n      swap1\n      pop\n        /* \"#utility.yul\":11636:11696   */\n      swap2\n      swap1\n      pop\n      jump\t// out\n        /* \"#utility.yul\":11702:11844   */\n    tag_196:\n        /* \"#utility.yul\":11752:11761   */\n      0x00\n        /* \"#utility.yul\":11785:11838   */\n      tag_311\n        /* \"#utility.yul\":11803:11837   */\n      tag_312\n        /* \"#utility.yul\":11812:11836   */\n      tag_313\n        /* \"#utility.yul\":11830:11835   */\n      dup5\n        /* \"#utility.yul\":11812:11836   */\n      tag_160\n      jump\t// in\n    tag_313:\n        /* \"#utility.yul\":11803:11837   */\n      tag_195\n      jump\t// in\n    tag_312:\n        /* \"#utility.yul\":11785:11838   */\n      tag_160\n      jump\t// in\n    tag_311:\n        /* \"#utility.yul\":11772:11838   */\n      swap1\n      pop\n        /* \"#utility.yul\":11702:11844   */\n      swap2\n      swap1\n      pop\n      jump\t// out\n        /* \"#utility.yul\":11850:11976   */\n    tag_197:\n        /* \"#utility.yul\":11900:11909   */\n      0x00\n        /* \"#utility.yul\":11933:11970   */\n      tag_315\n        /* \"#utility.yul\":11964:11969   */\n      dup3\n        /* \"#utility.yul\":11933:11970   */\n      tag_196\n      jump\t// in\n    tag_315:\n        /* \"#utility.yul\":11920:11970   */\n      swap1\n      pop\n        /* \"#utility.yul\":11850:11976   */\n      swap2\n      swap1\n      pop\n      jump\t// out\n        /* \"#utility.yul\":11982:12116   */\n    tag_198:\n        /* \"#utility.yul\":12040:12049   */\n      0x00\n        /* \"#utility.yul\":12073:12110   */\n      tag_317\n        /* \"#utility.yul\":12104:12109   */\n      dup3\n        /* \"#utility.yul\":12073:12110   */\n      tag_197\n      jump\t// in\n    tag_317:\n        /* \"#utility.yul\":12060:12110   */\n      swap1\n      pop\n        /* \"#utility.yul\":11982:12116   */\n      swap2\n      swap1\n      pop\n      jump\t// out\n        /* \"#utility.yul\":12122:12269   */\n    tag_199:\n        /* \"#utility.yul\":12217:12262   */\n      tag_319\n        /* \"#utility.yul\":12256:12261   */\n      dup2\n        /* \"#utility.yul\":12217:12262   */\n      tag_198\n      jump\t// in\n    tag_319:\n        /* \"#utility.yul\":12212:12215   */\n      dup3\n        /* \"#utility.yul\":12205:12263   */\n      mstore\n        /* \"#utility.yul\":12122:12269   */\n      pop\n      pop\n      jump\t// out\n        /* \"#utility.yul\":12275:12623   */\n    tag_112:\n        /* \"#utility.yul\":12404:12408   */\n      0x00\n        /* \"#utility.yul\":12442:12444   */\n      0x40\n        /* \"#utility.yul\":12431:12440   */\n      dup3\n        /* \"#utility.yul\":12427:12445   */\n      add\n        /* \"#utility.yul\":12419:12445   */\n      swap1\n      pop\n        /* \"#utility.yul\":12455:12534   */\n      tag_321\n        /* \"#utility.yul\":12531:12532   */\n      0x00\n        /* \"#utility.yul\":12520:12529   */\n      dup4\n        /* \"#utility.yul\":12516:12533   */\n      add\n        /* \"#utility.yul\":12507:12513   */\n      dup6\n        /* \"#utility.yul\":12455:12534   */\n      tag_199\n      jump\t// in\n    tag_321:\n        /* \"#utility.yul\":12544:12616   */\n      tag_322\n        /* \"#utility.yul\":12612:12614   */\n      0x20\n        /* \"#utility.yul\":12601:12610   */\n      dup4\n        /* \"#utility.yul\":12597:12615   */\n      add\n        /* \"#utility.yul\":12588:12594   */\n      dup5\n        /* \"#utility.yul\":12544:12616   */\n      tag_164\n      jump\t// in\n    tag_322:\n        /* \"#utility.yul\":12275:12623   */\n      swap4\n      swap3\n      pop\n      pop\n      pop\n      jump\t// out\n        /* \"#utility.yul\":12629:12809   */\n    tag_200:\n        /* \"#utility.yul\":12677:12754   */\n      0x4e487b7100000000000000000000000000000000000000000000000000000000\n        /* \"#utility.yul\":12674:12675   */\n      0x00\n        /* \"#utility.yul\":12667:12755   */\n      mstore\n        /* \"#utility.yul\":12774:12778   */\n      0x22\n        /* \"#utility.yul\":12771:12772   */\n      0x04\n        /* \"#utility.yul\":12764:12779   */\n      mstore\n        /* \"#utility.yul\":12798:12802   */\n      0x24\n        /* \"#utility.yul\":12795:12796   */\n      0x00\n        /* \"#utility.yul\":12788:12803   */\n      revert\n        /* \"#utility.yul\":12815:13135   */\n    tag_143:\n        /* \"#utility.yul\":12859:12865   */\n      0x00\n        /* \"#utility.yul\":12896:12897   */\n      0x02\n        /* \"#utility.yul\":12890:12894   */\n      dup3\n        /* \"#utility.yul\":12886:12898   */\n      div\n        /* \"#utility.yul\":12876:12898   */\n      swap1\n      pop\n        /* \"#utility.yul\":12943:12944   */\n      0x01\n        /* \"#utility.yul\":12937:12941   */\n      dup3\n        /* \"#utility.yul\":12933:12945   */\n      and\n        /* \"#utility.yul\":12964:12982   */\n      dup1\n        /* \"#utility.yul\":12954:13035   */\n      tag_325\n      jumpi\n        /* \"#utility.yul\":13020:13024   */\n      0x7f\n        /* \"#utility.yul\":13012:13018   */\n      dup3\n        /* \"#utility.yul\":13008:13025   */\n      and\n        /* \"#utility.yul\":12998:13025   */\n      swap2\n      pop\n        /* \"#utility.yul\":12954:13035   */\n    tag_325:\n        /* \"#utility.yul\":13082:13084   */\n      0x20\n        /* \"#utility.yul\":13074:13080   */\n      dup3\n        /* \"#utility.yul\":13071:13085   */\n      lt\n        /* \"#utility.yul\":13051:13069   */\n      dup2\n        /* \"#utility.yul\":13048:13086   */\n      sub\n        /* \"#utility.yul\":13045:13129   */\n      tag_326\n      jumpi\n        /* \"#utility.yul\":13101:13119   */\n      tag_327\n      tag_200\n      jump\t// in\n    tag_327:\n        /* \"#utility.yul\":13045:13129   */\n    tag_326:\n        /* \"#utility.yul\":12866:13135   */\n      pop\n        /* \"#utility.yul\":12815:13135   */\n      swap2\n      swap1\n      pop\n      jump\t// out\n        /* \"#utility.yul\":13141:13583   */\n    tag_153:\n        /* \"#utility.yul\":13290:13294   */\n      0x00\n        /* \"#utility.yul\":13328:13330   */\n      0x60\n        /* \"#utility.yul\":13317:13326   */\n      dup3\n        /* \"#utility.yul\":13313:13331   */\n      add\n        /* \"#utility.yul\":13305:13331   */\n      swap1\n      pop\n        /* \"#utility.yul\":13341:13412   */\n      tag_329\n        /* \"#utility.yul\":13409:13410   */\n      0x00\n        /* \"#utility.yul\":13398:13407   */\n      dup4\n        /* \"#utility.yul\":13394:13411   */\n      add\n        /* \"#utility.yul\":13385:13391   */\n      dup7\n        /* \"#utility.yul\":13341:13412   */\n      tag_162\n      jump\t// in\n    tag_329:\n        /* \"#utility.yul\":13422:13494   */\n      tag_330\n        /* \"#utility.yul\":13490:13492   */\n      0x20\n        /* \"#utility.yul\":13479:13488   */\n      dup4\n        /* \"#utility.yul\":13475:13493   */\n      add\n        /* \"#utility.yul\":13466:13472   */\n      dup6\n        /* \"#utility.yul\":13422:13494   */\n      tag_162\n      jump\t// in\n    tag_330:\n        /* \"#utility.yul\":13504:13576   */\n      tag_331\n        /* \"#utility.yul\":13572:13574   */\n      0x40\n        /* \"#utility.yul\":13561:13570   */\n      dup4\n        /* \"#utility.yul\":13557:13575   */\n      add\n        /* \"#utility.yul\":13548:13554   */\n      dup5\n        /* \"#utility.yul\":13504:13576   */\n      tag_164\n      jump\t// in\n    tag_331:\n        /* \"#utility.yul\":13141:13583   */\n      swap5\n      swap4\n      pop\n      pop\n      pop\n      pop\n      jump\t// out\n\n    auxdata: 0xa2646970667358221220ce5f274356e8f49c49dc4eb2e7f884e11d3ccf951986654f47492f20e7b859b564736f6c634300081b0033\n}\n",
				"bytecode": {
					"linkReferences": {},
					"object": "6080604052348015600e575f5ffd5b503360015f6101000a81548173ffffffffffffffffffffffffffffffffffffffff021916908373ffffffffffffffffffffffffffffffffffffffff1602179055506118988061005c5f395ff3fe6080604052600436106100f6575f3560e01c80639a70eef111610089578063c15bae8411610058578063c15bae8414610434578063cf87f0521461045e578063d2b5394814610486578063eb2d9fd31461049057610248565b80639a70eef1146103a2578063aeae547d146103b8578063b76d4fc3146103e0578063bfa698de1461040a57610248565b8063547fbe8e116100c5578063547fbe8e146103285780636f3f42ac146103525780637935e5a31461036e5780638da5cb5b1461037857610248565b806307da68f51461028d57806312cccb34146102b7578063243e7a87146102c157806347cdcc1f1461030057610248565b36610248577fd6717f327e0cb88b4a97a7f67a453e9258252c34937ccbdd86de7cb840e7def3333460405161012c9291906112bf565b60405180910390a15f60405180608001604052803373ffffffffffffffffffffffffffffffffffffffff1681526020013073ffffffffffffffffffffffffffffffffffffffff16815260200142815260200134815250908060018154018082558091505060019003905f5260205f2090600402015f909190919091505f820151815f015f6101000a81548173ffffffffffffffffffffffffffffffffffffffff021916908373ffffffffffffffffffffffffffffffffffffffff1602179055506020820151816001015f6101000a81548173ffffffffffffffffffffffffffffffffffffffff021916908373ffffffffffffffffffffffffffffffffffffffff1602179055506040820151816002015560608201518160030155005b3373ffffffffffffffffffffffffffffffffffffffff166108fc3490811502906040515f60405180830381858888f1935050505015801561028b573d5f5f3e3d5ffd5b005b348015610298575f5ffd5b506102a16104b8565b6040516102ae9190611300565b60405180910390f35b6102bf6104ca565b005b3480156102cc575f5ffd5b506102e760048036038101906102e29190611347565b6105e0565b6040516102f79493929190611372565b60405180910390f35b34801561030b575f5ffd5b50610326600480360381019061032191906113f0565b610658565b005b348015610333575f5ffd5b5061033c6108bf565b604051610349919061142e565b60405180910390f35b61036c60048036038101906103679190611471565b6108fe565b005b610376610b0a565b005b348015610383575f5ffd5b5061038c610b71565b604051610399919061149c565b60405180910390f35b3480156103ad575f5ffd5b506103b6610b96565b005b3480156103c3575f5ffd5b506103de60048036038101906103d99190611347565b610c27565b005b3480156103eb575f5ffd5b506103f4610e53565b60405161040191906115ce565b60405180910390f35b348015610415575f5ffd5b5061041e610f6b565b60405161042b919061142e565b60405180910390f35b34801561043f575f5ffd5b50610448610f72565b604051610455919061165e565b60405180910390f35b348015610469575f5ffd5b50610484600480360381019061047f9190611471565b610ffe565b005b61048e611001565b005b34801561049b575f5ffd5b506104b660048036038101906104b19190611471565b611196565b005b60035f9054906101000a900460ff1681565b5f60405180608001604052803373ffffffffffffffffffffffffffffffffffffffff1681526020013073ffffffffffffffffffffffffffffffffffffffff16815260200142815260200134815250908060018154018082558091505060019003905f5260205f2090600402015f909190919091505f820151815f015f6101000a81548173ffffffffffffffffffffffffffffffffffffffff021916908373ffffffffffffffffffffffffffffffffffffffff1602179055506020820151816001015f6101000a81548173ffffffffffffffffffffffffffffffffffffffff021916908373ffffffffffffffffffffffffffffffffffffffff16021790555060408201518160020155606082015181600301555050565b5f81815481106105ee575f80fd5b905f5260205f2090600402015f91509050805f015f9054906101000a900473ffffffffffffffffffffffffffffffffffffffff1690806001015f9054906101000a900473ffffffffffffffffffffffffffffffffffffffff16908060020154908060030154905084565b60015f9054906101000a900473ffffffffffffffffffffffffffffffffffffffff1673ffffffffffffffffffffffffffffffffffffffff163373ffffffffffffffffffffffffffffffffffffffff16146106e7576040517f08c379a00000000000000000000000000000000000000000000000000000000081526004016106de906116c8565b60405180910390fd5b8047101561072a576040517f08c379a000000000000000000000000000000000000000000000000000000000815260040161072190611730565b60405180910390fd5b8173ffffffffffffffffffffffffffffffffffffffff166108fc8290811502906040515f60405180830381858888f1935050505015801561076d573d5f5f3e3d5ffd5b507f69ca02dd4edd7bf0a4abb9ed3b7af3f14778db5d61921c7dc7cd545266326de2828260405161079f9291906117a9565b60405180910390a15f60405180608001604052803373ffffffffffffffffffffffffffffffffffffffff1681526020018473ffffffffffffffffffffffffffffffffffffffff16815260200142815260200183815250908060018154018082558091505060019003905f5260205f2090600402015f909190919091505f820151815f015f6101000a81548173ffffffffffffffffffffffffffffffffffffffff021916908373ffffffffffffffffffffffffffffffffffffffff1602179055506020820151816001015f6101000a81548173ffffffffffffffffffffffffffffffffffffffff021916908373ffffffffffffffffffffffffffffffffffffffff160217905550604082015181600201556060820151816003015550505050565b5f60015f9054906101000a900473ffffffffffffffffffffffffffffffffffffffff1673ffffffffffffffffffffffffffffffffffffffff1631905090565b34471015610941576040517f08c379a000000000000000000000000000000000000000000000000000000000815260040161093890611730565b60405180910390fd5b5f73ffffffffffffffffffffffffffffffffffffffff168173ffffffffffffffffffffffffffffffffffffffff16036109af576040517f08c379a00000000000000000000000000000000000000000000000000000000081526004016109a690611730565b60405180910390fd5b8073ffffffffffffffffffffffffffffffffffffffff166108fc3490811502906040515f60405180830381858888f193505050501580156109f2573d5f5f3e3d5ffd5b505f60405180608001604052803373ffffffffffffffffffffffffffffffffffffffff1681526020018373ffffffffffffffffffffffffffffffffffffffff16815260200142815260200134815250908060018154018082558091505060019003905f5260205f2090600402015f909190919091505f820151815f015f6101000a81548173ffffffffffffffffffffffffffffffffffffffff021916908373ffffffffffffffffffffffffffffffffffffffff1602179055506020820151816001015f6101000a81548173ffffffffffffffffffffffffffffffffffffffff021916908373ffffffffffffffffffffffffffffffffffffffff1602179055506040820151816002015560608201518160030155505050565b60015f9054906101000a900473ffffffffffffffffffffffffffffffffffffffff1673ffffffffffffffffffffffffffffffffffffffff166108fc4790811502906040515f60405180830381858888f19350505050158015610b6e573d5f5f3e3d5ffd5b50565b60015f9054906101000a900473ffffffffffffffffffffffffffffffffffffffff1681565b60015f9054906101000a900473ffffffffffffffffffffffffffffffffffffffff1673ffffffffffffffffffffffffffffffffffffffff163373ffffffffffffffffffffffffffffffffffffffff1614610c25576040517f08c379a0000000000000000000000000000000000000000000000000000000008152600401610c1c906116c8565b60405180910390fd5b565b60015f9054906101000a900473ffffffffffffffffffffffffffffffffffffffff1673ffffffffffffffffffffffffffffffffffffffff163373ffffffffffffffffffffffffffffffffffffffff1614610cb6576040517f08c379a0000000000000000000000000000000000000000000000000000000008152600401610cad906116c8565b60405180910390fd5b60015f9054906101000a900473ffffffffffffffffffffffffffffffffffffffff1673ffffffffffffffffffffffffffffffffffffffff166108fc8290811502906040515f60405180830381858888f19350505050158015610d1a573d5f5f3e3d5ffd5b505f60405180608001604052803073ffffffffffffffffffffffffffffffffffffffff16815260200160015f9054906101000a900473ffffffffffffffffffffffffffffffffffffffff1673ffffffffffffffffffffffffffffffffffffffff16815260200142815260200183815250908060018154018082558091505060019003905f5260205f2090600402015f909190919091505f820151815f015f6101000a81548173ffffffffffffffffffffffffffffffffffffffff021916908373ffffffffffffffffffffffffffffffffffffffff1602179055506020820151816001015f6101000a81548173ffffffffffffffffffffffffffffffffffffffff021916908373ffffffffffffffffffffffffffffffffffffffff1602179055506040820151816002015560608201518160030155505050565b60605f805480602002602001604051908101604052809291908181526020015f905b82821015610f62578382905f5260205f2090600402016040518060800160405290815f82015f9054906101000a900473ffffffffffffffffffffffffffffffffffffffff1673ffffffffffffffffffffffffffffffffffffffff1673ffffffffffffffffffffffffffffffffffffffff168152602001600182015f9054906101000a900473ffffffffffffffffffffffffffffffffffffffff1673ffffffffffffffffffffffffffffffffffffffff1673ffffffffffffffffffffffffffffffffffffffff1681526020016002820154815260200160038201548152505081526020019060010190610e75565b50505050905090565b5f47905090565b60028054610f7f906117fd565b80601f0160208091040260200160405190810160405280929190818152602001828054610fab906117fd565b8015610ff65780601f10610fcd57610100808354040283529160200191610ff6565b820191905f5260205f20905b815481529060010190602001808311610fd957829003601f168201915b505050505081565b50565b3073ffffffffffffffffffffffffffffffffffffffff166108fc3490811502906040515f60405180830381858888f19350505050158015611044573d5f5f3e3d5ffd5b507f6bff45ea56524a93993203a4991ca550597cbc6392508dd91678a3cc936c55773330346040516110789392919061182d565b60405180910390a15f60405180608001604052803373ffffffffffffffffffffffffffffffffffffffff1681526020013073ffffffffffffffffffffffffffffffffffffffff16815260200142815260200134815250908060018154018082558091505060019003905f5260205f2090600402015f909190919091505f820151815f015f6101000a81548173ffffffffffffffffffffffffffffffffffffffff021916908373ffffffffffffffffffffffffffffffffffffffff1602179055506020820151816001015f6101000a81548173ffffffffffffffffffffffffffffffffffffffff021916908373ffffffffffffffffffffffffffffffffffffffff16021790555060408201518160020155606082015181600301555050565b60015f9054906101000a900473ffffffffffffffffffffffffffffffffffffffff1673ffffffffffffffffffffffffffffffffffffffff163373ffffffffffffffffffffffffffffffffffffffff1614611225576040517f08c379a000000000000000000000000000000000000000000000000000000000815260040161121c906116c8565b60405180910390fd5b8060015f6101000a81548173ffffffffffffffffffffffffffffffffffffffff021916908373ffffffffffffffffffffffffffffffffffffffff16021790555050565b5f73ffffffffffffffffffffffffffffffffffffffff82169050919050565b5f61129182611268565b9050919050565b6112a181611287565b82525050565b5f819050919050565b6112b9816112a7565b82525050565b5f6040820190506112d25f830185611298565b6112df60208301846112b0565b9392505050565b5f8115159050919050565b6112fa816112e6565b82525050565b5f6020820190506113135f8301846112f1565b92915050565b5f5ffd5b611326816112a7565b8114611330575f5ffd5b50565b5f813590506113418161131d565b92915050565b5f6020828403121561135c5761135b611319565b5b5f61136984828501611333565b91505092915050565b5f6080820190506113855f830187611298565b6113926020830186611298565b61139f60408301856112b0565b6113ac60608301846112b0565b95945050505050565b5f6113bf82611268565b9050919050565b6113cf816113b5565b81146113d9575f5ffd5b50565b5f813590506113ea816113c6565b92915050565b5f5f6040838503121561140657611405611319565b5b5f611413858286016113dc565b925050602061142485828601611333565b9150509250929050565b5f6020820190506114415f8301846112b0565b92915050565b61145081611287565b811461145a575f5ffd5b50565b5f8135905061146b81611447565b92915050565b5f6020828403121561148657611485611319565b5b5f6114938482850161145d565b91505092915050565b5f6020820190506114af5f830184611298565b92915050565b5f81519050919050565b5f82825260208201905092915050565b5f819050602082019050919050565b6114e781611287565b82525050565b6114f6816112a7565b82525050565b608082015f8201516115105f8501826114de565b50602082015161152360208501826114de565b50604082015161153660408501826114ed565b50606082015161154960608501826114ed565b50505050565b5f61155a83836114fc565b60808301905092915050565b5f602082019050919050565b5f61157c826114b5565b61158681856114bf565b9350611591836114cf565b805f5b838110156115c15781516115a8888261154f565b97506115b383611566565b925050600181019050611594565b5085935050505092915050565b5f6020820190508181035f8301526115e68184611572565b905092915050565b5f81519050919050565b5f82825260208201905092915050565b8281835e5f83830152505050565b5f601f19601f8301169050919050565b5f611630826115ee565b61163a81856115f8565b935061164a818560208601611608565b61165381611616565b840191505092915050565b5f6020820190508181035f8301526116768184611626565b905092915050565b7f596f7520646f6e742068617665206163636573730000000000000000000000005f82015250565b5f6116b26014836115f8565b91506116bd8261167e565b602082019050919050565b5f6020820190508181035f8301526116df816116a6565b9050919050565b7f496e73756666696369656e742042616c616e63650000000000000000000000005f82015250565b5f61171a6014836115f8565b9150611725826116e6565b602082019050919050565b5f6020820190508181035f8301526117478161170e565b9050919050565b5f819050919050565b5f61177161176c61176784611268565b61174e565b611268565b9050919050565b5f61178282611757565b9050919050565b5f61179382611778565b9050919050565b6117a381611789565b82525050565b5f6040820190506117bc5f83018561179a565b6117c960208301846112b0565b9392505050565b7f4e487b71000000000000000000000000000000000000000000000000000000005f52602260045260245ffd5b5f600282049050600182168061181457607f821691505b602082108103611827576118266117d0565b5b50919050565b5f6060820190506118405f830186611298565b61184d6020830185611298565b61185a60408301846112b0565b94935050505056fea2646970667358221220ce5f274356e8f49c49dc4eb2e7f884e11d3ccf951986654f47492f20e7b859b564736f6c634300081b0033",
					"opcodes": "PUSH1 0x80 PUSH1 0x40 MSTORE CALLVALUE DUP1 ISZERO PUSH1 0xE JUMPI PUSH0 PUSH0 REVERT JUMPDEST POP CALLER PUSH1 0x1 PUSH0 PUSH2 0x100 EXP DUP2 SLOAD DUP2 PUSH20 0xFFFFFFFFFFFFFFFFFFFFFFFFFFFFFFFFFFFFFFFF MUL NOT AND SWAP1 DUP4 PUSH20 0xFFFFFFFFFFFFFFFFFFFFFFFFFFFFFFFFFFFFFFFF AND MUL OR SWAP1 SSTORE POP PUSH2 0x1898 DUP1 PUSH2 0x5C PUSH0 CODECOPY PUSH0 RETURN INVALID PUSH1 0x80 PUSH1 0x40 MSTORE PUSH1 0x4 CALLDATASIZE LT PUSH2 0xF6 JUMPI PUSH0 CALLDATALOAD PUSH1 0xE0 SHR DUP1 PUSH4 0x9A70EEF1 GT PUSH2 0x89 JUMPI DUP1 PUSH4 0xC15BAE84 GT PUSH2 0x58 JUMPI DUP1 PUSH4 0xC15BAE84 EQ PUSH2 0x434 JUMPI DUP1 PUSH4 0xCF87F052 EQ PUSH2 0x45E JUMPI DUP1 PUSH4 0xD2B53948 EQ PUSH2 0x486 JUMPI DUP1 PUSH4 0xEB2D9FD3 EQ PUSH2 0x490 JUMPI PUSH2 0x248 JUMP JUMPDEST DUP1 PUSH4 0x9A70EEF1 EQ PUSH2 0x3A2 JUMPI DUP1 PUSH4 0xAEAE547D EQ PUSH2 0x3B8 JUMPI DUP1 PUSH4 0xB76D4FC3 EQ PUSH2 0x3E0 JUMPI DUP1 PUSH4 0xBFA698DE EQ PUSH2 0x40A JUMPI PUSH2 0x248 JUMP JUMPDEST DUP1 PUSH4 0x547FBE8E GT PUSH2 0xC5 JUMPI DUP1 PUSH4 0x547FBE8E EQ PUSH2 0x328 JUMPI DUP1 PUSH4 0x6F3F42AC EQ PUSH2 0x352 JUMPI DUP1 PUSH4 0x7935E5A3 EQ PUSH2 0x36E JUMPI DUP1 PUSH4 0x8DA5CB5B EQ PUSH2 0x378 JUMPI PUSH2 0x248 JUMP JUMPDEST DUP1 PUSH4 0x7DA68F5 EQ PUSH2 0x28D JUMPI DUP1 PUSH4 0x12CCCB34 EQ PUSH2 0x2B7 JUMPI DUP1 PUSH4 0x243E7A87 EQ PUSH2 0x2C1 JUMPI DUP1 PUSH4 0x47CDCC1F EQ PUSH2 0x300 JUMPI PUSH2 0x248 JUMP JUMPDEST CALLDATASIZE PUSH2 0x248 JUMPI PUSH32 0xD6717F327E0CB88B4A97A7F67A453E9258252C34937CCBDD86DE7CB840E7DEF3 CALLER CALLVALUE PUSH1 0x40 MLOAD PUSH2 0x12C SWAP3 SWAP2 SWAP1 PUSH2 0x12BF JUMP JUMPDEST PUSH1 0x40 MLOAD DUP1 SWAP2 SUB SWAP1 LOG1 PUSH0 PUSH1 0x40 MLOAD DUP1 PUSH1 0x80 ADD PUSH1 0x40 MSTORE DUP1 CALLER PUSH20 0xFFFFFFFFFFFFFFFFFFFFFFFFFFFFFFFFFFFFFFFF AND DUP2 MSTORE PUSH1 0x20 ADD ADDRESS PUSH20 0xFFFFFFFFFFFFFFFFFFFFFFFFFFFFFFFFFFFFFFFF AND DUP2 MSTORE PUSH1 0x20 ADD TIMESTAMP DUP2 MSTORE PUSH1 0x20 ADD CALLVALUE DUP2 MSTORE POP SWAP1 DUP1 PUSH1 0x1 DUP2 SLOAD ADD DUP1 DUP3 SSTORE DUP1 SWAP2 POP POP PUSH1 0x1 SWAP1 SUB SWAP1 PUSH0 MSTORE PUSH1 0x20 PUSH0 KECCAK256 SWAP1 PUSH1 0x4 MUL ADD PUSH0 SWAP1 SWAP2 SWAP1 SWAP2 SWAP1 SWAP2 POP PUSH0 DUP3 ADD MLOAD DUP2 PUSH0 ADD PUSH0 PUSH2 0x100 EXP DUP2 SLOAD DUP2 PUSH20 0xFFFFFFFFFFFFFFFFFFFFFFFFFFFFFFFFFFFFFFFF MUL NOT AND SWAP1 DUP4 PUSH20 0xFFFFFFFFFFFFFFFFFFFFFFFFFFFFFFFFFFFFFFFF AND MUL OR SWAP1 SSTORE POP PUSH1 0x20 DUP3 ADD MLOAD DUP2 PUSH1 0x1 ADD PUSH0 PUSH2 0x100 EXP DUP2 SLOAD DUP2 PUSH20 0xFFFFFFFFFFFFFFFFFFFFFFFFFFFFFFFFFFFFFFFF MUL NOT AND SWAP1 DUP4 PUSH20 0xFFFFFFFFFFFFFFFFFFFFFFFFFFFFFFFFFFFFFFFF AND MUL OR SWAP1 SSTORE POP PUSH1 0x40 DUP3 ADD MLOAD DUP2 PUSH1 0x2 ADD SSTORE PUSH1 0x60 DUP3 ADD MLOAD DUP2 PUSH1 0x3 ADD SSTORE STOP JUMPDEST CALLER PUSH20 0xFFFFFFFFFFFFFFFFFFFFFFFFFFFFFFFFFFFFFFFF AND PUSH2 0x8FC CALLVALUE SWAP1 DUP2 ISZERO MUL SWAP1 PUSH1 0x40 MLOAD PUSH0 PUSH1 0x40 MLOAD DUP1 DUP4 SUB DUP2 DUP6 DUP9 DUP9 CALL SWAP4 POP POP POP POP ISZERO DUP1 ISZERO PUSH2 0x28B JUMPI RETURNDATASIZE PUSH0 PUSH0 RETURNDATACOPY RETURNDATASIZE PUSH0 REVERT JUMPDEST STOP JUMPDEST CALLVALUE DUP1 ISZERO PUSH2 0x298 JUMPI PUSH0 PUSH0 REVERT JUMPDEST POP PUSH2 0x2A1 PUSH2 0x4B8 JUMP JUMPDEST PUSH1 0x40 MLOAD PUSH2 0x2AE SWAP2 SWAP1 PUSH2 0x1300 JUMP JUMPDEST PUSH1 0x40 MLOAD DUP1 SWAP2 SUB SWAP1 RETURN JUMPDEST PUSH2 0x2BF PUSH2 0x4CA JUMP JUMPDEST STOP JUMPDEST CALLVALUE DUP1 ISZERO PUSH2 0x2CC JUMPI PUSH0 PUSH0 REVERT JUMPDEST POP PUSH2 0x2E7 PUSH1 0x4 DUP1 CALLDATASIZE SUB DUP2 ADD SWAP1 PUSH2 0x2E2 SWAP2 SWAP1 PUSH2 0x1347 JUMP JUMPDEST PUSH2 0x5E0 JUMP JUMPDEST PUSH1 0x40 MLOAD PUSH2 0x2F7 SWAP5 SWAP4 SWAP3 SWAP2 SWAP1 PUSH2 0x1372 JUMP JUMPDEST PUSH1 0x40 MLOAD DUP1 SWAP2 SUB SWAP1 RETURN JUMPDEST CALLVALUE DUP1 ISZERO PUSH2 0x30B JUMPI PUSH0 PUSH0 REVERT JUMPDEST POP PUSH2 0x326 PUSH1 0x4 DUP1 CALLDATASIZE SUB DUP2 ADD SWAP1 PUSH2 0x321 SWAP2 SWAP1 PUSH2 0x13F0 JUMP JUMPDEST PUSH2 0x658 JUMP JUMPDEST STOP JUMPDEST CALLVALUE DUP1 ISZERO PUSH2 0x333 JUMPI PUSH0 PUSH0 REVERT JUMPDEST POP PUSH2 0x33C PUSH2 0x8BF JUMP JUMPDEST PUSH1 0x40 MLOAD PUSH2 0x349 SWAP2 SWAP1 PUSH2 0x142E JUMP JUMPDEST PUSH1 0x40 MLOAD DUP1 SWAP2 SUB SWAP1 RETURN JUMPDEST PUSH2 0x36C PUSH1 0x4 DUP1 CALLDATASIZE SUB DUP2 ADD SWAP1 PUSH2 0x367 SWAP2 SWAP1 PUSH2 0x1471 JUMP JUMPDEST PUSH2 0x8FE JUMP JUMPDEST STOP JUMPDEST PUSH2 0x376 PUSH2 0xB0A JUMP JUMPDEST STOP JUMPDEST CALLVALUE DUP1 ISZERO PUSH2 0x383 JUMPI PUSH0 PUSH0 REVERT JUMPDEST POP PUSH2 0x38C PUSH2 0xB71 JUMP JUMPDEST PUSH1 0x40 MLOAD PUSH2 0x399 SWAP2 SWAP1 PUSH2 0x149C JUMP JUMPDEST PUSH1 0x40 MLOAD DUP1 SWAP2 SUB SWAP1 RETURN JUMPDEST CALLVALUE DUP1 ISZERO PUSH2 0x3AD JUMPI PUSH0 PUSH0 REVERT JUMPDEST POP PUSH2 0x3B6 PUSH2 0xB96 JUMP JUMPDEST STOP JUMPDEST CALLVALUE DUP1 ISZERO PUSH2 0x3C3 JUMPI PUSH0 PUSH0 REVERT JUMPDEST POP PUSH2 0x3DE PUSH1 0x4 DUP1 CALLDATASIZE SUB DUP2 ADD SWAP1 PUSH2 0x3D9 SWAP2 SWAP1 PUSH2 0x1347 JUMP JUMPDEST PUSH2 0xC27 JUMP JUMPDEST STOP JUMPDEST CALLVALUE DUP1 ISZERO PUSH2 0x3EB JUMPI PUSH0 PUSH0 REVERT JUMPDEST POP PUSH2 0x3F4 PUSH2 0xE53 JUMP JUMPDEST PUSH1 0x40 MLOAD PUSH2 0x401 SWAP2 SWAP1 PUSH2 0x15CE JUMP JUMPDEST PUSH1 0x40 MLOAD DUP1 SWAP2 SUB SWAP1 RETURN JUMPDEST CALLVALUE DUP1 ISZERO PUSH2 0x415 JUMPI PUSH0 PUSH0 REVERT JUMPDEST POP PUSH2 0x41E PUSH2 0xF6B JUMP JUMPDEST PUSH1 0x40 MLOAD PUSH2 0x42B SWAP2 SWAP1 PUSH2 0x142E JUMP JUMPDEST PUSH1 0x40 MLOAD DUP1 SWAP2 SUB SWAP1 RETURN JUMPDEST CALLVALUE DUP1 ISZERO PUSH2 0x43F JUMPI PUSH0 PUSH0 REVERT JUMPDEST POP PUSH2 0x448 PUSH2 0xF72 JUMP JUMPDEST PUSH1 0x40 MLOAD PUSH2 0x455 SWAP2 SWAP1 PUSH2 0x165E JUMP JUMPDEST PUSH1 0x40 MLOAD DUP1 SWAP2 SUB SWAP1 RETURN JUMPDEST CALLVALUE DUP1 ISZERO PUSH2 0x469 JUMPI PUSH0 PUSH0 REVERT JUMPDEST POP PUSH2 0x484 PUSH1 0x4 DUP1 CALLDATASIZE SUB DUP2 ADD SWAP1 PUSH2 0x47F SWAP2 SWAP1 PUSH2 0x1471 JUMP JUMPDEST PUSH2 0xFFE JUMP JUMPDEST STOP JUMPDEST PUSH2 0x48E PUSH2 0x1001 JUMP JUMPDEST STOP JUMPDEST CALLVALUE DUP1 ISZERO PUSH2 0x49B JUMPI PUSH0 PUSH0 REVERT JUMPDEST POP PUSH2 0x4B6 PUSH1 0x4 DUP1 CALLDATASIZE SUB DUP2 ADD SWAP1 PUSH2 0x4B1 SWAP2 SWAP1 PUSH2 0x1471 JUMP JUMPDEST PUSH2 0x1196 JUMP JUMPDEST STOP JUMPDEST PUSH1 0x3 PUSH0 SWAP1 SLOAD SWAP1 PUSH2 0x100 EXP SWAP1 DIV PUSH1 0xFF AND DUP2 JUMP JUMPDEST PUSH0 PUSH1 0x40 MLOAD DUP1 PUSH1 0x80 ADD PUSH1 0x40 MSTORE DUP1 CALLER PUSH20 0xFFFFFFFFFFFFFFFFFFFFFFFFFFFFFFFFFFFFFFFF AND DUP2 MSTORE PUSH1 0x20 ADD ADDRESS PUSH20 0xFFFFFFFFFFFFFFFFFFFFFFFFFFFFFFFFFFFFFFFF AND DUP2 MSTORE PUSH1 0x20 ADD TIMESTAMP DUP2 MSTORE PUSH1 0x20 ADD CALLVALUE DUP2 MSTORE POP SWAP1 DUP1 PUSH1 0x1 DUP2 SLOAD ADD DUP1 DUP3 SSTORE DUP1 SWAP2 POP POP PUSH1 0x1 SWAP1 SUB SWAP1 PUSH0 MSTORE PUSH1 0x20 PUSH0 KECCAK256 SWAP1 PUSH1 0x4 MUL ADD PUSH0 SWAP1 SWAP2 SWAP1 SWAP2 SWAP1 SWAP2 POP PUSH0 DUP3 ADD MLOAD DUP2 PUSH0 ADD PUSH0 PUSH2 0x100 EXP DUP2 SLOAD DUP2 PUSH20 0xFFFFFFFFFFFFFFFFFFFFFFFFFFFFFFFFFFFFFFFF MUL NOT AND SWAP1 DUP4 PUSH20 0xFFFFFFFFFFFFFFFFFFFFFFFFFFFFFFFFFFFFFFFF AND MUL OR SWAP1 SSTORE POP PUSH1 0x20 DUP3 ADD MLOAD DUP2 PUSH1 0x1 ADD PUSH0 PUSH2 0x100 EXP DUP2 SLOAD DUP2 PUSH20 0xFFFFFFFFFFFFFFFFFFFFFFFFFFFFFFFFFFFFFFFF MUL NOT AND SWAP1 DUP4 PUSH20 0xFFFFFFFFFFFFFFFFFFFFFFFFFFFFFFFFFFFFFFFF AND MUL OR SWAP1 SSTORE POP PUSH1 0x40 DUP3 ADD MLOAD DUP2 PUSH1 0x2 ADD SSTORE PUSH1 0x60 DUP3 ADD MLOAD DUP2 PUSH1 0x3 ADD SSTORE POP POP JUMP JUMPDEST PUSH0 DUP2 DUP2 SLOAD DUP2 LT PUSH2 0x5EE JUMPI PUSH0 DUP1 REVERT JUMPDEST SWAP1 PUSH0 MSTORE PUSH1 0x20 PUSH0 KECCAK256 SWAP1 PUSH1 0x4 MUL ADD PUSH0 SWAP2 POP SWAP1 POP DUP1 PUSH0 ADD PUSH0 SWAP1 SLOAD SWAP1 PUSH2 0x100 EXP SWAP1 DIV PUSH20 0xFFFFFFFFFFFFFFFFFFFFFFFFFFFFFFFFFFFFFFFF AND SWAP1 DUP1 PUSH1 0x1 ADD PUSH0 SWAP1 SLOAD SWAP1 PUSH2 0x100 EXP SWAP1 DIV PUSH20 0xFFFFFFFFFFFFFFFFFFFFFFFFFFFFFFFFFFFFFFFF AND SWAP1 DUP1 PUSH1 0x2 ADD SLOAD SWAP1 DUP1 PUSH1 0x3 ADD SLOAD SWAP1 POP DUP5 JUMP JUMPDEST PUSH1 0x1 PUSH0 SWAP1 SLOAD SWAP1 PUSH2 0x100 EXP SWAP1 DIV PUSH20 0xFFFFFFFFFFFFFFFFFFFFFFFFFFFFFFFFFFFFFFFF AND PUSH20 0xFFFFFFFFFFFFFFFFFFFFFFFFFFFFFFFFFFFFFFFF AND CALLER PUSH20 0xFFFFFFFFFFFFFFFFFFFFFFFFFFFFFFFFFFFFFFFF AND EQ PUSH2 0x6E7 JUMPI PUSH1 0x40 MLOAD PUSH32 0x8C379A000000000000000000000000000000000000000000000000000000000 DUP2 MSTORE PUSH1 0x4 ADD PUSH2 0x6DE SWAP1 PUSH2 0x16C8 JUMP JUMPDEST PUSH1 0x40 MLOAD DUP1 SWAP2 SUB SWAP1 REVERT JUMPDEST DUP1 SELFBALANCE LT ISZERO PUSH2 0x72A JUMPI PUSH1 0x40 MLOAD PUSH32 0x8C379A000000000000000000000000000000000000000000000000000000000 DUP2 MSTORE PUSH1 0x4 ADD PUSH2 0x721 SWAP1 PUSH2 0x1730 JUMP JUMPDEST PUSH1 0x40 MLOAD DUP1 SWAP2 SUB SWAP1 REVERT JUMPDEST DUP2 PUSH20 0xFFFFFFFFFFFFFFFFFFFFFFFFFFFFFFFFFFFFFFFF AND PUSH2 0x8FC DUP3 SWAP1 DUP2 ISZERO MUL SWAP1 PUSH1 0x40 MLOAD PUSH0 PUSH1 0x40 MLOAD DUP1 DUP4 SUB DUP2 DUP6 DUP9 DUP9 CALL SWAP4 POP POP POP POP ISZERO DUP1 ISZERO PUSH2 0x76D JUMPI RETURNDATASIZE PUSH0 PUSH0 RETURNDATACOPY RETURNDATASIZE PUSH0 REVERT JUMPDEST POP PUSH32 0x69CA02DD4EDD7BF0A4ABB9ED3B7AF3F14778DB5D61921C7DC7CD545266326DE2 DUP3 DUP3 PUSH1 0x40 MLOAD PUSH2 0x79F SWAP3 SWAP2 SWAP1 PUSH2 0x17A9 JUMP JUMPDEST PUSH1 0x40 MLOAD DUP1 SWAP2 SUB SWAP1 LOG1 PUSH0 PUSH1 0x40 MLOAD DUP1 PUSH1 0x80 ADD PUSH1 0x40 MSTORE DUP1 CALLER PUSH20 0xFFFFFFFFFFFFFFFFFFFFFFFFFFFFFFFFFFFFFFFF AND DUP2 MSTORE PUSH1 0x20 ADD DUP5 PUSH20 0xFFFFFFFFFFFFFFFFFFFFFFFFFFFFFFFFFFFFFFFF AND DUP2 MSTORE PUSH1 0x20 ADD TIMESTAMP DUP2 MSTORE PUSH1 0x20 ADD DUP4 DUP2 MSTORE POP SWAP1 DUP1 PUSH1 0x1 DUP2 SLOAD ADD DUP1 DUP3 SSTORE DUP1 SWAP2 POP POP PUSH1 0x1 SWAP1 SUB SWAP1 PUSH0 MSTORE PUSH1 0x20 PUSH0 KECCAK256 SWAP1 PUSH1 0x4 MUL ADD PUSH0 SWAP1 SWAP2 SWAP1 SWAP2 SWAP1 SWAP2 POP PUSH0 DUP3 ADD MLOAD DUP2 PUSH0 ADD PUSH0 PUSH2 0x100 EXP DUP2 SLOAD DUP2 PUSH20 0xFFFFFFFFFFFFFFFFFFFFFFFFFFFFFFFFFFFFFFFF MUL NOT AND SWAP1 DUP4 PUSH20 0xFFFFFFFFFFFFFFFFFFFFFFFFFFFFFFFFFFFFFFFF AND MUL OR SWAP1 SSTORE POP PUSH1 0x20 DUP3 ADD MLOAD DUP2 PUSH1 0x1 ADD PUSH0 PUSH2 0x100 EXP DUP2 SLOAD DUP2 PUSH20 0xFFFFFFFFFFFFFFFFFFFFFFFFFFFFFFFFFFFFFFFF MUL NOT AND SWAP1 DUP4 PUSH20 0xFFFFFFFFFFFFFFFFFFFFFFFFFFFFFFFFFFFFFFFF AND MUL OR SWAP1 SSTORE POP PUSH1 0x40 DUP3 ADD MLOAD DUP2 PUSH1 0x2 ADD SSTORE PUSH1 0x60 DUP3 ADD MLOAD DUP2 PUSH1 0x3 ADD SSTORE POP POP POP POP JUMP JUMPDEST PUSH0 PUSH1 0x1 PUSH0 SWAP1 SLOAD SWAP1 PUSH2 0x100 EXP SWAP1 DIV PUSH20 0xFFFFFFFFFFFFFFFFFFFFFFFFFFFFFFFFFFFFFFFF AND PUSH20 0xFFFFFFFFFFFFFFFFFFFFFFFFFFFFFFFFFFFFFFFF AND BALANCE SWAP1 POP SWAP1 JUMP JUMPDEST CALLVALUE SELFBALANCE LT ISZERO PUSH2 0x941 JUMPI PUSH1 0x40 MLOAD PUSH32 0x8C379A000000000000000000000000000000000000000000000000000000000 DUP2 MSTORE PUSH1 0x4 ADD PUSH2 0x938 SWAP1 PUSH2 0x1730 JUMP JUMPDEST PUSH1 0x40 MLOAD DUP1 SWAP2 SUB SWAP1 REVERT JUMPDEST PUSH0 PUSH20 0xFFFFFFFFFFFFFFFFFFFFFFFFFFFFFFFFFFFFFFFF AND DUP2 PUSH20 0xFFFFFFFFFFFFFFFFFFFFFFFFFFFFFFFFFFFFFFFF AND SUB PUSH2 0x9AF JUMPI PUSH1 0x40 MLOAD PUSH32 0x8C379A000000000000000000000000000000000000000000000000000000000 DUP2 MSTORE PUSH1 0x4 ADD PUSH2 0x9A6 SWAP1 PUSH2 0x1730 JUMP JUMPDEST PUSH1 0x40 MLOAD DUP1 SWAP2 SUB SWAP1 REVERT JUMPDEST DUP1 PUSH20 0xFFFFFFFFFFFFFFFFFFFFFFFFFFFFFFFFFFFFFFFF AND PUSH2 0x8FC CALLVALUE SWAP1 DUP2 ISZERO MUL SWAP1 PUSH1 0x40 MLOAD PUSH0 PUSH1 0x40 MLOAD DUP1 DUP4 SUB DUP2 DUP6 DUP9 DUP9 CALL SWAP4 POP POP POP POP ISZERO DUP1 ISZERO PUSH2 0x9F2 JUMPI RETURNDATASIZE PUSH0 PUSH0 RETURNDATACOPY RETURNDATASIZE PUSH0 REVERT JUMPDEST POP PUSH0 PUSH1 0x40 MLOAD DUP1 PUSH1 0x80 ADD PUSH1 0x40 MSTORE DUP1 CALLER PUSH20 0xFFFFFFFFFFFFFFFFFFFFFFFFFFFFFFFFFFFFFFFF AND DUP2 MSTORE PUSH1 0x20 ADD DUP4 PUSH20 0xFFFFFFFFFFFFFFFFFFFFFFFFFFFFFFFFFFFFFFFF AND DUP2 MSTORE PUSH1 0x20 ADD TIMESTAMP DUP2 MSTORE PUSH1 0x20 ADD CALLVALUE DUP2 MSTORE POP SWAP1 DUP1 PUSH1 0x1 DUP2 SLOAD ADD DUP1 DUP3 SSTORE DUP1 SWAP2 POP POP PUSH1 0x1 SWAP1 SUB SWAP1 PUSH0 MSTORE PUSH1 0x20 PUSH0 KECCAK256 SWAP1 PUSH1 0x4 MUL ADD PUSH0 SWAP1 SWAP2 SWAP1 SWAP2 SWAP1 SWAP2 POP PUSH0 DUP3 ADD MLOAD DUP2 PUSH0 ADD PUSH0 PUSH2 0x100 EXP DUP2 SLOAD DUP2 PUSH20 0xFFFFFFFFFFFFFFFFFFFFFFFFFFFFFFFFFFFFFFFF MUL NOT AND SWAP1 DUP4 PUSH20 0xFFFFFFFFFFFFFFFFFFFFFFFFFFFFFFFFFFFFFFFF AND MUL OR SWAP1 SSTORE POP PUSH1 0x20 DUP3 ADD MLOAD DUP2 PUSH1 0x1 ADD PUSH0 PUSH2 0x100 EXP DUP2 SLOAD DUP2 PUSH20 0xFFFFFFFFFFFFFFFFFFFFFFFFFFFFFFFFFFFFFFFF MUL NOT AND SWAP1 DUP4 PUSH20 0xFFFFFFFFFFFFFFFFFFFFFFFFFFFFFFFFFFFFFFFF AND MUL OR SWAP1 SSTORE POP PUSH1 0x40 DUP3 ADD MLOAD DUP2 PUSH1 0x2 ADD SSTORE PUSH1 0x60 DUP3 ADD MLOAD DUP2 PUSH1 0x3 ADD SSTORE POP POP POP JUMP JUMPDEST PUSH1 0x1 PUSH0 SWAP1 SLOAD SWAP1 PUSH2 0x100 EXP SWAP1 DIV PUSH20 0xFFFFFFFFFFFFFFFFFFFFFFFFFFFFFFFFFFFFFFFF AND PUSH20 0xFFFFFFFFFFFFFFFFFFFFFFFFFFFFFFFFFFFFFFFF AND PUSH2 0x8FC SELFBALANCE SWAP1 DUP2 ISZERO MUL SWAP1 PUSH1 0x40 MLOAD PUSH0 PUSH1 0x40 MLOAD DUP1 DUP4 SUB DUP2 DUP6 DUP9 DUP9 CALL SWAP4 POP POP POP POP ISZERO DUP1 ISZERO PUSH2 0xB6E JUMPI RETURNDATASIZE PUSH0 PUSH0 RETURNDATACOPY RETURNDATASIZE PUSH0 REVERT JUMPDEST POP JUMP JUMPDEST PUSH1 0x1 PUSH0 SWAP1 SLOAD SWAP1 PUSH2 0x100 EXP SWAP1 DIV PUSH20 0xFFFFFFFFFFFFFFFFFFFFFFFFFFFFFFFFFFFFFFFF AND DUP2 JUMP JUMPDEST PUSH1 0x1 PUSH0 SWAP1 SLOAD SWAP1 PUSH2 0x100 EXP SWAP1 DIV PUSH20 0xFFFFFFFFFFFFFFFFFFFFFFFFFFFFFFFFFFFFFFFF AND PUSH20 0xFFFFFFFFFFFFFFFFFFFFFFFFFFFFFFFFFFFFFFFF AND CALLER PUSH20 0xFFFFFFFFFFFFFFFFFFFFFFFFFFFFFFFFFFFFFFFF AND EQ PUSH2 0xC25 JUMPI PUSH1 0x40 MLOAD PUSH32 0x8C379A000000000000000000000000000000000000000000000000000000000 DUP2 MSTORE PUSH1 0x4 ADD PUSH2 0xC1C SWAP1 PUSH2 0x16C8 JUMP JUMPDEST PUSH1 0x40 MLOAD DUP1 SWAP2 SUB SWAP1 REVERT JUMPDEST JUMP JUMPDEST PUSH1 0x1 PUSH0 SWAP1 SLOAD SWAP1 PUSH2 0x100 EXP SWAP1 DIV PUSH20 0xFFFFFFFFFFFFFFFFFFFFFFFFFFFFFFFFFFFFFFFF AND PUSH20 0xFFFFFFFFFFFFFFFFFFFFFFFFFFFFFFFFFFFFFFFF AND CALLER PUSH20 0xFFFFFFFFFFFFFFFFFFFFFFFFFFFFFFFFFFFFFFFF AND EQ PUSH2 0xCB6 JUMPI PUSH1 0x40 MLOAD PUSH32 0x8C379A000000000000000000000000000000000000000000000000000000000 DUP2 MSTORE PUSH1 0x4 ADD PUSH2 0xCAD SWAP1 PUSH2 0x16C8 JUMP JUMPDEST PUSH1 0x40 MLOAD DUP1 SWAP2 SUB SWAP1 REVERT JUMPDEST PUSH1 0x1 PUSH0 SWAP1 SLOAD SWAP1 PUSH2 0x100 EXP SWAP1 DIV PUSH20 0xFFFFFFFFFFFFFFFFFFFFFFFFFFFFFFFFFFFFFFFF AND PUSH20 0xFFFFFFFFFFFFFFFFFFFFFFFFFFFFFFFFFFFFFFFF AND PUSH2 0x8FC DUP3 SWAP1 DUP2 ISZERO MUL SWAP1 PUSH1 0x40 MLOAD PUSH0 PUSH1 0x40 MLOAD DUP1 DUP4 SUB DUP2 DUP6 DUP9 DUP9 CALL SWAP4 POP POP POP POP ISZERO DUP1 ISZERO PUSH2 0xD1A JUMPI RETURNDATASIZE PUSH0 PUSH0 RETURNDATACOPY RETURNDATASIZE PUSH0 REVERT JUMPDEST POP PUSH0 PUSH1 0x40 MLOAD DUP1 PUSH1 0x80 ADD PUSH1 0x40 MSTORE DUP1 ADDRESS PUSH20 0xFFFFFFFFFFFFFFFFFFFFFFFFFFFFFFFFFFFFFFFF AND DUP2 MSTORE PUSH1 0x20 ADD PUSH1 0x1 PUSH0 SWAP1 SLOAD SWAP1 PUSH2 0x100 EXP SWAP1 DIV PUSH20 0xFFFFFFFFFFFFFFFFFFFFFFFFFFFFFFFFFFFFFFFF AND PUSH20 0xFFFFFFFFFFFFFFFFFFFFFFFFFFFFFFFFFFFFFFFF AND DUP2 MSTORE PUSH1 0x20 ADD TIMESTAMP DUP2 MSTORE PUSH1 0x20 ADD DUP4 DUP2 MSTORE POP SWAP1 DUP1 PUSH1 0x1 DUP2 SLOAD ADD DUP1 DUP3 SSTORE DUP1 SWAP2 POP POP PUSH1 0x1 SWAP1 SUB SWAP1 PUSH0 MSTORE PUSH1 0x20 PUSH0 KECCAK256 SWAP1 PUSH1 0x4 MUL ADD PUSH0 SWAP1 SWAP2 SWAP1 SWAP2 SWAP1 SWAP2 POP PUSH0 DUP3 ADD MLOAD DUP2 PUSH0 ADD PUSH0 PUSH2 0x100 EXP DUP2 SLOAD DUP2 PUSH20 0xFFFFFFFFFFFFFFFFFFFFFFFFFFFFFFFFFFFFFFFF MUL NOT AND SWAP1 DUP4 PUSH20 0xFFFFFFFFFFFFFFFFFFFFFFFFFFFFFFFFFFFFFFFF AND MUL OR SWAP1 SSTORE POP PUSH1 0x20 DUP3 ADD MLOAD DUP2 PUSH1 0x1 ADD PUSH0 PUSH2 0x100 EXP DUP2 SLOAD DUP2 PUSH20 0xFFFFFFFFFFFFFFFFFFFFFFFFFFFFFFFFFFFFFFFF MUL NOT AND SWAP1 DUP4 PUSH20 0xFFFFFFFFFFFFFFFFFFFFFFFFFFFFFFFFFFFFFFFF AND MUL OR SWAP1 SSTORE POP PUSH1 0x40 DUP3 ADD MLOAD DUP2 PUSH1 0x2 ADD SSTORE PUSH1 0x60 DUP3 ADD MLOAD DUP2 PUSH1 0x3 ADD SSTORE POP POP POP JUMP JUMPDEST PUSH1 0x60 PUSH0 DUP1 SLOAD DUP1 PUSH1 0x20 MUL PUSH1 0x20 ADD PUSH1 0x40 MLOAD SWAP1 DUP2 ADD PUSH1 0x40 MSTORE DUP1 SWAP3 SWAP2 SWAP1 DUP2 DUP2 MSTORE PUSH1 0x20 ADD PUSH0 SWAP1 JUMPDEST DUP3 DUP3 LT ISZERO PUSH2 0xF62 JUMPI DUP4 DUP3 SWAP1 PUSH0 MSTORE PUSH1 0x20 PUSH0 KECCAK256 SWAP1 PUSH1 0x4 MUL ADD PUSH1 0x40 MLOAD DUP1 PUSH1 0x80 ADD PUSH1 0x40 MSTORE SWAP1 DUP2 PUSH0 DUP3 ADD PUSH0 SWAP1 SLOAD SWAP1 PUSH2 0x100 EXP SWAP1 DIV PUSH20 0xFFFFFFFFFFFFFFFFFFFFFFFFFFFFFFFFFFFFFFFF AND PUSH20 0xFFFFFFFFFFFFFFFFFFFFFFFFFFFFFFFFFFFFFFFF AND PUSH20 0xFFFFFFFFFFFFFFFFFFFFFFFFFFFFFFFFFFFFFFFF AND DUP2 MSTORE PUSH1 0x20 ADD PUSH1 0x1 DUP3 ADD PUSH0 SWAP1 SLOAD SWAP1 PUSH2 0x100 EXP SWAP1 DIV PUSH20 0xFFFFFFFFFFFFFFFFFFFFFFFFFFFFFFFFFFFFFFFF AND PUSH20 0xFFFFFFFFFFFFFFFFFFFFFFFFFFFFFFFFFFFFFFFF AND PUSH20 0xFFFFFFFFFFFFFFFFFFFFFFFFFFFFFFFFFFFFFFFF AND DUP2 MSTORE PUSH1 0x20 ADD PUSH1 0x2 DUP3 ADD SLOAD DUP2 MSTORE PUSH1 0x20 ADD PUSH1 0x3 DUP3 ADD SLOAD DUP2 MSTORE POP POP DUP2 MSTORE PUSH1 0x20 ADD SWAP1 PUSH1 0x1 ADD SWAP1 PUSH2 0xE75 JUMP JUMPDEST POP POP POP POP SWAP1 POP SWAP1 JUMP JUMPDEST PUSH0 SELFBALANCE SWAP1 POP SWAP1 JUMP JUMPDEST PUSH1 0x2 DUP1 SLOAD PUSH2 0xF7F SWAP1 PUSH2 0x17FD JUMP JUMPDEST DUP1 PUSH1 0x1F ADD PUSH1 0x20 DUP1 SWAP2 DIV MUL PUSH1 0x20 ADD PUSH1 0x40 MLOAD SWAP1 DUP2 ADD PUSH1 0x40 MSTORE DUP1 SWAP3 SWAP2 SWAP1 DUP2 DUP2 MSTORE PUSH1 0x20 ADD DUP3 DUP1 SLOAD PUSH2 0xFAB SWAP1 PUSH2 0x17FD JUMP JUMPDEST DUP1 ISZERO PUSH2 0xFF6 JUMPI DUP1 PUSH1 0x1F LT PUSH2 0xFCD JUMPI PUSH2 0x100 DUP1 DUP4 SLOAD DIV MUL DUP4 MSTORE SWAP2 PUSH1 0x20 ADD SWAP2 PUSH2 0xFF6 JUMP JUMPDEST DUP3 ADD SWAP2 SWAP1 PUSH0 MSTORE PUSH1 0x20 PUSH0 KECCAK256 SWAP1 JUMPDEST DUP2 SLOAD DUP2 MSTORE SWAP1 PUSH1 0x1 ADD SWAP1 PUSH1 0x20 ADD DUP1 DUP4 GT PUSH2 0xFD9 JUMPI DUP3 SWAP1 SUB PUSH1 0x1F AND DUP3 ADD SWAP2 JUMPDEST POP POP POP POP POP DUP2 JUMP JUMPDEST POP JUMP JUMPDEST ADDRESS PUSH20 0xFFFFFFFFFFFFFFFFFFFFFFFFFFFFFFFFFFFFFFFF AND PUSH2 0x8FC CALLVALUE SWAP1 DUP2 ISZERO MUL SWAP1 PUSH1 0x40 MLOAD PUSH0 PUSH1 0x40 MLOAD DUP1 DUP4 SUB DUP2 DUP6 DUP9 DUP9 CALL SWAP4 POP POP POP POP ISZERO DUP1 ISZERO PUSH2 0x1044 JUMPI RETURNDATASIZE PUSH0 PUSH0 RETURNDATACOPY RETURNDATASIZE PUSH0 REVERT JUMPDEST POP PUSH32 0x6BFF45EA56524A93993203A4991CA550597CBC6392508DD91678A3CC936C5577 CALLER ADDRESS CALLVALUE PUSH1 0x40 MLOAD PUSH2 0x1078 SWAP4 SWAP3 SWAP2 SWAP1 PUSH2 0x182D JUMP JUMPDEST PUSH1 0x40 MLOAD DUP1 SWAP2 SUB SWAP1 LOG1 PUSH0 PUSH1 0x40 MLOAD DUP1 PUSH1 0x80 ADD PUSH1 0x40 MSTORE DUP1 CALLER PUSH20 0xFFFFFFFFFFFFFFFFFFFFFFFFFFFFFFFFFFFFFFFF AND DUP2 MSTORE PUSH1 0x20 ADD ADDRESS PUSH20 0xFFFFFFFFFFFFFFFFFFFFFFFFFFFFFFFFFFFFFFFF AND DUP2 MSTORE PUSH1 0x20 ADD TIMESTAMP DUP2 MSTORE PUSH1 0x20 ADD CALLVALUE DUP2 MSTORE POP SWAP1 DUP1 PUSH1 0x1 DUP2 SLOAD ADD DUP1 DUP3 SSTORE DUP1 SWAP2 POP POP PUSH1 0x1 SWAP1 SUB SWAP1 PUSH0 MSTORE PUSH1 0x20 PUSH0 KECCAK256 SWAP1 PUSH1 0x4 MUL ADD PUSH0 SWAP1 SWAP2 SWAP1 SWAP2 SWAP1 SWAP2 POP PUSH0 DUP3 ADD MLOAD DUP2 PUSH0 ADD PUSH0 PUSH2 0x100 EXP DUP2 SLOAD DUP2 PUSH20 0xFFFFFFFFFFFFFFFFFFFFFFFFFFFFFFFFFFFFFFFF MUL NOT AND SWAP1 DUP4 PUSH20 0xFFFFFFFFFFFFFFFFFFFFFFFFFFFFFFFFFFFFFFFF AND MUL OR SWAP1 SSTORE POP PUSH1 0x20 DUP3 ADD MLOAD DUP2 PUSH1 0x1 ADD PUSH0 PUSH2 0x100 EXP DUP2 SLOAD DUP2 PUSH20 0xFFFFFFFFFFFFFFFFFFFFFFFFFFFFFFFFFFFFFFFF MUL NOT AND SWAP1 DUP4 PUSH20 0xFFFFFFFFFFFFFFFFFFFFFFFFFFFFFFFFFFFFFFFF AND MUL OR SWAP1 SSTORE POP PUSH1 0x40 DUP3 ADD MLOAD DUP2 PUSH1 0x2 ADD SSTORE PUSH1 0x60 DUP3 ADD MLOAD DUP2 PUSH1 0x3 ADD SSTORE POP POP JUMP JUMPDEST PUSH1 0x1 PUSH0 SWAP1 SLOAD SWAP1 PUSH2 0x100 EXP SWAP1 DIV PUSH20 0xFFFFFFFFFFFFFFFFFFFFFFFFFFFFFFFFFFFFFFFF AND PUSH20 0xFFFFFFFFFFFFFFFFFFFFFFFFFFFFFFFFFFFFFFFF AND CALLER PUSH20 0xFFFFFFFFFFFFFFFFFFFFFFFFFFFFFFFFFFFFFFFF AND EQ PUSH2 0x1225 JUMPI PUSH1 0x40 MLOAD PUSH32 0x8C379A000000000000000000000000000000000000000000000000000000000 DUP2 MSTORE PUSH1 0x4 ADD PUSH2 0x121C SWAP1 PUSH2 0x16C8 JUMP JUMPDEST PUSH1 0x40 MLOAD DUP1 SWAP2 SUB SWAP1 REVERT JUMPDEST DUP1 PUSH1 0x1 PUSH0 PUSH2 0x100 EXP DUP2 SLOAD DUP2 PUSH20 0xFFFFFFFFFFFFFFFFFFFFFFFFFFFFFFFFFFFFFFFF MUL NOT AND SWAP1 DUP4 PUSH20 0xFFFFFFFFFFFFFFFFFFFFFFFFFFFFFFFFFFFFFFFF AND MUL OR SWAP1 SSTORE POP POP JUMP JUMPDEST PUSH0 PUSH20 0xFFFFFFFFFFFFFFFFFFFFFFFFFFFFFFFFFFFFFFFF DUP3 AND SWAP1 POP SWAP2 SWAP1 POP JUMP JUMPDEST PUSH0 PUSH2 0x1291 DUP3 PUSH2 0x1268 JUMP JUMPDEST SWAP1 POP SWAP2 SWAP1 POP JUMP JUMPDEST PUSH2 0x12A1 DUP2 PUSH2 0x1287 JUMP JUMPDEST DUP3 MSTORE POP POP JUMP JUMPDEST PUSH0 DUP2 SWAP1 POP SWAP2 SWAP1 POP JUMP JUMPDEST PUSH2 0x12B9 DUP2 PUSH2 0x12A7 JUMP JUMPDEST DUP3 MSTORE POP POP JUMP JUMPDEST PUSH0 PUSH1 0x40 DUP3 ADD SWAP1 POP PUSH2 0x12D2 PUSH0 DUP4 ADD DUP6 PUSH2 0x1298 JUMP JUMPDEST PUSH2 0x12DF PUSH1 0x20 DUP4 ADD DUP5 PUSH2 0x12B0 JUMP JUMPDEST SWAP4 SWAP3 POP POP POP JUMP JUMPDEST PUSH0 DUP2 ISZERO ISZERO SWAP1 POP SWAP2 SWAP1 POP JUMP JUMPDEST PUSH2 0x12FA DUP2 PUSH2 0x12E6 JUMP JUMPDEST DUP3 MSTORE POP POP JUMP JUMPDEST PUSH0 PUSH1 0x20 DUP3 ADD SWAP1 POP PUSH2 0x1313 PUSH0 DUP4 ADD DUP5 PUSH2 0x12F1 JUMP JUMPDEST SWAP3 SWAP2 POP POP JUMP JUMPDEST PUSH0 PUSH0 REVERT JUMPDEST PUSH2 0x1326 DUP2 PUSH2 0x12A7 JUMP JUMPDEST DUP2 EQ PUSH2 0x1330 JUMPI PUSH0 PUSH0 REVERT JUMPDEST POP JUMP JUMPDEST PUSH0 DUP2 CALLDATALOAD SWAP1 POP PUSH2 0x1341 DUP2 PUSH2 0x131D JUMP JUMPDEST SWAP3 SWAP2 POP POP JUMP JUMPDEST PUSH0 PUSH1 0x20 DUP3 DUP5 SUB SLT ISZERO PUSH2 0x135C JUMPI PUSH2 0x135B PUSH2 0x1319 JUMP JUMPDEST JUMPDEST PUSH0 PUSH2 0x1369 DUP5 DUP3 DUP6 ADD PUSH2 0x1333 JUMP JUMPDEST SWAP2 POP POP SWAP3 SWAP2 POP POP JUMP JUMPDEST PUSH0 PUSH1 0x80 DUP3 ADD SWAP1 POP PUSH2 0x1385 PUSH0 DUP4 ADD DUP8 PUSH2 0x1298 JUMP JUMPDEST PUSH2 0x1392 PUSH1 0x20 DUP4 ADD DUP7 PUSH2 0x1298 JUMP JUMPDEST PUSH2 0x139F PUSH1 0x40 DUP4 ADD DUP6 PUSH2 0x12B0 JUMP JUMPDEST PUSH2 0x13AC PUSH1 0x60 DUP4 ADD DUP5 PUSH2 0x12B0 JUMP JUMPDEST SWAP6 SWAP5 POP POP POP POP POP JUMP JUMPDEST PUSH0 PUSH2 0x13BF DUP3 PUSH2 0x1268 JUMP JUMPDEST SWAP1 POP SWAP2 SWAP1 POP JUMP JUMPDEST PUSH2 0x13CF DUP2 PUSH2 0x13B5 JUMP JUMPDEST DUP2 EQ PUSH2 0x13D9 JUMPI PUSH0 PUSH0 REVERT JUMPDEST POP JUMP JUMPDEST PUSH0 DUP2 CALLDATALOAD SWAP1 POP PUSH2 0x13EA DUP2 PUSH2 0x13C6 JUMP JUMPDEST SWAP3 SWAP2 POP POP JUMP JUMPDEST PUSH0 PUSH0 PUSH1 0x40 DUP4 DUP6 SUB SLT ISZERO PUSH2 0x1406 JUMPI PUSH2 0x1405 PUSH2 0x1319 JUMP JUMPDEST JUMPDEST PUSH0 PUSH2 0x1413 DUP6 DUP3 DUP7 ADD PUSH2 0x13DC JUMP JUMPDEST SWAP3 POP POP PUSH1 0x20 PUSH2 0x1424 DUP6 DUP3 DUP7 ADD PUSH2 0x1333 JUMP JUMPDEST SWAP2 POP POP SWAP3 POP SWAP3 SWAP1 POP JUMP JUMPDEST PUSH0 PUSH1 0x20 DUP3 ADD SWAP1 POP PUSH2 0x1441 PUSH0 DUP4 ADD DUP5 PUSH2 0x12B0 JUMP JUMPDEST SWAP3 SWAP2 POP POP JUMP JUMPDEST PUSH2 0x1450 DUP2 PUSH2 0x1287 JUMP JUMPDEST DUP2 EQ PUSH2 0x145A JUMPI PUSH0 PUSH0 REVERT JUMPDEST POP JUMP JUMPDEST PUSH0 DUP2 CALLDATALOAD SWAP1 POP PUSH2 0x146B DUP2 PUSH2 0x1447 JUMP JUMPDEST SWAP3 SWAP2 POP POP JUMP JUMPDEST PUSH0 PUSH1 0x20 DUP3 DUP5 SUB SLT ISZERO PUSH2 0x1486 JUMPI PUSH2 0x1485 PUSH2 0x1319 JUMP JUMPDEST JUMPDEST PUSH0 PUSH2 0x1493 DUP5 DUP3 DUP6 ADD PUSH2 0x145D JUMP JUMPDEST SWAP2 POP POP SWAP3 SWAP2 POP POP JUMP JUMPDEST PUSH0 PUSH1 0x20 DUP3 ADD SWAP1 POP PUSH2 0x14AF PUSH0 DUP4 ADD DUP5 PUSH2 0x1298 JUMP JUMPDEST SWAP3 SWAP2 POP POP JUMP JUMPDEST PUSH0 DUP2 MLOAD SWAP1 POP SWAP2 SWAP1 POP JUMP JUMPDEST PUSH0 DUP3 DUP3 MSTORE PUSH1 0x20 DUP3 ADD SWAP1 POP SWAP3 SWAP2 POP POP JUMP JUMPDEST PUSH0 DUP2 SWAP1 POP PUSH1 0x20 DUP3 ADD SWAP1 POP SWAP2 SWAP1 POP JUMP JUMPDEST PUSH2 0x14E7 DUP2 PUSH2 0x1287 JUMP JUMPDEST DUP3 MSTORE POP POP JUMP JUMPDEST PUSH2 0x14F6 DUP2 PUSH2 0x12A7 JUMP JUMPDEST DUP3 MSTORE POP POP JUMP JUMPDEST PUSH1 0x80 DUP3 ADD PUSH0 DUP3 ADD MLOAD PUSH2 0x1510 PUSH0 DUP6 ADD DUP3 PUSH2 0x14DE JUMP JUMPDEST POP PUSH1 0x20 DUP3 ADD MLOAD PUSH2 0x1523 PUSH1 0x20 DUP6 ADD DUP3 PUSH2 0x14DE JUMP JUMPDEST POP PUSH1 0x40 DUP3 ADD MLOAD PUSH2 0x1536 PUSH1 0x40 DUP6 ADD DUP3 PUSH2 0x14ED JUMP JUMPDEST POP PUSH1 0x60 DUP3 ADD MLOAD PUSH2 0x1549 PUSH1 0x60 DUP6 ADD DUP3 PUSH2 0x14ED JUMP JUMPDEST POP POP POP POP JUMP JUMPDEST PUSH0 PUSH2 0x155A DUP4 DUP4 PUSH2 0x14FC JUMP JUMPDEST PUSH1 0x80 DUP4 ADD SWAP1 POP SWAP3 SWAP2 POP POP JUMP JUMPDEST PUSH0 PUSH1 0x20 DUP3 ADD SWAP1 POP SWAP2 SWAP1 POP JUMP JUMPDEST PUSH0 PUSH2 0x157C DUP3 PUSH2 0x14B5 JUMP JUMPDEST PUSH2 0x1586 DUP2 DUP6 PUSH2 0x14BF JUMP JUMPDEST SWAP4 POP PUSH2 0x1591 DUP4 PUSH2 0x14CF JUMP JUMPDEST DUP1 PUSH0 JUMPDEST DUP4 DUP2 LT ISZERO PUSH2 0x15C1 JUMPI DUP2 MLOAD PUSH2 0x15A8 DUP9 DUP3 PUSH2 0x154F JUMP JUMPDEST SWAP8 POP PUSH2 0x15B3 DUP4 PUSH2 0x1566 JUMP JUMPDEST SWAP3 POP POP PUSH1 0x1 DUP2 ADD SWAP1 POP PUSH2 0x1594 JUMP JUMPDEST POP DUP6 SWAP4 POP POP POP POP SWAP3 SWAP2 POP POP JUMP JUMPDEST PUSH0 PUSH1 0x20 DUP3 ADD SWAP1 POP DUP2 DUP2 SUB PUSH0 DUP4 ADD MSTORE PUSH2 0x15E6 DUP2 DUP5 PUSH2 0x1572 JUMP JUMPDEST SWAP1 POP SWAP3 SWAP2 POP POP JUMP JUMPDEST PUSH0 DUP2 MLOAD SWAP1 POP SWAP2 SWAP1 POP JUMP JUMPDEST PUSH0 DUP3 DUP3 MSTORE PUSH1 0x20 DUP3 ADD SWAP1 POP SWAP3 SWAP2 POP POP JUMP JUMPDEST DUP3 DUP2 DUP4 MCOPY PUSH0 DUP4 DUP4 ADD MSTORE POP POP POP JUMP JUMPDEST PUSH0 PUSH1 0x1F NOT PUSH1 0x1F DUP4 ADD AND SWAP1 POP SWAP2 SWAP1 POP JUMP JUMPDEST PUSH0 PUSH2 0x1630 DUP3 PUSH2 0x15EE JUMP JUMPDEST PUSH2 0x163A DUP2 DUP6 PUSH2 0x15F8 JUMP JUMPDEST SWAP4 POP PUSH2 0x164A DUP2 DUP6 PUSH1 0x20 DUP7 ADD PUSH2 0x1608 JUMP JUMPDEST PUSH2 0x1653 DUP2 PUSH2 0x1616 JUMP JUMPDEST DUP5 ADD SWAP2 POP POP SWAP3 SWAP2 POP POP JUMP JUMPDEST PUSH0 PUSH1 0x20 DUP3 ADD SWAP1 POP DUP2 DUP2 SUB PUSH0 DUP4 ADD MSTORE PUSH2 0x1676 DUP2 DUP5 PUSH2 0x1626 JUMP JUMPDEST SWAP1 POP SWAP3 SWAP2 POP POP JUMP JUMPDEST PUSH32 0x596F7520646F6E74206861766520616363657373000000000000000000000000 PUSH0 DUP3 ADD MSTORE POP JUMP JUMPDEST PUSH0 PUSH2 0x16B2 PUSH1 0x14 DUP4 PUSH2 0x15F8 JUMP JUMPDEST SWAP2 POP PUSH2 0x16BD DUP3 PUSH2 0x167E JUMP JUMPDEST PUSH1 0x20 DUP3 ADD SWAP1 POP SWAP2 SWAP1 POP JUMP JUMPDEST PUSH0 PUSH1 0x20 DUP3 ADD SWAP1 POP DUP2 DUP2 SUB PUSH0 DUP4 ADD MSTORE PUSH2 0x16DF DUP2 PUSH2 0x16A6 JUMP JUMPDEST SWAP1 POP SWAP2 SWAP1 POP JUMP JUMPDEST PUSH32 0x496E73756666696369656E742042616C616E6365000000000000000000000000 PUSH0 DUP3 ADD MSTORE POP JUMP JUMPDEST PUSH0 PUSH2 0x171A PUSH1 0x14 DUP4 PUSH2 0x15F8 JUMP JUMPDEST SWAP2 POP PUSH2 0x1725 DUP3 PUSH2 0x16E6 JUMP JUMPDEST PUSH1 0x20 DUP3 ADD SWAP1 POP SWAP2 SWAP1 POP JUMP JUMPDEST PUSH0 PUSH1 0x20 DUP3 ADD SWAP1 POP DUP2 DUP2 SUB PUSH0 DUP4 ADD MSTORE PUSH2 0x1747 DUP2 PUSH2 0x170E JUMP JUMPDEST SWAP1 POP SWAP2 SWAP1 POP JUMP JUMPDEST PUSH0 DUP2 SWAP1 POP SWAP2 SWAP1 POP JUMP JUMPDEST PUSH0 PUSH2 0x1771 PUSH2 0x176C PUSH2 0x1767 DUP5 PUSH2 0x1268 JUMP JUMPDEST PUSH2 0x174E JUMP JUMPDEST PUSH2 0x1268 JUMP JUMPDEST SWAP1 POP SWAP2 SWAP1 POP JUMP JUMPDEST PUSH0 PUSH2 0x1782 DUP3 PUSH2 0x1757 JUMP JUMPDEST SWAP1 POP SWAP2 SWAP1 POP JUMP JUMPDEST PUSH0 PUSH2 0x1793 DUP3 PUSH2 0x1778 JUMP JUMPDEST SWAP1 POP SWAP2 SWAP1 POP JUMP JUMPDEST PUSH2 0x17A3 DUP2 PUSH2 0x1789 JUMP JUMPDEST DUP3 MSTORE POP POP JUMP JUMPDEST PUSH0 PUSH1 0x40 DUP3 ADD SWAP1 POP PUSH2 0x17BC PUSH0 DUP4 ADD DUP6 PUSH2 0x179A JUMP JUMPDEST PUSH2 0x17C9 PUSH1 0x20 DUP4 ADD DUP5 PUSH2 0x12B0 JUMP JUMPDEST SWAP4 SWAP3 POP POP POP JUMP JUMPDEST PUSH32 0x4E487B7100000000000000000000000000000000000000000000000000000000 PUSH0 MSTORE PUSH1 0x22 PUSH1 0x4 MSTORE PUSH1 0x24 PUSH0 REVERT JUMPDEST PUSH0 PUSH1 0x2 DUP3 DIV SWAP1 POP PUSH1 0x1 DUP3 AND DUP1 PUSH2 0x1814 JUMPI PUSH1 0x7F DUP3 AND SWAP2 POP JUMPDEST PUSH1 0x20 DUP3 LT DUP2 SUB PUSH2 0x1827 JUMPI PUSH2 0x1826 PUSH2 0x17D0 JUMP JUMPDEST JUMPDEST POP SWAP2 SWAP1 POP JUMP JUMPDEST PUSH0 PUSH1 0x60 DUP3 ADD SWAP1 POP PUSH2 0x1840 PUSH0 DUP4 ADD DUP7 PUSH2 0x1298 JUMP JUMPDEST PUSH2 0x184D PUSH1 0x20 DUP4 ADD DUP6 PUSH2 0x1298 JUMP JUMPDEST PUSH2 0x185A PUSH1 0x40 DUP4 ADD DUP5 PUSH2 0x12B0 JUMP JUMPDEST SWAP5 SWAP4 POP POP POP POP JUMP INVALID LOG2 PUSH5 0x6970667358 0x22 SLT KECCAK256 0xCE PUSH0 0x27 NUMBER JUMP 0xE8 DELEGATECALL SWAP13 BLOBHASH 0xDC 0x4E 0xB2 0xE7 0xF8 DUP5 0xE1 SAR EXTCODECOPY 0xCF SWAP6 NOT DUP7 PUSH6 0x4F47492F20E7 0xB8 MSIZE 0xB5 PUSH5 0x736F6C6343 STOP ADDMOD SHL STOP CALLER "
				},
				"gasEstimates": {
					"creation": {
						"codeDepositCost": "1259200",
						"executionCost": "25571",
						"totalCost": "1284771"
					},
					"external": {
						"": "infinite",
						"changOwner(address)": "26972",
						"emergencyWithdrawl()": "infinite",
						"getContractBalanceInWei()": "423",
						"getOwnerBalanceInWei()": "5096",
						"getTransactionHistory()": "infinite",
						"owner()": "2597",
						"receiveFromUser()": "infinite",
						"stop()": "2490",
						"str()": "infinite",
						"suspiciousActivity(address)": "493",
						"toggleStop()": "2619",
						"transactionHistory(uint256)": "infinite",
						"transferToContract()": "117401",
						"transferToUserViaContract(address,uint256)": "infinite",
						"transferToUserViaMsgValue(address)": "infinite",
						"withdrawFromContract(uint256)": "infinite"
					}
				},
				"methodIdentifiers": {
					"changOwner(address)": "eb2d9fd3",
					"emergencyWithdrawl()": "7935e5a3",
					"getContractBalanceInWei()": "bfa698de",
					"getOwnerBalanceInWei()": "547fbe8e",
					"getTransactionHistory()": "b76d4fc3",
					"owner()": "8da5cb5b",
					"receiveFromUser()": "d2b53948",
					"stop()": "07da68f5",
					"str()": "c15bae84",
					"suspiciousActivity(address)": "cf87f052",
					"toggleStop()": "9a70eef1",
					"transactionHistory(uint256)": "243e7a87",
					"transferToContract()": "12cccb34",
					"transferToUserViaContract(address,uint256)": "47cdcc1f",
					"transferToUserViaMsgValue(address)": "6f3f42ac",
					"withdrawFromContract(uint256)": "aeae547d"
				}
			},
			"storageLayout": {
				"storage": [
					{
						"astId": 14,
						"contract": "contracts/wallet.sol:SimpleWallet",
						"label": "transactionHistory",
						"offset": 0,
						"slot": "0",
						"type": "t_array(t_struct(Transaction)10_storage)dyn_storage"
					},
					{
						"astId": 16,
						"contract": "contracts/wallet.sol:SimpleWallet",
						"label": "owner",
						"offset": 0,
						"slot": "1",
						"type": "t_address"
					},
					{
						"astId": 18,
						"contract": "contracts/wallet.sol:SimpleWallet",
						"label": "str",
						"offset": 0,
						"slot": "2",
						"type": "t_string_storage"
					},
					{
						"astId": 20,
						"contract": "contracts/wallet.sol:SimpleWallet",
						"label": "stop",
						"offset": 0,
						"slot": "3",
						"type": "t_bool"
					},
					{
						"astId": 65,
						"contract": "contracts/wallet.sol:SimpleWallet",
						"label": "suspiciousUser",
						"offset": 0,
						"slot": "4",
						"type": "t_mapping(t_address,t_uint256)"
					}
				],
				"types": {
					"t_address": {
						"encoding": "inplace",
						"label": "address",
						"numberOfBytes": "20"
					},
					"t_array(t_struct(Transaction)10_storage)dyn_storage": {
						"base": "t_struct(Transaction)10_storage",
						"encoding": "dynamic_array",
						"label": "struct SimpleWallet.Transaction[]",
						"numberOfBytes": "32"
					},
					"t_bool": {
						"encoding": "inplace",
						"label": "bool",
						"numberOfBytes": "1"
					},
					"t_mapping(t_address,t_uint256)": {
						"encoding": "mapping",
						"key": "t_address",
						"label": "mapping(address => uint256)",
						"numberOfBytes": "32",
						"value": "t_uint256"
					},
					"t_string_storage": {
						"encoding": "bytes",
						"label": "string",
						"numberOfBytes": "32"
					},
					"t_struct(Transaction)10_storage": {
						"encoding": "inplace",
						"label": "struct SimpleWallet.Transaction",
						"members": [
							{
								"astId": 3,
								"contract": "contracts/wallet.sol:SimpleWallet",
								"label": "from",
								"offset": 0,
								"slot": "0",
								"type": "t_address"
							},
							{
								"astId": 5,
								"contract": "contracts/wallet.sol:SimpleWallet",
								"label": "to",
								"offset": 0,
								"slot": "1",
								"type": "t_address"
							},
							{
								"astId": 7,
								"contract": "contracts/wallet.sol:SimpleWallet",
								"label": "timestamp",
								"offset": 0,
								"slot": "2",
								"type": "t_uint256"
							},
							{
								"astId": 9,
								"contract": "contracts/wallet.sol:SimpleWallet",
								"label": "amount",
								"offset": 0,
								"slot": "3",
								"type": "t_uint256"
							}
						],
						"numberOfBytes": "128"
					},
					"t_uint256": {
						"encoding": "inplace",
						"label": "uint256",
						"numberOfBytes": "32"
					}
				}
			},
			"userdoc": {
				"kind": "user",
				"methods": {
					"transferToContract()": {
						"notice": "Contract related functions*"
					},
					"transferToUserViaMsgValue(address)": {
						"notice": "User related functio ns*"
					}
				},
				"version": 1
			}
		}
	}
}