{
	"contracts/twitter.sol": {
		"Twitter": {
			"abi": [
				{
					"inputs": [
						{
							"internalType": "address",
							"name": "_operator",
							"type": "address"
						}
					],
					"name": "allow",
					"outputs": [],
					"stateMutability": "nonpayable",
					"type": "function"
				},
				{
					"inputs": [
						{
							"internalType": "address",
							"name": "_operator",
							"type": "address"
						}
					],
					"name": "disallow",
					"outputs": [],
					"stateMutability": "nonpayable",
					"type": "function"
				},
				{
					"inputs": [
						{
							"internalType": "address",
							"name": "_followed",
							"type": "address"
						}
					],
					"name": "follow",
					"outputs": [],
					"stateMutability": "nonpayable",
					"type": "function"
				},
				{
					"inputs": [],
					"name": "getLatestTweets",
					"outputs": [
						{
							"components": [
								{
									"internalType": "uint256",
									"name": "id",
									"type": "uint256"
								},
								{
									"internalType": "address",
									"name": "author",
									"type": "address"
								},
								{
									"internalType": "string",
									"name": "content",
									"type": "string"
								},
								{
									"internalType": "uint256",
									"name": "creationTimestamp",
									"type": "uint256"
								}
							],
							"internalType": "struct Twitter.Tweet[]",
							"name": "",
							"type": "tuple[]"
						}
					],
					"stateMutability": "view",
					"type": "function"
				},
				{
					"inputs": [
						{
							"internalType": "address",
							"name": "user",
							"type": "address"
						}
					],
					"name": "getLatestTweetsOf",
					"outputs": [
						{
							"components": [
								{
									"internalType": "uint256",
									"name": "id",
									"type": "uint256"
								},
								{
									"internalType": "address",
									"name": "author",
									"type": "address"
								},
								{
									"internalType": "string",
									"name": "content",
									"type": "string"
								},
								{
									"internalType": "uint256",
									"name": "creationTimestamp",
									"type": "uint256"
								}
							],
							"internalType": "struct Twitter.Tweet[]",
							"name": "",
							"type": "tuple[]"
						}
					],
					"stateMutability": "view",
					"type": "function"
				},
				{
					"inputs": [],
					"name": "messageCounter",
					"outputs": [
						{
							"internalType": "uint256",
							"name": "",
							"type": "uint256"
						}
					],
					"stateMutability": "view",
					"type": "function"
				},
				{
					"inputs": [
						{
							"internalType": "address",
							"name": "_from",
							"type": "address"
						},
						{
							"internalType": "address",
							"name": "_to",
							"type": "address"
						},
						{
							"internalType": "string",
							"name": "_content",
							"type": "string"
						}
					],
					"name": "sendMessage",
					"outputs": [],
					"stateMutability": "nonpayable",
					"type": "function"
				},
				{
					"inputs": [
						{
							"internalType": "string",
							"name": "_content",
							"type": "string"
						},
						{
							"internalType": "address",
							"name": "_to",
							"type": "address"
						}
					],
					"name": "sendMessage",
					"outputs": [],
					"stateMutability": "nonpayable",
					"type": "function"
				},
				{
					"inputs": [
						{
							"internalType": "address",
							"name": "_from",
							"type": "address"
						},
						{
							"internalType": "string",
							"name": "_content",
							"type": "string"
						}
					],
					"name": "tweet",
					"outputs": [],
					"stateMutability": "nonpayable",
					"type": "function"
				},
				{
					"inputs": [
						{
							"internalType": "string",
							"name": "_content",
							"type": "string"
						}
					],
					"name": "tweet",
					"outputs": [],
					"stateMutability": "nonpayable",
					"type": "function"
				},
				{
					"inputs": [],
					"name": "tweetCounter",
					"outputs": [
						{
							"internalType": "uint256",
							"name": "",
							"type": "uint256"
						}
					],
					"stateMutability": "view",
					"type": "function"
				}
			],
			"devdoc": {
				"kind": "dev",
				"methods": {
					"tweet(address,string)": {
						"details": "This function is internal and should not be called directly.",
						"params": {
							"_content": "The content of the tweet.",
							"_from": "The address of the user posting the tweet."
						}
					}
				},
				"version": 1
			},
			"evm": {
				"assembly": "    /* \"contracts/twitter.sol\":853:6199  contract Twitter {... */\n  mstore(0x40, 0x80)\n  callvalue\n  dup1\n  iszero\n  tag_1\n  jumpi\n  revert(0x00, 0x00)\ntag_1:\n  pop\n  dataSize(sub_0)\n  dup1\n  dataOffset(sub_0)\n  0x00\n  codecopy\n  0x00\n  return\nstop\n\nsub_0: assembly {\n        /* \"contracts/twitter.sol\":853:6199  contract Twitter {... */\n      mstore(0x40, 0x80)\n      callvalue\n      dup1\n      iszero\n      tag_1\n      jumpi\n      revert(0x00, 0x00)\n    tag_1:\n      pop\n      jumpi(tag_2, lt(calldatasize, 0x04))\n      shr(0xe0, calldataload(0x00))\n      dup1\n      0xa9ed9cb8\n      gt\n      tag_14\n      jumpi\n      dup1\n      0xa9ed9cb8\n      eq\n      tag_8\n      jumpi\n      dup1\n      0xb88e318d\n      eq\n      tag_9\n      jumpi\n      dup1\n      0xc48d6d5e\n      eq\n      tag_10\n      jumpi\n      dup1\n      0xd21d1596\n      eq\n      tag_11\n      jumpi\n      dup1\n      0xfb46d4c5\n      eq\n      tag_12\n      jumpi\n      dup1\n      0xff9913e8\n      eq\n      tag_13\n      jumpi\n      jump(tag_2)\n    tag_14:\n      dup1\n      0x22b13ac8\n      eq\n      tag_3\n      jumpi\n      dup1\n      0x37e10941\n      eq\n      tag_4\n      jumpi\n      dup1\n      0x4dbf27cc\n      eq\n      tag_5\n      jumpi\n      dup1\n      0x529c7588\n      eq\n      tag_6\n      jumpi\n      dup1\n      0x9fd412ab\n      eq\n      tag_7\n      jumpi\n    tag_2:\n      revert(0x00, 0x00)\n        /* \"contracts/twitter.sol\":1403:1430  uint256 public tweetCounter */\n    tag_3:\n      tag_15\n      tag_16\n      jump\t// in\n    tag_15:\n      mload(0x40)\n      tag_17\n      swap2\n      swap1\n      tag_18\n      jump\t// in\n    tag_17:\n      mload(0x40)\n      dup1\n      swap2\n      sub\n      swap1\n      return\n        /* \"contracts/twitter.sol\":5172:5447  function getLatestTweets() public view returns (Tweet[] memory) {... */\n    tag_4:\n      tag_19\n      tag_20\n      jump\t// in\n    tag_19:\n      mload(0x40)\n      tag_21\n      swap2\n      swap1\n      tag_22\n      jump\t// in\n    tag_21:\n      mload(0x40)\n      dup1\n      swap2\n      sub\n      swap1\n      return\n        /* \"contracts/twitter.sol\":4620:4716  function follow(address _followed) public {... */\n    tag_5:\n      tag_23\n      0x04\n      dup1\n      calldatasize\n      sub\n      dup2\n      add\n      swap1\n      tag_24\n      swap2\n      swap1\n      tag_25\n      jump\t// in\n    tag_24:\n      tag_26\n      jump\t// in\n    tag_23:\n      stop\n        /* \"contracts/twitter.sol\":1436:1465  uint256 public messageCounter */\n    tag_6:\n      tag_27\n      tag_28\n      jump\t// in\n    tag_27:\n      mload(0x40)\n      tag_29\n      swap2\n      swap1\n      tag_18\n      jump\t// in\n    tag_29:\n      mload(0x40)\n      dup1\n      swap2\n      sub\n      swap1\n      return\n        /* \"contracts/twitter.sol\":5551:6197  function getLatestTweetsOf(address user)... */\n    tag_7:\n      tag_30\n      0x04\n      dup1\n      calldatasize\n      sub\n      dup2\n      add\n      swap1\n      tag_31\n      swap2\n      swap1\n      tag_25\n      jump\t// in\n    tag_31:\n      tag_32\n      jump\t// in\n    tag_30:\n      mload(0x40)\n      tag_33\n      swap2\n      swap1\n      tag_22\n      jump\t// in\n    tag_33:\n      mload(0x40)\n      dup1\n      swap2\n      sub\n      swap1\n      return\n        /* \"contracts/twitter.sol\":4986:5086  function disallow(address _operator) public {... */\n    tag_8:\n      tag_34\n      0x04\n      dup1\n      calldatasize\n      sub\n      dup2\n      add\n      swap1\n      tag_35\n      swap2\n      swap1\n      tag_25\n      jump\t// in\n    tag_35:\n      tag_36\n      jump\t// in\n    tag_34:\n      stop\n        /* \"contracts/twitter.sol\":4101:4542  function sendMessage(... */\n    tag_9:\n      tag_37\n      0x04\n      dup1\n      calldatasize\n      sub\n      dup2\n      add\n      swap1\n      tag_38\n      swap2\n      swap1\n      tag_39\n      jump\t// in\n    tag_38:\n      tag_40\n      jump\t// in\n    tag_37:\n      stop\n        /* \"contracts/twitter.sol\":3590:3965  function sendMessage(string memory _content, address _to) public {... */\n    tag_10:\n      tag_41\n      0x04\n      dup1\n      calldatasize\n      sub\n      dup2\n      add\n      swap1\n      tag_42\n      swap2\n      swap1\n      tag_43\n      jump\t// in\n    tag_42:\n      tag_44\n      jump\t// in\n    tag_41:\n      stop\n        /* \"contracts/twitter.sol\":3170:3494  function tweet(address _from, string memory _content)... */\n    tag_11:\n      tag_45\n      0x04\n      dup1\n      calldatasize\n      sub\n      dup2\n      add\n      swap1\n      tag_46\n      swap2\n      swap1\n      tag_47\n      jump\t// in\n    tag_46:\n      tag_48\n      jump\t// in\n    tag_45:\n      stop\n        /* \"contracts/twitter.sol\":2540:2808  function tweet(string memory _content) public {... */\n    tag_12:\n      tag_49\n      0x04\n      dup1\n      calldatasize\n      sub\n      dup2\n      add\n      swap1\n      tag_50\n      swap2\n      swap1\n      tag_51\n      jump\t// in\n    tag_50:\n      tag_52\n      jump\t// in\n    tag_49:\n      stop\n        /* \"contracts/twitter.sol\":4795:4891  function allow(address _operator) public {... */\n    tag_13:\n      tag_53\n      0x04\n      dup1\n      calldatasize\n      sub\n      dup2\n      add\n      swap1\n      tag_54\n      swap2\n      swap1\n      tag_25\n      jump\t// in\n    tag_54:\n      tag_55\n      jump\t// in\n    tag_53:\n      stop\n        /* \"contracts/twitter.sol\":1403:1430  uint256 public tweetCounter */\n    tag_16:\n      sload(0x00)\n      dup2\n      jump\t// out\n        /* \"contracts/twitter.sol\":5172:5447  function getLatestTweets() public view returns (Tweet[] memory) {... */\n    tag_20:\n        /* \"contracts/twitter.sol\":5220:5234  Tweet[] memory */\n      0x60\n        /* \"contracts/twitter.sol\":5246:5275  Tweet[] memory latestTweetArr */\n      0x00\n        /* \"contracts/twitter.sol\":5290:5302  tweetCounter */\n      sload(0x00)\n        /* \"contracts/twitter.sol\":5278:5303  new Tweet[](tweetCounter) */\n      0xffffffffffffffff\n      dup2\n      gt\n      iszero\n      tag_57\n      jumpi\n      tag_58\n      tag_59\n      jump\t// in\n    tag_58:\n    tag_57:\n      mload(0x40)\n      swap1\n      dup1\n      dup3\n      mstore\n      dup1\n      0x20\n      mul\n      0x20\n      add\n      dup3\n      add\n      0x40\n      mstore\n      dup1\n      iszero\n      tag_60\n      jumpi\n      dup2\n      0x20\n      add\n    tag_61:\n      tag_62\n      tag_63\n      jump\t// in\n    tag_62:\n      dup2\n      mstore\n      0x20\n      add\n      swap1\n      0x01\n      swap1\n      sub\n      swap1\n      dup2\n      tag_61\n      jumpi\n      swap1\n      pop\n    tag_60:\n      pop\n        /* \"contracts/twitter.sol\":5246:5303  Tweet[] memory latestTweetArr = new Tweet[](tweetCounter) */\n      swap1\n      pop\n        /* \"contracts/twitter.sol\":5318:5327  uint256 i */\n      0x00\n        /* \"contracts/twitter.sol\":5330:5331  0 */\n      0x00\n        /* \"contracts/twitter.sol\":5318:5331  uint256 i = 0 */\n      swap1\n      pop\n        /* \"contracts/twitter.sol\":5313:5410  for (uint256 i = 0; i < tweetCounter; i++) {... */\n    tag_64:\n        /* \"contracts/twitter.sol\":5337:5349  tweetCounter */\n      sload(0x00)\n        /* \"contracts/twitter.sol\":5333:5334  i */\n      dup2\n        /* \"contracts/twitter.sol\":5333:5349  i < tweetCounter */\n      lt\n        /* \"contracts/twitter.sol\":5313:5410  for (uint256 i = 0; i < tweetCounter; i++) {... */\n      iszero\n      tag_65\n      jumpi\n        /* \"contracts/twitter.sol\":5390:5396  tweets */\n      0x02\n        /* \"contracts/twitter.sol\":5390:5399  tweets[i] */\n      0x00\n        /* \"contracts/twitter.sol\":5397:5398  i */\n      dup3\n        /* \"contracts/twitter.sol\":5390:5399  tweets[i] */\n      dup2\n      mstore\n      0x20\n      add\n      swap1\n      dup2\n      mstore\n      0x20\n      add\n      0x00\n      keccak256\n        /* \"contracts/twitter.sol\":5370:5399  latestTweetArr[i] = tweets[i] */\n      mload(0x40)\n      dup1\n      0x80\n      add\n      0x40\n      mstore\n      swap1\n      dup2\n      0x00\n      dup3\n      add\n      sload\n      dup2\n      mstore\n      0x20\n      add\n      0x01\n      dup3\n      add\n      0x00\n      swap1\n      sload\n      swap1\n      0x0100\n      exp\n      swap1\n      div\n      0xffffffffffffffffffffffffffffffffffffffff\n      and\n      0xffffffffffffffffffffffffffffffffffffffff\n      and\n      0xffffffffffffffffffffffffffffffffffffffff\n      and\n      dup2\n      mstore\n      0x20\n      add\n      0x02\n      dup3\n      add\n      dup1\n      sload\n      tag_67\n      swap1\n      tag_68\n      jump\t// in\n    tag_67:\n      dup1\n      0x1f\n      add\n      0x20\n      dup1\n      swap2\n      div\n      mul\n      0x20\n      add\n      mload(0x40)\n      swap1\n      dup2\n      add\n      0x40\n      mstore\n      dup1\n      swap3\n      swap2\n      swap1\n      dup2\n      dup2\n      mstore\n      0x20\n      add\n      dup3\n      dup1\n      sload\n      tag_69\n      swap1\n      tag_68\n      jump\t// in\n    tag_69:\n      dup1\n      iszero\n      tag_70\n      jumpi\n      dup1\n      0x1f\n      lt\n      tag_71\n      jumpi\n      0x0100\n      dup1\n      dup4\n      sload\n      div\n      mul\n      dup4\n      mstore\n      swap2\n      0x20\n      add\n      swap2\n      jump(tag_70)\n    tag_71:\n      dup3\n      add\n      swap2\n      swap1\n      0x00\n      mstore\n      keccak256(0x00, 0x20)\n      swap1\n    tag_72:\n      dup2\n      sload\n      dup2\n      mstore\n      swap1\n      0x01\n      add\n      swap1\n      0x20\n      add\n      dup1\n      dup4\n      gt\n      tag_72\n      jumpi\n      dup3\n      swap1\n      sub\n      0x1f\n      and\n      dup3\n      add\n      swap2\n    tag_70:\n      pop\n      pop\n      pop\n      pop\n      pop\n      dup2\n      mstore\n      0x20\n      add\n      0x03\n      dup3\n      add\n      sload\n      dup2\n      mstore\n      pop\n      pop\n        /* \"contracts/twitter.sol\":5370:5384  latestTweetArr */\n      dup3\n        /* \"contracts/twitter.sol\":5385:5386  i */\n      dup3\n        /* \"contracts/twitter.sol\":5370:5387  latestTweetArr[i] */\n      dup2\n      mload\n      dup2\n      lt\n      tag_73\n      jumpi\n      tag_74\n      tag_75\n      jump\t// in\n    tag_74:\n    tag_73:\n      0x20\n      mul\n      0x20\n      add\n      add\n        /* \"contracts/twitter.sol\":5370:5399  latestTweetArr[i] = tweets[i] */\n      dup2\n      swap1\n      mstore\n      pop\n        /* \"contracts/twitter.sol\":5351:5354  i++ */\n      dup1\n      dup1\n      0x01\n      add\n      swap2\n      pop\n      pop\n        /* \"contracts/twitter.sol\":5313:5410  for (uint256 i = 0; i < tweetCounter; i++) {... */\n      jump(tag_64)\n    tag_65:\n      pop\n        /* \"contracts/twitter.sol\":5426:5440  latestTweetArr */\n      dup1\n        /* \"contracts/twitter.sol\":5419:5440  return latestTweetArr */\n      swap2\n      pop\n      pop\n        /* \"contracts/twitter.sol\":5172:5447  function getLatestTweets() public view returns (Tweet[] memory) {... */\n      swap1\n      jump\t// out\n        /* \"contracts/twitter.sol\":4620:4716  function follow(address _followed) public {... */\n    tag_26:\n        /* \"contracts/twitter.sol\":4672:4681  following */\n      0x06\n        /* \"contracts/twitter.sol\":4672:4693  following[msg.sender] */\n      0x00\n        /* \"contracts/twitter.sol\":4682:4692  msg.sender */\n      caller\n        /* \"contracts/twitter.sol\":4672:4693  following[msg.sender] */\n      0xffffffffffffffffffffffffffffffffffffffff\n      and\n      0xffffffffffffffffffffffffffffffffffffffff\n      and\n      dup2\n      mstore\n      0x20\n      add\n      swap1\n      dup2\n      mstore\n      0x20\n      add\n      0x00\n      keccak256\n        /* \"contracts/twitter.sol\":4699:4708  _followed */\n      dup2\n        /* \"contracts/twitter.sol\":4672:4709  following[msg.sender].push(_followed) */\n      swap1\n      dup1\n      0x01\n      dup2\n      sload\n      add\n      dup1\n      dup3\n      sstore\n      dup1\n      swap2\n      pop\n      pop\n      0x01\n      swap1\n      sub\n      swap1\n      0x00\n      mstore\n      keccak256(0x00, 0x20)\n      add\n      0x00\n      swap1\n      swap2\n      swap1\n      swap2\n      swap1\n      swap2\n      0x0100\n      exp\n      dup2\n      sload\n      dup2\n      0xffffffffffffffffffffffffffffffffffffffff\n      mul\n      not\n      and\n      swap1\n      dup4\n      0xffffffffffffffffffffffffffffffffffffffff\n      and\n      mul\n      or\n      swap1\n      sstore\n      pop\n        /* \"contracts/twitter.sol\":4620:4716  function follow(address _followed) public {... */\n      pop\n      jump\t// out\n        /* \"contracts/twitter.sol\":1436:1465  uint256 public messageCounter */\n    tag_28:\n      sload(0x01)\n      dup2\n      jump\t// out\n        /* \"contracts/twitter.sol\":5551:6197  function getLatestTweetsOf(address user)... */\n    tag_32:\n        /* \"contracts/twitter.sol\":5637:5651  Tweet[] memory */\n      0x60\n        /* \"contracts/twitter.sol\":5667:5683  uint userCounter */\n      0x00\n        /* \"contracts/twitter.sol\":5684:5685  0 */\n      0x00\n        /* \"contracts/twitter.sol\":5667:5685  uint userCounter=0 */\n      swap1\n      pop\n        /* \"contracts/twitter.sol\":5700:5709  uint256 i */\n      0x00\n        /* \"contracts/twitter.sol\":5712:5713  0 */\n      0x00\n        /* \"contracts/twitter.sol\":5700:5713  uint256 i = 0 */\n      swap1\n      pop\n        /* \"contracts/twitter.sol\":5695:5838  for (uint256 i = 0; i < tweetCounter; i++) {... */\n    tag_79:\n        /* \"contracts/twitter.sol\":5719:5731  tweetCounter */\n      sload(0x00)\n        /* \"contracts/twitter.sol\":5715:5716  i */\n      dup2\n        /* \"contracts/twitter.sol\":5715:5731  i < tweetCounter */\n      lt\n        /* \"contracts/twitter.sol\":5695:5838  for (uint256 i = 0; i < tweetCounter; i++) {... */\n      iszero\n      tag_80\n      jumpi\n        /* \"contracts/twitter.sol\":5776:5780  user */\n      dup4\n        /* \"contracts/twitter.sol\":5756:5780  tweets[i].author == user */\n      0xffffffffffffffffffffffffffffffffffffffff\n      and\n        /* \"contracts/twitter.sol\":5756:5762  tweets */\n      0x02\n        /* \"contracts/twitter.sol\":5756:5765  tweets[i] */\n      0x00\n        /* \"contracts/twitter.sol\":5763:5764  i */\n      dup4\n        /* \"contracts/twitter.sol\":5756:5765  tweets[i] */\n      dup2\n      mstore\n      0x20\n      add\n      swap1\n      dup2\n      mstore\n      0x20\n      add\n      0x00\n      keccak256\n        /* \"contracts/twitter.sol\":5756:5772  tweets[i].author */\n      0x01\n      add\n      0x00\n      swap1\n      sload\n      swap1\n      0x0100\n      exp\n      swap1\n      div\n      0xffffffffffffffffffffffffffffffffffffffff\n      and\n        /* \"contracts/twitter.sol\":5756:5780  tweets[i].author == user */\n      0xffffffffffffffffffffffffffffffffffffffff\n      and\n      sub\n        /* \"contracts/twitter.sol\":5752:5828  if (tweets[i].author == user) {... */\n      tag_82\n      jumpi\n        /* \"contracts/twitter.sol\":5800:5813  userCounter++ */\n      dup2\n      dup1\n      tag_83\n      swap1\n      tag_84\n      jump\t// in\n    tag_83:\n      swap3\n      pop\n      pop\n        /* \"contracts/twitter.sol\":5752:5828  if (tweets[i].author == user) {... */\n    tag_82:\n        /* \"contracts/twitter.sol\":5733:5736  i++ */\n      dup1\n      dup1\n      0x01\n      add\n      swap2\n      pop\n      pop\n        /* \"contracts/twitter.sol\":5695:5838  for (uint256 i = 0; i < tweetCounter; i++) {... */\n      jump(tag_79)\n    tag_80:\n      pop\n        /* \"contracts/twitter.sol\":5848:5883  Tweet[] memory getLatestTweetsOfArr */\n      0x00\n        /* \"contracts/twitter.sol\":5898:5909  userCounter */\n      dup2\n        /* \"contracts/twitter.sol\":5886:5910  new Tweet[](userCounter) */\n      0xffffffffffffffff\n      dup2\n      gt\n      iszero\n      tag_85\n      jumpi\n      tag_86\n      tag_59\n      jump\t// in\n    tag_86:\n    tag_85:\n      mload(0x40)\n      swap1\n      dup1\n      dup3\n      mstore\n      dup1\n      0x20\n      mul\n      0x20\n      add\n      dup3\n      add\n      0x40\n      mstore\n      dup1\n      iszero\n      tag_87\n      jumpi\n      dup2\n      0x20\n      add\n    tag_88:\n      tag_89\n      tag_63\n      jump\t// in\n    tag_89:\n      dup2\n      mstore\n      0x20\n      add\n      swap1\n      0x01\n      swap1\n      sub\n      swap1\n      dup2\n      tag_88\n      jumpi\n      swap1\n      pop\n    tag_87:\n      pop\n        /* \"contracts/twitter.sol\":5848:5910  Tweet[] memory getLatestTweetsOfArr = new Tweet[](userCounter) */\n      swap1\n      pop\n        /* \"contracts/twitter.sol\":5920:5936  uint resultIndex */\n      0x00\n        /* \"contracts/twitter.sol\":5937:5938  0 */\n      0x00\n        /* \"contracts/twitter.sol\":5920:5938  uint resultIndex=0 */\n      swap1\n      pop\n        /* \"contracts/twitter.sol\":5953:5962  uint256 i */\n      0x00\n        /* \"contracts/twitter.sol\":5965:5966  0 */\n      0x00\n        /* \"contracts/twitter.sol\":5953:5966  uint256 i = 0 */\n      swap1\n      pop\n        /* \"contracts/twitter.sol\":5948:6154  for (uint256 i = 0; i < tweetCounter; i++) {... */\n    tag_90:\n        /* \"contracts/twitter.sol\":5972:5984  tweetCounter */\n      sload(0x00)\n        /* \"contracts/twitter.sol\":5968:5969  i */\n      dup2\n        /* \"contracts/twitter.sol\":5968:5984  i < tweetCounter */\n      lt\n        /* \"contracts/twitter.sol\":5948:6154  for (uint256 i = 0; i < tweetCounter; i++) {... */\n      iszero\n      tag_91\n      jumpi\n        /* \"contracts/twitter.sol\":6029:6033  user */\n      dup6\n        /* \"contracts/twitter.sol\":6009:6033  tweets[i].author == user */\n      0xffffffffffffffffffffffffffffffffffffffff\n      and\n        /* \"contracts/twitter.sol\":6009:6015  tweets */\n      0x02\n        /* \"contracts/twitter.sol\":6009:6018  tweets[i] */\n      0x00\n        /* \"contracts/twitter.sol\":6016:6017  i */\n      dup4\n        /* \"contracts/twitter.sol\":6009:6018  tweets[i] */\n      dup2\n      mstore\n      0x20\n      add\n      swap1\n      dup2\n      mstore\n      0x20\n      add\n      0x00\n      keccak256\n        /* \"contracts/twitter.sol\":6009:6025  tweets[i].author */\n      0x01\n      add\n      0x00\n      swap1\n      sload\n      swap1\n      0x0100\n      exp\n      swap1\n      div\n      0xffffffffffffffffffffffffffffffffffffffff\n      and\n        /* \"contracts/twitter.sol\":6009:6033  tweets[i].author == user */\n      0xffffffffffffffffffffffffffffffffffffffff\n      and\n      sub\n        /* \"contracts/twitter.sol\":6005:6144  if (tweets[i].author == user) {... */\n      tag_93\n      jumpi\n        /* \"contracts/twitter.sol\":6089:6095  tweets */\n      0x02\n        /* \"contracts/twitter.sol\":6089:6098  tweets[i] */\n      0x00\n        /* \"contracts/twitter.sol\":6096:6097  i */\n      dup3\n        /* \"contracts/twitter.sol\":6089:6098  tweets[i] */\n      dup2\n      mstore\n      0x20\n      add\n      swap1\n      dup2\n      mstore\n      0x20\n      add\n      0x00\n      keccak256\n        /* \"contracts/twitter.sol\":6053:6098  getLatestTweetsOfArr[resultIndex] = tweets[i] */\n      mload(0x40)\n      dup1\n      0x80\n      add\n      0x40\n      mstore\n      swap1\n      dup2\n      0x00\n      dup3\n      add\n      sload\n      dup2\n      mstore\n      0x20\n      add\n      0x01\n      dup3\n      add\n      0x00\n      swap1\n      sload\n      swap1\n      0x0100\n      exp\n      swap1\n      div\n      0xffffffffffffffffffffffffffffffffffffffff\n      and\n      0xffffffffffffffffffffffffffffffffffffffff\n      and\n      0xffffffffffffffffffffffffffffffffffffffff\n      and\n      dup2\n      mstore\n      0x20\n      add\n      0x02\n      dup3\n      add\n      dup1\n      sload\n      tag_94\n      swap1\n      tag_68\n      jump\t// in\n    tag_94:\n      dup1\n      0x1f\n      add\n      0x20\n      dup1\n      swap2\n      div\n      mul\n      0x20\n      add\n      mload(0x40)\n      swap1\n      dup2\n      add\n      0x40\n      mstore\n      dup1\n      swap3\n      swap2\n      swap1\n      dup2\n      dup2\n      mstore\n      0x20\n      add\n      dup3\n      dup1\n      sload\n      tag_95\n      swap1\n      tag_68\n      jump\t// in\n    tag_95:\n      dup1\n      iszero\n      tag_96\n      jumpi\n      dup1\n      0x1f\n      lt\n      tag_97\n      jumpi\n      0x0100\n      dup1\n      dup4\n      sload\n      div\n      mul\n      dup4\n      mstore\n      swap2\n      0x20\n      add\n      swap2\n      jump(tag_96)\n    tag_97:\n      dup3\n      add\n      swap2\n      swap1\n      0x00\n      mstore\n      keccak256(0x00, 0x20)\n      swap1\n    tag_98:\n      dup2\n      sload\n      dup2\n      mstore\n      swap1\n      0x01\n      add\n      swap1\n      0x20\n      add\n      dup1\n      dup4\n      gt\n      tag_98\n      jumpi\n      dup3\n      swap1\n      sub\n      0x1f\n      and\n      dup3\n      add\n      swap2\n    tag_96:\n      pop\n      pop\n      pop\n      pop\n      pop\n      dup2\n      mstore\n      0x20\n      add\n      0x03\n      dup3\n      add\n      sload\n      dup2\n      mstore\n      pop\n      pop\n        /* \"contracts/twitter.sol\":6053:6073  getLatestTweetsOfArr */\n      dup4\n        /* \"contracts/twitter.sol\":6074:6085  resultIndex */\n      dup4\n        /* \"contracts/twitter.sol\":6053:6086  getLatestTweetsOfArr[resultIndex] */\n      dup2\n      mload\n      dup2\n      lt\n      tag_99\n      jumpi\n      tag_100\n      tag_75\n      jump\t// in\n    tag_100:\n    tag_99:\n      0x20\n      mul\n      0x20\n      add\n      add\n        /* \"contracts/twitter.sol\":6053:6098  getLatestTweetsOfArr[resultIndex] = tweets[i] */\n      dup2\n      swap1\n      mstore\n      pop\n        /* \"contracts/twitter.sol\":6116:6129  resultIndex++ */\n      dup2\n      dup1\n      tag_101\n      swap1\n      tag_84\n      jump\t// in\n    tag_101:\n      swap3\n      pop\n      pop\n        /* \"contracts/twitter.sol\":6005:6144  if (tweets[i].author == user) {... */\n    tag_93:\n        /* \"contracts/twitter.sol\":5986:5989  i++ */\n      dup1\n      dup1\n      0x01\n      add\n      swap2\n      pop\n      pop\n        /* \"contracts/twitter.sol\":5948:6154  for (uint256 i = 0; i < tweetCounter; i++) {... */\n      jump(tag_90)\n    tag_91:\n      pop\n        /* \"contracts/twitter.sol\":6170:6190  getLatestTweetsOfArr */\n      dup2\n        /* \"contracts/twitter.sol\":6163:6190  return getLatestTweetsOfArr */\n      swap4\n      pop\n      pop\n      pop\n      pop\n        /* \"contracts/twitter.sol\":5551:6197  function getLatestTweetsOf(address user)... */\n      swap2\n      swap1\n      pop\n      jump\t// out\n        /* \"contracts/twitter.sol\":4986:5086  function disallow(address _operator) public {... */\n    tag_36:\n        /* \"contracts/twitter.sol\":5074:5079  false */\n      0x00\n        /* \"contracts/twitter.sol\":5041:5050  operators */\n      0x05\n        /* \"contracts/twitter.sol\":5041:5062  operators[msg.sender] */\n      0x00\n        /* \"contracts/twitter.sol\":5051:5061  msg.sender */\n      caller\n        /* \"contracts/twitter.sol\":5041:5062  operators[msg.sender] */\n      0xffffffffffffffffffffffffffffffffffffffff\n      and\n      0xffffffffffffffffffffffffffffffffffffffff\n      and\n      dup2\n      mstore\n      0x20\n      add\n      swap1\n      dup2\n      mstore\n      0x20\n      add\n      0x00\n      keccak256\n        /* \"contracts/twitter.sol\":5041:5073  operators[msg.sender][_operator] */\n      0x00\n        /* \"contracts/twitter.sol\":5063:5072  _operator */\n      dup4\n        /* \"contracts/twitter.sol\":5041:5073  operators[msg.sender][_operator] */\n      0xffffffffffffffffffffffffffffffffffffffff\n      and\n      0xffffffffffffffffffffffffffffffffffffffff\n      and\n      dup2\n      mstore\n      0x20\n      add\n      swap1\n      dup2\n      mstore\n      0x20\n      add\n      0x00\n      keccak256\n      0x00\n        /* \"contracts/twitter.sol\":5041:5079  operators[msg.sender][_operator]=false */\n      0x0100\n      exp\n      dup2\n      sload\n      dup2\n      0xff\n      mul\n      not\n      and\n      swap1\n      dup4\n      iszero\n      iszero\n      mul\n      or\n      swap1\n      sstore\n      pop\n        /* \"contracts/twitter.sol\":4986:5086  function disallow(address _operator) public {... */\n      pop\n      jump\t// out\n        /* \"contracts/twitter.sol\":4101:4542  function sendMessage(... */\n    tag_40:\n        /* \"contracts/twitter.sol\":4230:4235  _from */\n      dup3\n        /* \"contracts/twitter.sol\":1563:1567  true */\n      0x01\n        /* \"contracts/twitter.sol\":1533:1567  operators[_from][msg.sender]==true */\n      iszero\n      iszero\n        /* \"contracts/twitter.sol\":1533:1542  operators */\n      0x05\n        /* \"contracts/twitter.sol\":1533:1549  operators[_from] */\n      0x00\n        /* \"contracts/twitter.sol\":1543:1548  _from */\n      dup4\n        /* \"contracts/twitter.sol\":1533:1549  operators[_from] */\n      0xffffffffffffffffffffffffffffffffffffffff\n      and\n      0xffffffffffffffffffffffffffffffffffffffff\n      and\n      dup2\n      mstore\n      0x20\n      add\n      swap1\n      dup2\n      mstore\n      0x20\n      add\n      0x00\n      keccak256\n        /* \"contracts/twitter.sol\":1533:1561  operators[_from][msg.sender] */\n      0x00\n        /* \"contracts/twitter.sol\":1550:1560  msg.sender */\n      caller\n        /* \"contracts/twitter.sol\":1533:1561  operators[_from][msg.sender] */\n      0xffffffffffffffffffffffffffffffffffffffff\n      and\n      0xffffffffffffffffffffffffffffffffffffffff\n      and\n      dup2\n      mstore\n      0x20\n      add\n      swap1\n      dup2\n      mstore\n      0x20\n      add\n      0x00\n      keccak256\n      0x00\n      swap1\n      sload\n      swap1\n      0x0100\n      exp\n      swap1\n      div\n      0xff\n      and\n        /* \"contracts/twitter.sol\":1533:1567  operators[_from][msg.sender]==true */\n      iszero\n      iszero\n      eq\n        /* \"contracts/twitter.sol\":1525:1619  require(operators[_from][msg.sender]==true, \"You dont have permission to handle this Account\") */\n      tag_104\n      jumpi\n      mload(0x40)\n      0x08c379a000000000000000000000000000000000000000000000000000000000\n      dup2\n      mstore\n      0x04\n      add\n      tag_105\n      swap1\n      tag_106\n      jump\t// in\n    tag_105:\n      mload(0x40)\n      dup1\n      swap2\n      sub\n      swap1\n      revert\n    tag_104:\n        /* \"contracts/twitter.sol\":4247:4260  conversations */\n      0x04\n        /* \"contracts/twitter.sol\":4247:4272  conversations[msg.sender] */\n      0x00\n        /* \"contracts/twitter.sol\":4261:4271  msg.sender */\n      caller\n        /* \"contracts/twitter.sol\":4247:4272  conversations[msg.sender] */\n      0xffffffffffffffffffffffffffffffffffffffff\n      and\n      0xffffffffffffffffffffffffffffffffffffffff\n      and\n      dup2\n      mstore\n      0x20\n      add\n      swap1\n      dup2\n      mstore\n      0x20\n      add\n      0x00\n      keccak256\n        /* \"contracts/twitter.sol\":4291:4499  Message({... */\n      mload(0x40)\n      dup1\n      0xa0\n      add\n      0x40\n      mstore\n      dup1\n        /* \"contracts/twitter.sol\":4321:4335  messageCounter */\n      sload(0x01)\n        /* \"contracts/twitter.sol\":4291:4499  Message({... */\n      dup2\n      mstore\n      0x20\n      add\n        /* \"contracts/twitter.sol\":4362:4370  _content */\n      dup5\n        /* \"contracts/twitter.sol\":4291:4499  Message({... */\n      dup2\n      mstore\n      0x20\n      add\n        /* \"contracts/twitter.sol\":4396:4401  _from */\n      dup7\n        /* \"contracts/twitter.sol\":4291:4499  Message({... */\n      0xffffffffffffffffffffffffffffffffffffffff\n      and\n      dup2\n      mstore\n      0x20\n      add\n        /* \"contracts/twitter.sol\":4429:4432  _to */\n      dup6\n        /* \"contracts/twitter.sol\":4291:4499  Message({... */\n      0xffffffffffffffffffffffffffffffffffffffff\n      and\n      dup2\n      mstore\n      0x20\n      add\n        /* \"contracts/twitter.sol\":4469:4484  block.timestamp */\n      timestamp\n        /* \"contracts/twitter.sol\":4291:4499  Message({... */\n      dup2\n      mstore\n      pop\n        /* \"contracts/twitter.sol\":4247:4509  conversations[msg.sender].push(... */\n      swap1\n      dup1\n      0x01\n      dup2\n      sload\n      add\n      dup1\n      dup3\n      sstore\n      dup1\n      swap2\n      pop\n      pop\n      0x01\n      swap1\n      sub\n      swap1\n      0x00\n      mstore\n      keccak256(0x00, 0x20)\n      swap1\n      0x05\n      mul\n      add\n      0x00\n      swap1\n      swap2\n      swap1\n      swap2\n      swap1\n      swap2\n      pop\n      0x00\n      dup3\n      add\n      mload\n      dup2\n      0x00\n      add\n      sstore\n      0x20\n      dup3\n      add\n      mload\n      dup2\n      0x01\n      add\n      swap1\n      dup2\n      tag_109\n      swap2\n      swap1\n      tag_110\n      jump\t// in\n    tag_109:\n      pop\n      0x40\n      dup3\n      add\n      mload\n      dup2\n      0x02\n      add\n      exp(0x0100, 0x00)\n      dup2\n      sload\n      dup2\n      0xffffffffffffffffffffffffffffffffffffffff\n      mul\n      not\n      and\n      swap1\n      dup4\n      0xffffffffffffffffffffffffffffffffffffffff\n      and\n      mul\n      or\n      swap1\n      sstore\n      pop\n      0x60\n      dup3\n      add\n      mload\n      dup2\n      0x03\n      add\n      exp(0x0100, 0x00)\n      dup2\n      sload\n      dup2\n      0xffffffffffffffffffffffffffffffffffffffff\n      mul\n      not\n      and\n      swap1\n      dup4\n      0xffffffffffffffffffffffffffffffffffffffff\n      and\n      mul\n      or\n      swap1\n      sstore\n      pop\n      0x80\n      dup3\n      add\n      mload\n      dup2\n      0x04\n      add\n      sstore\n      pop\n      pop\n        /* \"contracts/twitter.sol\":4519:4533  messageCounter */\n      0x01\n      0x00\n        /* \"contracts/twitter.sol\":4519:4535  messageCounter++ */\n      dup2\n      sload\n      dup1\n      swap3\n      swap2\n      swap1\n      tag_111\n      swap1\n      tag_84\n      jump\t// in\n    tag_111:\n      swap2\n      swap1\n      pop\n      sstore\n      pop\n        /* \"contracts/twitter.sol\":4101:4542  function sendMessage(... */\n      pop\n      pop\n      pop\n      pop\n      jump\t// out\n        /* \"contracts/twitter.sol\":3590:3965  function sendMessage(string memory _content, address _to) public {... */\n    tag_44:\n        /* \"contracts/twitter.sol\":3665:3678  conversations */\n      0x04\n        /* \"contracts/twitter.sol\":3665:3690  conversations[msg.sender] */\n      0x00\n        /* \"contracts/twitter.sol\":3679:3689  msg.sender */\n      caller\n        /* \"contracts/twitter.sol\":3665:3690  conversations[msg.sender] */\n      0xffffffffffffffffffffffffffffffffffffffff\n      and\n      0xffffffffffffffffffffffffffffffffffffffff\n      and\n      dup2\n      mstore\n      0x20\n      add\n      swap1\n      dup2\n      mstore\n      0x20\n      add\n      0x00\n      keccak256\n        /* \"contracts/twitter.sol\":3709:3922  Message({... */\n      mload(0x40)\n      dup1\n      0xa0\n      add\n      0x40\n      mstore\n      dup1\n        /* \"contracts/twitter.sol\":3739:3753  messageCounter */\n      sload(0x01)\n        /* \"contracts/twitter.sol\":3709:3922  Message({... */\n      dup2\n      mstore\n      0x20\n      add\n        /* \"contracts/twitter.sol\":3780:3788  _content */\n      dup5\n        /* \"contracts/twitter.sol\":3709:3922  Message({... */\n      dup2\n      mstore\n      0x20\n      add\n        /* \"contracts/twitter.sol\":3814:3824  msg.sender */\n      caller\n        /* \"contracts/twitter.sol\":3709:3922  Message({... */\n      0xffffffffffffffffffffffffffffffffffffffff\n      and\n      dup2\n      mstore\n      0x20\n      add\n        /* \"contracts/twitter.sol\":3852:3855  _to */\n      dup4\n        /* \"contracts/twitter.sol\":3709:3922  Message({... */\n      0xffffffffffffffffffffffffffffffffffffffff\n      and\n      dup2\n      mstore\n      0x20\n      add\n        /* \"contracts/twitter.sol\":3892:3907  block.timestamp */\n      timestamp\n        /* \"contracts/twitter.sol\":3709:3922  Message({... */\n      dup2\n      mstore\n      pop\n        /* \"contracts/twitter.sol\":3665:3932  conversations[msg.sender].push(... */\n      swap1\n      dup1\n      0x01\n      dup2\n      sload\n      add\n      dup1\n      dup3\n      sstore\n      dup1\n      swap2\n      pop\n      pop\n      0x01\n      swap1\n      sub\n      swap1\n      0x00\n      mstore\n      keccak256(0x00, 0x20)\n      swap1\n      0x05\n      mul\n      add\n      0x00\n      swap1\n      swap2\n      swap1\n      swap2\n      swap1\n      swap2\n      pop\n      0x00\n      dup3\n      add\n      mload\n      dup2\n      0x00\n      add\n      sstore\n      0x20\n      dup3\n      add\n      mload\n      dup2\n      0x01\n      add\n      swap1\n      dup2\n      tag_114\n      swap2\n      swap1\n      tag_110\n      jump\t// in\n    tag_114:\n      pop\n      0x40\n      dup3\n      add\n      mload\n      dup2\n      0x02\n      add\n      exp(0x0100, 0x00)\n      dup2\n      sload\n      dup2\n      0xffffffffffffffffffffffffffffffffffffffff\n      mul\n      not\n      and\n      swap1\n      dup4\n      0xffffffffffffffffffffffffffffffffffffffff\n      and\n      mul\n      or\n      swap1\n      sstore\n      pop\n      0x60\n      dup3\n      add\n      mload\n      dup2\n      0x03\n      add\n      exp(0x0100, 0x00)\n      dup2\n      sload\n      dup2\n      0xffffffffffffffffffffffffffffffffffffffff\n      mul\n      not\n      and\n      swap1\n      dup4\n      0xffffffffffffffffffffffffffffffffffffffff\n      and\n      mul\n      or\n      swap1\n      sstore\n      pop\n      0x80\n      dup3\n      add\n      mload\n      dup2\n      0x04\n      add\n      sstore\n      pop\n      pop\n        /* \"contracts/twitter.sol\":3942:3956  messageCounter */\n      0x01\n      0x00\n        /* \"contracts/twitter.sol\":3942:3958  messageCounter++ */\n      dup2\n      sload\n      dup1\n      swap3\n      swap2\n      swap1\n      tag_115\n      swap1\n      tag_84\n      jump\t// in\n    tag_115:\n      swap2\n      swap1\n      pop\n      sstore\n      pop\n        /* \"contracts/twitter.sol\":3590:3965  function sendMessage(string memory _content, address _to) public {... */\n      pop\n      pop\n      jump\t// out\n        /* \"contracts/twitter.sol\":3170:3494  function tweet(address _from, string memory _content)... */\n    tag_48:\n        /* \"contracts/twitter.sol\":3266:3271  _from */\n      dup2\n        /* \"contracts/twitter.sol\":1563:1567  true */\n      0x01\n        /* \"contracts/twitter.sol\":1533:1567  operators[_from][msg.sender]==true */\n      iszero\n      iszero\n        /* \"contracts/twitter.sol\":1533:1542  operators */\n      0x05\n        /* \"contracts/twitter.sol\":1533:1549  operators[_from] */\n      0x00\n        /* \"contracts/twitter.sol\":1543:1548  _from */\n      dup4\n        /* \"contracts/twitter.sol\":1533:1549  operators[_from] */\n      0xffffffffffffffffffffffffffffffffffffffff\n      and\n      0xffffffffffffffffffffffffffffffffffffffff\n      and\n      dup2\n      mstore\n      0x20\n      add\n      swap1\n      dup2\n      mstore\n      0x20\n      add\n      0x00\n      keccak256\n        /* \"contracts/twitter.sol\":1533:1561  operators[_from][msg.sender] */\n      0x00\n        /* \"contracts/twitter.sol\":1550:1560  msg.sender */\n      caller\n        /* \"contracts/twitter.sol\":1533:1561  operators[_from][msg.sender] */\n      0xffffffffffffffffffffffffffffffffffffffff\n      and\n      0xffffffffffffffffffffffffffffffffffffffff\n      and\n      dup2\n      mstore\n      0x20\n      add\n      swap1\n      dup2\n      mstore\n      0x20\n      add\n      0x00\n      keccak256\n      0x00\n      swap1\n      sload\n      swap1\n      0x0100\n      exp\n      swap1\n      div\n      0xff\n      and\n        /* \"contracts/twitter.sol\":1533:1567  operators[_from][msg.sender]==true */\n      iszero\n      iszero\n      eq\n        /* \"contracts/twitter.sol\":1525:1619  require(operators[_from][msg.sender]==true, \"You dont have permission to handle this Account\") */\n      tag_117\n      jumpi\n      mload(0x40)\n      0x08c379a000000000000000000000000000000000000000000000000000000000\n      dup2\n      mstore\n      0x04\n      add\n      tag_118\n      swap1\n      tag_106\n      jump\t// in\n    tag_118:\n      mload(0x40)\n      dup1\n      swap2\n      sub\n      swap1\n      revert\n    tag_117:\n        /* \"contracts/twitter.sol\":3310:3463  Tweet({... */\n      mload(0x40)\n      dup1\n      0x80\n      add\n      0x40\n      mstore\n      dup1\n        /* \"contracts/twitter.sol\":3334:3346  tweetCounter */\n      sload(0x00)\n        /* \"contracts/twitter.sol\":3310:3463  Tweet({... */\n      dup2\n      mstore\n      0x20\n      add\n        /* \"contracts/twitter.sol\":3368:3373  _from */\n      dup5\n        /* \"contracts/twitter.sol\":3310:3463  Tweet({... */\n      0xffffffffffffffffffffffffffffffffffffffff\n      and\n      dup2\n      mstore\n      0x20\n      add\n        /* \"contracts/twitter.sol\":3396:3404  _content */\n      dup4\n        /* \"contracts/twitter.sol\":3310:3463  Tweet({... */\n      dup2\n      mstore\n      0x20\n      add\n        /* \"contracts/twitter.sol\":3437:3452  block.timestamp */\n      timestamp\n        /* \"contracts/twitter.sol\":3310:3463  Tweet({... */\n      dup2\n      mstore\n      pop\n        /* \"contracts/twitter.sol\":3287:3293  tweets */\n      0x02\n        /* \"contracts/twitter.sol\":3287:3307  tweets[tweetCounter] */\n      0x00\n        /* \"contracts/twitter.sol\":3294:3306  tweetCounter */\n      sload(0x00)\n        /* \"contracts/twitter.sol\":3287:3307  tweets[tweetCounter] */\n      dup2\n      mstore\n      0x20\n      add\n      swap1\n      dup2\n      mstore\n      0x20\n      add\n      0x00\n      keccak256\n        /* \"contracts/twitter.sol\":3287:3463  tweets[tweetCounter] = Tweet({... */\n      0x00\n      dup3\n      add\n      mload\n      dup2\n      0x00\n      add\n      sstore\n      0x20\n      dup3\n      add\n      mload\n      dup2\n      0x01\n      add\n      exp(0x0100, 0x00)\n      dup2\n      sload\n      dup2\n      0xffffffffffffffffffffffffffffffffffffffff\n      mul\n      not\n      and\n      swap1\n      dup4\n      0xffffffffffffffffffffffffffffffffffffffff\n      and\n      mul\n      or\n      swap1\n      sstore\n      pop\n      0x40\n      dup3\n      add\n      mload\n      dup2\n      0x02\n      add\n      swap1\n      dup2\n      tag_120\n      swap2\n      swap1\n      tag_110\n      jump\t// in\n    tag_120:\n      pop\n      0x60\n      dup3\n      add\n      mload\n      dup2\n      0x03\n      add\n      sstore\n      swap1\n      pop\n      pop\n        /* \"contracts/twitter.sol\":3473:3485  tweetCounter */\n      0x00\n      0x00\n        /* \"contracts/twitter.sol\":3473:3487  tweetCounter++ */\n      dup2\n      sload\n      dup1\n      swap3\n      swap2\n      swap1\n      tag_121\n      swap1\n      tag_84\n      jump\t// in\n    tag_121:\n      swap2\n      swap1\n      pop\n      sstore\n      pop\n        /* \"contracts/twitter.sol\":3170:3494  function tweet(address _from, string memory _content)... */\n      pop\n      pop\n      pop\n      jump\t// out\n        /* \"contracts/twitter.sol\":2540:2808  function tweet(string memory _content) public {... */\n    tag_52:\n        /* \"contracts/twitter.sol\":2619:2777  Tweet({... */\n      mload(0x40)\n      dup1\n      0x80\n      add\n      0x40\n      mstore\n      dup1\n        /* \"contracts/twitter.sol\":2643:2655  tweetCounter */\n      sload(0x00)\n        /* \"contracts/twitter.sol\":2619:2777  Tweet({... */\n      dup2\n      mstore\n      0x20\n      add\n        /* \"contracts/twitter.sol\":2677:2687  msg.sender */\n      caller\n        /* \"contracts/twitter.sol\":2619:2777  Tweet({... */\n      0xffffffffffffffffffffffffffffffffffffffff\n      and\n      dup2\n      mstore\n      0x20\n      add\n        /* \"contracts/twitter.sol\":2710:2718  _content */\n      dup3\n        /* \"contracts/twitter.sol\":2619:2777  Tweet({... */\n      dup2\n      mstore\n      0x20\n      add\n        /* \"contracts/twitter.sol\":2751:2766  block.timestamp */\n      timestamp\n        /* \"contracts/twitter.sol\":2619:2777  Tweet({... */\n      dup2\n      mstore\n      pop\n        /* \"contracts/twitter.sol\":2596:2602  tweets */\n      0x02\n        /* \"contracts/twitter.sol\":2596:2616  tweets[tweetCounter] */\n      0x00\n        /* \"contracts/twitter.sol\":2603:2615  tweetCounter */\n      sload(0x00)\n        /* \"contracts/twitter.sol\":2596:2616  tweets[tweetCounter] */\n      dup2\n      mstore\n      0x20\n      add\n      swap1\n      dup2\n      mstore\n      0x20\n      add\n      0x00\n      keccak256\n        /* \"contracts/twitter.sol\":2596:2777  tweets[tweetCounter] = Tweet({... */\n      0x00\n      dup3\n      add\n      mload\n      dup2\n      0x00\n      add\n      sstore\n      0x20\n      dup3\n      add\n      mload\n      dup2\n      0x01\n      add\n      exp(0x0100, 0x00)\n      dup2\n      sload\n      dup2\n      0xffffffffffffffffffffffffffffffffffffffff\n      mul\n      not\n      and\n      swap1\n      dup4\n      0xffffffffffffffffffffffffffffffffffffffff\n      and\n      mul\n      or\n      swap1\n      sstore\n      pop\n      0x40\n      dup3\n      add\n      mload\n      dup2\n      0x02\n      add\n      swap1\n      dup2\n      tag_123\n      swap2\n      swap1\n      tag_110\n      jump\t// in\n    tag_123:\n      pop\n      0x60\n      dup3\n      add\n      mload\n      dup2\n      0x03\n      add\n      sstore\n      swap1\n      pop\n      pop\n        /* \"contracts/twitter.sol\":2787:2799  tweetCounter */\n      0x00\n      0x00\n        /* \"contracts/twitter.sol\":2787:2801  tweetCounter++ */\n      dup2\n      sload\n      dup1\n      swap3\n      swap2\n      swap1\n      tag_124\n      swap1\n      tag_84\n      jump\t// in\n    tag_124:\n      swap2\n      swap1\n      pop\n      sstore\n      pop\n        /* \"contracts/twitter.sol\":2540:2808  function tweet(string memory _content) public {... */\n      pop\n      jump\t// out\n        /* \"contracts/twitter.sol\":4795:4891  function allow(address _operator) public {... */\n    tag_55:\n        /* \"contracts/twitter.sol\":4879:4883  true */\n      0x01\n        /* \"contracts/twitter.sol\":4846:4855  operators */\n      0x05\n        /* \"contracts/twitter.sol\":4846:4867  operators[msg.sender] */\n      0x00\n        /* \"contracts/twitter.sol\":4856:4866  msg.sender */\n      caller\n        /* \"contracts/twitter.sol\":4846:4867  operators[msg.sender] */\n      0xffffffffffffffffffffffffffffffffffffffff\n      and\n      0xffffffffffffffffffffffffffffffffffffffff\n      and\n      dup2\n      mstore\n      0x20\n      add\n      swap1\n      dup2\n      mstore\n      0x20\n      add\n      0x00\n      keccak256\n        /* \"contracts/twitter.sol\":4846:4878  operators[msg.sender][_operator] */\n      0x00\n        /* \"contracts/twitter.sol\":4868:4877  _operator */\n      dup4\n        /* \"contracts/twitter.sol\":4846:4878  operators[msg.sender][_operator] */\n      0xffffffffffffffffffffffffffffffffffffffff\n      and\n      0xffffffffffffffffffffffffffffffffffffffff\n      and\n      dup2\n      mstore\n      0x20\n      add\n      swap1\n      dup2\n      mstore\n      0x20\n      add\n      0x00\n      keccak256\n      0x00\n        /* \"contracts/twitter.sol\":4846:4883  operators[msg.sender][_operator]=true */\n      0x0100\n      exp\n      dup2\n      sload\n      dup2\n      0xff\n      mul\n      not\n      and\n      swap1\n      dup4\n      iszero\n      iszero\n      mul\n      or\n      swap1\n      sstore\n      pop\n        /* \"contracts/twitter.sol\":4795:4891  function allow(address _operator) public {... */\n      pop\n      jump\t// out\n    tag_63:\n      mload(0x40)\n      dup1\n      0x80\n      add\n      0x40\n      mstore\n      dup1\n      0x00\n      dup2\n      mstore\n      0x20\n      add\n      and(0xffffffffffffffffffffffffffffffffffffffff, 0x00)\n      dup2\n      mstore\n      0x20\n      add\n      0x60\n      dup2\n      mstore\n      0x20\n      add\n      0x00\n      dup2\n      mstore\n      pop\n      swap1\n      jump\t// out\n        /* \"#utility.yul\":7:84   */\n    tag_126:\n        /* \"#utility.yul\":44:51   */\n      0x00\n        /* \"#utility.yul\":73:78   */\n      dup2\n        /* \"#utility.yul\":62:78   */\n      swap1\n      pop\n        /* \"#utility.yul\":7:84   */\n      swap2\n      swap1\n      pop\n      jump\t// out\n        /* \"#utility.yul\":90:208   */\n    tag_127:\n        /* \"#utility.yul\":177:201   */\n      tag_180\n        /* \"#utility.yul\":195:200   */\n      dup2\n        /* \"#utility.yul\":177:201   */\n      tag_126\n      jump\t// in\n    tag_180:\n        /* \"#utility.yul\":172:175   */\n      dup3\n        /* \"#utility.yul\":165:202   */\n      mstore\n        /* \"#utility.yul\":90:208   */\n      pop\n      pop\n      jump\t// out\n        /* \"#utility.yul\":214:436   */\n    tag_18:\n        /* \"#utility.yul\":307:311   */\n      0x00\n        /* \"#utility.yul\":345:347   */\n      0x20\n        /* \"#utility.yul\":334:343   */\n      dup3\n        /* \"#utility.yul\":330:348   */\n      add\n        /* \"#utility.yul\":322:348   */\n      swap1\n      pop\n        /* \"#utility.yul\":358:429   */\n      tag_182\n        /* \"#utility.yul\":426:427   */\n      0x00\n        /* \"#utility.yul\":415:424   */\n      dup4\n        /* \"#utility.yul\":411:428   */\n      add\n        /* \"#utility.yul\":402:408   */\n      dup5\n        /* \"#utility.yul\":358:429   */\n      tag_127\n      jump\t// in\n    tag_182:\n        /* \"#utility.yul\":214:436   */\n      swap3\n      swap2\n      pop\n      pop\n      jump\t// out\n        /* \"#utility.yul\":442:577   */\n    tag_128:\n        /* \"#utility.yul\":530:536   */\n      0x00\n        /* \"#utility.yul\":564:569   */\n      dup2\n        /* \"#utility.yul\":558:570   */\n      mload\n        /* \"#utility.yul\":548:570   */\n      swap1\n      pop\n        /* \"#utility.yul\":442:577   */\n      swap2\n      swap1\n      pop\n      jump\t// out\n        /* \"#utility.yul\":583:788   */\n    tag_129:\n        /* \"#utility.yul\":703:714   */\n      0x00\n        /* \"#utility.yul\":737:743   */\n      dup3\n        /* \"#utility.yul\":732:735   */\n      dup3\n        /* \"#utility.yul\":725:744   */\n      mstore\n        /* \"#utility.yul\":777:781   */\n      0x20\n        /* \"#utility.yul\":772:775   */\n      dup3\n        /* \"#utility.yul\":768:782   */\n      add\n        /* \"#utility.yul\":753:782   */\n      swap1\n      pop\n        /* \"#utility.yul\":583:788   */\n      swap3\n      swap2\n      pop\n      pop\n      jump\t// out\n        /* \"#utility.yul\":794:947   */\n    tag_130:\n        /* \"#utility.yul\":882:886   */\n      0x00\n        /* \"#utility.yul\":905:908   */\n      dup2\n        /* \"#utility.yul\":897:908   */\n      swap1\n      pop\n        /* \"#utility.yul\":935:939   */\n      0x20\n        /* \"#utility.yul\":930:933   */\n      dup3\n        /* \"#utility.yul\":926:940   */\n      add\n        /* \"#utility.yul\":918:940   */\n      swap1\n      pop\n        /* \"#utility.yul\":794:947   */\n      swap2\n      swap1\n      pop\n      jump\t// out\n        /* \"#utility.yul\":953:1061   */\n    tag_131:\n        /* \"#utility.yul\":1030:1054   */\n      tag_187\n        /* \"#utility.yul\":1048:1053   */\n      dup2\n        /* \"#utility.yul\":1030:1054   */\n      tag_126\n      jump\t// in\n    tag_187:\n        /* \"#utility.yul\":1025:1028   */\n      dup3\n        /* \"#utility.yul\":1018:1055   */\n      mstore\n        /* \"#utility.yul\":953:1061   */\n      pop\n      pop\n      jump\t// out\n        /* \"#utility.yul\":1067:1193   */\n    tag_132:\n        /* \"#utility.yul\":1104:1111   */\n      0x00\n        /* \"#utility.yul\":1144:1186   */\n      0xffffffffffffffffffffffffffffffffffffffff\n        /* \"#utility.yul\":1137:1142   */\n      dup3\n        /* \"#utility.yul\":1133:1187   */\n      and\n        /* \"#utility.yul\":1122:1187   */\n      swap1\n      pop\n        /* \"#utility.yul\":1067:1193   */\n      swap2\n      swap1\n      pop\n      jump\t// out\n        /* \"#utility.yul\":1199:1295   */\n    tag_133:\n        /* \"#utility.yul\":1236:1243   */\n      0x00\n        /* \"#utility.yul\":1265:1289   */\n      tag_190\n        /* \"#utility.yul\":1283:1288   */\n      dup3\n        /* \"#utility.yul\":1265:1289   */\n      tag_132\n      jump\t// in\n    tag_190:\n        /* \"#utility.yul\":1254:1289   */\n      swap1\n      pop\n        /* \"#utility.yul\":1199:1295   */\n      swap2\n      swap1\n      pop\n      jump\t// out\n        /* \"#utility.yul\":1301:1409   */\n    tag_134:\n        /* \"#utility.yul\":1378:1402   */\n      tag_192\n        /* \"#utility.yul\":1396:1401   */\n      dup2\n        /* \"#utility.yul\":1378:1402   */\n      tag_133\n      jump\t// in\n    tag_192:\n        /* \"#utility.yul\":1373:1376   */\n      dup3\n        /* \"#utility.yul\":1366:1403   */\n      mstore\n        /* \"#utility.yul\":1301:1409   */\n      pop\n      pop\n      jump\t// out\n        /* \"#utility.yul\":1415:1514   */\n    tag_135:\n        /* \"#utility.yul\":1467:1473   */\n      0x00\n        /* \"#utility.yul\":1501:1506   */\n      dup2\n        /* \"#utility.yul\":1495:1507   */\n      mload\n        /* \"#utility.yul\":1485:1507   */\n      swap1\n      pop\n        /* \"#utility.yul\":1415:1514   */\n      swap2\n      swap1\n      pop\n      jump\t// out\n        /* \"#utility.yul\":1520:1679   */\n    tag_136:\n        /* \"#utility.yul\":1594:1605   */\n      0x00\n        /* \"#utility.yul\":1628:1634   */\n      dup3\n        /* \"#utility.yul\":1623:1626   */\n      dup3\n        /* \"#utility.yul\":1616:1635   */\n      mstore\n        /* \"#utility.yul\":1668:1672   */\n      0x20\n        /* \"#utility.yul\":1663:1666   */\n      dup3\n        /* \"#utility.yul\":1659:1673   */\n      add\n        /* \"#utility.yul\":1644:1673   */\n      swap1\n      pop\n        /* \"#utility.yul\":1520:1679   */\n      swap3\n      swap2\n      pop\n      pop\n      jump\t// out\n        /* \"#utility.yul\":1685:1824   */\n    tag_137:\n        /* \"#utility.yul\":1774:1780   */\n      dup3\n        /* \"#utility.yul\":1769:1772   */\n      dup2\n        /* \"#utility.yul\":1764:1767   */\n      dup4\n        /* \"#utility.yul\":1758:1781   */\n      mcopy\n        /* \"#utility.yul\":1815:1816   */\n      0x00\n        /* \"#utility.yul\":1806:1812   */\n      dup4\n        /* \"#utility.yul\":1801:1804   */\n      dup4\n        /* \"#utility.yul\":1797:1813   */\n      add\n        /* \"#utility.yul\":1790:1817   */\n      mstore\n        /* \"#utility.yul\":1685:1824   */\n      pop\n      pop\n      pop\n      jump\t// out\n        /* \"#utility.yul\":1830:1932   */\n    tag_138:\n        /* \"#utility.yul\":1871:1877   */\n      0x00\n        /* \"#utility.yul\":1922:1924   */\n      0x1f\n        /* \"#utility.yul\":1918:1925   */\n      not\n        /* \"#utility.yul\":1913:1915   */\n      0x1f\n        /* \"#utility.yul\":1906:1911   */\n      dup4\n        /* \"#utility.yul\":1902:1916   */\n      add\n        /* \"#utility.yul\":1898:1926   */\n      and\n        /* \"#utility.yul\":1888:1926   */\n      swap1\n      pop\n        /* \"#utility.yul\":1830:1932   */\n      swap2\n      swap1\n      pop\n      jump\t// out\n        /* \"#utility.yul\":1938:2295   */\n    tag_139:\n        /* \"#utility.yul\":2016:2019   */\n      0x00\n        /* \"#utility.yul\":2044:2083   */\n      tag_198\n        /* \"#utility.yul\":2077:2082   */\n      dup3\n        /* \"#utility.yul\":2044:2083   */\n      tag_135\n      jump\t// in\n    tag_198:\n        /* \"#utility.yul\":2099:2160   */\n      tag_199\n        /* \"#utility.yul\":2153:2159   */\n      dup2\n        /* \"#utility.yul\":2148:2151   */\n      dup6\n        /* \"#utility.yul\":2099:2160   */\n      tag_136\n      jump\t// in\n    tag_199:\n        /* \"#utility.yul\":2092:2160   */\n      swap4\n      pop\n        /* \"#utility.yul\":2169:2234   */\n      tag_200\n        /* \"#utility.yul\":2227:2233   */\n      dup2\n        /* \"#utility.yul\":2222:2225   */\n      dup6\n        /* \"#utility.yul\":2215:2219   */\n      0x20\n        /* \"#utility.yul\":2208:2213   */\n      dup7\n        /* \"#utility.yul\":2204:2220   */\n      add\n        /* \"#utility.yul\":2169:2234   */\n      tag_137\n      jump\t// in\n    tag_200:\n        /* \"#utility.yul\":2259:2288   */\n      tag_201\n        /* \"#utility.yul\":2281:2287   */\n      dup2\n        /* \"#utility.yul\":2259:2288   */\n      tag_138\n      jump\t// in\n    tag_201:\n        /* \"#utility.yul\":2254:2257   */\n      dup5\n        /* \"#utility.yul\":2250:2289   */\n      add\n        /* \"#utility.yul\":2243:2289   */\n      swap2\n      pop\n        /* \"#utility.yul\":2020:2295   */\n      pop\n        /* \"#utility.yul\":1938:2295   */\n      swap3\n      swap2\n      pop\n      pop\n      jump\t// out\n        /* \"#utility.yul\":2353:3305   */\n    tag_140:\n        /* \"#utility.yul\":2454:2457   */\n      0x00\n        /* \"#utility.yul\":2490:2494   */\n      0x80\n        /* \"#utility.yul\":2485:2488   */\n      dup4\n        /* \"#utility.yul\":2481:2495   */\n      add\n        /* \"#utility.yul\":2575:2579   */\n      0x00\n        /* \"#utility.yul\":2568:2573   */\n      dup4\n        /* \"#utility.yul\":2564:2580   */\n      add\n        /* \"#utility.yul\":2558:2581   */\n      mload\n        /* \"#utility.yul\":2594:2657   */\n      tag_203\n        /* \"#utility.yul\":2651:2655   */\n      0x00\n        /* \"#utility.yul\":2646:2649   */\n      dup7\n        /* \"#utility.yul\":2642:2656   */\n      add\n        /* \"#utility.yul\":2628:2640   */\n      dup3\n        /* \"#utility.yul\":2594:2657   */\n      tag_131\n      jump\t// in\n    tag_203:\n        /* \"#utility.yul\":2505:2667   */\n      pop\n        /* \"#utility.yul\":2751:2755   */\n      0x20\n        /* \"#utility.yul\":2744:2749   */\n      dup4\n        /* \"#utility.yul\":2740:2756   */\n      add\n        /* \"#utility.yul\":2734:2757   */\n      mload\n        /* \"#utility.yul\":2770:2833   */\n      tag_204\n        /* \"#utility.yul\":2827:2831   */\n      0x20\n        /* \"#utility.yul\":2822:2825   */\n      dup7\n        /* \"#utility.yul\":2818:2832   */\n      add\n        /* \"#utility.yul\":2804:2816   */\n      dup3\n        /* \"#utility.yul\":2770:2833   */\n      tag_134\n      jump\t// in\n    tag_204:\n        /* \"#utility.yul\":2677:2843   */\n      pop\n        /* \"#utility.yul\":2928:2932   */\n      0x40\n        /* \"#utility.yul\":2921:2926   */\n      dup4\n        /* \"#utility.yul\":2917:2933   */\n      add\n        /* \"#utility.yul\":2911:2934   */\n      mload\n        /* \"#utility.yul\":2981:2984   */\n      dup5\n        /* \"#utility.yul\":2975:2979   */\n      dup3\n        /* \"#utility.yul\":2971:2985   */\n      sub\n        /* \"#utility.yul\":2964:2968   */\n      0x40\n        /* \"#utility.yul\":2959:2962   */\n      dup7\n        /* \"#utility.yul\":2955:2969   */\n      add\n        /* \"#utility.yul\":2948:2986   */\n      mstore\n        /* \"#utility.yul\":3007:3080   */\n      tag_205\n        /* \"#utility.yul\":3075:3079   */\n      dup3\n        /* \"#utility.yul\":3061:3073   */\n      dup3\n        /* \"#utility.yul\":3007:3080   */\n      tag_139\n      jump\t// in\n    tag_205:\n        /* \"#utility.yul\":2999:3080   */\n      swap2\n      pop\n        /* \"#utility.yul\":2853:3091   */\n      pop\n        /* \"#utility.yul\":3186:3190   */\n      0x60\n        /* \"#utility.yul\":3179:3184   */\n      dup4\n        /* \"#utility.yul\":3175:3191   */\n      add\n        /* \"#utility.yul\":3169:3192   */\n      mload\n        /* \"#utility.yul\":3205:3268   */\n      tag_206\n        /* \"#utility.yul\":3262:3266   */\n      0x60\n        /* \"#utility.yul\":3257:3260   */\n      dup7\n        /* \"#utility.yul\":3253:3267   */\n      add\n        /* \"#utility.yul\":3239:3251   */\n      dup3\n        /* \"#utility.yul\":3205:3268   */\n      tag_131\n      jump\t// in\n    tag_206:\n        /* \"#utility.yul\":3101:3278   */\n      pop\n        /* \"#utility.yul\":3295:3299   */\n      dup1\n        /* \"#utility.yul\":3288:3299   */\n      swap2\n      pop\n        /* \"#utility.yul\":2459:3305   */\n      pop\n        /* \"#utility.yul\":2353:3305   */\n      swap3\n      swap2\n      pop\n      pop\n      jump\t// out\n        /* \"#utility.yul\":3311:3551   */\n    tag_141:\n        /* \"#utility.yul\":3422:3432   */\n      0x00\n        /* \"#utility.yul\":3457:3545   */\n      tag_208\n        /* \"#utility.yul\":3541:3544   */\n      dup4\n        /* \"#utility.yul\":3533:3539   */\n      dup4\n        /* \"#utility.yul\":3457:3545   */\n      tag_140\n      jump\t// in\n    tag_208:\n        /* \"#utility.yul\":3443:3545   */\n      swap1\n      pop\n        /* \"#utility.yul\":3311:3551   */\n      swap3\n      swap2\n      pop\n      pop\n      jump\t// out\n        /* \"#utility.yul\":3557:3691   */\n    tag_142:\n        /* \"#utility.yul\":3648:3652   */\n      0x00\n        /* \"#utility.yul\":3680:3684   */\n      0x20\n        /* \"#utility.yul\":3675:3678   */\n      dup3\n        /* \"#utility.yul\":3671:3685   */\n      add\n        /* \"#utility.yul\":3663:3685   */\n      swap1\n      pop\n        /* \"#utility.yul\":3557:3691   */\n      swap2\n      swap1\n      pop\n      jump\t// out\n        /* \"#utility.yul\":3753:4832   */\n    tag_143:\n        /* \"#utility.yul\":3914:3917   */\n      0x00\n        /* \"#utility.yul\":3943:4018   */\n      tag_211\n        /* \"#utility.yul\":4012:4017   */\n      dup3\n        /* \"#utility.yul\":3943:4018   */\n      tag_128\n      jump\t// in\n    tag_211:\n        /* \"#utility.yul\":4034:4141   */\n      tag_212\n        /* \"#utility.yul\":4134:4140   */\n      dup2\n        /* \"#utility.yul\":4129:4132   */\n      dup6\n        /* \"#utility.yul\":4034:4141   */\n      tag_129\n      jump\t// in\n    tag_212:\n        /* \"#utility.yul\":4027:4141   */\n      swap4\n      pop\n        /* \"#utility.yul\":4167:4170   */\n      dup4\n        /* \"#utility.yul\":4212:4216   */\n      0x20\n        /* \"#utility.yul\":4204:4210   */\n      dup3\n        /* \"#utility.yul\":4200:4217   */\n      mul\n        /* \"#utility.yul\":4195:4198   */\n      dup6\n        /* \"#utility.yul\":4191:4218   */\n      add\n        /* \"#utility.yul\":4242:4319   */\n      tag_213\n        /* \"#utility.yul\":4313:4318   */\n      dup6\n        /* \"#utility.yul\":4242:4319   */\n      tag_130\n      jump\t// in\n    tag_213:\n        /* \"#utility.yul\":4342:4349   */\n      dup1\n        /* \"#utility.yul\":4373:4374   */\n      0x00\n        /* \"#utility.yul\":4358:4787   */\n    tag_214:\n        /* \"#utility.yul\":4383:4389   */\n      dup6\n        /* \"#utility.yul\":4380:4381   */\n      dup2\n        /* \"#utility.yul\":4377:4390   */\n      lt\n        /* \"#utility.yul\":4358:4787   */\n      iszero\n      tag_216\n      jumpi\n        /* \"#utility.yul\":4454:4463   */\n      dup5\n        /* \"#utility.yul\":4448:4452   */\n      dup5\n        /* \"#utility.yul\":4444:4464   */\n      sub\n        /* \"#utility.yul\":4439:4442   */\n      dup10\n        /* \"#utility.yul\":4432:4465   */\n      mstore\n        /* \"#utility.yul\":4505:4511   */\n      dup2\n        /* \"#utility.yul\":4499:4512   */\n      mload\n        /* \"#utility.yul\":4533:4639   */\n      tag_217\n        /* \"#utility.yul\":4634:4638   */\n      dup6\n        /* \"#utility.yul\":4619:4632   */\n      dup3\n        /* \"#utility.yul\":4533:4639   */\n      tag_141\n      jump\t// in\n    tag_217:\n        /* \"#utility.yul\":4525:4639   */\n      swap5\n      pop\n        /* \"#utility.yul\":4662:4743   */\n      tag_218\n        /* \"#utility.yul\":4736:4742   */\n      dup4\n        /* \"#utility.yul\":4662:4743   */\n      tag_142\n      jump\t// in\n    tag_218:\n        /* \"#utility.yul\":4652:4743   */\n      swap3\n      pop\n        /* \"#utility.yul\":4772:4776   */\n      0x20\n        /* \"#utility.yul\":4767:4770   */\n      dup11\n        /* \"#utility.yul\":4763:4777   */\n      add\n        /* \"#utility.yul\":4756:4777   */\n      swap10\n      pop\n        /* \"#utility.yul\":4418:4787   */\n      pop\n        /* \"#utility.yul\":4405:4406   */\n      0x01\n        /* \"#utility.yul\":4402:4403   */\n      dup2\n        /* \"#utility.yul\":4398:4407   */\n      add\n        /* \"#utility.yul\":4393:4407   */\n      swap1\n      pop\n        /* \"#utility.yul\":4358:4787   */\n      jump(tag_214)\n    tag_216:\n        /* \"#utility.yul\":4362:4376   */\n      pop\n        /* \"#utility.yul\":4803:4807   */\n      dup3\n        /* \"#utility.yul\":4796:4807   */\n      swap8\n      pop\n        /* \"#utility.yul\":4823:4826   */\n      dup8\n        /* \"#utility.yul\":4816:4826   */\n      swap6\n      pop\n        /* \"#utility.yul\":3919:4832   */\n      pop\n      pop\n      pop\n      pop\n      pop\n        /* \"#utility.yul\":3753:4832   */\n      swap3\n      swap2\n      pop\n      pop\n      jump\t// out\n        /* \"#utility.yul\":4838:5295   */\n    tag_22:\n        /* \"#utility.yul\":5023:5027   */\n      0x00\n        /* \"#utility.yul\":5061:5063   */\n      0x20\n        /* \"#utility.yul\":5050:5059   */\n      dup3\n        /* \"#utility.yul\":5046:5064   */\n      add\n        /* \"#utility.yul\":5038:5064   */\n      swap1\n      pop\n        /* \"#utility.yul\":5110:5119   */\n      dup2\n        /* \"#utility.yul\":5104:5108   */\n      dup2\n        /* \"#utility.yul\":5100:5120   */\n      sub\n        /* \"#utility.yul\":5096:5097   */\n      0x00\n        /* \"#utility.yul\":5085:5094   */\n      dup4\n        /* \"#utility.yul\":5081:5098   */\n      add\n        /* \"#utility.yul\":5074:5121   */\n      mstore\n        /* \"#utility.yul\":5138:5288   */\n      tag_220\n        /* \"#utility.yul\":5283:5287   */\n      dup2\n        /* \"#utility.yul\":5274:5280   */\n      dup5\n        /* \"#utility.yul\":5138:5288   */\n      tag_143\n      jump\t// in\n    tag_220:\n        /* \"#utility.yul\":5130:5288   */\n      swap1\n      pop\n        /* \"#utility.yul\":4838:5295   */\n      swap3\n      swap2\n      pop\n      pop\n      jump\t// out\n        /* \"#utility.yul\":5301:5376   */\n    tag_144:\n        /* \"#utility.yul\":5334:5340   */\n      0x00\n        /* \"#utility.yul\":5367:5369   */\n      0x40\n        /* \"#utility.yul\":5361:5370   */\n      mload\n        /* \"#utility.yul\":5351:5370   */\n      swap1\n      pop\n        /* \"#utility.yul\":5301:5376   */\n      swap1\n      jump\t// out\n        /* \"#utility.yul\":5382:5499   */\n    tag_145:\n        /* \"#utility.yul\":5491:5492   */\n      0x00\n        /* \"#utility.yul\":5488:5489   */\n      0x00\n        /* \"#utility.yul\":5481:5493   */\n      revert\n        /* \"#utility.yul\":5505:5622   */\n    tag_146:\n        /* \"#utility.yul\":5614:5615   */\n      0x00\n        /* \"#utility.yul\":5611:5612   */\n      0x00\n        /* \"#utility.yul\":5604:5616   */\n      revert\n        /* \"#utility.yul\":5628:5750   */\n    tag_147:\n        /* \"#utility.yul\":5701:5725   */\n      tag_225\n        /* \"#utility.yul\":5719:5724   */\n      dup2\n        /* \"#utility.yul\":5701:5725   */\n      tag_133\n      jump\t// in\n    tag_225:\n        /* \"#utility.yul\":5694:5699   */\n      dup2\n        /* \"#utility.yul\":5691:5726   */\n      eq\n        /* \"#utility.yul\":5681:5744   */\n      tag_226\n      jumpi\n        /* \"#utility.yul\":5740:5741   */\n      0x00\n        /* \"#utility.yul\":5737:5738   */\n      0x00\n        /* \"#utility.yul\":5730:5742   */\n      revert\n        /* \"#utility.yul\":5681:5744   */\n    tag_226:\n        /* \"#utility.yul\":5628:5750   */\n      pop\n      jump\t// out\n        /* \"#utility.yul\":5756:5895   */\n    tag_148:\n        /* \"#utility.yul\":5802:5807   */\n      0x00\n        /* \"#utility.yul\":5840:5846   */\n      dup2\n        /* \"#utility.yul\":5827:5847   */\n      calldataload\n        /* \"#utility.yul\":5818:5847   */\n      swap1\n      pop\n        /* \"#utility.yul\":5856:5889   */\n      tag_228\n        /* \"#utility.yul\":5883:5888   */\n      dup2\n        /* \"#utility.yul\":5856:5889   */\n      tag_147\n      jump\t// in\n    tag_228:\n        /* \"#utility.yul\":5756:5895   */\n      swap3\n      swap2\n      pop\n      pop\n      jump\t// out\n        /* \"#utility.yul\":5901:6230   */\n    tag_25:\n        /* \"#utility.yul\":5960:5966   */\n      0x00\n        /* \"#utility.yul\":6009:6011   */\n      0x20\n        /* \"#utility.yul\":5997:6006   */\n      dup3\n        /* \"#utility.yul\":5988:5995   */\n      dup5\n        /* \"#utility.yul\":5984:6007   */\n      sub\n        /* \"#utility.yul\":5980:6012   */\n      slt\n        /* \"#utility.yul\":5977:6096   */\n      iszero\n      tag_230\n      jumpi\n        /* \"#utility.yul\":6015:6094   */\n      tag_231\n      tag_145\n      jump\t// in\n    tag_231:\n        /* \"#utility.yul\":5977:6096   */\n    tag_230:\n        /* \"#utility.yul\":6135:6136   */\n      0x00\n        /* \"#utility.yul\":6160:6213   */\n      tag_232\n        /* \"#utility.yul\":6205:6212   */\n      dup5\n        /* \"#utility.yul\":6196:6202   */\n      dup3\n        /* \"#utility.yul\":6185:6194   */\n      dup6\n        /* \"#utility.yul\":6181:6203   */\n      add\n        /* \"#utility.yul\":6160:6213   */\n      tag_148\n      jump\t// in\n    tag_232:\n        /* \"#utility.yul\":6150:6213   */\n      swap2\n      pop\n        /* \"#utility.yul\":6106:6223   */\n      pop\n        /* \"#utility.yul\":5901:6230   */\n      swap3\n      swap2\n      pop\n      pop\n      jump\t// out\n        /* \"#utility.yul\":6236:6353   */\n    tag_149:\n        /* \"#utility.yul\":6345:6346   */\n      0x00\n        /* \"#utility.yul\":6342:6343   */\n      0x00\n        /* \"#utility.yul\":6335:6347   */\n      revert\n        /* \"#utility.yul\":6359:6476   */\n    tag_150:\n        /* \"#utility.yul\":6468:6469   */\n      0x00\n        /* \"#utility.yul\":6465:6466   */\n      0x00\n        /* \"#utility.yul\":6458:6470   */\n      revert\n        /* \"#utility.yul\":6482:6662   */\n    tag_59:\n        /* \"#utility.yul\":6530:6607   */\n      0x4e487b7100000000000000000000000000000000000000000000000000000000\n        /* \"#utility.yul\":6527:6528   */\n      0x00\n        /* \"#utility.yul\":6520:6608   */\n      mstore\n        /* \"#utility.yul\":6627:6631   */\n      0x41\n        /* \"#utility.yul\":6624:6625   */\n      0x04\n        /* \"#utility.yul\":6617:6632   */\n      mstore\n        /* \"#utility.yul\":6651:6655   */\n      0x24\n        /* \"#utility.yul\":6648:6649   */\n      0x00\n        /* \"#utility.yul\":6641:6656   */\n      revert\n        /* \"#utility.yul\":6668:6949   */\n    tag_151:\n        /* \"#utility.yul\":6751:6778   */\n      tag_237\n        /* \"#utility.yul\":6773:6777   */\n      dup3\n        /* \"#utility.yul\":6751:6778   */\n      tag_138\n      jump\t// in\n    tag_237:\n        /* \"#utility.yul\":6743:6749   */\n      dup2\n        /* \"#utility.yul\":6739:6779   */\n      add\n        /* \"#utility.yul\":6881:6887   */\n      dup2\n        /* \"#utility.yul\":6869:6879   */\n      dup2\n        /* \"#utility.yul\":6866:6888   */\n      lt\n        /* \"#utility.yul\":6845:6863   */\n      0xffffffffffffffff\n        /* \"#utility.yul\":6833:6843   */\n      dup3\n        /* \"#utility.yul\":6830:6864   */\n      gt\n        /* \"#utility.yul\":6827:6889   */\n      or\n        /* \"#utility.yul\":6824:6912   */\n      iszero\n      tag_238\n      jumpi\n        /* \"#utility.yul\":6892:6910   */\n      tag_239\n      tag_59\n      jump\t// in\n    tag_239:\n        /* \"#utility.yul\":6824:6912   */\n    tag_238:\n        /* \"#utility.yul\":6932:6942   */\n      dup1\n        /* \"#utility.yul\":6928:6930   */\n      0x40\n        /* \"#utility.yul\":6921:6943   */\n      mstore\n        /* \"#utility.yul\":6711:6949   */\n      pop\n        /* \"#utility.yul\":6668:6949   */\n      pop\n      pop\n      jump\t// out\n        /* \"#utility.yul\":6955:7084   */\n    tag_152:\n        /* \"#utility.yul\":6989:6995   */\n      0x00\n        /* \"#utility.yul\":7016:7036   */\n      tag_241\n      tag_144\n      jump\t// in\n    tag_241:\n        /* \"#utility.yul\":7006:7036   */\n      swap1\n      pop\n        /* \"#utility.yul\":7045:7078   */\n      tag_242\n        /* \"#utility.yul\":7073:7077   */\n      dup3\n        /* \"#utility.yul\":7065:7071   */\n      dup3\n        /* \"#utility.yul\":7045:7078   */\n      tag_151\n      jump\t// in\n    tag_242:\n        /* \"#utility.yul\":6955:7084   */\n      swap2\n      swap1\n      pop\n      jump\t// out\n        /* \"#utility.yul\":7090:7398   */\n    tag_153:\n        /* \"#utility.yul\":7152:7156   */\n      0x00\n        /* \"#utility.yul\":7242:7260   */\n      0xffffffffffffffff\n        /* \"#utility.yul\":7234:7240   */\n      dup3\n        /* \"#utility.yul\":7231:7261   */\n      gt\n        /* \"#utility.yul\":7228:7284   */\n      iszero\n      tag_244\n      jumpi\n        /* \"#utility.yul\":7264:7282   */\n      tag_245\n      tag_59\n      jump\t// in\n    tag_245:\n        /* \"#utility.yul\":7228:7284   */\n    tag_244:\n        /* \"#utility.yul\":7302:7331   */\n      tag_246\n        /* \"#utility.yul\":7324:7330   */\n      dup3\n        /* \"#utility.yul\":7302:7331   */\n      tag_138\n      jump\t// in\n    tag_246:\n        /* \"#utility.yul\":7294:7331   */\n      swap1\n      pop\n        /* \"#utility.yul\":7386:7390   */\n      0x20\n        /* \"#utility.yul\":7380:7384   */\n      dup2\n        /* \"#utility.yul\":7376:7391   */\n      add\n        /* \"#utility.yul\":7368:7391   */\n      swap1\n      pop\n        /* \"#utility.yul\":7090:7398   */\n      swap2\n      swap1\n      pop\n      jump\t// out\n        /* \"#utility.yul\":7404:7552   */\n    tag_154:\n        /* \"#utility.yul\":7502:7508   */\n      dup3\n        /* \"#utility.yul\":7497:7500   */\n      dup2\n        /* \"#utility.yul\":7492:7495   */\n      dup4\n        /* \"#utility.yul\":7479:7509   */\n      calldatacopy\n        /* \"#utility.yul\":7543:7544   */\n      0x00\n        /* \"#utility.yul\":7534:7540   */\n      dup4\n        /* \"#utility.yul\":7529:7532   */\n      dup4\n        /* \"#utility.yul\":7525:7541   */\n      add\n        /* \"#utility.yul\":7518:7545   */\n      mstore\n        /* \"#utility.yul\":7404:7552   */\n      pop\n      pop\n      pop\n      jump\t// out\n        /* \"#utility.yul\":7558:7983   */\n    tag_155:\n        /* \"#utility.yul\":7636:7641   */\n      0x00\n        /* \"#utility.yul\":7661:7727   */\n      tag_249\n        /* \"#utility.yul\":7677:7726   */\n      tag_250\n        /* \"#utility.yul\":7719:7725   */\n      dup5\n        /* \"#utility.yul\":7677:7726   */\n      tag_153\n      jump\t// in\n    tag_250:\n        /* \"#utility.yul\":7661:7727   */\n      tag_152\n      jump\t// in\n    tag_249:\n        /* \"#utility.yul\":7652:7727   */\n      swap1\n      pop\n        /* \"#utility.yul\":7750:7756   */\n      dup3\n        /* \"#utility.yul\":7743:7748   */\n      dup2\n        /* \"#utility.yul\":7736:7757   */\n      mstore\n        /* \"#utility.yul\":7788:7792   */\n      0x20\n        /* \"#utility.yul\":7781:7786   */\n      dup2\n        /* \"#utility.yul\":7777:7793   */\n      add\n        /* \"#utility.yul\":7826:7829   */\n      dup5\n        /* \"#utility.yul\":7817:7823   */\n      dup5\n        /* \"#utility.yul\":7812:7815   */\n      dup5\n        /* \"#utility.yul\":7808:7824   */\n      add\n        /* \"#utility.yul\":7805:7830   */\n      gt\n        /* \"#utility.yul\":7802:7914   */\n      iszero\n      tag_251\n      jumpi\n        /* \"#utility.yul\":7833:7912   */\n      tag_252\n      tag_150\n      jump\t// in\n    tag_252:\n        /* \"#utility.yul\":7802:7914   */\n    tag_251:\n        /* \"#utility.yul\":7923:7977   */\n      tag_253\n        /* \"#utility.yul\":7970:7976   */\n      dup5\n        /* \"#utility.yul\":7965:7968   */\n      dup3\n        /* \"#utility.yul\":7960:7963   */\n      dup6\n        /* \"#utility.yul\":7923:7977   */\n      tag_154\n      jump\t// in\n    tag_253:\n        /* \"#utility.yul\":7642:7983   */\n      pop\n        /* \"#utility.yul\":7558:7983   */\n      swap4\n      swap3\n      pop\n      pop\n      pop\n      jump\t// out\n        /* \"#utility.yul\":8003:8343   */\n    tag_156:\n        /* \"#utility.yul\":8059:8064   */\n      0x00\n        /* \"#utility.yul\":8108:8111   */\n      dup3\n        /* \"#utility.yul\":8101:8105   */\n      0x1f\n        /* \"#utility.yul\":8093:8099   */\n      dup4\n        /* \"#utility.yul\":8089:8106   */\n      add\n        /* \"#utility.yul\":8085:8112   */\n      slt\n        /* \"#utility.yul\":8075:8197   */\n      tag_255\n      jumpi\n        /* \"#utility.yul\":8116:8195   */\n      tag_256\n      tag_149\n      jump\t// in\n    tag_256:\n        /* \"#utility.yul\":8075:8197   */\n    tag_255:\n        /* \"#utility.yul\":8233:8239   */\n      dup2\n        /* \"#utility.yul\":8220:8240   */\n      calldataload\n        /* \"#utility.yul\":8258:8337   */\n      tag_257\n        /* \"#utility.yul\":8333:8336   */\n      dup5\n        /* \"#utility.yul\":8325:8331   */\n      dup3\n        /* \"#utility.yul\":8318:8322   */\n      0x20\n        /* \"#utility.yul\":8310:8316   */\n      dup7\n        /* \"#utility.yul\":8306:8323   */\n      add\n        /* \"#utility.yul\":8258:8337   */\n      tag_155\n      jump\t// in\n    tag_257:\n        /* \"#utility.yul\":8249:8337   */\n      swap2\n      pop\n        /* \"#utility.yul\":8065:8343   */\n      pop\n        /* \"#utility.yul\":8003:8343   */\n      swap3\n      swap2\n      pop\n      pop\n      jump\t// out\n        /* \"#utility.yul\":8349:9148   */\n    tag_39:\n        /* \"#utility.yul\":8436:8442   */\n      0x00\n        /* \"#utility.yul\":8444:8450   */\n      0x00\n        /* \"#utility.yul\":8452:8458   */\n      0x00\n        /* \"#utility.yul\":8501:8503   */\n      0x60\n        /* \"#utility.yul\":8489:8498   */\n      dup5\n        /* \"#utility.yul\":8480:8487   */\n      dup7\n        /* \"#utility.yul\":8476:8499   */\n      sub\n        /* \"#utility.yul\":8472:8504   */\n      slt\n        /* \"#utility.yul\":8469:8588   */\n      iszero\n      tag_259\n      jumpi\n        /* \"#utility.yul\":8507:8586   */\n      tag_260\n      tag_145\n      jump\t// in\n    tag_260:\n        /* \"#utility.yul\":8469:8588   */\n    tag_259:\n        /* \"#utility.yul\":8627:8628   */\n      0x00\n        /* \"#utility.yul\":8652:8705   */\n      tag_261\n        /* \"#utility.yul\":8697:8704   */\n      dup7\n        /* \"#utility.yul\":8688:8694   */\n      dup3\n        /* \"#utility.yul\":8677:8686   */\n      dup8\n        /* \"#utility.yul\":8673:8695   */\n      add\n        /* \"#utility.yul\":8652:8705   */\n      tag_148\n      jump\t// in\n    tag_261:\n        /* \"#utility.yul\":8642:8705   */\n      swap4\n      pop\n        /* \"#utility.yul\":8598:8715   */\n      pop\n        /* \"#utility.yul\":8754:8756   */\n      0x20\n        /* \"#utility.yul\":8780:8833   */\n      tag_262\n        /* \"#utility.yul\":8825:8832   */\n      dup7\n        /* \"#utility.yul\":8816:8822   */\n      dup3\n        /* \"#utility.yul\":8805:8814   */\n      dup8\n        /* \"#utility.yul\":8801:8823   */\n      add\n        /* \"#utility.yul\":8780:8833   */\n      tag_148\n      jump\t// in\n    tag_262:\n        /* \"#utility.yul\":8770:8833   */\n      swap3\n      pop\n        /* \"#utility.yul\":8725:8843   */\n      pop\n        /* \"#utility.yul\":8910:8912   */\n      0x40\n        /* \"#utility.yul\":8899:8908   */\n      dup5\n        /* \"#utility.yul\":8895:8913   */\n      add\n        /* \"#utility.yul\":8882:8914   */\n      calldataload\n        /* \"#utility.yul\":8941:8959   */\n      0xffffffffffffffff\n        /* \"#utility.yul\":8933:8939   */\n      dup2\n        /* \"#utility.yul\":8930:8960   */\n      gt\n        /* \"#utility.yul\":8927:9044   */\n      iszero\n      tag_263\n      jumpi\n        /* \"#utility.yul\":8963:9042   */\n      tag_264\n      tag_146\n      jump\t// in\n    tag_264:\n        /* \"#utility.yul\":8927:9044   */\n    tag_263:\n        /* \"#utility.yul\":9068:9131   */\n      tag_265\n        /* \"#utility.yul\":9123:9130   */\n      dup7\n        /* \"#utility.yul\":9114:9120   */\n      dup3\n        /* \"#utility.yul\":9103:9112   */\n      dup8\n        /* \"#utility.yul\":9099:9121   */\n      add\n        /* \"#utility.yul\":9068:9131   */\n      tag_156\n      jump\t// in\n    tag_265:\n        /* \"#utility.yul\":9058:9131   */\n      swap2\n      pop\n        /* \"#utility.yul\":8853:9141   */\n      pop\n        /* \"#utility.yul\":8349:9148   */\n      swap3\n      pop\n      swap3\n      pop\n      swap3\n      jump\t// out\n        /* \"#utility.yul\":9154:9808   */\n    tag_43:\n        /* \"#utility.yul\":9232:9238   */\n      0x00\n        /* \"#utility.yul\":9240:9246   */\n      0x00\n        /* \"#utility.yul\":9289:9291   */\n      0x40\n        /* \"#utility.yul\":9277:9286   */\n      dup4\n        /* \"#utility.yul\":9268:9275   */\n      dup6\n        /* \"#utility.yul\":9264:9287   */\n      sub\n        /* \"#utility.yul\":9260:9292   */\n      slt\n        /* \"#utility.yul\":9257:9376   */\n      iszero\n      tag_267\n      jumpi\n        /* \"#utility.yul\":9295:9374   */\n      tag_268\n      tag_145\n      jump\t// in\n    tag_268:\n        /* \"#utility.yul\":9257:9376   */\n    tag_267:\n        /* \"#utility.yul\":9443:9444   */\n      0x00\n        /* \"#utility.yul\":9432:9441   */\n      dup4\n        /* \"#utility.yul\":9428:9445   */\n      add\n        /* \"#utility.yul\":9415:9446   */\n      calldataload\n        /* \"#utility.yul\":9473:9491   */\n      0xffffffffffffffff\n        /* \"#utility.yul\":9465:9471   */\n      dup2\n        /* \"#utility.yul\":9462:9492   */\n      gt\n        /* \"#utility.yul\":9459:9576   */\n      iszero\n      tag_269\n      jumpi\n        /* \"#utility.yul\":9495:9574   */\n      tag_270\n      tag_146\n      jump\t// in\n    tag_270:\n        /* \"#utility.yul\":9459:9576   */\n    tag_269:\n        /* \"#utility.yul\":9600:9663   */\n      tag_271\n        /* \"#utility.yul\":9655:9662   */\n      dup6\n        /* \"#utility.yul\":9646:9652   */\n      dup3\n        /* \"#utility.yul\":9635:9644   */\n      dup7\n        /* \"#utility.yul\":9631:9653   */\n      add\n        /* \"#utility.yul\":9600:9663   */\n      tag_156\n      jump\t// in\n    tag_271:\n        /* \"#utility.yul\":9590:9663   */\n      swap3\n      pop\n        /* \"#utility.yul\":9386:9673   */\n      pop\n        /* \"#utility.yul\":9712:9714   */\n      0x20\n        /* \"#utility.yul\":9738:9791   */\n      tag_272\n        /* \"#utility.yul\":9783:9790   */\n      dup6\n        /* \"#utility.yul\":9774:9780   */\n      dup3\n        /* \"#utility.yul\":9763:9772   */\n      dup7\n        /* \"#utility.yul\":9759:9781   */\n      add\n        /* \"#utility.yul\":9738:9791   */\n      tag_148\n      jump\t// in\n    tag_272:\n        /* \"#utility.yul\":9728:9791   */\n      swap2\n      pop\n        /* \"#utility.yul\":9683:9801   */\n      pop\n        /* \"#utility.yul\":9154:9808   */\n      swap3\n      pop\n      swap3\n      swap1\n      pop\n      jump\t// out\n        /* \"#utility.yul\":9814:10468   */\n    tag_47:\n        /* \"#utility.yul\":9892:9898   */\n      0x00\n        /* \"#utility.yul\":9900:9906   */\n      0x00\n        /* \"#utility.yul\":9949:9951   */\n      0x40\n        /* \"#utility.yul\":9937:9946   */\n      dup4\n        /* \"#utility.yul\":9928:9935   */\n      dup6\n        /* \"#utility.yul\":9924:9947   */\n      sub\n        /* \"#utility.yul\":9920:9952   */\n      slt\n        /* \"#utility.yul\":9917:10036   */\n      iszero\n      tag_274\n      jumpi\n        /* \"#utility.yul\":9955:10034   */\n      tag_275\n      tag_145\n      jump\t// in\n    tag_275:\n        /* \"#utility.yul\":9917:10036   */\n    tag_274:\n        /* \"#utility.yul\":10075:10076   */\n      0x00\n        /* \"#utility.yul\":10100:10153   */\n      tag_276\n        /* \"#utility.yul\":10145:10152   */\n      dup6\n        /* \"#utility.yul\":10136:10142   */\n      dup3\n        /* \"#utility.yul\":10125:10134   */\n      dup7\n        /* \"#utility.yul\":10121:10143   */\n      add\n        /* \"#utility.yul\":10100:10153   */\n      tag_148\n      jump\t// in\n    tag_276:\n        /* \"#utility.yul\":10090:10153   */\n      swap3\n      pop\n        /* \"#utility.yul\":10046:10163   */\n      pop\n        /* \"#utility.yul\":10230:10232   */\n      0x20\n        /* \"#utility.yul\":10219:10228   */\n      dup4\n        /* \"#utility.yul\":10215:10233   */\n      add\n        /* \"#utility.yul\":10202:10234   */\n      calldataload\n        /* \"#utility.yul\":10261:10279   */\n      0xffffffffffffffff\n        /* \"#utility.yul\":10253:10259   */\n      dup2\n        /* \"#utility.yul\":10250:10280   */\n      gt\n        /* \"#utility.yul\":10247:10364   */\n      iszero\n      tag_277\n      jumpi\n        /* \"#utility.yul\":10283:10362   */\n      tag_278\n      tag_146\n      jump\t// in\n    tag_278:\n        /* \"#utility.yul\":10247:10364   */\n    tag_277:\n        /* \"#utility.yul\":10388:10451   */\n      tag_279\n        /* \"#utility.yul\":10443:10450   */\n      dup6\n        /* \"#utility.yul\":10434:10440   */\n      dup3\n        /* \"#utility.yul\":10423:10432   */\n      dup7\n        /* \"#utility.yul\":10419:10441   */\n      add\n        /* \"#utility.yul\":10388:10451   */\n      tag_156\n      jump\t// in\n    tag_279:\n        /* \"#utility.yul\":10378:10451   */\n      swap2\n      pop\n        /* \"#utility.yul\":10173:10461   */\n      pop\n        /* \"#utility.yul\":9814:10468   */\n      swap3\n      pop\n      swap3\n      swap1\n      pop\n      jump\t// out\n        /* \"#utility.yul\":10474:10983   */\n    tag_51:\n        /* \"#utility.yul\":10543:10549   */\n      0x00\n        /* \"#utility.yul\":10592:10594   */\n      0x20\n        /* \"#utility.yul\":10580:10589   */\n      dup3\n        /* \"#utility.yul\":10571:10578   */\n      dup5\n        /* \"#utility.yul\":10567:10590   */\n      sub\n        /* \"#utility.yul\":10563:10595   */\n      slt\n        /* \"#utility.yul\":10560:10679   */\n      iszero\n      tag_281\n      jumpi\n        /* \"#utility.yul\":10598:10677   */\n      tag_282\n      tag_145\n      jump\t// in\n    tag_282:\n        /* \"#utility.yul\":10560:10679   */\n    tag_281:\n        /* \"#utility.yul\":10746:10747   */\n      0x00\n        /* \"#utility.yul\":10735:10744   */\n      dup3\n        /* \"#utility.yul\":10731:10748   */\n      add\n        /* \"#utility.yul\":10718:10749   */\n      calldataload\n        /* \"#utility.yul\":10776:10794   */\n      0xffffffffffffffff\n        /* \"#utility.yul\":10768:10774   */\n      dup2\n        /* \"#utility.yul\":10765:10795   */\n      gt\n        /* \"#utility.yul\":10762:10879   */\n      iszero\n      tag_283\n      jumpi\n        /* \"#utility.yul\":10798:10877   */\n      tag_284\n      tag_146\n      jump\t// in\n    tag_284:\n        /* \"#utility.yul\":10762:10879   */\n    tag_283:\n        /* \"#utility.yul\":10903:10966   */\n      tag_285\n        /* \"#utility.yul\":10958:10965   */\n      dup5\n        /* \"#utility.yul\":10949:10955   */\n      dup3\n        /* \"#utility.yul\":10938:10947   */\n      dup6\n        /* \"#utility.yul\":10934:10956   */\n      add\n        /* \"#utility.yul\":10903:10966   */\n      tag_156\n      jump\t// in\n    tag_285:\n        /* \"#utility.yul\":10893:10966   */\n      swap2\n      pop\n        /* \"#utility.yul\":10689:10976   */\n      pop\n        /* \"#utility.yul\":10474:10983   */\n      swap3\n      swap2\n      pop\n      pop\n      jump\t// out\n        /* \"#utility.yul\":10989:11169   */\n    tag_157:\n        /* \"#utility.yul\":11037:11114   */\n      0x4e487b7100000000000000000000000000000000000000000000000000000000\n        /* \"#utility.yul\":11034:11035   */\n      0x00\n        /* \"#utility.yul\":11027:11115   */\n      mstore\n        /* \"#utility.yul\":11134:11138   */\n      0x22\n        /* \"#utility.yul\":11131:11132   */\n      0x04\n        /* \"#utility.yul\":11124:11139   */\n      mstore\n        /* \"#utility.yul\":11158:11162   */\n      0x24\n        /* \"#utility.yul\":11155:11156   */\n      0x00\n        /* \"#utility.yul\":11148:11163   */\n      revert\n        /* \"#utility.yul\":11175:11495   */\n    tag_68:\n        /* \"#utility.yul\":11219:11225   */\n      0x00\n        /* \"#utility.yul\":11256:11257   */\n      0x02\n        /* \"#utility.yul\":11250:11254   */\n      dup3\n        /* \"#utility.yul\":11246:11258   */\n      div\n        /* \"#utility.yul\":11236:11258   */\n      swap1\n      pop\n        /* \"#utility.yul\":11303:11304   */\n      0x01\n        /* \"#utility.yul\":11297:11301   */\n      dup3\n        /* \"#utility.yul\":11293:11305   */\n      and\n        /* \"#utility.yul\":11324:11342   */\n      dup1\n        /* \"#utility.yul\":11314:11395   */\n      tag_288\n      jumpi\n        /* \"#utility.yul\":11380:11384   */\n      0x7f\n        /* \"#utility.yul\":11372:11378   */\n      dup3\n        /* \"#utility.yul\":11368:11385   */\n      and\n        /* \"#utility.yul\":11358:11385   */\n      swap2\n      pop\n        /* \"#utility.yul\":11314:11395   */\n    tag_288:\n        /* \"#utility.yul\":11442:11444   */\n      0x20\n        /* \"#utility.yul\":11434:11440   */\n      dup3\n        /* \"#utility.yul\":11431:11445   */\n      lt\n        /* \"#utility.yul\":11411:11429   */\n      dup2\n        /* \"#utility.yul\":11408:11446   */\n      sub\n        /* \"#utility.yul\":11405:11489   */\n      tag_289\n      jumpi\n        /* \"#utility.yul\":11461:11479   */\n      tag_290\n      tag_157\n      jump\t// in\n    tag_290:\n        /* \"#utility.yul\":11405:11489   */\n    tag_289:\n        /* \"#utility.yul\":11226:11495   */\n      pop\n        /* \"#utility.yul\":11175:11495   */\n      swap2\n      swap1\n      pop\n      jump\t// out\n        /* \"#utility.yul\":11501:11681   */\n    tag_75:\n        /* \"#utility.yul\":11549:11626   */\n      0x4e487b7100000000000000000000000000000000000000000000000000000000\n        /* \"#utility.yul\":11546:11547   */\n      0x00\n        /* \"#utility.yul\":11539:11627   */\n      mstore\n        /* \"#utility.yul\":11646:11650   */\n      0x32\n        /* \"#utility.yul\":11643:11644   */\n      0x04\n        /* \"#utility.yul\":11636:11651   */\n      mstore\n        /* \"#utility.yul\":11670:11674   */\n      0x24\n        /* \"#utility.yul\":11667:11668   */\n      0x00\n        /* \"#utility.yul\":11660:11675   */\n      revert\n        /* \"#utility.yul\":11687:11867   */\n    tag_158:\n        /* \"#utility.yul\":11735:11812   */\n      0x4e487b7100000000000000000000000000000000000000000000000000000000\n        /* \"#utility.yul\":11732:11733   */\n      0x00\n        /* \"#utility.yul\":11725:11813   */\n      mstore\n        /* \"#utility.yul\":11832:11836   */\n      0x11\n        /* \"#utility.yul\":11829:11830   */\n      0x04\n        /* \"#utility.yul\":11822:11837   */\n      mstore\n        /* \"#utility.yul\":11856:11860   */\n      0x24\n        /* \"#utility.yul\":11853:11854   */\n      0x00\n        /* \"#utility.yul\":11846:11861   */\n      revert\n        /* \"#utility.yul\":11873:12106   */\n    tag_84:\n        /* \"#utility.yul\":11912:11915   */\n      0x00\n        /* \"#utility.yul\":11935:11959   */\n      tag_294\n        /* \"#utility.yul\":11953:11958   */\n      dup3\n        /* \"#utility.yul\":11935:11959   */\n      tag_126\n      jump\t// in\n    tag_294:\n        /* \"#utility.yul\":11926:11959   */\n      swap2\n      pop\n        /* \"#utility.yul\":11981:12047   */\n      0xffffffffffffffffffffffffffffffffffffffffffffffffffffffffffffffff\n        /* \"#utility.yul\":11974:11979   */\n      dup3\n        /* \"#utility.yul\":11971:12048   */\n      sub\n        /* \"#utility.yul\":11968:12071   */\n      tag_295\n      jumpi\n        /* \"#utility.yul\":12051:12069   */\n      tag_296\n      tag_158\n      jump\t// in\n    tag_296:\n        /* \"#utility.yul\":11968:12071   */\n    tag_295:\n        /* \"#utility.yul\":12098:12099   */\n      0x01\n        /* \"#utility.yul\":12091:12096   */\n      dup3\n        /* \"#utility.yul\":12087:12100   */\n      add\n        /* \"#utility.yul\":12080:12100   */\n      swap1\n      pop\n        /* \"#utility.yul\":11873:12106   */\n      swap2\n      swap1\n      pop\n      jump\t// out\n        /* \"#utility.yul\":12112:12281   */\n    tag_159:\n        /* \"#utility.yul\":12196:12207   */\n      0x00\n        /* \"#utility.yul\":12230:12236   */\n      dup3\n        /* \"#utility.yul\":12225:12228   */\n      dup3\n        /* \"#utility.yul\":12218:12237   */\n      mstore\n        /* \"#utility.yul\":12270:12274   */\n      0x20\n        /* \"#utility.yul\":12265:12268   */\n      dup3\n        /* \"#utility.yul\":12261:12275   */\n      add\n        /* \"#utility.yul\":12246:12275   */\n      swap1\n      pop\n        /* \"#utility.yul\":12112:12281   */\n      swap3\n      swap2\n      pop\n      pop\n      jump\t// out\n        /* \"#utility.yul\":12287:12521   */\n    tag_160:\n        /* \"#utility.yul\":12427:12461   */\n      0x596f7520646f6e742068617665207065726d697373696f6e20746f2068616e64\n        /* \"#utility.yul\":12423:12424   */\n      0x00\n        /* \"#utility.yul\":12415:12421   */\n      dup3\n        /* \"#utility.yul\":12411:12425   */\n      add\n        /* \"#utility.yul\":12404:12462   */\n      mstore\n        /* \"#utility.yul\":12496:12513   */\n      0x6c652074686973204163636f756e740000000000000000000000000000000000\n        /* \"#utility.yul\":12491:12493   */\n      0x20\n        /* \"#utility.yul\":12483:12489   */\n      dup3\n        /* \"#utility.yul\":12479:12494   */\n      add\n        /* \"#utility.yul\":12472:12514   */\n      mstore\n        /* \"#utility.yul\":12287:12521   */\n      pop\n      jump\t// out\n        /* \"#utility.yul\":12527:12893   */\n    tag_161:\n        /* \"#utility.yul\":12669:12672   */\n      0x00\n        /* \"#utility.yul\":12690:12757   */\n      tag_300\n        /* \"#utility.yul\":12754:12756   */\n      0x2f\n        /* \"#utility.yul\":12749:12752   */\n      dup4\n        /* \"#utility.yul\":12690:12757   */\n      tag_159\n      jump\t// in\n    tag_300:\n        /* \"#utility.yul\":12683:12757   */\n      swap2\n      pop\n        /* \"#utility.yul\":12766:12859   */\n      tag_301\n        /* \"#utility.yul\":12855:12858   */\n      dup3\n        /* \"#utility.yul\":12766:12859   */\n      tag_160\n      jump\t// in\n    tag_301:\n        /* \"#utility.yul\":12884:12886   */\n      0x40\n        /* \"#utility.yul\":12879:12882   */\n      dup3\n        /* \"#utility.yul\":12875:12887   */\n      add\n        /* \"#utility.yul\":12868:12887   */\n      swap1\n      pop\n        /* \"#utility.yul\":12527:12893   */\n      swap2\n      swap1\n      pop\n      jump\t// out\n        /* \"#utility.yul\":12899:13318   */\n    tag_106:\n        /* \"#utility.yul\":13065:13069   */\n      0x00\n        /* \"#utility.yul\":13103:13105   */\n      0x20\n        /* \"#utility.yul\":13092:13101   */\n      dup3\n        /* \"#utility.yul\":13088:13106   */\n      add\n        /* \"#utility.yul\":13080:13106   */\n      swap1\n      pop\n        /* \"#utility.yul\":13152:13161   */\n      dup2\n        /* \"#utility.yul\":13146:13150   */\n      dup2\n        /* \"#utility.yul\":13142:13162   */\n      sub\n        /* \"#utility.yul\":13138:13139   */\n      0x00\n        /* \"#utility.yul\":13127:13136   */\n      dup4\n        /* \"#utility.yul\":13123:13140   */\n      add\n        /* \"#utility.yul\":13116:13163   */\n      mstore\n        /* \"#utility.yul\":13180:13311   */\n      tag_303\n        /* \"#utility.yul\":13306:13310   */\n      dup2\n        /* \"#utility.yul\":13180:13311   */\n      tag_161\n      jump\t// in\n    tag_303:\n        /* \"#utility.yul\":13172:13311   */\n      swap1\n      pop\n        /* \"#utility.yul\":12899:13318   */\n      swap2\n      swap1\n      pop\n      jump\t// out\n        /* \"#utility.yul\":13324:13465   */\n    tag_162:\n        /* \"#utility.yul\":13373:13377   */\n      0x00\n        /* \"#utility.yul\":13396:13399   */\n      dup2\n        /* \"#utility.yul\":13388:13399   */\n      swap1\n      pop\n        /* \"#utility.yul\":13419:13422   */\n      dup2\n        /* \"#utility.yul\":13416:13417   */\n      0x00\n        /* \"#utility.yul\":13409:13423   */\n      mstore\n        /* \"#utility.yul\":13453:13457   */\n      0x20\n        /* \"#utility.yul\":13450:13451   */\n      0x00\n        /* \"#utility.yul\":13440:13458   */\n      keccak256\n        /* \"#utility.yul\":13432:13458   */\n      swap1\n      pop\n        /* \"#utility.yul\":13324:13465   */\n      swap2\n      swap1\n      pop\n      jump\t// out\n        /* \"#utility.yul\":13471:13564   */\n    tag_163:\n        /* \"#utility.yul\":13508:13514   */\n      0x00\n        /* \"#utility.yul\":13555:13557   */\n      0x20\n        /* \"#utility.yul\":13550:13552   */\n      0x1f\n        /* \"#utility.yul\":13543:13548   */\n      dup4\n        /* \"#utility.yul\":13539:13553   */\n      add\n        /* \"#utility.yul\":13535:13558   */\n      div\n        /* \"#utility.yul\":13525:13558   */\n      swap1\n      pop\n        /* \"#utility.yul\":13471:13564   */\n      swap2\n      swap1\n      pop\n      jump\t// out\n        /* \"#utility.yul\":13570:13677   */\n    tag_164:\n        /* \"#utility.yul\":13614:13622   */\n      0x00\n        /* \"#utility.yul\":13664:13669   */\n      dup3\n        /* \"#utility.yul\":13658:13662   */\n      dup3\n        /* \"#utility.yul\":13654:13670   */\n      shl\n        /* \"#utility.yul\":13633:13670   */\n      swap1\n      pop\n        /* \"#utility.yul\":13570:13677   */\n      swap3\n      swap2\n      pop\n      pop\n      jump\t// out\n        /* \"#utility.yul\":13683:14076   */\n    tag_165:\n        /* \"#utility.yul\":13752:13758   */\n      0x00\n        /* \"#utility.yul\":13802:13803   */\n      0x08\n        /* \"#utility.yul\":13790:13800   */\n      dup4\n        /* \"#utility.yul\":13786:13804   */\n      mul\n        /* \"#utility.yul\":13825:13922   */\n      tag_308\n        /* \"#utility.yul\":13855:13921   */\n      0xffffffffffffffffffffffffffffffffffffffffffffffffffffffffffffffff\n        /* \"#utility.yul\":13844:13853   */\n      dup3\n        /* \"#utility.yul\":13825:13922   */\n      tag_164\n      jump\t// in\n    tag_308:\n        /* \"#utility.yul\":13943:13982   */\n      tag_309\n        /* \"#utility.yul\":13973:13981   */\n      dup7\n        /* \"#utility.yul\":13962:13971   */\n      dup4\n        /* \"#utility.yul\":13943:13982   */\n      tag_164\n      jump\t// in\n    tag_309:\n        /* \"#utility.yul\":13931:13982   */\n      swap6\n      pop\n        /* \"#utility.yul\":14015:14019   */\n      dup1\n        /* \"#utility.yul\":14011:14020   */\n      not\n        /* \"#utility.yul\":14004:14009   */\n      dup5\n        /* \"#utility.yul\":14000:14021   */\n      and\n        /* \"#utility.yul\":13991:14021   */\n      swap4\n      pop\n        /* \"#utility.yul\":14064:14068   */\n      dup1\n        /* \"#utility.yul\":14054:14062   */\n      dup7\n        /* \"#utility.yul\":14050:14069   */\n      and\n        /* \"#utility.yul\":14043:14048   */\n      dup5\n        /* \"#utility.yul\":14040:14070   */\n      or\n        /* \"#utility.yul\":14030:14070   */\n      swap3\n      pop\n        /* \"#utility.yul\":13759:14076   */\n      pop\n      pop\n        /* \"#utility.yul\":13683:14076   */\n      swap4\n      swap3\n      pop\n      pop\n      pop\n      jump\t// out\n        /* \"#utility.yul\":14082:14142   */\n    tag_166:\n        /* \"#utility.yul\":14110:14113   */\n      0x00\n        /* \"#utility.yul\":14131:14136   */\n      dup2\n        /* \"#utility.yul\":14124:14136   */\n      swap1\n      pop\n        /* \"#utility.yul\":14082:14142   */\n      swap2\n      swap1\n      pop\n      jump\t// out\n        /* \"#utility.yul\":14148:14290   */\n    tag_167:\n        /* \"#utility.yul\":14198:14207   */\n      0x00\n        /* \"#utility.yul\":14231:14284   */\n      tag_312\n        /* \"#utility.yul\":14249:14283   */\n      tag_313\n        /* \"#utility.yul\":14258:14282   */\n      tag_314\n        /* \"#utility.yul\":14276:14281   */\n      dup5\n        /* \"#utility.yul\":14258:14282   */\n      tag_126\n      jump\t// in\n    tag_314:\n        /* \"#utility.yul\":14249:14283   */\n      tag_166\n      jump\t// in\n    tag_313:\n        /* \"#utility.yul\":14231:14284   */\n      tag_126\n      jump\t// in\n    tag_312:\n        /* \"#utility.yul\":14218:14284   */\n      swap1\n      pop\n        /* \"#utility.yul\":14148:14290   */\n      swap2\n      swap1\n      pop\n      jump\t// out\n        /* \"#utility.yul\":14296:14371   */\n    tag_168:\n        /* \"#utility.yul\":14339:14342   */\n      0x00\n        /* \"#utility.yul\":14360:14365   */\n      dup2\n        /* \"#utility.yul\":14353:14365   */\n      swap1\n      pop\n        /* \"#utility.yul\":14296:14371   */\n      swap2\n      swap1\n      pop\n      jump\t// out\n        /* \"#utility.yul\":14377:14646   */\n    tag_169:\n        /* \"#utility.yul\":14487:14526   */\n      tag_317\n        /* \"#utility.yul\":14518:14525   */\n      dup4\n        /* \"#utility.yul\":14487:14526   */\n      tag_167\n      jump\t// in\n    tag_317:\n        /* \"#utility.yul\":14548:14639   */\n      tag_318\n        /* \"#utility.yul\":14597:14638   */\n      tag_319\n        /* \"#utility.yul\":14621:14637   */\n      dup3\n        /* \"#utility.yul\":14597:14638   */\n      tag_168\n      jump\t// in\n    tag_319:\n        /* \"#utility.yul\":14589:14595   */\n      dup5\n        /* \"#utility.yul\":14582:14586   */\n      dup5\n        /* \"#utility.yul\":14576:14587   */\n      sload\n        /* \"#utility.yul\":14548:14639   */\n      tag_165\n      jump\t// in\n    tag_318:\n        /* \"#utility.yul\":14542:14546   */\n      dup3\n        /* \"#utility.yul\":14535:14640   */\n      sstore\n        /* \"#utility.yul\":14453:14646   */\n      pop\n        /* \"#utility.yul\":14377:14646   */\n      pop\n      pop\n      pop\n      jump\t// out\n        /* \"#utility.yul\":14652:14725   */\n    tag_170:\n        /* \"#utility.yul\":14697:14700   */\n      0x00\n        /* \"#utility.yul\":14718:14719   */\n      0x00\n        /* \"#utility.yul\":14711:14719   */\n      swap1\n      pop\n        /* \"#utility.yul\":14652:14725   */\n      swap1\n      jump\t// out\n        /* \"#utility.yul\":14731:14920   */\n    tag_171:\n        /* \"#utility.yul\":14808:14840   */\n      tag_322\n      tag_170\n      jump\t// in\n    tag_322:\n        /* \"#utility.yul\":14849:14914   */\n      tag_323\n        /* \"#utility.yul\":14907:14913   */\n      dup2\n        /* \"#utility.yul\":14899:14905   */\n      dup5\n        /* \"#utility.yul\":14893:14897   */\n      dup5\n        /* \"#utility.yul\":14849:14914   */\n      tag_169\n      jump\t// in\n    tag_323:\n        /* \"#utility.yul\":14784:14920   */\n      pop\n        /* \"#utility.yul\":14731:14920   */\n      pop\n      pop\n      jump\t// out\n        /* \"#utility.yul\":14926:15112   */\n    tag_172:\n        /* \"#utility.yul\":14986:15106   */\n    tag_325:\n        /* \"#utility.yul\":15003:15006   */\n      dup2\n        /* \"#utility.yul\":14996:15001   */\n      dup2\n        /* \"#utility.yul\":14993:15007   */\n      lt\n        /* \"#utility.yul\":14986:15106   */\n      iszero\n      tag_327\n      jumpi\n        /* \"#utility.yul\":15057:15096   */\n      tag_328\n        /* \"#utility.yul\":15094:15095   */\n      0x00\n        /* \"#utility.yul\":15087:15092   */\n      dup3\n        /* \"#utility.yul\":15057:15096   */\n      tag_171\n      jump\t// in\n    tag_328:\n        /* \"#utility.yul\":15030:15031   */\n      0x01\n        /* \"#utility.yul\":15023:15028   */\n      dup2\n        /* \"#utility.yul\":15019:15032   */\n      add\n        /* \"#utility.yul\":15010:15032   */\n      swap1\n      pop\n        /* \"#utility.yul\":14986:15106   */\n      jump(tag_325)\n    tag_327:\n        /* \"#utility.yul\":14926:15112   */\n      pop\n      pop\n      jump\t// out\n        /* \"#utility.yul\":15118:15661   */\n    tag_173:\n        /* \"#utility.yul\":15219:15221   */\n      0x1f\n        /* \"#utility.yul\":15214:15217   */\n      dup3\n        /* \"#utility.yul\":15211:15222   */\n      gt\n        /* \"#utility.yul\":15208:15654   */\n      iszero\n      tag_330\n      jumpi\n        /* \"#utility.yul\":15253:15291   */\n      tag_331\n        /* \"#utility.yul\":15285:15290   */\n      dup2\n        /* \"#utility.yul\":15253:15291   */\n      tag_162\n      jump\t// in\n    tag_331:\n        /* \"#utility.yul\":15337:15366   */\n      tag_332\n        /* \"#utility.yul\":15355:15365   */\n      dup5\n        /* \"#utility.yul\":15337:15366   */\n      tag_163\n      jump\t// in\n    tag_332:\n        /* \"#utility.yul\":15327:15335   */\n      dup2\n        /* \"#utility.yul\":15323:15367   */\n      add\n        /* \"#utility.yul\":15520:15522   */\n      0x20\n        /* \"#utility.yul\":15508:15518   */\n      dup6\n        /* \"#utility.yul\":15505:15523   */\n      lt\n        /* \"#utility.yul\":15502:15551   */\n      iszero\n      tag_333\n      jumpi\n        /* \"#utility.yul\":15541:15549   */\n      dup2\n        /* \"#utility.yul\":15526:15549   */\n      swap1\n      pop\n        /* \"#utility.yul\":15502:15551   */\n    tag_333:\n        /* \"#utility.yul\":15564:15644   */\n      tag_334\n        /* \"#utility.yul\":15620:15642   */\n      tag_335\n        /* \"#utility.yul\":15638:15641   */\n      dup6\n        /* \"#utility.yul\":15620:15642   */\n      tag_163\n      jump\t// in\n    tag_335:\n        /* \"#utility.yul\":15610:15618   */\n      dup4\n        /* \"#utility.yul\":15606:15643   */\n      add\n        /* \"#utility.yul\":15593:15604   */\n      dup3\n        /* \"#utility.yul\":15564:15644   */\n      tag_172\n      jump\t// in\n    tag_334:\n        /* \"#utility.yul\":15223:15654   */\n      pop\n      pop\n        /* \"#utility.yul\":15208:15654   */\n    tag_330:\n        /* \"#utility.yul\":15118:15661   */\n      pop\n      pop\n      pop\n      jump\t// out\n        /* \"#utility.yul\":15667:15784   */\n    tag_174:\n        /* \"#utility.yul\":15721:15729   */\n      0x00\n        /* \"#utility.yul\":15771:15776   */\n      dup3\n        /* \"#utility.yul\":15765:15769   */\n      dup3\n        /* \"#utility.yul\":15761:15777   */\n      shr\n        /* \"#utility.yul\":15740:15777   */\n      swap1\n      pop\n        /* \"#utility.yul\":15667:15784   */\n      swap3\n      swap2\n      pop\n      pop\n      jump\t// out\n        /* \"#utility.yul\":15790:15959   */\n    tag_175:\n        /* \"#utility.yul\":15834:15840   */\n      0x00\n        /* \"#utility.yul\":15867:15918   */\n      tag_338\n        /* \"#utility.yul\":15915:15916   */\n      0x00\n        /* \"#utility.yul\":15911:15917   */\n      not\n        /* \"#utility.yul\":15903:15908   */\n      dup5\n        /* \"#utility.yul\":15900:15901   */\n      0x08\n        /* \"#utility.yul\":15896:15909   */\n      mul\n        /* \"#utility.yul\":15867:15918   */\n      tag_174\n      jump\t// in\n    tag_338:\n        /* \"#utility.yul\":15863:15919   */\n      not\n        /* \"#utility.yul\":15948:15952   */\n      dup1\n        /* \"#utility.yul\":15942:15946   */\n      dup4\n        /* \"#utility.yul\":15938:15953   */\n      and\n        /* \"#utility.yul\":15928:15953   */\n      swap2\n      pop\n        /* \"#utility.yul\":15841:15959   */\n      pop\n        /* \"#utility.yul\":15790:15959   */\n      swap3\n      swap2\n      pop\n      pop\n      jump\t// out\n        /* \"#utility.yul\":15964:16259   */\n    tag_176:\n        /* \"#utility.yul\":16040:16044   */\n      0x00\n        /* \"#utility.yul\":16186:16215   */\n      tag_340\n        /* \"#utility.yul\":16211:16214   */\n      dup4\n        /* \"#utility.yul\":16205:16209   */\n      dup4\n        /* \"#utility.yul\":16186:16215   */\n      tag_175\n      jump\t// in\n    tag_340:\n        /* \"#utility.yul\":16178:16215   */\n      swap2\n      pop\n        /* \"#utility.yul\":16248:16251   */\n      dup3\n        /* \"#utility.yul\":16245:16246   */\n      0x02\n        /* \"#utility.yul\":16241:16252   */\n      mul\n        /* \"#utility.yul\":16235:16239   */\n      dup3\n        /* \"#utility.yul\":16232:16253   */\n      or\n        /* \"#utility.yul\":16224:16253   */\n      swap1\n      pop\n        /* \"#utility.yul\":15964:16259   */\n      swap3\n      swap2\n      pop\n      pop\n      jump\t// out\n        /* \"#utility.yul\":16264:17659   */\n    tag_110:\n        /* \"#utility.yul\":16381:16418   */\n      tag_342\n        /* \"#utility.yul\":16414:16417   */\n      dup3\n        /* \"#utility.yul\":16381:16418   */\n      tag_135\n      jump\t// in\n    tag_342:\n        /* \"#utility.yul\":16483:16501   */\n      0xffffffffffffffff\n        /* \"#utility.yul\":16475:16481   */\n      dup2\n        /* \"#utility.yul\":16472:16502   */\n      gt\n        /* \"#utility.yul\":16469:16525   */\n      iszero\n      tag_343\n      jumpi\n        /* \"#utility.yul\":16505:16523   */\n      tag_344\n      tag_59\n      jump\t// in\n    tag_344:\n        /* \"#utility.yul\":16469:16525   */\n    tag_343:\n        /* \"#utility.yul\":16549:16587   */\n      tag_345\n        /* \"#utility.yul\":16581:16585   */\n      dup3\n        /* \"#utility.yul\":16575:16586   */\n      sload\n        /* \"#utility.yul\":16549:16587   */\n      tag_68\n      jump\t// in\n    tag_345:\n        /* \"#utility.yul\":16634:16701   */\n      tag_346\n        /* \"#utility.yul\":16694:16700   */\n      dup3\n        /* \"#utility.yul\":16686:16692   */\n      dup3\n        /* \"#utility.yul\":16680:16684   */\n      dup6\n        /* \"#utility.yul\":16634:16701   */\n      tag_173\n      jump\t// in\n    tag_346:\n        /* \"#utility.yul\":16728:16729   */\n      0x00\n        /* \"#utility.yul\":16752:16756   */\n      0x20\n        /* \"#utility.yul\":16739:16756   */\n      swap1\n      pop\n        /* \"#utility.yul\":16784:16786   */\n      0x1f\n        /* \"#utility.yul\":16776:16782   */\n      dup4\n        /* \"#utility.yul\":16773:16787   */\n      gt\n        /* \"#utility.yul\":16801:16802   */\n      0x01\n        /* \"#utility.yul\":16796:17414   */\n      dup2\n      eq\n      tag_348\n      jumpi\n        /* \"#utility.yul\":17458:17459   */\n      0x00\n        /* \"#utility.yul\":17475:17481   */\n      dup5\n        /* \"#utility.yul\":17472:17549   */\n      iszero\n      tag_349\n      jumpi\n        /* \"#utility.yul\":17524:17533   */\n      dup3\n        /* \"#utility.yul\":17519:17522   */\n      dup8\n        /* \"#utility.yul\":17515:17534   */\n      add\n        /* \"#utility.yul\":17509:17535   */\n      mload\n        /* \"#utility.yul\":17500:17535   */\n      swap1\n      pop\n        /* \"#utility.yul\":17472:17549   */\n    tag_349:\n        /* \"#utility.yul\":17575:17642   */\n      tag_350\n        /* \"#utility.yul\":17635:17641   */\n      dup6\n        /* \"#utility.yul\":17628:17633   */\n      dup3\n        /* \"#utility.yul\":17575:17642   */\n      tag_176\n      jump\t// in\n    tag_350:\n        /* \"#utility.yul\":17569:17573   */\n      dup7\n        /* \"#utility.yul\":17562:17643   */\n      sstore\n        /* \"#utility.yul\":17431:17653   */\n      pop\n        /* \"#utility.yul\":16766:17653   */\n      jump(tag_347)\n        /* \"#utility.yul\":16796:17414   */\n    tag_348:\n        /* \"#utility.yul\":16848:16852   */\n      0x1f\n        /* \"#utility.yul\":16844:16853   */\n      not\n        /* \"#utility.yul\":16836:16842   */\n      dup5\n        /* \"#utility.yul\":16832:16854   */\n      and\n        /* \"#utility.yul\":16882:16919   */\n      tag_351\n        /* \"#utility.yul\":16914:16918   */\n      dup7\n        /* \"#utility.yul\":16882:16919   */\n      tag_162\n      jump\t// in\n    tag_351:\n        /* \"#utility.yul\":16941:16942   */\n      0x00\n        /* \"#utility.yul\":16955:17163   */\n    tag_352:\n        /* \"#utility.yul\":16969:16976   */\n      dup3\n        /* \"#utility.yul\":16966:16967   */\n      dup2\n        /* \"#utility.yul\":16963:16977   */\n      lt\n        /* \"#utility.yul\":16955:17163   */\n      iszero\n      tag_354\n      jumpi\n        /* \"#utility.yul\":17048:17057   */\n      dup5\n        /* \"#utility.yul\":17043:17046   */\n      dup10\n        /* \"#utility.yul\":17039:17058   */\n      add\n        /* \"#utility.yul\":17033:17059   */\n      mload\n        /* \"#utility.yul\":17025:17031   */\n      dup3\n        /* \"#utility.yul\":17018:17060   */\n      sstore\n        /* \"#utility.yul\":17099:17100   */\n      0x01\n        /* \"#utility.yul\":17091:17097   */\n      dup3\n        /* \"#utility.yul\":17087:17101   */\n      add\n        /* \"#utility.yul\":17077:17101   */\n      swap2\n      pop\n        /* \"#utility.yul\":17146:17148   */\n      0x20\n        /* \"#utility.yul\":17135:17144   */\n      dup6\n        /* \"#utility.yul\":17131:17149   */\n      add\n        /* \"#utility.yul\":17118:17149   */\n      swap5\n      pop\n        /* \"#utility.yul\":16992:16996   */\n      0x20\n        /* \"#utility.yul\":16989:16990   */\n      dup2\n        /* \"#utility.yul\":16985:16997   */\n      add\n        /* \"#utility.yul\":16980:16997   */\n      swap1\n      pop\n        /* \"#utility.yul\":16955:17163   */\n      jump(tag_352)\n    tag_354:\n        /* \"#utility.yul\":17191:17197   */\n      dup7\n        /* \"#utility.yul\":17182:17189   */\n      dup4\n        /* \"#utility.yul\":17179:17198   */\n      lt\n        /* \"#utility.yul\":17176:17355   */\n      iszero\n      tag_355\n      jumpi\n        /* \"#utility.yul\":17249:17258   */\n      dup5\n        /* \"#utility.yul\":17244:17247   */\n      dup10\n        /* \"#utility.yul\":17240:17259   */\n      add\n        /* \"#utility.yul\":17234:17260   */\n      mload\n        /* \"#utility.yul\":17292:17340   */\n      tag_356\n        /* \"#utility.yul\":17334:17338   */\n      0x1f\n        /* \"#utility.yul\":17326:17332   */\n      dup10\n        /* \"#utility.yul\":17322:17339   */\n      and\n        /* \"#utility.yul\":17311:17320   */\n      dup3\n        /* \"#utility.yul\":17292:17340   */\n      tag_175\n      jump\t// in\n    tag_356:\n        /* \"#utility.yul\":17284:17290   */\n      dup4\n        /* \"#utility.yul\":17277:17341   */\n      sstore\n        /* \"#utility.yul\":17199:17355   */\n      pop\n        /* \"#utility.yul\":17176:17355   */\n    tag_355:\n        /* \"#utility.yul\":17401:17402   */\n      0x01\n        /* \"#utility.yul\":17397:17398   */\n      0x02\n        /* \"#utility.yul\":17389:17395   */\n      dup9\n        /* \"#utility.yul\":17385:17399   */\n      mul\n        /* \"#utility.yul\":17381:17403   */\n      add\n        /* \"#utility.yul\":17375:17379   */\n      dup9\n        /* \"#utility.yul\":17368:17404   */\n      sstore\n        /* \"#utility.yul\":16803:17414   */\n      pop\n      pop\n      pop\n        /* \"#utility.yul\":16766:17653   */\n    tag_347:\n      pop\n        /* \"#utility.yul\":16356:17659   */\n      pop\n      pop\n      pop\n        /* \"#utility.yul\":16264:17659   */\n      pop\n      pop\n      jump\t// out\n\n    auxdata: 0xa26469706673582212207c552823cb1026ab97fa3e58b4484b99cd533bbe4bf49f5e0e7519e2868ae77d64736f6c634300081b0033\n}\n",
				"bytecode": {
					"linkReferences": {},
					"object": "6080604052348015600e575f5ffd5b5061182b8061001c5f395ff3fe608060405234801561000f575f5ffd5b50600436106100a7575f3560e01c8063a9ed9cb81161006f578063a9ed9cb814610151578063b88e318d1461016d578063c48d6d5e14610189578063d21d1596146101a5578063fb46d4c5146101c1578063ff9913e8146101dd576100a7565b806322b13ac8146100ab57806337e10941146100c95780634dbf27cc146100e7578063529c7588146101035780639fd412ab14610121575b5f5ffd5b6100b36101f9565b6040516100c09190610edf565b60405180910390f35b6100d16101fe565b6040516100de91906110d1565b60405180910390f35b61010160048036038101906100fc919061112c565b6103ad565b005b61010b61044b565b6040516101189190610edf565b60405180910390f35b61013b6004803603810190610136919061112c565b610451565b60405161014891906110d1565b60405180910390f35b61016b6004803603810190610166919061112c565b610711565b005b61018760048036038101906101829190611283565b6107a3565b005b6101a3600480360381019061019e91906112ef565b6109fa565b005b6101bf60048036038101906101ba9190611349565b610b83565b005b6101db60048036038101906101d691906113a3565b610d25565b005b6101f760048036038101906101f2919061112c565b610df9565b005b5f5481565b60605f5f5467ffffffffffffffff81111561021c5761021b61115f565b5b60405190808252806020026020018201604052801561025557816020015b610242610e8c565b81526020019060019003908161023a5790505b5090505f5f90505b5f548110156103a55760025f8281526020019081526020015f206040518060800160405290815f8201548152602001600182015f9054906101000a900473ffffffffffffffffffffffffffffffffffffffff1673ffffffffffffffffffffffffffffffffffffffff1673ffffffffffffffffffffffffffffffffffffffff1681526020016002820180546102f090611417565b80601f016020809104026020016040519081016040528092919081815260200182805461031c90611417565b80156103675780601f1061033e57610100808354040283529160200191610367565b820191905f5260205f20905b81548152906001019060200180831161034a57829003601f168201915b5050505050815260200160038201548152505082828151811061038d5761038c611447565b5b6020026020010181905250808060010191505061025d565b508091505090565b60065f3373ffffffffffffffffffffffffffffffffffffffff1673ffffffffffffffffffffffffffffffffffffffff1681526020019081526020015f2081908060018154018082558091505060019003905f5260205f20015f9091909190916101000a81548173ffffffffffffffffffffffffffffffffffffffff021916908373ffffffffffffffffffffffffffffffffffffffff16021790555050565b60015481565b60605f5f90505f5f90505b5f548110156104e7578373ffffffffffffffffffffffffffffffffffffffff1660025f8381526020019081526020015f206001015f9054906101000a900473ffffffffffffffffffffffffffffffffffffffff1673ffffffffffffffffffffffffffffffffffffffff16036104da5781806104d6906114a1565b9250505b808060010191505061045c565b505f8167ffffffffffffffff8111156105035761050261115f565b5b60405190808252806020026020018201604052801561053c57816020015b610529610e8c565b8152602001906001900390816105215790505b5090505f5f90505f5f90505b5f54811015610705578573ffffffffffffffffffffffffffffffffffffffff1660025f8381526020019081526020015f206001015f9054906101000a900473ffffffffffffffffffffffffffffffffffffffff1673ffffffffffffffffffffffffffffffffffffffff16036106f85760025f8281526020019081526020015f206040518060800160405290815f8201548152602001600182015f9054906101000a900473ffffffffffffffffffffffffffffffffffffffff1673ffffffffffffffffffffffffffffffffffffffff1673ffffffffffffffffffffffffffffffffffffffff16815260200160028201805461064190611417565b80601f016020809104026020016040519081016040528092919081815260200182805461066d90611417565b80156106b85780601f1061068f576101008083540402835291602001916106b8565b820191905f5260205f20905b81548152906001019060200180831161069b57829003601f168201915b505050505081526020016003820154815250508383815181106106de576106dd611447565b5b602002602001018190525081806106f4906114a1565b9250505b8080600101915050610548565b50819350505050919050565b5f60055f3373ffffffffffffffffffffffffffffffffffffffff1673ffffffffffffffffffffffffffffffffffffffff1681526020019081526020015f205f8373ffffffffffffffffffffffffffffffffffffffff1673ffffffffffffffffffffffffffffffffffffffff1681526020019081526020015f205f6101000a81548160ff02191690831515021790555050565b826001151560055f8373ffffffffffffffffffffffffffffffffffffffff1673ffffffffffffffffffffffffffffffffffffffff1681526020019081526020015f205f3373ffffffffffffffffffffffffffffffffffffffff1673ffffffffffffffffffffffffffffffffffffffff1681526020019081526020015f205f9054906101000a900460ff1615151461086f576040517f08c379a000000000000000000000000000000000000000000000000000000000815260040161086690611568565b60405180910390fd5b60045f3373ffffffffffffffffffffffffffffffffffffffff1673ffffffffffffffffffffffffffffffffffffffff1681526020019081526020015f206040518060a0016040528060015481526020018481526020018673ffffffffffffffffffffffffffffffffffffffff1681526020018573ffffffffffffffffffffffffffffffffffffffff16815260200142815250908060018154018082558091505060019003905f5260205f2090600502015f909190919091505f820151815f015560208201518160010190816109449190611726565b506040820151816002015f6101000a81548173ffffffffffffffffffffffffffffffffffffffff021916908373ffffffffffffffffffffffffffffffffffffffff1602179055506060820151816003015f6101000a81548173ffffffffffffffffffffffffffffffffffffffff021916908373ffffffffffffffffffffffffffffffffffffffff16021790555060808201518160040155505060015f8154809291906109ef906114a1565b919050555050505050565b60045f3373ffffffffffffffffffffffffffffffffffffffff1673ffffffffffffffffffffffffffffffffffffffff1681526020019081526020015f206040518060a0016040528060015481526020018481526020013373ffffffffffffffffffffffffffffffffffffffff1681526020018373ffffffffffffffffffffffffffffffffffffffff16815260200142815250908060018154018082558091505060019003905f5260205f2090600502015f909190919091505f820151815f01556020820151816001019081610acf9190611726565b506040820151816002015f6101000a81548173ffffffffffffffffffffffffffffffffffffffff021916908373ffffffffffffffffffffffffffffffffffffffff1602179055506060820151816003015f6101000a81548173ffffffffffffffffffffffffffffffffffffffff021916908373ffffffffffffffffffffffffffffffffffffffff16021790555060808201518160040155505060015f815480929190610b7a906114a1565b91905055505050565b816001151560055f8373ffffffffffffffffffffffffffffffffffffffff1673ffffffffffffffffffffffffffffffffffffffff1681526020019081526020015f205f3373ffffffffffffffffffffffffffffffffffffffff1673ffffffffffffffffffffffffffffffffffffffff1681526020019081526020015f205f9054906101000a900460ff16151514610c4f576040517f08c379a0000000000000000000000000000000000000000000000000000000008152600401610c4690611568565b60405180910390fd5b60405180608001604052805f5481526020018473ffffffffffffffffffffffffffffffffffffffff1681526020018381526020014281525060025f5f5481526020019081526020015f205f820151815f01556020820151816001015f6101000a81548173ffffffffffffffffffffffffffffffffffffffff021916908373ffffffffffffffffffffffffffffffffffffffff1602179055506040820151816002019081610cfc9190611726565b50606082015181600301559050505f5f815480929190610d1b906114a1565b9190505550505050565b60405180608001604052805f5481526020013373ffffffffffffffffffffffffffffffffffffffff1681526020018281526020014281525060025f5f5481526020019081526020015f205f820151815f01556020820151816001015f6101000a81548173ffffffffffffffffffffffffffffffffffffffff021916908373ffffffffffffffffffffffffffffffffffffffff1602179055506040820151816002019081610dd29190611726565b50606082015181600301559050505f5f815480929190610df1906114a1565b919050555050565b600160055f3373ffffffffffffffffffffffffffffffffffffffff1673ffffffffffffffffffffffffffffffffffffffff1681526020019081526020015f205f8373ffffffffffffffffffffffffffffffffffffffff1673ffffffffffffffffffffffffffffffffffffffff1681526020019081526020015f205f6101000a81548160ff02191690831515021790555050565b60405180608001604052805f81526020015f73ffffffffffffffffffffffffffffffffffffffff168152602001606081526020015f81525090565b5f819050919050565b610ed981610ec7565b82525050565b5f602082019050610ef25f830184610ed0565b92915050565b5f81519050919050565b5f82825260208201905092915050565b5f819050602082019050919050565b610f2a81610ec7565b82525050565b5f73ffffffffffffffffffffffffffffffffffffffff82169050919050565b5f610f5982610f30565b9050919050565b610f6981610f4f565b82525050565b5f81519050919050565b5f82825260208201905092915050565b8281835e5f83830152505050565b5f601f19601f8301169050919050565b5f610fb182610f6f565b610fbb8185610f79565b9350610fcb818560208601610f89565b610fd481610f97565b840191505092915050565b5f608083015f830151610ff45f860182610f21565b5060208301516110076020860182610f60565b506040830151848203604086015261101f8282610fa7565b91505060608301516110346060860182610f21565b508091505092915050565b5f61104a8383610fdf565b905092915050565b5f602082019050919050565b5f61106882610ef8565b6110728185610f02565b93508360208202850161108485610f12565b805f5b858110156110bf57848403895281516110a0858261103f565b94506110ab83611052565b925060208a01995050600181019050611087565b50829750879550505050505092915050565b5f6020820190508181035f8301526110e9818461105e565b905092915050565b5f604051905090565b5f5ffd5b5f5ffd5b61110b81610f4f565b8114611115575f5ffd5b50565b5f8135905061112681611102565b92915050565b5f60208284031215611141576111406110fa565b5b5f61114e84828501611118565b91505092915050565b5f5ffd5b5f5ffd5b7f4e487b71000000000000000000000000000000000000000000000000000000005f52604160045260245ffd5b61119582610f97565b810181811067ffffffffffffffff821117156111b4576111b361115f565b5b80604052505050565b5f6111c66110f1565b90506111d2828261118c565b919050565b5f67ffffffffffffffff8211156111f1576111f061115f565b5b6111fa82610f97565b9050602081019050919050565b828183375f83830152505050565b5f611227611222846111d7565b6111bd565b9050828152602081018484840111156112435761124261115b565b5b61124e848285611207565b509392505050565b5f82601f83011261126a57611269611157565b5b813561127a848260208601611215565b91505092915050565b5f5f5f6060848603121561129a576112996110fa565b5b5f6112a786828701611118565b93505060206112b886828701611118565b925050604084013567ffffffffffffffff8111156112d9576112d86110fe565b5b6112e586828701611256565b9150509250925092565b5f5f60408385031215611305576113046110fa565b5b5f83013567ffffffffffffffff811115611322576113216110fe565b5b61132e85828601611256565b925050602061133f85828601611118565b9150509250929050565b5f5f6040838503121561135f5761135e6110fa565b5b5f61136c85828601611118565b925050602083013567ffffffffffffffff81111561138d5761138c6110fe565b5b61139985828601611256565b9150509250929050565b5f602082840312156113b8576113b76110fa565b5b5f82013567ffffffffffffffff8111156113d5576113d46110fe565b5b6113e184828501611256565b91505092915050565b7f4e487b71000000000000000000000000000000000000000000000000000000005f52602260045260245ffd5b5f600282049050600182168061142e57607f821691505b602082108103611441576114406113ea565b5b50919050565b7f4e487b71000000000000000000000000000000000000000000000000000000005f52603260045260245ffd5b7f4e487b71000000000000000000000000000000000000000000000000000000005f52601160045260245ffd5b5f6114ab82610ec7565b91507fffffffffffffffffffffffffffffffffffffffffffffffffffffffffffffffff82036114dd576114dc611474565b5b600182019050919050565b5f82825260208201905092915050565b7f596f7520646f6e742068617665207065726d697373696f6e20746f2068616e645f8201527f6c652074686973204163636f756e740000000000000000000000000000000000602082015250565b5f611552602f836114e8565b915061155d826114f8565b604082019050919050565b5f6020820190508181035f83015261157f81611546565b9050919050565b5f819050815f5260205f209050919050565b5f6020601f8301049050919050565b5f82821b905092915050565b5f600883026115e27fffffffffffffffffffffffffffffffffffffffffffffffffffffffffffffffff826115a7565b6115ec86836115a7565b95508019841693508086168417925050509392505050565b5f819050919050565b5f61162761162261161d84610ec7565b611604565b610ec7565b9050919050565b5f819050919050565b6116408361160d565b61165461164c8261162e565b8484546115b3565b825550505050565b5f5f905090565b61166b61165c565b611676818484611637565b505050565b5b818110156116995761168e5f82611663565b60018101905061167c565b5050565b601f8211156116de576116af81611586565b6116b884611598565b810160208510156116c7578190505b6116db6116d385611598565b83018261167b565b50505b505050565b5f82821c905092915050565b5f6116fe5f19846008026116e3565b1980831691505092915050565b5f61171683836116ef565b9150826002028217905092915050565b61172f82610f6f565b67ffffffffffffffff8111156117485761174761115f565b5b6117528254611417565b61175d82828561169d565b5f60209050601f83116001811461178e575f841561177c578287015190505b611786858261170b565b8655506117ed565b601f19841661179c86611586565b5f5b828110156117c35784890151825560018201915060208501945060208101905061179e565b868310156117e057848901516117dc601f8916826116ef565b8355505b6001600288020188555050505b50505050505056fea26469706673582212207c552823cb1026ab97fa3e58b4484b99cd533bbe4bf49f5e0e7519e2868ae77d64736f6c634300081b0033",
					"opcodes": "PUSH1 0x80 PUSH1 0x40 MSTORE CALLVALUE DUP1 ISZERO PUSH1 0xE JUMPI PUSH0 PUSH0 REVERT JUMPDEST POP PUSH2 0x182B DUP1 PUSH2 0x1C PUSH0 CODECOPY PUSH0 RETURN INVALID PUSH1 0x80 PUSH1 0x40 MSTORE CALLVALUE DUP1 ISZERO PUSH2 0xF JUMPI PUSH0 PUSH0 REVERT JUMPDEST POP PUSH1 0x4 CALLDATASIZE LT PUSH2 0xA7 JUMPI PUSH0 CALLDATALOAD PUSH1 0xE0 SHR DUP1 PUSH4 0xA9ED9CB8 GT PUSH2 0x6F JUMPI DUP1 PUSH4 0xA9ED9CB8 EQ PUSH2 0x151 JUMPI DUP1 PUSH4 0xB88E318D EQ PUSH2 0x16D JUMPI DUP1 PUSH4 0xC48D6D5E EQ PUSH2 0x189 JUMPI DUP1 PUSH4 0xD21D1596 EQ PUSH2 0x1A5 JUMPI DUP1 PUSH4 0xFB46D4C5 EQ PUSH2 0x1C1 JUMPI DUP1 PUSH4 0xFF9913E8 EQ PUSH2 0x1DD JUMPI PUSH2 0xA7 JUMP JUMPDEST DUP1 PUSH4 0x22B13AC8 EQ PUSH2 0xAB JUMPI DUP1 PUSH4 0x37E10941 EQ PUSH2 0xC9 JUMPI DUP1 PUSH4 0x4DBF27CC EQ PUSH2 0xE7 JUMPI DUP1 PUSH4 0x529C7588 EQ PUSH2 0x103 JUMPI DUP1 PUSH4 0x9FD412AB EQ PUSH2 0x121 JUMPI JUMPDEST PUSH0 PUSH0 REVERT JUMPDEST PUSH2 0xB3 PUSH2 0x1F9 JUMP JUMPDEST PUSH1 0x40 MLOAD PUSH2 0xC0 SWAP2 SWAP1 PUSH2 0xEDF JUMP JUMPDEST PUSH1 0x40 MLOAD DUP1 SWAP2 SUB SWAP1 RETURN JUMPDEST PUSH2 0xD1 PUSH2 0x1FE JUMP JUMPDEST PUSH1 0x40 MLOAD PUSH2 0xDE SWAP2 SWAP1 PUSH2 0x10D1 JUMP JUMPDEST PUSH1 0x40 MLOAD DUP1 SWAP2 SUB SWAP1 RETURN JUMPDEST PUSH2 0x101 PUSH1 0x4 DUP1 CALLDATASIZE SUB DUP2 ADD SWAP1 PUSH2 0xFC SWAP2 SWAP1 PUSH2 0x112C JUMP JUMPDEST PUSH2 0x3AD JUMP JUMPDEST STOP JUMPDEST PUSH2 0x10B PUSH2 0x44B JUMP JUMPDEST PUSH1 0x40 MLOAD PUSH2 0x118 SWAP2 SWAP1 PUSH2 0xEDF JUMP JUMPDEST PUSH1 0x40 MLOAD DUP1 SWAP2 SUB SWAP1 RETURN JUMPDEST PUSH2 0x13B PUSH1 0x4 DUP1 CALLDATASIZE SUB DUP2 ADD SWAP1 PUSH2 0x136 SWAP2 SWAP1 PUSH2 0x112C JUMP JUMPDEST PUSH2 0x451 JUMP JUMPDEST PUSH1 0x40 MLOAD PUSH2 0x148 SWAP2 SWAP1 PUSH2 0x10D1 JUMP JUMPDEST PUSH1 0x40 MLOAD DUP1 SWAP2 SUB SWAP1 RETURN JUMPDEST PUSH2 0x16B PUSH1 0x4 DUP1 CALLDATASIZE SUB DUP2 ADD SWAP1 PUSH2 0x166 SWAP2 SWAP1 PUSH2 0x112C JUMP JUMPDEST PUSH2 0x711 JUMP JUMPDEST STOP JUMPDEST PUSH2 0x187 PUSH1 0x4 DUP1 CALLDATASIZE SUB DUP2 ADD SWAP1 PUSH2 0x182 SWAP2 SWAP1 PUSH2 0x1283 JUMP JUMPDEST PUSH2 0x7A3 JUMP JUMPDEST STOP JUMPDEST PUSH2 0x1A3 PUSH1 0x4 DUP1 CALLDATASIZE SUB DUP2 ADD SWAP1 PUSH2 0x19E SWAP2 SWAP1 PUSH2 0x12EF JUMP JUMPDEST PUSH2 0x9FA JUMP JUMPDEST STOP JUMPDEST PUSH2 0x1BF PUSH1 0x4 DUP1 CALLDATASIZE SUB DUP2 ADD SWAP1 PUSH2 0x1BA SWAP2 SWAP1 PUSH2 0x1349 JUMP JUMPDEST PUSH2 0xB83 JUMP JUMPDEST STOP JUMPDEST PUSH2 0x1DB PUSH1 0x4 DUP1 CALLDATASIZE SUB DUP2 ADD SWAP1 PUSH2 0x1D6 SWAP2 SWAP1 PUSH2 0x13A3 JUMP JUMPDEST PUSH2 0xD25 JUMP JUMPDEST STOP JUMPDEST PUSH2 0x1F7 PUSH1 0x4 DUP1 CALLDATASIZE SUB DUP2 ADD SWAP1 PUSH2 0x1F2 SWAP2 SWAP1 PUSH2 0x112C JUMP JUMPDEST PUSH2 0xDF9 JUMP JUMPDEST STOP JUMPDEST PUSH0 SLOAD DUP2 JUMP JUMPDEST PUSH1 0x60 PUSH0 PUSH0 SLOAD PUSH8 0xFFFFFFFFFFFFFFFF DUP2 GT ISZERO PUSH2 0x21C JUMPI PUSH2 0x21B PUSH2 0x115F JUMP JUMPDEST JUMPDEST PUSH1 0x40 MLOAD SWAP1 DUP1 DUP3 MSTORE DUP1 PUSH1 0x20 MUL PUSH1 0x20 ADD DUP3 ADD PUSH1 0x40 MSTORE DUP1 ISZERO PUSH2 0x255 JUMPI DUP2 PUSH1 0x20 ADD JUMPDEST PUSH2 0x242 PUSH2 0xE8C JUMP JUMPDEST DUP2 MSTORE PUSH1 0x20 ADD SWAP1 PUSH1 0x1 SWAP1 SUB SWAP1 DUP2 PUSH2 0x23A JUMPI SWAP1 POP JUMPDEST POP SWAP1 POP PUSH0 PUSH0 SWAP1 POP JUMPDEST PUSH0 SLOAD DUP2 LT ISZERO PUSH2 0x3A5 JUMPI PUSH1 0x2 PUSH0 DUP3 DUP2 MSTORE PUSH1 0x20 ADD SWAP1 DUP2 MSTORE PUSH1 0x20 ADD PUSH0 KECCAK256 PUSH1 0x40 MLOAD DUP1 PUSH1 0x80 ADD PUSH1 0x40 MSTORE SWAP1 DUP2 PUSH0 DUP3 ADD SLOAD DUP2 MSTORE PUSH1 0x20 ADD PUSH1 0x1 DUP3 ADD PUSH0 SWAP1 SLOAD SWAP1 PUSH2 0x100 EXP SWAP1 DIV PUSH20 0xFFFFFFFFFFFFFFFFFFFFFFFFFFFFFFFFFFFFFFFF AND PUSH20 0xFFFFFFFFFFFFFFFFFFFFFFFFFFFFFFFFFFFFFFFF AND PUSH20 0xFFFFFFFFFFFFFFFFFFFFFFFFFFFFFFFFFFFFFFFF AND DUP2 MSTORE PUSH1 0x20 ADD PUSH1 0x2 DUP3 ADD DUP1 SLOAD PUSH2 0x2F0 SWAP1 PUSH2 0x1417 JUMP JUMPDEST DUP1 PUSH1 0x1F ADD PUSH1 0x20 DUP1 SWAP2 DIV MUL PUSH1 0x20 ADD PUSH1 0x40 MLOAD SWAP1 DUP2 ADD PUSH1 0x40 MSTORE DUP1 SWAP3 SWAP2 SWAP1 DUP2 DUP2 MSTORE PUSH1 0x20 ADD DUP3 DUP1 SLOAD PUSH2 0x31C SWAP1 PUSH2 0x1417 JUMP JUMPDEST DUP1 ISZERO PUSH2 0x367 JUMPI DUP1 PUSH1 0x1F LT PUSH2 0x33E JUMPI PUSH2 0x100 DUP1 DUP4 SLOAD DIV MUL DUP4 MSTORE SWAP2 PUSH1 0x20 ADD SWAP2 PUSH2 0x367 JUMP JUMPDEST DUP3 ADD SWAP2 SWAP1 PUSH0 MSTORE PUSH1 0x20 PUSH0 KECCAK256 SWAP1 JUMPDEST DUP2 SLOAD DUP2 MSTORE SWAP1 PUSH1 0x1 ADD SWAP1 PUSH1 0x20 ADD DUP1 DUP4 GT PUSH2 0x34A JUMPI DUP3 SWAP1 SUB PUSH1 0x1F AND DUP3 ADD SWAP2 JUMPDEST POP POP POP POP POP DUP2 MSTORE PUSH1 0x20 ADD PUSH1 0x3 DUP3 ADD SLOAD DUP2 MSTORE POP POP DUP3 DUP3 DUP2 MLOAD DUP2 LT PUSH2 0x38D JUMPI PUSH2 0x38C PUSH2 0x1447 JUMP JUMPDEST JUMPDEST PUSH1 0x20 MUL PUSH1 0x20 ADD ADD DUP2 SWAP1 MSTORE POP DUP1 DUP1 PUSH1 0x1 ADD SWAP2 POP POP PUSH2 0x25D JUMP JUMPDEST POP DUP1 SWAP2 POP POP SWAP1 JUMP JUMPDEST PUSH1 0x6 PUSH0 CALLER PUSH20 0xFFFFFFFFFFFFFFFFFFFFFFFFFFFFFFFFFFFFFFFF AND PUSH20 0xFFFFFFFFFFFFFFFFFFFFFFFFFFFFFFFFFFFFFFFF AND DUP2 MSTORE PUSH1 0x20 ADD SWAP1 DUP2 MSTORE PUSH1 0x20 ADD PUSH0 KECCAK256 DUP2 SWAP1 DUP1 PUSH1 0x1 DUP2 SLOAD ADD DUP1 DUP3 SSTORE DUP1 SWAP2 POP POP PUSH1 0x1 SWAP1 SUB SWAP1 PUSH0 MSTORE PUSH1 0x20 PUSH0 KECCAK256 ADD PUSH0 SWAP1 SWAP2 SWAP1 SWAP2 SWAP1 SWAP2 PUSH2 0x100 EXP DUP2 SLOAD DUP2 PUSH20 0xFFFFFFFFFFFFFFFFFFFFFFFFFFFFFFFFFFFFFFFF MUL NOT AND SWAP1 DUP4 PUSH20 0xFFFFFFFFFFFFFFFFFFFFFFFFFFFFFFFFFFFFFFFF AND MUL OR SWAP1 SSTORE POP POP JUMP JUMPDEST PUSH1 0x1 SLOAD DUP2 JUMP JUMPDEST PUSH1 0x60 PUSH0 PUSH0 SWAP1 POP PUSH0 PUSH0 SWAP1 POP JUMPDEST PUSH0 SLOAD DUP2 LT ISZERO PUSH2 0x4E7 JUMPI DUP4 PUSH20 0xFFFFFFFFFFFFFFFFFFFFFFFFFFFFFFFFFFFFFFFF AND PUSH1 0x2 PUSH0 DUP4 DUP2 MSTORE PUSH1 0x20 ADD SWAP1 DUP2 MSTORE PUSH1 0x20 ADD PUSH0 KECCAK256 PUSH1 0x1 ADD PUSH0 SWAP1 SLOAD SWAP1 PUSH2 0x100 EXP SWAP1 DIV PUSH20 0xFFFFFFFFFFFFFFFFFFFFFFFFFFFFFFFFFFFFFFFF AND PUSH20 0xFFFFFFFFFFFFFFFFFFFFFFFFFFFFFFFFFFFFFFFF AND SUB PUSH2 0x4DA JUMPI DUP2 DUP1 PUSH2 0x4D6 SWAP1 PUSH2 0x14A1 JUMP JUMPDEST SWAP3 POP POP JUMPDEST DUP1 DUP1 PUSH1 0x1 ADD SWAP2 POP POP PUSH2 0x45C JUMP JUMPDEST POP PUSH0 DUP2 PUSH8 0xFFFFFFFFFFFFFFFF DUP2 GT ISZERO PUSH2 0x503 JUMPI PUSH2 0x502 PUSH2 0x115F JUMP JUMPDEST JUMPDEST PUSH1 0x40 MLOAD SWAP1 DUP1 DUP3 MSTORE DUP1 PUSH1 0x20 MUL PUSH1 0x20 ADD DUP3 ADD PUSH1 0x40 MSTORE DUP1 ISZERO PUSH2 0x53C JUMPI DUP2 PUSH1 0x20 ADD JUMPDEST PUSH2 0x529 PUSH2 0xE8C JUMP JUMPDEST DUP2 MSTORE PUSH1 0x20 ADD SWAP1 PUSH1 0x1 SWAP1 SUB SWAP1 DUP2 PUSH2 0x521 JUMPI SWAP1 POP JUMPDEST POP SWAP1 POP PUSH0 PUSH0 SWAP1 POP PUSH0 PUSH0 SWAP1 POP JUMPDEST PUSH0 SLOAD DUP2 LT ISZERO PUSH2 0x705 JUMPI DUP6 PUSH20 0xFFFFFFFFFFFFFFFFFFFFFFFFFFFFFFFFFFFFFFFF AND PUSH1 0x2 PUSH0 DUP4 DUP2 MSTORE PUSH1 0x20 ADD SWAP1 DUP2 MSTORE PUSH1 0x20 ADD PUSH0 KECCAK256 PUSH1 0x1 ADD PUSH0 SWAP1 SLOAD SWAP1 PUSH2 0x100 EXP SWAP1 DIV PUSH20 0xFFFFFFFFFFFFFFFFFFFFFFFFFFFFFFFFFFFFFFFF AND PUSH20 0xFFFFFFFFFFFFFFFFFFFFFFFFFFFFFFFFFFFFFFFF AND SUB PUSH2 0x6F8 JUMPI PUSH1 0x2 PUSH0 DUP3 DUP2 MSTORE PUSH1 0x20 ADD SWAP1 DUP2 MSTORE PUSH1 0x20 ADD PUSH0 KECCAK256 PUSH1 0x40 MLOAD DUP1 PUSH1 0x80 ADD PUSH1 0x40 MSTORE SWAP1 DUP2 PUSH0 DUP3 ADD SLOAD DUP2 MSTORE PUSH1 0x20 ADD PUSH1 0x1 DUP3 ADD PUSH0 SWAP1 SLOAD SWAP1 PUSH2 0x100 EXP SWAP1 DIV PUSH20 0xFFFFFFFFFFFFFFFFFFFFFFFFFFFFFFFFFFFFFFFF AND PUSH20 0xFFFFFFFFFFFFFFFFFFFFFFFFFFFFFFFFFFFFFFFF AND PUSH20 0xFFFFFFFFFFFFFFFFFFFFFFFFFFFFFFFFFFFFFFFF AND DUP2 MSTORE PUSH1 0x20 ADD PUSH1 0x2 DUP3 ADD DUP1 SLOAD PUSH2 0x641 SWAP1 PUSH2 0x1417 JUMP JUMPDEST DUP1 PUSH1 0x1F ADD PUSH1 0x20 DUP1 SWAP2 DIV MUL PUSH1 0x20 ADD PUSH1 0x40 MLOAD SWAP1 DUP2 ADD PUSH1 0x40 MSTORE DUP1 SWAP3 SWAP2 SWAP1 DUP2 DUP2 MSTORE PUSH1 0x20 ADD DUP3 DUP1 SLOAD PUSH2 0x66D SWAP1 PUSH2 0x1417 JUMP JUMPDEST DUP1 ISZERO PUSH2 0x6B8 JUMPI DUP1 PUSH1 0x1F LT PUSH2 0x68F JUMPI PUSH2 0x100 DUP1 DUP4 SLOAD DIV MUL DUP4 MSTORE SWAP2 PUSH1 0x20 ADD SWAP2 PUSH2 0x6B8 JUMP JUMPDEST DUP3 ADD SWAP2 SWAP1 PUSH0 MSTORE PUSH1 0x20 PUSH0 KECCAK256 SWAP1 JUMPDEST DUP2 SLOAD DUP2 MSTORE SWAP1 PUSH1 0x1 ADD SWAP1 PUSH1 0x20 ADD DUP1 DUP4 GT PUSH2 0x69B JUMPI DUP3 SWAP1 SUB PUSH1 0x1F AND DUP3 ADD SWAP2 JUMPDEST POP POP POP POP POP DUP2 MSTORE PUSH1 0x20 ADD PUSH1 0x3 DUP3 ADD SLOAD DUP2 MSTORE POP POP DUP4 DUP4 DUP2 MLOAD DUP2 LT PUSH2 0x6DE JUMPI PUSH2 0x6DD PUSH2 0x1447 JUMP JUMPDEST JUMPDEST PUSH1 0x20 MUL PUSH1 0x20 ADD ADD DUP2 SWAP1 MSTORE POP DUP2 DUP1 PUSH2 0x6F4 SWAP1 PUSH2 0x14A1 JUMP JUMPDEST SWAP3 POP POP JUMPDEST DUP1 DUP1 PUSH1 0x1 ADD SWAP2 POP POP PUSH2 0x548 JUMP JUMPDEST POP DUP2 SWAP4 POP POP POP POP SWAP2 SWAP1 POP JUMP JUMPDEST PUSH0 PUSH1 0x5 PUSH0 CALLER PUSH20 0xFFFFFFFFFFFFFFFFFFFFFFFFFFFFFFFFFFFFFFFF AND PUSH20 0xFFFFFFFFFFFFFFFFFFFFFFFFFFFFFFFFFFFFFFFF AND DUP2 MSTORE PUSH1 0x20 ADD SWAP1 DUP2 MSTORE PUSH1 0x20 ADD PUSH0 KECCAK256 PUSH0 DUP4 PUSH20 0xFFFFFFFFFFFFFFFFFFFFFFFFFFFFFFFFFFFFFFFF AND PUSH20 0xFFFFFFFFFFFFFFFFFFFFFFFFFFFFFFFFFFFFFFFF AND DUP2 MSTORE PUSH1 0x20 ADD SWAP1 DUP2 MSTORE PUSH1 0x20 ADD PUSH0 KECCAK256 PUSH0 PUSH2 0x100 EXP DUP2 SLOAD DUP2 PUSH1 0xFF MUL NOT AND SWAP1 DUP4 ISZERO ISZERO MUL OR SWAP1 SSTORE POP POP JUMP JUMPDEST DUP3 PUSH1 0x1 ISZERO ISZERO PUSH1 0x5 PUSH0 DUP4 PUSH20 0xFFFFFFFFFFFFFFFFFFFFFFFFFFFFFFFFFFFFFFFF AND PUSH20 0xFFFFFFFFFFFFFFFFFFFFFFFFFFFFFFFFFFFFFFFF AND DUP2 MSTORE PUSH1 0x20 ADD SWAP1 DUP2 MSTORE PUSH1 0x20 ADD PUSH0 KECCAK256 PUSH0 CALLER PUSH20 0xFFFFFFFFFFFFFFFFFFFFFFFFFFFFFFFFFFFFFFFF AND PUSH20 0xFFFFFFFFFFFFFFFFFFFFFFFFFFFFFFFFFFFFFFFF AND DUP2 MSTORE PUSH1 0x20 ADD SWAP1 DUP2 MSTORE PUSH1 0x20 ADD PUSH0 KECCAK256 PUSH0 SWAP1 SLOAD SWAP1 PUSH2 0x100 EXP SWAP1 DIV PUSH1 0xFF AND ISZERO ISZERO EQ PUSH2 0x86F JUMPI PUSH1 0x40 MLOAD PUSH32 0x8C379A000000000000000000000000000000000000000000000000000000000 DUP2 MSTORE PUSH1 0x4 ADD PUSH2 0x866 SWAP1 PUSH2 0x1568 JUMP JUMPDEST PUSH1 0x40 MLOAD DUP1 SWAP2 SUB SWAP1 REVERT JUMPDEST PUSH1 0x4 PUSH0 CALLER PUSH20 0xFFFFFFFFFFFFFFFFFFFFFFFFFFFFFFFFFFFFFFFF AND PUSH20 0xFFFFFFFFFFFFFFFFFFFFFFFFFFFFFFFFFFFFFFFF AND DUP2 MSTORE PUSH1 0x20 ADD SWAP1 DUP2 MSTORE PUSH1 0x20 ADD PUSH0 KECCAK256 PUSH1 0x40 MLOAD DUP1 PUSH1 0xA0 ADD PUSH1 0x40 MSTORE DUP1 PUSH1 0x1 SLOAD DUP2 MSTORE PUSH1 0x20 ADD DUP5 DUP2 MSTORE PUSH1 0x20 ADD DUP7 PUSH20 0xFFFFFFFFFFFFFFFFFFFFFFFFFFFFFFFFFFFFFFFF AND DUP2 MSTORE PUSH1 0x20 ADD DUP6 PUSH20 0xFFFFFFFFFFFFFFFFFFFFFFFFFFFFFFFFFFFFFFFF AND DUP2 MSTORE PUSH1 0x20 ADD TIMESTAMP DUP2 MSTORE POP SWAP1 DUP1 PUSH1 0x1 DUP2 SLOAD ADD DUP1 DUP3 SSTORE DUP1 SWAP2 POP POP PUSH1 0x1 SWAP1 SUB SWAP1 PUSH0 MSTORE PUSH1 0x20 PUSH0 KECCAK256 SWAP1 PUSH1 0x5 MUL ADD PUSH0 SWAP1 SWAP2 SWAP1 SWAP2 SWAP1 SWAP2 POP PUSH0 DUP3 ADD MLOAD DUP2 PUSH0 ADD SSTORE PUSH1 0x20 DUP3 ADD MLOAD DUP2 PUSH1 0x1 ADD SWAP1 DUP2 PUSH2 0x944 SWAP2 SWAP1 PUSH2 0x1726 JUMP JUMPDEST POP PUSH1 0x40 DUP3 ADD MLOAD DUP2 PUSH1 0x2 ADD PUSH0 PUSH2 0x100 EXP DUP2 SLOAD DUP2 PUSH20 0xFFFFFFFFFFFFFFFFFFFFFFFFFFFFFFFFFFFFFFFF MUL NOT AND SWAP1 DUP4 PUSH20 0xFFFFFFFFFFFFFFFFFFFFFFFFFFFFFFFFFFFFFFFF AND MUL OR SWAP1 SSTORE POP PUSH1 0x60 DUP3 ADD MLOAD DUP2 PUSH1 0x3 ADD PUSH0 PUSH2 0x100 EXP DUP2 SLOAD DUP2 PUSH20 0xFFFFFFFFFFFFFFFFFFFFFFFFFFFFFFFFFFFFFFFF MUL NOT AND SWAP1 DUP4 PUSH20 0xFFFFFFFFFFFFFFFFFFFFFFFFFFFFFFFFFFFFFFFF AND MUL OR SWAP1 SSTORE POP PUSH1 0x80 DUP3 ADD MLOAD DUP2 PUSH1 0x4 ADD SSTORE POP POP PUSH1 0x1 PUSH0 DUP2 SLOAD DUP1 SWAP3 SWAP2 SWAP1 PUSH2 0x9EF SWAP1 PUSH2 0x14A1 JUMP JUMPDEST SWAP2 SWAP1 POP SSTORE POP POP POP POP POP JUMP JUMPDEST PUSH1 0x4 PUSH0 CALLER PUSH20 0xFFFFFFFFFFFFFFFFFFFFFFFFFFFFFFFFFFFFFFFF AND PUSH20 0xFFFFFFFFFFFFFFFFFFFFFFFFFFFFFFFFFFFFFFFF AND DUP2 MSTORE PUSH1 0x20 ADD SWAP1 DUP2 MSTORE PUSH1 0x20 ADD PUSH0 KECCAK256 PUSH1 0x40 MLOAD DUP1 PUSH1 0xA0 ADD PUSH1 0x40 MSTORE DUP1 PUSH1 0x1 SLOAD DUP2 MSTORE PUSH1 0x20 ADD DUP5 DUP2 MSTORE PUSH1 0x20 ADD CALLER PUSH20 0xFFFFFFFFFFFFFFFFFFFFFFFFFFFFFFFFFFFFFFFF AND DUP2 MSTORE PUSH1 0x20 ADD DUP4 PUSH20 0xFFFFFFFFFFFFFFFFFFFFFFFFFFFFFFFFFFFFFFFF AND DUP2 MSTORE PUSH1 0x20 ADD TIMESTAMP DUP2 MSTORE POP SWAP1 DUP1 PUSH1 0x1 DUP2 SLOAD ADD DUP1 DUP3 SSTORE DUP1 SWAP2 POP POP PUSH1 0x1 SWAP1 SUB SWAP1 PUSH0 MSTORE PUSH1 0x20 PUSH0 KECCAK256 SWAP1 PUSH1 0x5 MUL ADD PUSH0 SWAP1 SWAP2 SWAP1 SWAP2 SWAP1 SWAP2 POP PUSH0 DUP3 ADD MLOAD DUP2 PUSH0 ADD SSTORE PUSH1 0x20 DUP3 ADD MLOAD DUP2 PUSH1 0x1 ADD SWAP1 DUP2 PUSH2 0xACF SWAP2 SWAP1 PUSH2 0x1726 JUMP JUMPDEST POP PUSH1 0x40 DUP3 ADD MLOAD DUP2 PUSH1 0x2 ADD PUSH0 PUSH2 0x100 EXP DUP2 SLOAD DUP2 PUSH20 0xFFFFFFFFFFFFFFFFFFFFFFFFFFFFFFFFFFFFFFFF MUL NOT AND SWAP1 DUP4 PUSH20 0xFFFFFFFFFFFFFFFFFFFFFFFFFFFFFFFFFFFFFFFF AND MUL OR SWAP1 SSTORE POP PUSH1 0x60 DUP3 ADD MLOAD DUP2 PUSH1 0x3 ADD PUSH0 PUSH2 0x100 EXP DUP2 SLOAD DUP2 PUSH20 0xFFFFFFFFFFFFFFFFFFFFFFFFFFFFFFFFFFFFFFFF MUL NOT AND SWAP1 DUP4 PUSH20 0xFFFFFFFFFFFFFFFFFFFFFFFFFFFFFFFFFFFFFFFF AND MUL OR SWAP1 SSTORE POP PUSH1 0x80 DUP3 ADD MLOAD DUP2 PUSH1 0x4 ADD SSTORE POP POP PUSH1 0x1 PUSH0 DUP2 SLOAD DUP1 SWAP3 SWAP2 SWAP1 PUSH2 0xB7A SWAP1 PUSH2 0x14A1 JUMP JUMPDEST SWAP2 SWAP1 POP SSTORE POP POP POP JUMP JUMPDEST DUP2 PUSH1 0x1 ISZERO ISZERO PUSH1 0x5 PUSH0 DUP4 PUSH20 0xFFFFFFFFFFFFFFFFFFFFFFFFFFFFFFFFFFFFFFFF AND PUSH20 0xFFFFFFFFFFFFFFFFFFFFFFFFFFFFFFFFFFFFFFFF AND DUP2 MSTORE PUSH1 0x20 ADD SWAP1 DUP2 MSTORE PUSH1 0x20 ADD PUSH0 KECCAK256 PUSH0 CALLER PUSH20 0xFFFFFFFFFFFFFFFFFFFFFFFFFFFFFFFFFFFFFFFF AND PUSH20 0xFFFFFFFFFFFFFFFFFFFFFFFFFFFFFFFFFFFFFFFF AND DUP2 MSTORE PUSH1 0x20 ADD SWAP1 DUP2 MSTORE PUSH1 0x20 ADD PUSH0 KECCAK256 PUSH0 SWAP1 SLOAD SWAP1 PUSH2 0x100 EXP SWAP1 DIV PUSH1 0xFF AND ISZERO ISZERO EQ PUSH2 0xC4F JUMPI PUSH1 0x40 MLOAD PUSH32 0x8C379A000000000000000000000000000000000000000000000000000000000 DUP2 MSTORE PUSH1 0x4 ADD PUSH2 0xC46 SWAP1 PUSH2 0x1568 JUMP JUMPDEST PUSH1 0x40 MLOAD DUP1 SWAP2 SUB SWAP1 REVERT JUMPDEST PUSH1 0x40 MLOAD DUP1 PUSH1 0x80 ADD PUSH1 0x40 MSTORE DUP1 PUSH0 SLOAD DUP2 MSTORE PUSH1 0x20 ADD DUP5 PUSH20 0xFFFFFFFFFFFFFFFFFFFFFFFFFFFFFFFFFFFFFFFF AND DUP2 MSTORE PUSH1 0x20 ADD DUP4 DUP2 MSTORE PUSH1 0x20 ADD TIMESTAMP DUP2 MSTORE POP PUSH1 0x2 PUSH0 PUSH0 SLOAD DUP2 MSTORE PUSH1 0x20 ADD SWAP1 DUP2 MSTORE PUSH1 0x20 ADD PUSH0 KECCAK256 PUSH0 DUP3 ADD MLOAD DUP2 PUSH0 ADD SSTORE PUSH1 0x20 DUP3 ADD MLOAD DUP2 PUSH1 0x1 ADD PUSH0 PUSH2 0x100 EXP DUP2 SLOAD DUP2 PUSH20 0xFFFFFFFFFFFFFFFFFFFFFFFFFFFFFFFFFFFFFFFF MUL NOT AND SWAP1 DUP4 PUSH20 0xFFFFFFFFFFFFFFFFFFFFFFFFFFFFFFFFFFFFFFFF AND MUL OR SWAP1 SSTORE POP PUSH1 0x40 DUP3 ADD MLOAD DUP2 PUSH1 0x2 ADD SWAP1 DUP2 PUSH2 0xCFC SWAP2 SWAP1 PUSH2 0x1726 JUMP JUMPDEST POP PUSH1 0x60 DUP3 ADD MLOAD DUP2 PUSH1 0x3 ADD SSTORE SWAP1 POP POP PUSH0 PUSH0 DUP2 SLOAD DUP1 SWAP3 SWAP2 SWAP1 PUSH2 0xD1B SWAP1 PUSH2 0x14A1 JUMP JUMPDEST SWAP2 SWAP1 POP SSTORE POP POP POP POP JUMP JUMPDEST PUSH1 0x40 MLOAD DUP1 PUSH1 0x80 ADD PUSH1 0x40 MSTORE DUP1 PUSH0 SLOAD DUP2 MSTORE PUSH1 0x20 ADD CALLER PUSH20 0xFFFFFFFFFFFFFFFFFFFFFFFFFFFFFFFFFFFFFFFF AND DUP2 MSTORE PUSH1 0x20 ADD DUP3 DUP2 MSTORE PUSH1 0x20 ADD TIMESTAMP DUP2 MSTORE POP PUSH1 0x2 PUSH0 PUSH0 SLOAD DUP2 MSTORE PUSH1 0x20 ADD SWAP1 DUP2 MSTORE PUSH1 0x20 ADD PUSH0 KECCAK256 PUSH0 DUP3 ADD MLOAD DUP2 PUSH0 ADD SSTORE PUSH1 0x20 DUP3 ADD MLOAD DUP2 PUSH1 0x1 ADD PUSH0 PUSH2 0x100 EXP DUP2 SLOAD DUP2 PUSH20 0xFFFFFFFFFFFFFFFFFFFFFFFFFFFFFFFFFFFFFFFF MUL NOT AND SWAP1 DUP4 PUSH20 0xFFFFFFFFFFFFFFFFFFFFFFFFFFFFFFFFFFFFFFFF AND MUL OR SWAP1 SSTORE POP PUSH1 0x40 DUP3 ADD MLOAD DUP2 PUSH1 0x2 ADD SWAP1 DUP2 PUSH2 0xDD2 SWAP2 SWAP1 PUSH2 0x1726 JUMP JUMPDEST POP PUSH1 0x60 DUP3 ADD MLOAD DUP2 PUSH1 0x3 ADD SSTORE SWAP1 POP POP PUSH0 PUSH0 DUP2 SLOAD DUP1 SWAP3 SWAP2 SWAP1 PUSH2 0xDF1 SWAP1 PUSH2 0x14A1 JUMP JUMPDEST SWAP2 SWAP1 POP SSTORE POP POP JUMP JUMPDEST PUSH1 0x1 PUSH1 0x5 PUSH0 CALLER PUSH20 0xFFFFFFFFFFFFFFFFFFFFFFFFFFFFFFFFFFFFFFFF AND PUSH20 0xFFFFFFFFFFFFFFFFFFFFFFFFFFFFFFFFFFFFFFFF AND DUP2 MSTORE PUSH1 0x20 ADD SWAP1 DUP2 MSTORE PUSH1 0x20 ADD PUSH0 KECCAK256 PUSH0 DUP4 PUSH20 0xFFFFFFFFFFFFFFFFFFFFFFFFFFFFFFFFFFFFFFFF AND PUSH20 0xFFFFFFFFFFFFFFFFFFFFFFFFFFFFFFFFFFFFFFFF AND DUP2 MSTORE PUSH1 0x20 ADD SWAP1 DUP2 MSTORE PUSH1 0x20 ADD PUSH0 KECCAK256 PUSH0 PUSH2 0x100 EXP DUP2 SLOAD DUP2 PUSH1 0xFF MUL NOT AND SWAP1 DUP4 ISZERO ISZERO MUL OR SWAP1 SSTORE POP POP JUMP JUMPDEST PUSH1 0x40 MLOAD DUP1 PUSH1 0x80 ADD PUSH1 0x40 MSTORE DUP1 PUSH0 DUP2 MSTORE PUSH1 0x20 ADD PUSH0 PUSH20 0xFFFFFFFFFFFFFFFFFFFFFFFFFFFFFFFFFFFFFFFF AND DUP2 MSTORE PUSH1 0x20 ADD PUSH1 0x60 DUP2 MSTORE PUSH1 0x20 ADD PUSH0 DUP2 MSTORE POP SWAP1 JUMP JUMPDEST PUSH0 DUP2 SWAP1 POP SWAP2 SWAP1 POP JUMP JUMPDEST PUSH2 0xED9 DUP2 PUSH2 0xEC7 JUMP JUMPDEST DUP3 MSTORE POP POP JUMP JUMPDEST PUSH0 PUSH1 0x20 DUP3 ADD SWAP1 POP PUSH2 0xEF2 PUSH0 DUP4 ADD DUP5 PUSH2 0xED0 JUMP JUMPDEST SWAP3 SWAP2 POP POP JUMP JUMPDEST PUSH0 DUP2 MLOAD SWAP1 POP SWAP2 SWAP1 POP JUMP JUMPDEST PUSH0 DUP3 DUP3 MSTORE PUSH1 0x20 DUP3 ADD SWAP1 POP SWAP3 SWAP2 POP POP JUMP JUMPDEST PUSH0 DUP2 SWAP1 POP PUSH1 0x20 DUP3 ADD SWAP1 POP SWAP2 SWAP1 POP JUMP JUMPDEST PUSH2 0xF2A DUP2 PUSH2 0xEC7 JUMP JUMPDEST DUP3 MSTORE POP POP JUMP JUMPDEST PUSH0 PUSH20 0xFFFFFFFFFFFFFFFFFFFFFFFFFFFFFFFFFFFFFFFF DUP3 AND SWAP1 POP SWAP2 SWAP1 POP JUMP JUMPDEST PUSH0 PUSH2 0xF59 DUP3 PUSH2 0xF30 JUMP JUMPDEST SWAP1 POP SWAP2 SWAP1 POP JUMP JUMPDEST PUSH2 0xF69 DUP2 PUSH2 0xF4F JUMP JUMPDEST DUP3 MSTORE POP POP JUMP JUMPDEST PUSH0 DUP2 MLOAD SWAP1 POP SWAP2 SWAP1 POP JUMP JUMPDEST PUSH0 DUP3 DUP3 MSTORE PUSH1 0x20 DUP3 ADD SWAP1 POP SWAP3 SWAP2 POP POP JUMP JUMPDEST DUP3 DUP2 DUP4 MCOPY PUSH0 DUP4 DUP4 ADD MSTORE POP POP POP JUMP JUMPDEST PUSH0 PUSH1 0x1F NOT PUSH1 0x1F DUP4 ADD AND SWAP1 POP SWAP2 SWAP1 POP JUMP JUMPDEST PUSH0 PUSH2 0xFB1 DUP3 PUSH2 0xF6F JUMP JUMPDEST PUSH2 0xFBB DUP2 DUP6 PUSH2 0xF79 JUMP JUMPDEST SWAP4 POP PUSH2 0xFCB DUP2 DUP6 PUSH1 0x20 DUP7 ADD PUSH2 0xF89 JUMP JUMPDEST PUSH2 0xFD4 DUP2 PUSH2 0xF97 JUMP JUMPDEST DUP5 ADD SWAP2 POP POP SWAP3 SWAP2 POP POP JUMP JUMPDEST PUSH0 PUSH1 0x80 DUP4 ADD PUSH0 DUP4 ADD MLOAD PUSH2 0xFF4 PUSH0 DUP7 ADD DUP3 PUSH2 0xF21 JUMP JUMPDEST POP PUSH1 0x20 DUP4 ADD MLOAD PUSH2 0x1007 PUSH1 0x20 DUP7 ADD DUP3 PUSH2 0xF60 JUMP JUMPDEST POP PUSH1 0x40 DUP4 ADD MLOAD DUP5 DUP3 SUB PUSH1 0x40 DUP7 ADD MSTORE PUSH2 0x101F DUP3 DUP3 PUSH2 0xFA7 JUMP JUMPDEST SWAP2 POP POP PUSH1 0x60 DUP4 ADD MLOAD PUSH2 0x1034 PUSH1 0x60 DUP7 ADD DUP3 PUSH2 0xF21 JUMP JUMPDEST POP DUP1 SWAP2 POP POP SWAP3 SWAP2 POP POP JUMP JUMPDEST PUSH0 PUSH2 0x104A DUP4 DUP4 PUSH2 0xFDF JUMP JUMPDEST SWAP1 POP SWAP3 SWAP2 POP POP JUMP JUMPDEST PUSH0 PUSH1 0x20 DUP3 ADD SWAP1 POP SWAP2 SWAP1 POP JUMP JUMPDEST PUSH0 PUSH2 0x1068 DUP3 PUSH2 0xEF8 JUMP JUMPDEST PUSH2 0x1072 DUP2 DUP6 PUSH2 0xF02 JUMP JUMPDEST SWAP4 POP DUP4 PUSH1 0x20 DUP3 MUL DUP6 ADD PUSH2 0x1084 DUP6 PUSH2 0xF12 JUMP JUMPDEST DUP1 PUSH0 JUMPDEST DUP6 DUP2 LT ISZERO PUSH2 0x10BF JUMPI DUP5 DUP5 SUB DUP10 MSTORE DUP2 MLOAD PUSH2 0x10A0 DUP6 DUP3 PUSH2 0x103F JUMP JUMPDEST SWAP5 POP PUSH2 0x10AB DUP4 PUSH2 0x1052 JUMP JUMPDEST SWAP3 POP PUSH1 0x20 DUP11 ADD SWAP10 POP POP PUSH1 0x1 DUP2 ADD SWAP1 POP PUSH2 0x1087 JUMP JUMPDEST POP DUP3 SWAP8 POP DUP8 SWAP6 POP POP POP POP POP POP SWAP3 SWAP2 POP POP JUMP JUMPDEST PUSH0 PUSH1 0x20 DUP3 ADD SWAP1 POP DUP2 DUP2 SUB PUSH0 DUP4 ADD MSTORE PUSH2 0x10E9 DUP2 DUP5 PUSH2 0x105E JUMP JUMPDEST SWAP1 POP SWAP3 SWAP2 POP POP JUMP JUMPDEST PUSH0 PUSH1 0x40 MLOAD SWAP1 POP SWAP1 JUMP JUMPDEST PUSH0 PUSH0 REVERT JUMPDEST PUSH0 PUSH0 REVERT JUMPDEST PUSH2 0x110B DUP2 PUSH2 0xF4F JUMP JUMPDEST DUP2 EQ PUSH2 0x1115 JUMPI PUSH0 PUSH0 REVERT JUMPDEST POP JUMP JUMPDEST PUSH0 DUP2 CALLDATALOAD SWAP1 POP PUSH2 0x1126 DUP2 PUSH2 0x1102 JUMP JUMPDEST SWAP3 SWAP2 POP POP JUMP JUMPDEST PUSH0 PUSH1 0x20 DUP3 DUP5 SUB SLT ISZERO PUSH2 0x1141 JUMPI PUSH2 0x1140 PUSH2 0x10FA JUMP JUMPDEST JUMPDEST PUSH0 PUSH2 0x114E DUP5 DUP3 DUP6 ADD PUSH2 0x1118 JUMP JUMPDEST SWAP2 POP POP SWAP3 SWAP2 POP POP JUMP JUMPDEST PUSH0 PUSH0 REVERT JUMPDEST PUSH0 PUSH0 REVERT JUMPDEST PUSH32 0x4E487B7100000000000000000000000000000000000000000000000000000000 PUSH0 MSTORE PUSH1 0x41 PUSH1 0x4 MSTORE PUSH1 0x24 PUSH0 REVERT JUMPDEST PUSH2 0x1195 DUP3 PUSH2 0xF97 JUMP JUMPDEST DUP2 ADD DUP2 DUP2 LT PUSH8 0xFFFFFFFFFFFFFFFF DUP3 GT OR ISZERO PUSH2 0x11B4 JUMPI PUSH2 0x11B3 PUSH2 0x115F JUMP JUMPDEST JUMPDEST DUP1 PUSH1 0x40 MSTORE POP POP POP JUMP JUMPDEST PUSH0 PUSH2 0x11C6 PUSH2 0x10F1 JUMP JUMPDEST SWAP1 POP PUSH2 0x11D2 DUP3 DUP3 PUSH2 0x118C JUMP JUMPDEST SWAP2 SWAP1 POP JUMP JUMPDEST PUSH0 PUSH8 0xFFFFFFFFFFFFFFFF DUP3 GT ISZERO PUSH2 0x11F1 JUMPI PUSH2 0x11F0 PUSH2 0x115F JUMP JUMPDEST JUMPDEST PUSH2 0x11FA DUP3 PUSH2 0xF97 JUMP JUMPDEST SWAP1 POP PUSH1 0x20 DUP2 ADD SWAP1 POP SWAP2 SWAP1 POP JUMP JUMPDEST DUP3 DUP2 DUP4 CALLDATACOPY PUSH0 DUP4 DUP4 ADD MSTORE POP POP POP JUMP JUMPDEST PUSH0 PUSH2 0x1227 PUSH2 0x1222 DUP5 PUSH2 0x11D7 JUMP JUMPDEST PUSH2 0x11BD JUMP JUMPDEST SWAP1 POP DUP3 DUP2 MSTORE PUSH1 0x20 DUP2 ADD DUP5 DUP5 DUP5 ADD GT ISZERO PUSH2 0x1243 JUMPI PUSH2 0x1242 PUSH2 0x115B JUMP JUMPDEST JUMPDEST PUSH2 0x124E DUP5 DUP3 DUP6 PUSH2 0x1207 JUMP JUMPDEST POP SWAP4 SWAP3 POP POP POP JUMP JUMPDEST PUSH0 DUP3 PUSH1 0x1F DUP4 ADD SLT PUSH2 0x126A JUMPI PUSH2 0x1269 PUSH2 0x1157 JUMP JUMPDEST JUMPDEST DUP2 CALLDATALOAD PUSH2 0x127A DUP5 DUP3 PUSH1 0x20 DUP7 ADD PUSH2 0x1215 JUMP JUMPDEST SWAP2 POP POP SWAP3 SWAP2 POP POP JUMP JUMPDEST PUSH0 PUSH0 PUSH0 PUSH1 0x60 DUP5 DUP7 SUB SLT ISZERO PUSH2 0x129A JUMPI PUSH2 0x1299 PUSH2 0x10FA JUMP JUMPDEST JUMPDEST PUSH0 PUSH2 0x12A7 DUP7 DUP3 DUP8 ADD PUSH2 0x1118 JUMP JUMPDEST SWAP4 POP POP PUSH1 0x20 PUSH2 0x12B8 DUP7 DUP3 DUP8 ADD PUSH2 0x1118 JUMP JUMPDEST SWAP3 POP POP PUSH1 0x40 DUP5 ADD CALLDATALOAD PUSH8 0xFFFFFFFFFFFFFFFF DUP2 GT ISZERO PUSH2 0x12D9 JUMPI PUSH2 0x12D8 PUSH2 0x10FE JUMP JUMPDEST JUMPDEST PUSH2 0x12E5 DUP7 DUP3 DUP8 ADD PUSH2 0x1256 JUMP JUMPDEST SWAP2 POP POP SWAP3 POP SWAP3 POP SWAP3 JUMP JUMPDEST PUSH0 PUSH0 PUSH1 0x40 DUP4 DUP6 SUB SLT ISZERO PUSH2 0x1305 JUMPI PUSH2 0x1304 PUSH2 0x10FA JUMP JUMPDEST JUMPDEST PUSH0 DUP4 ADD CALLDATALOAD PUSH8 0xFFFFFFFFFFFFFFFF DUP2 GT ISZERO PUSH2 0x1322 JUMPI PUSH2 0x1321 PUSH2 0x10FE JUMP JUMPDEST JUMPDEST PUSH2 0x132E DUP6 DUP3 DUP7 ADD PUSH2 0x1256 JUMP JUMPDEST SWAP3 POP POP PUSH1 0x20 PUSH2 0x133F DUP6 DUP3 DUP7 ADD PUSH2 0x1118 JUMP JUMPDEST SWAP2 POP POP SWAP3 POP SWAP3 SWAP1 POP JUMP JUMPDEST PUSH0 PUSH0 PUSH1 0x40 DUP4 DUP6 SUB SLT ISZERO PUSH2 0x135F JUMPI PUSH2 0x135E PUSH2 0x10FA JUMP JUMPDEST JUMPDEST PUSH0 PUSH2 0x136C DUP6 DUP3 DUP7 ADD PUSH2 0x1118 JUMP JUMPDEST SWAP3 POP POP PUSH1 0x20 DUP4 ADD CALLDATALOAD PUSH8 0xFFFFFFFFFFFFFFFF DUP2 GT ISZERO PUSH2 0x138D JUMPI PUSH2 0x138C PUSH2 0x10FE JUMP JUMPDEST JUMPDEST PUSH2 0x1399 DUP6 DUP3 DUP7 ADD PUSH2 0x1256 JUMP JUMPDEST SWAP2 POP POP SWAP3 POP SWAP3 SWAP1 POP JUMP JUMPDEST PUSH0 PUSH1 0x20 DUP3 DUP5 SUB SLT ISZERO PUSH2 0x13B8 JUMPI PUSH2 0x13B7 PUSH2 0x10FA JUMP JUMPDEST JUMPDEST PUSH0 DUP3 ADD CALLDATALOAD PUSH8 0xFFFFFFFFFFFFFFFF DUP2 GT ISZERO PUSH2 0x13D5 JUMPI PUSH2 0x13D4 PUSH2 0x10FE JUMP JUMPDEST JUMPDEST PUSH2 0x13E1 DUP5 DUP3 DUP6 ADD PUSH2 0x1256 JUMP JUMPDEST SWAP2 POP POP SWAP3 SWAP2 POP POP JUMP JUMPDEST PUSH32 0x4E487B7100000000000000000000000000000000000000000000000000000000 PUSH0 MSTORE PUSH1 0x22 PUSH1 0x4 MSTORE PUSH1 0x24 PUSH0 REVERT JUMPDEST PUSH0 PUSH1 0x2 DUP3 DIV SWAP1 POP PUSH1 0x1 DUP3 AND DUP1 PUSH2 0x142E JUMPI PUSH1 0x7F DUP3 AND SWAP2 POP JUMPDEST PUSH1 0x20 DUP3 LT DUP2 SUB PUSH2 0x1441 JUMPI PUSH2 0x1440 PUSH2 0x13EA JUMP JUMPDEST JUMPDEST POP SWAP2 SWAP1 POP JUMP JUMPDEST PUSH32 0x4E487B7100000000000000000000000000000000000000000000000000000000 PUSH0 MSTORE PUSH1 0x32 PUSH1 0x4 MSTORE PUSH1 0x24 PUSH0 REVERT JUMPDEST PUSH32 0x4E487B7100000000000000000000000000000000000000000000000000000000 PUSH0 MSTORE PUSH1 0x11 PUSH1 0x4 MSTORE PUSH1 0x24 PUSH0 REVERT JUMPDEST PUSH0 PUSH2 0x14AB DUP3 PUSH2 0xEC7 JUMP JUMPDEST SWAP2 POP PUSH32 0xFFFFFFFFFFFFFFFFFFFFFFFFFFFFFFFFFFFFFFFFFFFFFFFFFFFFFFFFFFFFFFFF DUP3 SUB PUSH2 0x14DD JUMPI PUSH2 0x14DC PUSH2 0x1474 JUMP JUMPDEST JUMPDEST PUSH1 0x1 DUP3 ADD SWAP1 POP SWAP2 SWAP1 POP JUMP JUMPDEST PUSH0 DUP3 DUP3 MSTORE PUSH1 0x20 DUP3 ADD SWAP1 POP SWAP3 SWAP2 POP POP JUMP JUMPDEST PUSH32 0x596F7520646F6E742068617665207065726D697373696F6E20746F2068616E64 PUSH0 DUP3 ADD MSTORE PUSH32 0x6C652074686973204163636F756E740000000000000000000000000000000000 PUSH1 0x20 DUP3 ADD MSTORE POP JUMP JUMPDEST PUSH0 PUSH2 0x1552 PUSH1 0x2F DUP4 PUSH2 0x14E8 JUMP JUMPDEST SWAP2 POP PUSH2 0x155D DUP3 PUSH2 0x14F8 JUMP JUMPDEST PUSH1 0x40 DUP3 ADD SWAP1 POP SWAP2 SWAP1 POP JUMP JUMPDEST PUSH0 PUSH1 0x20 DUP3 ADD SWAP1 POP DUP2 DUP2 SUB PUSH0 DUP4 ADD MSTORE PUSH2 0x157F DUP2 PUSH2 0x1546 JUMP JUMPDEST SWAP1 POP SWAP2 SWAP1 POP JUMP JUMPDEST PUSH0 DUP2 SWAP1 POP DUP2 PUSH0 MSTORE PUSH1 0x20 PUSH0 KECCAK256 SWAP1 POP SWAP2 SWAP1 POP JUMP JUMPDEST PUSH0 PUSH1 0x20 PUSH1 0x1F DUP4 ADD DIV SWAP1 POP SWAP2 SWAP1 POP JUMP JUMPDEST PUSH0 DUP3 DUP3 SHL SWAP1 POP SWAP3 SWAP2 POP POP JUMP JUMPDEST PUSH0 PUSH1 0x8 DUP4 MUL PUSH2 0x15E2 PUSH32 0xFFFFFFFFFFFFFFFFFFFFFFFFFFFFFFFFFFFFFFFFFFFFFFFFFFFFFFFFFFFFFFFF DUP3 PUSH2 0x15A7 JUMP JUMPDEST PUSH2 0x15EC DUP7 DUP4 PUSH2 0x15A7 JUMP JUMPDEST SWAP6 POP DUP1 NOT DUP5 AND SWAP4 POP DUP1 DUP7 AND DUP5 OR SWAP3 POP POP POP SWAP4 SWAP3 POP POP POP JUMP JUMPDEST PUSH0 DUP2 SWAP1 POP SWAP2 SWAP1 POP JUMP JUMPDEST PUSH0 PUSH2 0x1627 PUSH2 0x1622 PUSH2 0x161D DUP5 PUSH2 0xEC7 JUMP JUMPDEST PUSH2 0x1604 JUMP JUMPDEST PUSH2 0xEC7 JUMP JUMPDEST SWAP1 POP SWAP2 SWAP1 POP JUMP JUMPDEST PUSH0 DUP2 SWAP1 POP SWAP2 SWAP1 POP JUMP JUMPDEST PUSH2 0x1640 DUP4 PUSH2 0x160D JUMP JUMPDEST PUSH2 0x1654 PUSH2 0x164C DUP3 PUSH2 0x162E JUMP JUMPDEST DUP5 DUP5 SLOAD PUSH2 0x15B3 JUMP JUMPDEST DUP3 SSTORE POP POP POP POP JUMP JUMPDEST PUSH0 PUSH0 SWAP1 POP SWAP1 JUMP JUMPDEST PUSH2 0x166B PUSH2 0x165C JUMP JUMPDEST PUSH2 0x1676 DUP2 DUP5 DUP5 PUSH2 0x1637 JUMP JUMPDEST POP POP POP JUMP JUMPDEST JUMPDEST DUP2 DUP2 LT ISZERO PUSH2 0x1699 JUMPI PUSH2 0x168E PUSH0 DUP3 PUSH2 0x1663 JUMP JUMPDEST PUSH1 0x1 DUP2 ADD SWAP1 POP PUSH2 0x167C JUMP JUMPDEST POP POP JUMP JUMPDEST PUSH1 0x1F DUP3 GT ISZERO PUSH2 0x16DE JUMPI PUSH2 0x16AF DUP2 PUSH2 0x1586 JUMP JUMPDEST PUSH2 0x16B8 DUP5 PUSH2 0x1598 JUMP JUMPDEST DUP2 ADD PUSH1 0x20 DUP6 LT ISZERO PUSH2 0x16C7 JUMPI DUP2 SWAP1 POP JUMPDEST PUSH2 0x16DB PUSH2 0x16D3 DUP6 PUSH2 0x1598 JUMP JUMPDEST DUP4 ADD DUP3 PUSH2 0x167B JUMP JUMPDEST POP POP JUMPDEST POP POP POP JUMP JUMPDEST PUSH0 DUP3 DUP3 SHR SWAP1 POP SWAP3 SWAP2 POP POP JUMP JUMPDEST PUSH0 PUSH2 0x16FE PUSH0 NOT DUP5 PUSH1 0x8 MUL PUSH2 0x16E3 JUMP JUMPDEST NOT DUP1 DUP4 AND SWAP2 POP POP SWAP3 SWAP2 POP POP JUMP JUMPDEST PUSH0 PUSH2 0x1716 DUP4 DUP4 PUSH2 0x16EF JUMP JUMPDEST SWAP2 POP DUP3 PUSH1 0x2 MUL DUP3 OR SWAP1 POP SWAP3 SWAP2 POP POP JUMP JUMPDEST PUSH2 0x172F DUP3 PUSH2 0xF6F JUMP JUMPDEST PUSH8 0xFFFFFFFFFFFFFFFF DUP2 GT ISZERO PUSH2 0x1748 JUMPI PUSH2 0x1747 PUSH2 0x115F JUMP JUMPDEST JUMPDEST PUSH2 0x1752 DUP3 SLOAD PUSH2 0x1417 JUMP JUMPDEST PUSH2 0x175D DUP3 DUP3 DUP6 PUSH2 0x169D JUMP JUMPDEST PUSH0 PUSH1 0x20 SWAP1 POP PUSH1 0x1F DUP4 GT PUSH1 0x1 DUP2 EQ PUSH2 0x178E JUMPI PUSH0 DUP5 ISZERO PUSH2 0x177C JUMPI DUP3 DUP8 ADD MLOAD SWAP1 POP JUMPDEST PUSH2 0x1786 DUP6 DUP3 PUSH2 0x170B JUMP JUMPDEST DUP7 SSTORE POP PUSH2 0x17ED JUMP JUMPDEST PUSH1 0x1F NOT DUP5 AND PUSH2 0x179C DUP7 PUSH2 0x1586 JUMP JUMPDEST PUSH0 JUMPDEST DUP3 DUP2 LT ISZERO PUSH2 0x17C3 JUMPI DUP5 DUP10 ADD MLOAD DUP3 SSTORE PUSH1 0x1 DUP3 ADD SWAP2 POP PUSH1 0x20 DUP6 ADD SWAP5 POP PUSH1 0x20 DUP2 ADD SWAP1 POP PUSH2 0x179E JUMP JUMPDEST DUP7 DUP4 LT ISZERO PUSH2 0x17E0 JUMPI DUP5 DUP10 ADD MLOAD PUSH2 0x17DC PUSH1 0x1F DUP10 AND DUP3 PUSH2 0x16EF JUMP JUMPDEST DUP4 SSTORE POP JUMPDEST PUSH1 0x1 PUSH1 0x2 DUP9 MUL ADD DUP9 SSTORE POP POP POP JUMPDEST POP POP POP POP POP POP JUMP INVALID LOG2 PUSH5 0x6970667358 0x22 SLT KECCAK256 PUSH29 0x552823CB1026AB97FA3E58B4484B99CD533BBE4BF49F5E0E7519E2868A 0xE7 PUSH30 0x64736F6C634300081B003300000000000000000000000000000000000000 "
				},
				"gasEstimates": {
					"creation": {
						"codeDepositCost": "1237400",
						"executionCost": "1286",
						"totalCost": "1238686"
					},
					"external": {
						"allow(address)": "25000",
						"disallow(address)": "24889",
						"follow(address)": "49157",
						"getLatestTweets()": "infinite",
						"getLatestTweetsOf(address)": "infinite",
						"messageCounter()": "2492",
						"sendMessage(address,address,string)": "infinite",
						"sendMessage(string,address)": "infinite",
						"tweet(address,string)": "infinite",
						"tweet(string)": "infinite",
						"tweetCounter()": "2425"
					}
				},
				"methodIdentifiers": {
					"allow(address)": "ff9913e8",
					"disallow(address)": "a9ed9cb8",
					"follow(address)": "4dbf27cc",
					"getLatestTweets()": "37e10941",
					"getLatestTweetsOf(address)": "9fd412ab",
					"messageCounter()": "529c7588",
					"sendMessage(address,address,string)": "b88e318d",
					"sendMessage(string,address)": "c48d6d5e",
					"tweet(address,string)": "d21d1596",
					"tweet(string)": "fb46d4c5",
					"tweetCounter()": "22b13ac8"
				}
			},
			"storageLayout": {
				"storage": [
					{
						"astId": 23,
						"contract": "contracts/twitter.sol:Twitter",
						"label": "tweetCounter",
						"offset": 0,
						"slot": "0",
						"type": "t_uint256"
					},
					{
						"astId": 25,
						"contract": "contracts/twitter.sol:Twitter",
						"label": "messageCounter",
						"offset": 0,
						"slot": "1",
						"type": "t_uint256"
					},
					{
						"astId": 48,
						"contract": "contracts/twitter.sol:Twitter",
						"label": "tweets",
						"offset": 0,
						"slot": "2",
						"type": "t_mapping(t_uint256,t_struct(Tweet)10_storage)"
					},
					{
						"astId": 53,
						"contract": "contracts/twitter.sol:Twitter",
						"label": "tweetsOf",
						"offset": 0,
						"slot": "3",
						"type": "t_mapping(t_address,t_array(t_uint256)dyn_storage)"
					},
					{
						"astId": 59,
						"contract": "contracts/twitter.sol:Twitter",
						"label": "conversations",
						"offset": 0,
						"slot": "4",
						"type": "t_mapping(t_address,t_array(t_struct(Message)21_storage)dyn_storage)"
					},
					{
						"astId": 65,
						"contract": "contracts/twitter.sol:Twitter",
						"label": "operators",
						"offset": 0,
						"slot": "5",
						"type": "t_mapping(t_address,t_mapping(t_address,t_bool))"
					},
					{
						"astId": 70,
						"contract": "contracts/twitter.sol:Twitter",
						"label": "following",
						"offset": 0,
						"slot": "6",
						"type": "t_mapping(t_address,t_array(t_address)dyn_storage)"
					}
				],
				"types": {
					"t_address": {
						"encoding": "inplace",
						"label": "address",
						"numberOfBytes": "20"
					},
					"t_array(t_address)dyn_storage": {
						"base": "t_address",
						"encoding": "dynamic_array",
						"label": "address[]",
						"numberOfBytes": "32"
					},
					"t_array(t_struct(Message)21_storage)dyn_storage": {
						"base": "t_struct(Message)21_storage",
						"encoding": "dynamic_array",
						"label": "struct Twitter.Message[]",
						"numberOfBytes": "32"
					},
					"t_array(t_uint256)dyn_storage": {
						"base": "t_uint256",
						"encoding": "dynamic_array",
						"label": "uint256[]",
						"numberOfBytes": "32"
					},
					"t_bool": {
						"encoding": "inplace",
						"label": "bool",
						"numberOfBytes": "1"
					},
					"t_mapping(t_address,t_array(t_address)dyn_storage)": {
						"encoding": "mapping",
						"key": "t_address",
						"label": "mapping(address => address[])",
						"numberOfBytes": "32",
						"value": "t_array(t_address)dyn_storage"
					},
					"t_mapping(t_address,t_array(t_struct(Message)21_storage)dyn_storage)": {
						"encoding": "mapping",
						"key": "t_address",
						"label": "mapping(address => struct Twitter.Message[])",
						"numberOfBytes": "32",
						"value": "t_array(t_struct(Message)21_storage)dyn_storage"
					},
					"t_mapping(t_address,t_array(t_uint256)dyn_storage)": {
						"encoding": "mapping",
						"key": "t_address",
						"label": "mapping(address => uint256[])",
						"numberOfBytes": "32",
						"value": "t_array(t_uint256)dyn_storage"
					},
					"t_mapping(t_address,t_bool)": {
						"encoding": "mapping",
						"key": "t_address",
						"label": "mapping(address => bool)",
						"numberOfBytes": "32",
						"value": "t_bool"
					},
					"t_mapping(t_address,t_mapping(t_address,t_bool))": {
						"encoding": "mapping",
						"key": "t_address",
						"label": "mapping(address => mapping(address => bool))",
						"numberOfBytes": "32",
						"value": "t_mapping(t_address,t_bool)"
					},
					"t_mapping(t_uint256,t_struct(Tweet)10_storage)": {
						"encoding": "mapping",
						"key": "t_uint256",
						"label": "mapping(uint256 => struct Twitter.Tweet)",
						"numberOfBytes": "32",
						"value": "t_struct(Tweet)10_storage"
					},
					"t_string_storage": {
						"encoding": "bytes",
						"label": "string",
						"numberOfBytes": "32"
					},
					"t_struct(Message)21_storage": {
						"encoding": "inplace",
						"label": "struct Twitter.Message",
						"members": [
							{
								"astId": 12,
								"contract": "contracts/twitter.sol:Twitter",
								"label": "id",
								"offset": 0,
								"slot": "0",
								"type": "t_uint256"
							},
							{
								"astId": 14,
								"contract": "contracts/twitter.sol:Twitter",
								"label": "content",
								"offset": 0,
								"slot": "1",
								"type": "t_string_storage"
							},
							{
								"astId": 16,
								"contract": "contracts/twitter.sol:Twitter",
								"label": "sender",
								"offset": 0,
								"slot": "2",
								"type": "t_address"
							},
							{
								"astId": 18,
								"contract": "contracts/twitter.sol:Twitter",
								"label": "receiver",
								"offset": 0,
								"slot": "3",
								"type": "t_address"
							},
							{
								"astId": 20,
								"contract": "contracts/twitter.sol:Twitter",
								"label": "creationTimestamp",
								"offset": 0,
								"slot": "4",
								"type": "t_uint256"
							}
						],
						"numberOfBytes": "160"
					},
					"t_struct(Tweet)10_storage": {
						"encoding": "inplace",
						"label": "struct Twitter.Tweet",
						"members": [
							{
								"astId": 3,
								"contract": "contracts/twitter.sol:Twitter",
								"label": "id",
								"offset": 0,
								"slot": "0",
								"type": "t_uint256"
							},
							{
								"astId": 5,
								"contract": "contracts/twitter.sol:Twitter",
								"label": "author",
								"offset": 0,
								"slot": "1",
								"type": "t_address"
							},
							{
								"astId": 7,
								"contract": "contracts/twitter.sol:Twitter",
								"label": "content",
								"offset": 0,
								"slot": "2",
								"type": "t_string_storage"
							},
							{
								"astId": 9,
								"contract": "contracts/twitter.sol:Twitter",
								"label": "creationTimestamp",
								"offset": 0,
								"slot": "3",
								"type": "t_uint256"
							}
						],
						"numberOfBytes": "128"
					},
					"t_uint256": {
						"encoding": "inplace",
						"label": "uint256",
						"numberOfBytes": "32"
					}
				}
			},
			"userdoc": {
				"kind": "user",
				"methods": {
					"tweet(address,string)": {
						"notice": "Allows a user to post a tweet."
					}
				},
				"version": 1
			}
		}
	}
}