{
	"contracts/intermediate_1.sol": {
		"Mapping": {
			"abi": [
				{
					"inputs": [
						{
							"internalType": "uint256",
							"name": "_key",
							"type": "uint256"
						},
						{
							"internalType": "string",
							"name": "_value",
							"type": "string"
						}
					],
					"name": "insertData",
					"outputs": [],
					"stateMutability": "nonpayable",
					"type": "function"
				},
				{
					"inputs": [
						{
							"internalType": "uint256",
							"name": "_key",
							"type": "uint256"
						}
					],
					"name": "returnData",
					"outputs": [
						{
							"internalType": "string",
							"name": "",
							"type": "string"
						}
					],
					"stateMutability": "view",
					"type": "function"
				},
				{
					"inputs": [
						{
							"internalType": "uint256",
							"name": "",
							"type": "uint256"
						}
					],
					"name": "studentDetails",
					"outputs": [
						{
							"internalType": "string",
							"name": "",
							"type": "string"
						}
					],
					"stateMutability": "view",
					"type": "function"
				}
			],
			"devdoc": {
				"kind": "dev",
				"methods": {},
				"version": 1
			},
			"evm": {
				"assembly": "    /* \"contracts/intermediate_1.sol\":1846:2143  contract Mapping {... */\n  mstore(0x40, 0x80)\n  callvalue\n  dup1\n  iszero\n  tag_1\n  jumpi\n  0x00\n  dup1\n  revert\ntag_1:\n  pop\n  dataSize(sub_0)\n  dup1\n  dataOffset(sub_0)\n  0x00\n  codecopy\n  0x00\n  return\nstop\n\nsub_0: assembly {\n        /* \"contracts/intermediate_1.sol\":1846:2143  contract Mapping {... */\n      mstore(0x40, 0x80)\n      callvalue\n      dup1\n      iszero\n      tag_1\n      jumpi\n      0x00\n      dup1\n      revert\n    tag_1:\n      pop\n      jumpi(tag_2, lt(calldatasize, 0x04))\n      shr(0xe0, calldataload(0x00))\n      dup1\n      0xd5427123\n      eq\n      tag_3\n      jumpi\n      dup1\n      0xd5fb052f\n      eq\n      tag_4\n      jumpi\n      dup1\n      0xfddec16a\n      eq\n      tag_5\n      jumpi\n    tag_2:\n      0x00\n      dup1\n      revert\n        /* \"contracts/intermediate_1.sol\":1924:2027  function insertData(uint _key,string memory _value) public {... */\n    tag_3:\n      tag_6\n      0x04\n      dup1\n      calldatasize\n      sub\n      dup2\n      add\n      swap1\n      tag_7\n      swap2\n      swap1\n      tag_8\n      jump\t// in\n    tag_7:\n      tag_9\n      jump\t// in\n    tag_6:\n      stop\n        /* \"contracts/intermediate_1.sol\":1869:1917  mapping(uint256 => string) public studentDetails */\n    tag_4:\n      tag_10\n      0x04\n      dup1\n      calldatasize\n      sub\n      dup2\n      add\n      swap1\n      tag_11\n      swap2\n      swap1\n      tag_12\n      jump\t// in\n    tag_11:\n      tag_13\n      jump\t// in\n    tag_10:\n      mload(0x40)\n      tag_14\n      swap2\n      swap1\n      tag_15\n      jump\t// in\n    tag_14:\n      mload(0x40)\n      dup1\n      swap2\n      sub\n      swap1\n      return\n        /* \"contracts/intermediate_1.sol\":2033:2141  function returnData(uint _key)public view returns(string memory){... */\n    tag_5:\n      tag_16\n      0x04\n      dup1\n      calldatasize\n      sub\n      dup2\n      add\n      swap1\n      tag_17\n      swap2\n      swap1\n      tag_12\n      jump\t// in\n    tag_17:\n      tag_18\n      jump\t// in\n    tag_16:\n      mload(0x40)\n      tag_19\n      swap2\n      swap1\n      tag_15\n      jump\t// in\n    tag_19:\n      mload(0x40)\n      dup1\n      swap2\n      sub\n      swap1\n      return\n        /* \"contracts/intermediate_1.sol\":1924:2027  function insertData(uint _key,string memory _value) public {... */\n    tag_9:\n        /* \"contracts/intermediate_1.sol\":2014:2020  _value */\n      dup1\n        /* \"contracts/intermediate_1.sol\":1993:2007  studentDetails */\n      0x00\n        /* \"contracts/intermediate_1.sol\":1993:2013  studentDetails[_key] */\n      dup1\n        /* \"contracts/intermediate_1.sol\":2008:2012  _key */\n      dup5\n        /* \"contracts/intermediate_1.sol\":1993:2013  studentDetails[_key] */\n      dup2\n      mstore\n      0x20\n      add\n      swap1\n      dup2\n      mstore\n      0x20\n      add\n      0x00\n      keccak256\n        /* \"contracts/intermediate_1.sol\":1993:2020  studentDetails[_key]=_value */\n      swap1\n      dup2\n      tag_21\n      swap2\n      swap1\n      tag_22\n      jump\t// in\n    tag_21:\n      pop\n        /* \"contracts/intermediate_1.sol\":1924:2027  function insertData(uint _key,string memory _value) public {... */\n      pop\n      pop\n      jump\t// out\n        /* \"contracts/intermediate_1.sol\":1869:1917  mapping(uint256 => string) public studentDetails */\n    tag_13:\n      mstore(0x20, 0x00)\n      dup1\n      0x00\n      mstore\n      keccak256(0x00, 0x40)\n      0x00\n      swap2\n      pop\n      swap1\n      pop\n      dup1\n      sload\n      tag_23\n      swap1\n      tag_24\n      jump\t// in\n    tag_23:\n      dup1\n      0x1f\n      add\n      0x20\n      dup1\n      swap2\n      div\n      mul\n      0x20\n      add\n      mload(0x40)\n      swap1\n      dup2\n      add\n      0x40\n      mstore\n      dup1\n      swap3\n      swap2\n      swap1\n      dup2\n      dup2\n      mstore\n      0x20\n      add\n      dup3\n      dup1\n      sload\n      tag_25\n      swap1\n      tag_24\n      jump\t// in\n    tag_25:\n      dup1\n      iszero\n      tag_26\n      jumpi\n      dup1\n      0x1f\n      lt\n      tag_27\n      jumpi\n      0x0100\n      dup1\n      dup4\n      sload\n      div\n      mul\n      dup4\n      mstore\n      swap2\n      0x20\n      add\n      swap2\n      jump(tag_26)\n    tag_27:\n      dup3\n      add\n      swap2\n      swap1\n      0x00\n      mstore\n      keccak256(0x00, 0x20)\n      swap1\n    tag_28:\n      dup2\n      sload\n      dup2\n      mstore\n      swap1\n      0x01\n      add\n      swap1\n      0x20\n      add\n      dup1\n      dup4\n      gt\n      tag_28\n      jumpi\n      dup3\n      swap1\n      sub\n      0x1f\n      and\n      dup3\n      add\n      swap2\n    tag_26:\n      pop\n      pop\n      pop\n      pop\n      pop\n      dup2\n      jump\t// out\n        /* \"contracts/intermediate_1.sol\":2033:2141  function returnData(uint _key)public view returns(string memory){... */\n    tag_18:\n        /* \"contracts/intermediate_1.sol\":2083:2096  string memory */\n      0x60\n        /* \"contracts/intermediate_1.sol\":2114:2128  studentDetails */\n      0x00\n        /* \"contracts/intermediate_1.sol\":2114:2134  studentDetails[_key] */\n      dup1\n        /* \"contracts/intermediate_1.sol\":2129:2133  _key */\n      dup4\n        /* \"contracts/intermediate_1.sol\":2114:2134  studentDetails[_key] */\n      dup2\n      mstore\n      0x20\n      add\n      swap1\n      dup2\n      mstore\n      0x20\n      add\n      0x00\n      keccak256\n        /* \"contracts/intermediate_1.sol\":2107:2134  return studentDetails[_key] */\n      dup1\n      sload\n      tag_30\n      swap1\n      tag_24\n      jump\t// in\n    tag_30:\n      dup1\n      0x1f\n      add\n      0x20\n      dup1\n      swap2\n      div\n      mul\n      0x20\n      add\n      mload(0x40)\n      swap1\n      dup2\n      add\n      0x40\n      mstore\n      dup1\n      swap3\n      swap2\n      swap1\n      dup2\n      dup2\n      mstore\n      0x20\n      add\n      dup3\n      dup1\n      sload\n      tag_31\n      swap1\n      tag_24\n      jump\t// in\n    tag_31:\n      dup1\n      iszero\n      tag_32\n      jumpi\n      dup1\n      0x1f\n      lt\n      tag_33\n      jumpi\n      0x0100\n      dup1\n      dup4\n      sload\n      div\n      mul\n      dup4\n      mstore\n      swap2\n      0x20\n      add\n      swap2\n      jump(tag_32)\n    tag_33:\n      dup3\n      add\n      swap2\n      swap1\n      0x00\n      mstore\n      keccak256(0x00, 0x20)\n      swap1\n    tag_34:\n      dup2\n      sload\n      dup2\n      mstore\n      swap1\n      0x01\n      add\n      swap1\n      0x20\n      add\n      dup1\n      dup4\n      gt\n      tag_34\n      jumpi\n      dup3\n      swap1\n      sub\n      0x1f\n      and\n      dup3\n      add\n      swap2\n    tag_32:\n      pop\n      pop\n      pop\n      pop\n      pop\n      swap1\n      pop\n        /* \"contracts/intermediate_1.sol\":2033:2141  function returnData(uint _key)public view returns(string memory){... */\n      swap2\n      swap1\n      pop\n      jump\t// out\n        /* \"#utility.yul\":7:82   */\n    tag_35:\n        /* \"#utility.yul\":40:46   */\n      0x00\n        /* \"#utility.yul\":73:75   */\n      0x40\n        /* \"#utility.yul\":67:76   */\n      mload\n        /* \"#utility.yul\":57:76   */\n      swap1\n      pop\n        /* \"#utility.yul\":7:82   */\n      swap1\n      jump\t// out\n        /* \"#utility.yul\":88:205   */\n    tag_36:\n        /* \"#utility.yul\":197:198   */\n      0x00\n        /* \"#utility.yul\":194:195   */\n      dup1\n        /* \"#utility.yul\":187:199   */\n      revert\n        /* \"#utility.yul\":211:328   */\n    tag_37:\n        /* \"#utility.yul\":320:321   */\n      0x00\n        /* \"#utility.yul\":317:318   */\n      dup1\n        /* \"#utility.yul\":310:322   */\n      revert\n        /* \"#utility.yul\":334:411   */\n    tag_38:\n        /* \"#utility.yul\":371:378   */\n      0x00\n        /* \"#utility.yul\":400:405   */\n      dup2\n        /* \"#utility.yul\":389:405   */\n      swap1\n      pop\n        /* \"#utility.yul\":334:411   */\n      swap2\n      swap1\n      pop\n      jump\t// out\n        /* \"#utility.yul\":417:539   */\n    tag_39:\n        /* \"#utility.yul\":490:514   */\n      tag_77\n        /* \"#utility.yul\":508:513   */\n      dup2\n        /* \"#utility.yul\":490:514   */\n      tag_38\n      jump\t// in\n    tag_77:\n        /* \"#utility.yul\":483:488   */\n      dup2\n        /* \"#utility.yul\":480:515   */\n      eq\n        /* \"#utility.yul\":470:533   */\n      tag_78\n      jumpi\n        /* \"#utility.yul\":529:530   */\n      0x00\n        /* \"#utility.yul\":526:527   */\n      dup1\n        /* \"#utility.yul\":519:531   */\n      revert\n        /* \"#utility.yul\":470:533   */\n    tag_78:\n        /* \"#utility.yul\":417:539   */\n      pop\n      jump\t// out\n        /* \"#utility.yul\":545:684   */\n    tag_40:\n        /* \"#utility.yul\":591:596   */\n      0x00\n        /* \"#utility.yul\":629:635   */\n      dup2\n        /* \"#utility.yul\":616:636   */\n      calldataload\n        /* \"#utility.yul\":607:636   */\n      swap1\n      pop\n        /* \"#utility.yul\":645:678   */\n      tag_80\n        /* \"#utility.yul\":672:677   */\n      dup2\n        /* \"#utility.yul\":645:678   */\n      tag_39\n      jump\t// in\n    tag_80:\n        /* \"#utility.yul\":545:684   */\n      swap3\n      swap2\n      pop\n      pop\n      jump\t// out\n        /* \"#utility.yul\":690:807   */\n    tag_41:\n        /* \"#utility.yul\":799:800   */\n      0x00\n        /* \"#utility.yul\":796:797   */\n      dup1\n        /* \"#utility.yul\":789:801   */\n      revert\n        /* \"#utility.yul\":813:930   */\n    tag_42:\n        /* \"#utility.yul\":922:923   */\n      0x00\n        /* \"#utility.yul\":919:920   */\n      dup1\n        /* \"#utility.yul\":912:924   */\n      revert\n        /* \"#utility.yul\":936:1038   */\n    tag_43:\n        /* \"#utility.yul\":977:983   */\n      0x00\n        /* \"#utility.yul\":1028:1030   */\n      0x1f\n        /* \"#utility.yul\":1024:1031   */\n      not\n        /* \"#utility.yul\":1019:1021   */\n      0x1f\n        /* \"#utility.yul\":1012:1017   */\n      dup4\n        /* \"#utility.yul\":1008:1022   */\n      add\n        /* \"#utility.yul\":1004:1032   */\n      and\n        /* \"#utility.yul\":994:1032   */\n      swap1\n      pop\n        /* \"#utility.yul\":936:1038   */\n      swap2\n      swap1\n      pop\n      jump\t// out\n        /* \"#utility.yul\":1044:1224   */\n    tag_44:\n        /* \"#utility.yul\":1092:1169   */\n      0x4e487b7100000000000000000000000000000000000000000000000000000000\n        /* \"#utility.yul\":1089:1090   */\n      0x00\n        /* \"#utility.yul\":1082:1170   */\n      mstore\n        /* \"#utility.yul\":1189:1193   */\n      0x41\n        /* \"#utility.yul\":1186:1187   */\n      0x04\n        /* \"#utility.yul\":1179:1194   */\n      mstore\n        /* \"#utility.yul\":1213:1217   */\n      0x24\n        /* \"#utility.yul\":1210:1211   */\n      0x00\n        /* \"#utility.yul\":1203:1218   */\n      revert\n        /* \"#utility.yul\":1230:1511   */\n    tag_45:\n        /* \"#utility.yul\":1313:1340   */\n      tag_86\n        /* \"#utility.yul\":1335:1339   */\n      dup3\n        /* \"#utility.yul\":1313:1340   */\n      tag_43\n      jump\t// in\n    tag_86:\n        /* \"#utility.yul\":1305:1311   */\n      dup2\n        /* \"#utility.yul\":1301:1341   */\n      add\n        /* \"#utility.yul\":1443:1449   */\n      dup2\n        /* \"#utility.yul\":1431:1441   */\n      dup2\n        /* \"#utility.yul\":1428:1450   */\n      lt\n        /* \"#utility.yul\":1407:1425   */\n      0xffffffffffffffff\n        /* \"#utility.yul\":1395:1405   */\n      dup3\n        /* \"#utility.yul\":1392:1426   */\n      gt\n        /* \"#utility.yul\":1389:1451   */\n      or\n        /* \"#utility.yul\":1386:1474   */\n      iszero\n      tag_87\n      jumpi\n        /* \"#utility.yul\":1454:1472   */\n      tag_88\n      tag_44\n      jump\t// in\n    tag_88:\n        /* \"#utility.yul\":1386:1474   */\n    tag_87:\n        /* \"#utility.yul\":1494:1504   */\n      dup1\n        /* \"#utility.yul\":1490:1492   */\n      0x40\n        /* \"#utility.yul\":1483:1505   */\n      mstore\n        /* \"#utility.yul\":1273:1511   */\n      pop\n        /* \"#utility.yul\":1230:1511   */\n      pop\n      pop\n      jump\t// out\n        /* \"#utility.yul\":1517:1646   */\n    tag_46:\n        /* \"#utility.yul\":1551:1557   */\n      0x00\n        /* \"#utility.yul\":1578:1598   */\n      tag_90\n      tag_35\n      jump\t// in\n    tag_90:\n        /* \"#utility.yul\":1568:1598   */\n      swap1\n      pop\n        /* \"#utility.yul\":1607:1640   */\n      tag_91\n        /* \"#utility.yul\":1635:1639   */\n      dup3\n        /* \"#utility.yul\":1627:1633   */\n      dup3\n        /* \"#utility.yul\":1607:1640   */\n      tag_45\n      jump\t// in\n    tag_91:\n        /* \"#utility.yul\":1517:1646   */\n      swap2\n      swap1\n      pop\n      jump\t// out\n        /* \"#utility.yul\":1652:1960   */\n    tag_47:\n        /* \"#utility.yul\":1714:1718   */\n      0x00\n        /* \"#utility.yul\":1804:1822   */\n      0xffffffffffffffff\n        /* \"#utility.yul\":1796:1802   */\n      dup3\n        /* \"#utility.yul\":1793:1823   */\n      gt\n        /* \"#utility.yul\":1790:1846   */\n      iszero\n      tag_93\n      jumpi\n        /* \"#utility.yul\":1826:1844   */\n      tag_94\n      tag_44\n      jump\t// in\n    tag_94:\n        /* \"#utility.yul\":1790:1846   */\n    tag_93:\n        /* \"#utility.yul\":1864:1893   */\n      tag_95\n        /* \"#utility.yul\":1886:1892   */\n      dup3\n        /* \"#utility.yul\":1864:1893   */\n      tag_43\n      jump\t// in\n    tag_95:\n        /* \"#utility.yul\":1856:1893   */\n      swap1\n      pop\n        /* \"#utility.yul\":1948:1952   */\n      0x20\n        /* \"#utility.yul\":1942:1946   */\n      dup2\n        /* \"#utility.yul\":1938:1953   */\n      add\n        /* \"#utility.yul\":1930:1953   */\n      swap1\n      pop\n        /* \"#utility.yul\":1652:1960   */\n      swap2\n      swap1\n      pop\n      jump\t// out\n        /* \"#utility.yul\":1966:2114   */\n    tag_48:\n        /* \"#utility.yul\":2064:2070   */\n      dup3\n        /* \"#utility.yul\":2059:2062   */\n      dup2\n        /* \"#utility.yul\":2054:2057   */\n      dup4\n        /* \"#utility.yul\":2041:2071   */\n      calldatacopy\n        /* \"#utility.yul\":2105:2106   */\n      0x00\n        /* \"#utility.yul\":2096:2102   */\n      dup4\n        /* \"#utility.yul\":2091:2094   */\n      dup4\n        /* \"#utility.yul\":2087:2103   */\n      add\n        /* \"#utility.yul\":2080:2107   */\n      mstore\n        /* \"#utility.yul\":1966:2114   */\n      pop\n      pop\n      pop\n      jump\t// out\n        /* \"#utility.yul\":2120:2545   */\n    tag_49:\n        /* \"#utility.yul\":2198:2203   */\n      0x00\n        /* \"#utility.yul\":2223:2289   */\n      tag_98\n        /* \"#utility.yul\":2239:2288   */\n      tag_99\n        /* \"#utility.yul\":2281:2287   */\n      dup5\n        /* \"#utility.yul\":2239:2288   */\n      tag_47\n      jump\t// in\n    tag_99:\n        /* \"#utility.yul\":2223:2289   */\n      tag_46\n      jump\t// in\n    tag_98:\n        /* \"#utility.yul\":2214:2289   */\n      swap1\n      pop\n        /* \"#utility.yul\":2312:2318   */\n      dup3\n        /* \"#utility.yul\":2305:2310   */\n      dup2\n        /* \"#utility.yul\":2298:2319   */\n      mstore\n        /* \"#utility.yul\":2350:2354   */\n      0x20\n        /* \"#utility.yul\":2343:2348   */\n      dup2\n        /* \"#utility.yul\":2339:2355   */\n      add\n        /* \"#utility.yul\":2388:2391   */\n      dup5\n        /* \"#utility.yul\":2379:2385   */\n      dup5\n        /* \"#utility.yul\":2374:2377   */\n      dup5\n        /* \"#utility.yul\":2370:2386   */\n      add\n        /* \"#utility.yul\":2367:2392   */\n      gt\n        /* \"#utility.yul\":2364:2476   */\n      iszero\n      tag_100\n      jumpi\n        /* \"#utility.yul\":2395:2474   */\n      tag_101\n      tag_42\n      jump\t// in\n    tag_101:\n        /* \"#utility.yul\":2364:2476   */\n    tag_100:\n        /* \"#utility.yul\":2485:2539   */\n      tag_102\n        /* \"#utility.yul\":2532:2538   */\n      dup5\n        /* \"#utility.yul\":2527:2530   */\n      dup3\n        /* \"#utility.yul\":2522:2525   */\n      dup6\n        /* \"#utility.yul\":2485:2539   */\n      tag_48\n      jump\t// in\n    tag_102:\n        /* \"#utility.yul\":2204:2545   */\n      pop\n        /* \"#utility.yul\":2120:2545   */\n      swap4\n      swap3\n      pop\n      pop\n      pop\n      jump\t// out\n        /* \"#utility.yul\":2565:2905   */\n    tag_50:\n        /* \"#utility.yul\":2621:2626   */\n      0x00\n        /* \"#utility.yul\":2670:2673   */\n      dup3\n        /* \"#utility.yul\":2663:2667   */\n      0x1f\n        /* \"#utility.yul\":2655:2661   */\n      dup4\n        /* \"#utility.yul\":2651:2668   */\n      add\n        /* \"#utility.yul\":2647:2674   */\n      slt\n        /* \"#utility.yul\":2637:2759   */\n      tag_104\n      jumpi\n        /* \"#utility.yul\":2678:2757   */\n      tag_105\n      tag_41\n      jump\t// in\n    tag_105:\n        /* \"#utility.yul\":2637:2759   */\n    tag_104:\n        /* \"#utility.yul\":2795:2801   */\n      dup2\n        /* \"#utility.yul\":2782:2802   */\n      calldataload\n        /* \"#utility.yul\":2820:2899   */\n      tag_106\n        /* \"#utility.yul\":2895:2898   */\n      dup5\n        /* \"#utility.yul\":2887:2893   */\n      dup3\n        /* \"#utility.yul\":2880:2884   */\n      0x20\n        /* \"#utility.yul\":2872:2878   */\n      dup7\n        /* \"#utility.yul\":2868:2885   */\n      add\n        /* \"#utility.yul\":2820:2899   */\n      tag_49\n      jump\t// in\n    tag_106:\n        /* \"#utility.yul\":2811:2899   */\n      swap2\n      pop\n        /* \"#utility.yul\":2627:2905   */\n      pop\n        /* \"#utility.yul\":2565:2905   */\n      swap3\n      swap2\n      pop\n      pop\n      jump\t// out\n        /* \"#utility.yul\":2911:3565   */\n    tag_8:\n        /* \"#utility.yul\":2989:2995   */\n      0x00\n        /* \"#utility.yul\":2997:3003   */\n      dup1\n        /* \"#utility.yul\":3046:3048   */\n      0x40\n        /* \"#utility.yul\":3034:3043   */\n      dup4\n        /* \"#utility.yul\":3025:3032   */\n      dup6\n        /* \"#utility.yul\":3021:3044   */\n      sub\n        /* \"#utility.yul\":3017:3049   */\n      slt\n        /* \"#utility.yul\":3014:3133   */\n      iszero\n      tag_108\n      jumpi\n        /* \"#utility.yul\":3052:3131   */\n      tag_109\n      tag_36\n      jump\t// in\n    tag_109:\n        /* \"#utility.yul\":3014:3133   */\n    tag_108:\n        /* \"#utility.yul\":3172:3173   */\n      0x00\n        /* \"#utility.yul\":3197:3250   */\n      tag_110\n        /* \"#utility.yul\":3242:3249   */\n      dup6\n        /* \"#utility.yul\":3233:3239   */\n      dup3\n        /* \"#utility.yul\":3222:3231   */\n      dup7\n        /* \"#utility.yul\":3218:3240   */\n      add\n        /* \"#utility.yul\":3197:3250   */\n      tag_40\n      jump\t// in\n    tag_110:\n        /* \"#utility.yul\":3187:3250   */\n      swap3\n      pop\n        /* \"#utility.yul\":3143:3260   */\n      pop\n        /* \"#utility.yul\":3327:3329   */\n      0x20\n        /* \"#utility.yul\":3316:3325   */\n      dup4\n        /* \"#utility.yul\":3312:3330   */\n      add\n        /* \"#utility.yul\":3299:3331   */\n      calldataload\n        /* \"#utility.yul\":3358:3376   */\n      0xffffffffffffffff\n        /* \"#utility.yul\":3350:3356   */\n      dup2\n        /* \"#utility.yul\":3347:3377   */\n      gt\n        /* \"#utility.yul\":3344:3461   */\n      iszero\n      tag_111\n      jumpi\n        /* \"#utility.yul\":3380:3459   */\n      tag_112\n      tag_37\n      jump\t// in\n    tag_112:\n        /* \"#utility.yul\":3344:3461   */\n    tag_111:\n        /* \"#utility.yul\":3485:3548   */\n      tag_113\n        /* \"#utility.yul\":3540:3547   */\n      dup6\n        /* \"#utility.yul\":3531:3537   */\n      dup3\n        /* \"#utility.yul\":3520:3529   */\n      dup7\n        /* \"#utility.yul\":3516:3538   */\n      add\n        /* \"#utility.yul\":3485:3548   */\n      tag_50\n      jump\t// in\n    tag_113:\n        /* \"#utility.yul\":3475:3548   */\n      swap2\n      pop\n        /* \"#utility.yul\":3270:3558   */\n      pop\n        /* \"#utility.yul\":2911:3565   */\n      swap3\n      pop\n      swap3\n      swap1\n      pop\n      jump\t// out\n        /* \"#utility.yul\":3571:3900   */\n    tag_12:\n        /* \"#utility.yul\":3630:3636   */\n      0x00\n        /* \"#utility.yul\":3679:3681   */\n      0x20\n        /* \"#utility.yul\":3667:3676   */\n      dup3\n        /* \"#utility.yul\":3658:3665   */\n      dup5\n        /* \"#utility.yul\":3654:3677   */\n      sub\n        /* \"#utility.yul\":3650:3682   */\n      slt\n        /* \"#utility.yul\":3647:3766   */\n      iszero\n      tag_115\n      jumpi\n        /* \"#utility.yul\":3685:3764   */\n      tag_116\n      tag_36\n      jump\t// in\n    tag_116:\n        /* \"#utility.yul\":3647:3766   */\n    tag_115:\n        /* \"#utility.yul\":3805:3806   */\n      0x00\n        /* \"#utility.yul\":3830:3883   */\n      tag_117\n        /* \"#utility.yul\":3875:3882   */\n      dup5\n        /* \"#utility.yul\":3866:3872   */\n      dup3\n        /* \"#utility.yul\":3855:3864   */\n      dup6\n        /* \"#utility.yul\":3851:3873   */\n      add\n        /* \"#utility.yul\":3830:3883   */\n      tag_40\n      jump\t// in\n    tag_117:\n        /* \"#utility.yul\":3820:3883   */\n      swap2\n      pop\n        /* \"#utility.yul\":3776:3893   */\n      pop\n        /* \"#utility.yul\":3571:3900   */\n      swap3\n      swap2\n      pop\n      pop\n      jump\t// out\n        /* \"#utility.yul\":3906:4005   */\n    tag_51:\n        /* \"#utility.yul\":3958:3964   */\n      0x00\n        /* \"#utility.yul\":3992:3997   */\n      dup2\n        /* \"#utility.yul\":3986:3998   */\n      mload\n        /* \"#utility.yul\":3976:3998   */\n      swap1\n      pop\n        /* \"#utility.yul\":3906:4005   */\n      swap2\n      swap1\n      pop\n      jump\t// out\n        /* \"#utility.yul\":4011:4180   */\n    tag_52:\n        /* \"#utility.yul\":4095:4106   */\n      0x00\n        /* \"#utility.yul\":4129:4135   */\n      dup3\n        /* \"#utility.yul\":4124:4127   */\n      dup3\n        /* \"#utility.yul\":4117:4136   */\n      mstore\n        /* \"#utility.yul\":4169:4173   */\n      0x20\n        /* \"#utility.yul\":4164:4167   */\n      dup3\n        /* \"#utility.yul\":4160:4174   */\n      add\n        /* \"#utility.yul\":4145:4174   */\n      swap1\n      pop\n        /* \"#utility.yul\":4011:4180   */\n      swap3\n      swap2\n      pop\n      pop\n      jump\t// out\n        /* \"#utility.yul\":4186:4325   */\n    tag_53:\n        /* \"#utility.yul\":4275:4281   */\n      dup3\n        /* \"#utility.yul\":4270:4273   */\n      dup2\n        /* \"#utility.yul\":4265:4268   */\n      dup4\n        /* \"#utility.yul\":4259:4282   */\n      mcopy\n        /* \"#utility.yul\":4316:4317   */\n      0x00\n        /* \"#utility.yul\":4307:4313   */\n      dup4\n        /* \"#utility.yul\":4302:4305   */\n      dup4\n        /* \"#utility.yul\":4298:4314   */\n      add\n        /* \"#utility.yul\":4291:4318   */\n      mstore\n        /* \"#utility.yul\":4186:4325   */\n      pop\n      pop\n      pop\n      jump\t// out\n        /* \"#utility.yul\":4331:4708   */\n    tag_54:\n        /* \"#utility.yul\":4419:4422   */\n      0x00\n        /* \"#utility.yul\":4447:4486   */\n      tag_122\n        /* \"#utility.yul\":4480:4485   */\n      dup3\n        /* \"#utility.yul\":4447:4486   */\n      tag_51\n      jump\t// in\n    tag_122:\n        /* \"#utility.yul\":4502:4573   */\n      tag_123\n        /* \"#utility.yul\":4566:4572   */\n      dup2\n        /* \"#utility.yul\":4561:4564   */\n      dup6\n        /* \"#utility.yul\":4502:4573   */\n      tag_52\n      jump\t// in\n    tag_123:\n        /* \"#utility.yul\":4495:4573   */\n      swap4\n      pop\n        /* \"#utility.yul\":4582:4647   */\n      tag_124\n        /* \"#utility.yul\":4640:4646   */\n      dup2\n        /* \"#utility.yul\":4635:4638   */\n      dup6\n        /* \"#utility.yul\":4628:4632   */\n      0x20\n        /* \"#utility.yul\":4621:4626   */\n      dup7\n        /* \"#utility.yul\":4617:4633   */\n      add\n        /* \"#utility.yul\":4582:4647   */\n      tag_53\n      jump\t// in\n    tag_124:\n        /* \"#utility.yul\":4672:4701   */\n      tag_125\n        /* \"#utility.yul\":4694:4700   */\n      dup2\n        /* \"#utility.yul\":4672:4701   */\n      tag_43\n      jump\t// in\n    tag_125:\n        /* \"#utility.yul\":4667:4670   */\n      dup5\n        /* \"#utility.yul\":4663:4702   */\n      add\n        /* \"#utility.yul\":4656:4702   */\n      swap2\n      pop\n        /* \"#utility.yul\":4423:4708   */\n      pop\n        /* \"#utility.yul\":4331:4708   */\n      swap3\n      swap2\n      pop\n      pop\n      jump\t// out\n        /* \"#utility.yul\":4714:5027   */\n    tag_15:\n        /* \"#utility.yul\":4827:4831   */\n      0x00\n        /* \"#utility.yul\":4865:4867   */\n      0x20\n        /* \"#utility.yul\":4854:4863   */\n      dup3\n        /* \"#utility.yul\":4850:4868   */\n      add\n        /* \"#utility.yul\":4842:4868   */\n      swap1\n      pop\n        /* \"#utility.yul\":4914:4923   */\n      dup2\n        /* \"#utility.yul\":4908:4912   */\n      dup2\n        /* \"#utility.yul\":4904:4924   */\n      sub\n        /* \"#utility.yul\":4900:4901   */\n      0x00\n        /* \"#utility.yul\":4889:4898   */\n      dup4\n        /* \"#utility.yul\":4885:4902   */\n      add\n        /* \"#utility.yul\":4878:4925   */\n      mstore\n        /* \"#utility.yul\":4942:5020   */\n      tag_127\n        /* \"#utility.yul\":5015:5019   */\n      dup2\n        /* \"#utility.yul\":5006:5012   */\n      dup5\n        /* \"#utility.yul\":4942:5020   */\n      tag_54\n      jump\t// in\n    tag_127:\n        /* \"#utility.yul\":4934:5020   */\n      swap1\n      pop\n        /* \"#utility.yul\":4714:5027   */\n      swap3\n      swap2\n      pop\n      pop\n      jump\t// out\n        /* \"#utility.yul\":5033:5213   */\n    tag_55:\n        /* \"#utility.yul\":5081:5158   */\n      0x4e487b7100000000000000000000000000000000000000000000000000000000\n        /* \"#utility.yul\":5078:5079   */\n      0x00\n        /* \"#utility.yul\":5071:5159   */\n      mstore\n        /* \"#utility.yul\":5178:5182   */\n      0x22\n        /* \"#utility.yul\":5175:5176   */\n      0x04\n        /* \"#utility.yul\":5168:5183   */\n      mstore\n        /* \"#utility.yul\":5202:5206   */\n      0x24\n        /* \"#utility.yul\":5199:5200   */\n      0x00\n        /* \"#utility.yul\":5192:5207   */\n      revert\n        /* \"#utility.yul\":5219:5539   */\n    tag_24:\n        /* \"#utility.yul\":5263:5269   */\n      0x00\n        /* \"#utility.yul\":5300:5301   */\n      0x02\n        /* \"#utility.yul\":5294:5298   */\n      dup3\n        /* \"#utility.yul\":5290:5302   */\n      div\n        /* \"#utility.yul\":5280:5302   */\n      swap1\n      pop\n        /* \"#utility.yul\":5347:5348   */\n      0x01\n        /* \"#utility.yul\":5341:5345   */\n      dup3\n        /* \"#utility.yul\":5337:5349   */\n      and\n        /* \"#utility.yul\":5368:5386   */\n      dup1\n        /* \"#utility.yul\":5358:5439   */\n      tag_130\n      jumpi\n        /* \"#utility.yul\":5424:5428   */\n      0x7f\n        /* \"#utility.yul\":5416:5422   */\n      dup3\n        /* \"#utility.yul\":5412:5429   */\n      and\n        /* \"#utility.yul\":5402:5429   */\n      swap2\n      pop\n        /* \"#utility.yul\":5358:5439   */\n    tag_130:\n        /* \"#utility.yul\":5486:5488   */\n      0x20\n        /* \"#utility.yul\":5478:5484   */\n      dup3\n        /* \"#utility.yul\":5475:5489   */\n      lt\n        /* \"#utility.yul\":5455:5473   */\n      dup2\n        /* \"#utility.yul\":5452:5490   */\n      sub\n        /* \"#utility.yul\":5449:5533   */\n      tag_131\n      jumpi\n        /* \"#utility.yul\":5505:5523   */\n      tag_132\n      tag_55\n      jump\t// in\n    tag_132:\n        /* \"#utility.yul\":5449:5533   */\n    tag_131:\n        /* \"#utility.yul\":5270:5539   */\n      pop\n        /* \"#utility.yul\":5219:5539   */\n      swap2\n      swap1\n      pop\n      jump\t// out\n        /* \"#utility.yul\":5545:5686   */\n    tag_56:\n        /* \"#utility.yul\":5594:5598   */\n      0x00\n        /* \"#utility.yul\":5617:5620   */\n      dup2\n        /* \"#utility.yul\":5609:5620   */\n      swap1\n      pop\n        /* \"#utility.yul\":5640:5643   */\n      dup2\n        /* \"#utility.yul\":5637:5638   */\n      0x00\n        /* \"#utility.yul\":5630:5644   */\n      mstore\n        /* \"#utility.yul\":5674:5678   */\n      0x20\n        /* \"#utility.yul\":5671:5672   */\n      0x00\n        /* \"#utility.yul\":5661:5679   */\n      keccak256\n        /* \"#utility.yul\":5653:5679   */\n      swap1\n      pop\n        /* \"#utility.yul\":5545:5686   */\n      swap2\n      swap1\n      pop\n      jump\t// out\n        /* \"#utility.yul\":5692:5785   */\n    tag_57:\n        /* \"#utility.yul\":5729:5735   */\n      0x00\n        /* \"#utility.yul\":5776:5778   */\n      0x20\n        /* \"#utility.yul\":5771:5773   */\n      0x1f\n        /* \"#utility.yul\":5764:5769   */\n      dup4\n        /* \"#utility.yul\":5760:5774   */\n      add\n        /* \"#utility.yul\":5756:5779   */\n      div\n        /* \"#utility.yul\":5746:5779   */\n      swap1\n      pop\n        /* \"#utility.yul\":5692:5785   */\n      swap2\n      swap1\n      pop\n      jump\t// out\n        /* \"#utility.yul\":5791:5898   */\n    tag_58:\n        /* \"#utility.yul\":5835:5843   */\n      0x00\n        /* \"#utility.yul\":5885:5890   */\n      dup3\n        /* \"#utility.yul\":5879:5883   */\n      dup3\n        /* \"#utility.yul\":5875:5891   */\n      shl\n        /* \"#utility.yul\":5854:5891   */\n      swap1\n      pop\n        /* \"#utility.yul\":5791:5898   */\n      swap3\n      swap2\n      pop\n      pop\n      jump\t// out\n        /* \"#utility.yul\":5904:6297   */\n    tag_59:\n        /* \"#utility.yul\":5973:5979   */\n      0x00\n        /* \"#utility.yul\":6023:6024   */\n      0x08\n        /* \"#utility.yul\":6011:6021   */\n      dup4\n        /* \"#utility.yul\":6007:6025   */\n      mul\n        /* \"#utility.yul\":6046:6143   */\n      tag_137\n        /* \"#utility.yul\":6076:6142   */\n      0xffffffffffffffffffffffffffffffffffffffffffffffffffffffffffffffff\n        /* \"#utility.yul\":6065:6074   */\n      dup3\n        /* \"#utility.yul\":6046:6143   */\n      tag_58\n      jump\t// in\n    tag_137:\n        /* \"#utility.yul\":6164:6203   */\n      tag_138\n        /* \"#utility.yul\":6194:6202   */\n      dup7\n        /* \"#utility.yul\":6183:6192   */\n      dup4\n        /* \"#utility.yul\":6164:6203   */\n      tag_58\n      jump\t// in\n    tag_138:\n        /* \"#utility.yul\":6152:6203   */\n      swap6\n      pop\n        /* \"#utility.yul\":6236:6240   */\n      dup1\n        /* \"#utility.yul\":6232:6241   */\n      not\n        /* \"#utility.yul\":6225:6230   */\n      dup5\n        /* \"#utility.yul\":6221:6242   */\n      and\n        /* \"#utility.yul\":6212:6242   */\n      swap4\n      pop\n        /* \"#utility.yul\":6285:6289   */\n      dup1\n        /* \"#utility.yul\":6275:6283   */\n      dup7\n        /* \"#utility.yul\":6271:6290   */\n      and\n        /* \"#utility.yul\":6264:6269   */\n      dup5\n        /* \"#utility.yul\":6261:6291   */\n      or\n        /* \"#utility.yul\":6251:6291   */\n      swap3\n      pop\n        /* \"#utility.yul\":5980:6297   */\n      pop\n      pop\n        /* \"#utility.yul\":5904:6297   */\n      swap4\n      swap3\n      pop\n      pop\n      pop\n      jump\t// out\n        /* \"#utility.yul\":6303:6363   */\n    tag_60:\n        /* \"#utility.yul\":6331:6334   */\n      0x00\n        /* \"#utility.yul\":6352:6357   */\n      dup2\n        /* \"#utility.yul\":6345:6357   */\n      swap1\n      pop\n        /* \"#utility.yul\":6303:6363   */\n      swap2\n      swap1\n      pop\n      jump\t// out\n        /* \"#utility.yul\":6369:6511   */\n    tag_61:\n        /* \"#utility.yul\":6419:6428   */\n      0x00\n        /* \"#utility.yul\":6452:6505   */\n      tag_141\n        /* \"#utility.yul\":6470:6504   */\n      tag_142\n        /* \"#utility.yul\":6479:6503   */\n      tag_143\n        /* \"#utility.yul\":6497:6502   */\n      dup5\n        /* \"#utility.yul\":6479:6503   */\n      tag_38\n      jump\t// in\n    tag_143:\n        /* \"#utility.yul\":6470:6504   */\n      tag_60\n      jump\t// in\n    tag_142:\n        /* \"#utility.yul\":6452:6505   */\n      tag_38\n      jump\t// in\n    tag_141:\n        /* \"#utility.yul\":6439:6505   */\n      swap1\n      pop\n        /* \"#utility.yul\":6369:6511   */\n      swap2\n      swap1\n      pop\n      jump\t// out\n        /* \"#utility.yul\":6517:6592   */\n    tag_62:\n        /* \"#utility.yul\":6560:6563   */\n      0x00\n        /* \"#utility.yul\":6581:6586   */\n      dup2\n        /* \"#utility.yul\":6574:6586   */\n      swap1\n      pop\n        /* \"#utility.yul\":6517:6592   */\n      swap2\n      swap1\n      pop\n      jump\t// out\n        /* \"#utility.yul\":6598:6867   */\n    tag_63:\n        /* \"#utility.yul\":6708:6747   */\n      tag_146\n        /* \"#utility.yul\":6739:6746   */\n      dup4\n        /* \"#utility.yul\":6708:6747   */\n      tag_61\n      jump\t// in\n    tag_146:\n        /* \"#utility.yul\":6769:6860   */\n      tag_147\n        /* \"#utility.yul\":6818:6859   */\n      tag_148\n        /* \"#utility.yul\":6842:6858   */\n      dup3\n        /* \"#utility.yul\":6818:6859   */\n      tag_62\n      jump\t// in\n    tag_148:\n        /* \"#utility.yul\":6810:6816   */\n      dup5\n        /* \"#utility.yul\":6803:6807   */\n      dup5\n        /* \"#utility.yul\":6797:6808   */\n      sload\n        /* \"#utility.yul\":6769:6860   */\n      tag_59\n      jump\t// in\n    tag_147:\n        /* \"#utility.yul\":6763:6767   */\n      dup3\n        /* \"#utility.yul\":6756:6861   */\n      sstore\n        /* \"#utility.yul\":6674:6867   */\n      pop\n        /* \"#utility.yul\":6598:6867   */\n      pop\n      pop\n      pop\n      jump\t// out\n        /* \"#utility.yul\":6873:6946   */\n    tag_64:\n        /* \"#utility.yul\":6918:6921   */\n      0x00\n        /* \"#utility.yul\":6873:6946   */\n      swap1\n      jump\t// out\n        /* \"#utility.yul\":6952:7141   */\n    tag_65:\n        /* \"#utility.yul\":7029:7061   */\n      tag_151\n      tag_64\n      jump\t// in\n    tag_151:\n        /* \"#utility.yul\":7070:7135   */\n      tag_152\n        /* \"#utility.yul\":7128:7134   */\n      dup2\n        /* \"#utility.yul\":7120:7126   */\n      dup5\n        /* \"#utility.yul\":7114:7118   */\n      dup5\n        /* \"#utility.yul\":7070:7135   */\n      tag_63\n      jump\t// in\n    tag_152:\n        /* \"#utility.yul\":7005:7141   */\n      pop\n        /* \"#utility.yul\":6952:7141   */\n      pop\n      pop\n      jump\t// out\n        /* \"#utility.yul\":7147:7333   */\n    tag_66:\n        /* \"#utility.yul\":7207:7327   */\n    tag_154:\n        /* \"#utility.yul\":7224:7227   */\n      dup2\n        /* \"#utility.yul\":7217:7222   */\n      dup2\n        /* \"#utility.yul\":7214:7228   */\n      lt\n        /* \"#utility.yul\":7207:7327   */\n      iszero\n      tag_156\n      jumpi\n        /* \"#utility.yul\":7278:7317   */\n      tag_157\n        /* \"#utility.yul\":7315:7316   */\n      0x00\n        /* \"#utility.yul\":7308:7313   */\n      dup3\n        /* \"#utility.yul\":7278:7317   */\n      tag_65\n      jump\t// in\n    tag_157:\n        /* \"#utility.yul\":7251:7252   */\n      0x01\n        /* \"#utility.yul\":7244:7249   */\n      dup2\n        /* \"#utility.yul\":7240:7253   */\n      add\n        /* \"#utility.yul\":7231:7253   */\n      swap1\n      pop\n        /* \"#utility.yul\":7207:7327   */\n      jump(tag_154)\n    tag_156:\n        /* \"#utility.yul\":7147:7333   */\n      pop\n      pop\n      jump\t// out\n        /* \"#utility.yul\":7339:7882   */\n    tag_67:\n        /* \"#utility.yul\":7440:7442   */\n      0x1f\n        /* \"#utility.yul\":7435:7438   */\n      dup3\n        /* \"#utility.yul\":7432:7443   */\n      gt\n        /* \"#utility.yul\":7429:7875   */\n      iszero\n      tag_159\n      jumpi\n        /* \"#utility.yul\":7474:7512   */\n      tag_160\n        /* \"#utility.yul\":7506:7511   */\n      dup2\n        /* \"#utility.yul\":7474:7512   */\n      tag_56\n      jump\t// in\n    tag_160:\n        /* \"#utility.yul\":7558:7587   */\n      tag_161\n        /* \"#utility.yul\":7576:7586   */\n      dup5\n        /* \"#utility.yul\":7558:7587   */\n      tag_57\n      jump\t// in\n    tag_161:\n        /* \"#utility.yul\":7548:7556   */\n      dup2\n        /* \"#utility.yul\":7544:7588   */\n      add\n        /* \"#utility.yul\":7741:7743   */\n      0x20\n        /* \"#utility.yul\":7729:7739   */\n      dup6\n        /* \"#utility.yul\":7726:7744   */\n      lt\n        /* \"#utility.yul\":7723:7772   */\n      iszero\n      tag_162\n      jumpi\n        /* \"#utility.yul\":7762:7770   */\n      dup2\n        /* \"#utility.yul\":7747:7770   */\n      swap1\n      pop\n        /* \"#utility.yul\":7723:7772   */\n    tag_162:\n        /* \"#utility.yul\":7785:7865   */\n      tag_163\n        /* \"#utility.yul\":7841:7863   */\n      tag_164\n        /* \"#utility.yul\":7859:7862   */\n      dup6\n        /* \"#utility.yul\":7841:7863   */\n      tag_57\n      jump\t// in\n    tag_164:\n        /* \"#utility.yul\":7831:7839   */\n      dup4\n        /* \"#utility.yul\":7827:7864   */\n      add\n        /* \"#utility.yul\":7814:7825   */\n      dup3\n        /* \"#utility.yul\":7785:7865   */\n      tag_66\n      jump\t// in\n    tag_163:\n        /* \"#utility.yul\":7444:7875   */\n      pop\n      pop\n        /* \"#utility.yul\":7429:7875   */\n    tag_159:\n        /* \"#utility.yul\":7339:7882   */\n      pop\n      pop\n      pop\n      jump\t// out\n        /* \"#utility.yul\":7888:8005   */\n    tag_68:\n        /* \"#utility.yul\":7942:7950   */\n      0x00\n        /* \"#utility.yul\":7992:7997   */\n      dup3\n        /* \"#utility.yul\":7986:7990   */\n      dup3\n        /* \"#utility.yul\":7982:7998   */\n      shr\n        /* \"#utility.yul\":7961:7998   */\n      swap1\n      pop\n        /* \"#utility.yul\":7888:8005   */\n      swap3\n      swap2\n      pop\n      pop\n      jump\t// out\n        /* \"#utility.yul\":8011:8180   */\n    tag_69:\n        /* \"#utility.yul\":8055:8061   */\n      0x00\n        /* \"#utility.yul\":8088:8139   */\n      tag_167\n        /* \"#utility.yul\":8136:8137   */\n      0x00\n        /* \"#utility.yul\":8132:8138   */\n      not\n        /* \"#utility.yul\":8124:8129   */\n      dup5\n        /* \"#utility.yul\":8121:8122   */\n      0x08\n        /* \"#utility.yul\":8117:8130   */\n      mul\n        /* \"#utility.yul\":8088:8139   */\n      tag_68\n      jump\t// in\n    tag_167:\n        /* \"#utility.yul\":8084:8140   */\n      not\n        /* \"#utility.yul\":8169:8173   */\n      dup1\n        /* \"#utility.yul\":8163:8167   */\n      dup4\n        /* \"#utility.yul\":8159:8174   */\n      and\n        /* \"#utility.yul\":8149:8174   */\n      swap2\n      pop\n        /* \"#utility.yul\":8062:8180   */\n      pop\n        /* \"#utility.yul\":8011:8180   */\n      swap3\n      swap2\n      pop\n      pop\n      jump\t// out\n        /* \"#utility.yul\":8185:8480   */\n    tag_70:\n        /* \"#utility.yul\":8261:8265   */\n      0x00\n        /* \"#utility.yul\":8407:8436   */\n      tag_169\n        /* \"#utility.yul\":8432:8435   */\n      dup4\n        /* \"#utility.yul\":8426:8430   */\n      dup4\n        /* \"#utility.yul\":8407:8436   */\n      tag_69\n      jump\t// in\n    tag_169:\n        /* \"#utility.yul\":8399:8436   */\n      swap2\n      pop\n        /* \"#utility.yul\":8469:8472   */\n      dup3\n        /* \"#utility.yul\":8466:8467   */\n      0x02\n        /* \"#utility.yul\":8462:8473   */\n      mul\n        /* \"#utility.yul\":8456:8460   */\n      dup3\n        /* \"#utility.yul\":8453:8474   */\n      or\n        /* \"#utility.yul\":8445:8474   */\n      swap1\n      pop\n        /* \"#utility.yul\":8185:8480   */\n      swap3\n      swap2\n      pop\n      pop\n      jump\t// out\n        /* \"#utility.yul\":8485:9880   */\n    tag_22:\n        /* \"#utility.yul\":8602:8639   */\n      tag_171\n        /* \"#utility.yul\":8635:8638   */\n      dup3\n        /* \"#utility.yul\":8602:8639   */\n      tag_51\n      jump\t// in\n    tag_171:\n        /* \"#utility.yul\":8704:8722   */\n      0xffffffffffffffff\n        /* \"#utility.yul\":8696:8702   */\n      dup2\n        /* \"#utility.yul\":8693:8723   */\n      gt\n        /* \"#utility.yul\":8690:8746   */\n      iszero\n      tag_172\n      jumpi\n        /* \"#utility.yul\":8726:8744   */\n      tag_173\n      tag_44\n      jump\t// in\n    tag_173:\n        /* \"#utility.yul\":8690:8746   */\n    tag_172:\n        /* \"#utility.yul\":8770:8808   */\n      tag_174\n        /* \"#utility.yul\":8802:8806   */\n      dup3\n        /* \"#utility.yul\":8796:8807   */\n      sload\n        /* \"#utility.yul\":8770:8808   */\n      tag_24\n      jump\t// in\n    tag_174:\n        /* \"#utility.yul\":8855:8922   */\n      tag_175\n        /* \"#utility.yul\":8915:8921   */\n      dup3\n        /* \"#utility.yul\":8907:8913   */\n      dup3\n        /* \"#utility.yul\":8901:8905   */\n      dup6\n        /* \"#utility.yul\":8855:8922   */\n      tag_67\n      jump\t// in\n    tag_175:\n        /* \"#utility.yul\":8949:8950   */\n      0x00\n        /* \"#utility.yul\":8973:8977   */\n      0x20\n        /* \"#utility.yul\":8960:8977   */\n      swap1\n      pop\n        /* \"#utility.yul\":9005:9007   */\n      0x1f\n        /* \"#utility.yul\":8997:9003   */\n      dup4\n        /* \"#utility.yul\":8994:9008   */\n      gt\n        /* \"#utility.yul\":9022:9023   */\n      0x01\n        /* \"#utility.yul\":9017:9635   */\n      dup2\n      eq\n      tag_177\n      jumpi\n        /* \"#utility.yul\":9679:9680   */\n      0x00\n        /* \"#utility.yul\":9696:9702   */\n      dup5\n        /* \"#utility.yul\":9693:9770   */\n      iszero\n      tag_178\n      jumpi\n        /* \"#utility.yul\":9745:9754   */\n      dup3\n        /* \"#utility.yul\":9740:9743   */\n      dup8\n        /* \"#utility.yul\":9736:9755   */\n      add\n        /* \"#utility.yul\":9730:9756   */\n      mload\n        /* \"#utility.yul\":9721:9756   */\n      swap1\n      pop\n        /* \"#utility.yul\":9693:9770   */\n    tag_178:\n        /* \"#utility.yul\":9796:9863   */\n      tag_179\n        /* \"#utility.yul\":9856:9862   */\n      dup6\n        /* \"#utility.yul\":9849:9854   */\n      dup3\n        /* \"#utility.yul\":9796:9863   */\n      tag_70\n      jump\t// in\n    tag_179:\n        /* \"#utility.yul\":9790:9794   */\n      dup7\n        /* \"#utility.yul\":9783:9864   */\n      sstore\n        /* \"#utility.yul\":9652:9874   */\n      pop\n        /* \"#utility.yul\":8987:9874   */\n      jump(tag_176)\n        /* \"#utility.yul\":9017:9635   */\n    tag_177:\n        /* \"#utility.yul\":9069:9073   */\n      0x1f\n        /* \"#utility.yul\":9065:9074   */\n      not\n        /* \"#utility.yul\":9057:9063   */\n      dup5\n        /* \"#utility.yul\":9053:9075   */\n      and\n        /* \"#utility.yul\":9103:9140   */\n      tag_180\n        /* \"#utility.yul\":9135:9139   */\n      dup7\n        /* \"#utility.yul\":9103:9140   */\n      tag_56\n      jump\t// in\n    tag_180:\n        /* \"#utility.yul\":9162:9163   */\n      0x00\n        /* \"#utility.yul\":9176:9384   */\n    tag_181:\n        /* \"#utility.yul\":9190:9197   */\n      dup3\n        /* \"#utility.yul\":9187:9188   */\n      dup2\n        /* \"#utility.yul\":9184:9198   */\n      lt\n        /* \"#utility.yul\":9176:9384   */\n      iszero\n      tag_183\n      jumpi\n        /* \"#utility.yul\":9269:9278   */\n      dup5\n        /* \"#utility.yul\":9264:9267   */\n      dup10\n        /* \"#utility.yul\":9260:9279   */\n      add\n        /* \"#utility.yul\":9254:9280   */\n      mload\n        /* \"#utility.yul\":9246:9252   */\n      dup3\n        /* \"#utility.yul\":9239:9281   */\n      sstore\n        /* \"#utility.yul\":9320:9321   */\n      0x01\n        /* \"#utility.yul\":9312:9318   */\n      dup3\n        /* \"#utility.yul\":9308:9322   */\n      add\n        /* \"#utility.yul\":9298:9322   */\n      swap2\n      pop\n        /* \"#utility.yul\":9367:9369   */\n      0x20\n        /* \"#utility.yul\":9356:9365   */\n      dup6\n        /* \"#utility.yul\":9352:9370   */\n      add\n        /* \"#utility.yul\":9339:9370   */\n      swap5\n      pop\n        /* \"#utility.yul\":9213:9217   */\n      0x20\n        /* \"#utility.yul\":9210:9211   */\n      dup2\n        /* \"#utility.yul\":9206:9218   */\n      add\n        /* \"#utility.yul\":9201:9218   */\n      swap1\n      pop\n        /* \"#utility.yul\":9176:9384   */\n      jump(tag_181)\n    tag_183:\n        /* \"#utility.yul\":9412:9418   */\n      dup7\n        /* \"#utility.yul\":9403:9410   */\n      dup4\n        /* \"#utility.yul\":9400:9419   */\n      lt\n        /* \"#utility.yul\":9397:9576   */\n      iszero\n      tag_184\n      jumpi\n        /* \"#utility.yul\":9470:9479   */\n      dup5\n        /* \"#utility.yul\":9465:9468   */\n      dup10\n        /* \"#utility.yul\":9461:9480   */\n      add\n        /* \"#utility.yul\":9455:9481   */\n      mload\n        /* \"#utility.yul\":9513:9561   */\n      tag_185\n        /* \"#utility.yul\":9555:9559   */\n      0x1f\n        /* \"#utility.yul\":9547:9553   */\n      dup10\n        /* \"#utility.yul\":9543:9560   */\n      and\n        /* \"#utility.yul\":9532:9541   */\n      dup3\n        /* \"#utility.yul\":9513:9561   */\n      tag_69\n      jump\t// in\n    tag_185:\n        /* \"#utility.yul\":9505:9511   */\n      dup4\n        /* \"#utility.yul\":9498:9562   */\n      sstore\n        /* \"#utility.yul\":9420:9576   */\n      pop\n        /* \"#utility.yul\":9397:9576   */\n    tag_184:\n        /* \"#utility.yul\":9622:9623   */\n      0x01\n        /* \"#utility.yul\":9618:9619   */\n      0x02\n        /* \"#utility.yul\":9610:9616   */\n      dup9\n        /* \"#utility.yul\":9606:9620   */\n      mul\n        /* \"#utility.yul\":9602:9624   */\n      add\n        /* \"#utility.yul\":9596:9600   */\n      dup9\n        /* \"#utility.yul\":9589:9625   */\n      sstore\n        /* \"#utility.yul\":9024:9635   */\n      pop\n      pop\n      pop\n        /* \"#utility.yul\":8987:9874   */\n    tag_176:\n      pop\n        /* \"#utility.yul\":8577:9880   */\n      pop\n      pop\n      pop\n        /* \"#utility.yul\":8485:9880   */\n      pop\n      pop\n      jump\t// out\n\n    auxdata: 0xa2646970667358221220fd346636c3d2635703e105e1cff5134b25409285fed6dd23da137de4d9e3f46564736f6c634300081a0033\n}\n",
				"bytecode": {
					"linkReferences": {},
					"object": "6080604052348015600e575f80fd5b5061079f8061001c5f395ff3fe608060405234801561000f575f80fd5b506004361061003f575f3560e01c8063d542712314610043578063d5fb052f1461005f578063fddec16a1461008f575b5f80fd5b61005d6004803603810190610058919061039b565b6100bf565b005b610079600480360381019061007491906103f5565b6100e1565b6040516100869190610480565b60405180910390f35b6100a960048036038101906100a491906103f5565b61017b565b6040516100b69190610480565b60405180910390f35b805f808481526020019081526020015f2090816100dc919061069a565b505050565b5f602052805f5260405f205f9150905080546100fc906104cd565b80601f0160208091040260200160405190810160405280929190818152602001828054610128906104cd565b80156101735780601f1061014a57610100808354040283529160200191610173565b820191905f5260205f20905b81548152906001019060200180831161015657829003601f168201915b505050505081565b60605f808381526020019081526020015f208054610198906104cd565b80601f01602080910402602001604051908101604052809291908181526020018280546101c4906104cd565b801561020f5780601f106101e65761010080835404028352916020019161020f565b820191905f5260205f20905b8154815290600101906020018083116101f257829003601f168201915b50505050509050919050565b5f604051905090565b5f80fd5b5f80fd5b5f819050919050565b61023e8161022c565b8114610248575f80fd5b50565b5f8135905061025981610235565b92915050565b5f80fd5b5f80fd5b5f601f19601f8301169050919050565b7f4e487b71000000000000000000000000000000000000000000000000000000005f52604160045260245ffd5b6102ad82610267565b810181811067ffffffffffffffff821117156102cc576102cb610277565b5b80604052505050565b5f6102de61021b565b90506102ea82826102a4565b919050565b5f67ffffffffffffffff82111561030957610308610277565b5b61031282610267565b9050602081019050919050565b828183375f83830152505050565b5f61033f61033a846102ef565b6102d5565b90508281526020810184848401111561035b5761035a610263565b5b61036684828561031f565b509392505050565b5f82601f8301126103825761038161025f565b5b813561039284826020860161032d565b91505092915050565b5f80604083850312156103b1576103b0610224565b5b5f6103be8582860161024b565b925050602083013567ffffffffffffffff8111156103df576103de610228565b5b6103eb8582860161036e565b9150509250929050565b5f6020828403121561040a57610409610224565b5b5f6104178482850161024b565b91505092915050565b5f81519050919050565b5f82825260208201905092915050565b8281835e5f83830152505050565b5f61045282610420565b61045c818561042a565b935061046c81856020860161043a565b61047581610267565b840191505092915050565b5f6020820190508181035f8301526104988184610448565b905092915050565b7f4e487b71000000000000000000000000000000000000000000000000000000005f52602260045260245ffd5b5f60028204905060018216806104e457607f821691505b6020821081036104f7576104f66104a0565b5b50919050565b5f819050815f5260205f209050919050565b5f6020601f8301049050919050565b5f82821b905092915050565b5f600883026105597fffffffffffffffffffffffffffffffffffffffffffffffffffffffffffffffff8261051e565b610563868361051e565b95508019841693508086168417925050509392505050565b5f819050919050565b5f61059e6105996105948461022c565b61057b565b61022c565b9050919050565b5f819050919050565b6105b783610584565b6105cb6105c3826105a5565b84845461052a565b825550505050565b5f90565b6105df6105d3565b6105ea8184846105ae565b505050565b5b8181101561060d576106025f826105d7565b6001810190506105f0565b5050565b601f82111561065257610623816104fd565b61062c8461050f565b8101602085101561063b578190505b61064f6106478561050f565b8301826105ef565b50505b505050565b5f82821c905092915050565b5f6106725f1984600802610657565b1980831691505092915050565b5f61068a8383610663565b9150826002028217905092915050565b6106a382610420565b67ffffffffffffffff8111156106bc576106bb610277565b5b6106c682546104cd565b6106d1828285610611565b5f60209050601f831160018114610702575f84156106f0578287015190505b6106fa858261067f565b865550610761565b601f198416610710866104fd565b5f5b8281101561073757848901518255600182019150602085019450602081019050610712565b868310156107545784890151610750601f891682610663565b8355505b6001600288020188555050505b50505050505056fea2646970667358221220fd346636c3d2635703e105e1cff5134b25409285fed6dd23da137de4d9e3f46564736f6c634300081a0033",
					"opcodes": "PUSH1 0x80 PUSH1 0x40 MSTORE CALLVALUE DUP1 ISZERO PUSH1 0xE JUMPI PUSH0 DUP1 REVERT JUMPDEST POP PUSH2 0x79F DUP1 PUSH2 0x1C PUSH0 CODECOPY PUSH0 RETURN INVALID PUSH1 0x80 PUSH1 0x40 MSTORE CALLVALUE DUP1 ISZERO PUSH2 0xF JUMPI PUSH0 DUP1 REVERT JUMPDEST POP PUSH1 0x4 CALLDATASIZE LT PUSH2 0x3F JUMPI PUSH0 CALLDATALOAD PUSH1 0xE0 SHR DUP1 PUSH4 0xD5427123 EQ PUSH2 0x43 JUMPI DUP1 PUSH4 0xD5FB052F EQ PUSH2 0x5F JUMPI DUP1 PUSH4 0xFDDEC16A EQ PUSH2 0x8F JUMPI JUMPDEST PUSH0 DUP1 REVERT JUMPDEST PUSH2 0x5D PUSH1 0x4 DUP1 CALLDATASIZE SUB DUP2 ADD SWAP1 PUSH2 0x58 SWAP2 SWAP1 PUSH2 0x39B JUMP JUMPDEST PUSH2 0xBF JUMP JUMPDEST STOP JUMPDEST PUSH2 0x79 PUSH1 0x4 DUP1 CALLDATASIZE SUB DUP2 ADD SWAP1 PUSH2 0x74 SWAP2 SWAP1 PUSH2 0x3F5 JUMP JUMPDEST PUSH2 0xE1 JUMP JUMPDEST PUSH1 0x40 MLOAD PUSH2 0x86 SWAP2 SWAP1 PUSH2 0x480 JUMP JUMPDEST PUSH1 0x40 MLOAD DUP1 SWAP2 SUB SWAP1 RETURN JUMPDEST PUSH2 0xA9 PUSH1 0x4 DUP1 CALLDATASIZE SUB DUP2 ADD SWAP1 PUSH2 0xA4 SWAP2 SWAP1 PUSH2 0x3F5 JUMP JUMPDEST PUSH2 0x17B JUMP JUMPDEST PUSH1 0x40 MLOAD PUSH2 0xB6 SWAP2 SWAP1 PUSH2 0x480 JUMP JUMPDEST PUSH1 0x40 MLOAD DUP1 SWAP2 SUB SWAP1 RETURN JUMPDEST DUP1 PUSH0 DUP1 DUP5 DUP2 MSTORE PUSH1 0x20 ADD SWAP1 DUP2 MSTORE PUSH1 0x20 ADD PUSH0 KECCAK256 SWAP1 DUP2 PUSH2 0xDC SWAP2 SWAP1 PUSH2 0x69A JUMP JUMPDEST POP POP POP JUMP JUMPDEST PUSH0 PUSH1 0x20 MSTORE DUP1 PUSH0 MSTORE PUSH1 0x40 PUSH0 KECCAK256 PUSH0 SWAP2 POP SWAP1 POP DUP1 SLOAD PUSH2 0xFC SWAP1 PUSH2 0x4CD JUMP JUMPDEST DUP1 PUSH1 0x1F ADD PUSH1 0x20 DUP1 SWAP2 DIV MUL PUSH1 0x20 ADD PUSH1 0x40 MLOAD SWAP1 DUP2 ADD PUSH1 0x40 MSTORE DUP1 SWAP3 SWAP2 SWAP1 DUP2 DUP2 MSTORE PUSH1 0x20 ADD DUP3 DUP1 SLOAD PUSH2 0x128 SWAP1 PUSH2 0x4CD JUMP JUMPDEST DUP1 ISZERO PUSH2 0x173 JUMPI DUP1 PUSH1 0x1F LT PUSH2 0x14A JUMPI PUSH2 0x100 DUP1 DUP4 SLOAD DIV MUL DUP4 MSTORE SWAP2 PUSH1 0x20 ADD SWAP2 PUSH2 0x173 JUMP JUMPDEST DUP3 ADD SWAP2 SWAP1 PUSH0 MSTORE PUSH1 0x20 PUSH0 KECCAK256 SWAP1 JUMPDEST DUP2 SLOAD DUP2 MSTORE SWAP1 PUSH1 0x1 ADD SWAP1 PUSH1 0x20 ADD DUP1 DUP4 GT PUSH2 0x156 JUMPI DUP3 SWAP1 SUB PUSH1 0x1F AND DUP3 ADD SWAP2 JUMPDEST POP POP POP POP POP DUP2 JUMP JUMPDEST PUSH1 0x60 PUSH0 DUP1 DUP4 DUP2 MSTORE PUSH1 0x20 ADD SWAP1 DUP2 MSTORE PUSH1 0x20 ADD PUSH0 KECCAK256 DUP1 SLOAD PUSH2 0x198 SWAP1 PUSH2 0x4CD JUMP JUMPDEST DUP1 PUSH1 0x1F ADD PUSH1 0x20 DUP1 SWAP2 DIV MUL PUSH1 0x20 ADD PUSH1 0x40 MLOAD SWAP1 DUP2 ADD PUSH1 0x40 MSTORE DUP1 SWAP3 SWAP2 SWAP1 DUP2 DUP2 MSTORE PUSH1 0x20 ADD DUP3 DUP1 SLOAD PUSH2 0x1C4 SWAP1 PUSH2 0x4CD JUMP JUMPDEST DUP1 ISZERO PUSH2 0x20F JUMPI DUP1 PUSH1 0x1F LT PUSH2 0x1E6 JUMPI PUSH2 0x100 DUP1 DUP4 SLOAD DIV MUL DUP4 MSTORE SWAP2 PUSH1 0x20 ADD SWAP2 PUSH2 0x20F JUMP JUMPDEST DUP3 ADD SWAP2 SWAP1 PUSH0 MSTORE PUSH1 0x20 PUSH0 KECCAK256 SWAP1 JUMPDEST DUP2 SLOAD DUP2 MSTORE SWAP1 PUSH1 0x1 ADD SWAP1 PUSH1 0x20 ADD DUP1 DUP4 GT PUSH2 0x1F2 JUMPI DUP3 SWAP1 SUB PUSH1 0x1F AND DUP3 ADD SWAP2 JUMPDEST POP POP POP POP POP SWAP1 POP SWAP2 SWAP1 POP JUMP JUMPDEST PUSH0 PUSH1 0x40 MLOAD SWAP1 POP SWAP1 JUMP JUMPDEST PUSH0 DUP1 REVERT JUMPDEST PUSH0 DUP1 REVERT JUMPDEST PUSH0 DUP2 SWAP1 POP SWAP2 SWAP1 POP JUMP JUMPDEST PUSH2 0x23E DUP2 PUSH2 0x22C JUMP JUMPDEST DUP2 EQ PUSH2 0x248 JUMPI PUSH0 DUP1 REVERT JUMPDEST POP JUMP JUMPDEST PUSH0 DUP2 CALLDATALOAD SWAP1 POP PUSH2 0x259 DUP2 PUSH2 0x235 JUMP JUMPDEST SWAP3 SWAP2 POP POP JUMP JUMPDEST PUSH0 DUP1 REVERT JUMPDEST PUSH0 DUP1 REVERT JUMPDEST PUSH0 PUSH1 0x1F NOT PUSH1 0x1F DUP4 ADD AND SWAP1 POP SWAP2 SWAP1 POP JUMP JUMPDEST PUSH32 0x4E487B7100000000000000000000000000000000000000000000000000000000 PUSH0 MSTORE PUSH1 0x41 PUSH1 0x4 MSTORE PUSH1 0x24 PUSH0 REVERT JUMPDEST PUSH2 0x2AD DUP3 PUSH2 0x267 JUMP JUMPDEST DUP2 ADD DUP2 DUP2 LT PUSH8 0xFFFFFFFFFFFFFFFF DUP3 GT OR ISZERO PUSH2 0x2CC JUMPI PUSH2 0x2CB PUSH2 0x277 JUMP JUMPDEST JUMPDEST DUP1 PUSH1 0x40 MSTORE POP POP POP JUMP JUMPDEST PUSH0 PUSH2 0x2DE PUSH2 0x21B JUMP JUMPDEST SWAP1 POP PUSH2 0x2EA DUP3 DUP3 PUSH2 0x2A4 JUMP JUMPDEST SWAP2 SWAP1 POP JUMP JUMPDEST PUSH0 PUSH8 0xFFFFFFFFFFFFFFFF DUP3 GT ISZERO PUSH2 0x309 JUMPI PUSH2 0x308 PUSH2 0x277 JUMP JUMPDEST JUMPDEST PUSH2 0x312 DUP3 PUSH2 0x267 JUMP JUMPDEST SWAP1 POP PUSH1 0x20 DUP2 ADD SWAP1 POP SWAP2 SWAP1 POP JUMP JUMPDEST DUP3 DUP2 DUP4 CALLDATACOPY PUSH0 DUP4 DUP4 ADD MSTORE POP POP POP JUMP JUMPDEST PUSH0 PUSH2 0x33F PUSH2 0x33A DUP5 PUSH2 0x2EF JUMP JUMPDEST PUSH2 0x2D5 JUMP JUMPDEST SWAP1 POP DUP3 DUP2 MSTORE PUSH1 0x20 DUP2 ADD DUP5 DUP5 DUP5 ADD GT ISZERO PUSH2 0x35B JUMPI PUSH2 0x35A PUSH2 0x263 JUMP JUMPDEST JUMPDEST PUSH2 0x366 DUP5 DUP3 DUP6 PUSH2 0x31F JUMP JUMPDEST POP SWAP4 SWAP3 POP POP POP JUMP JUMPDEST PUSH0 DUP3 PUSH1 0x1F DUP4 ADD SLT PUSH2 0x382 JUMPI PUSH2 0x381 PUSH2 0x25F JUMP JUMPDEST JUMPDEST DUP2 CALLDATALOAD PUSH2 0x392 DUP5 DUP3 PUSH1 0x20 DUP7 ADD PUSH2 0x32D JUMP JUMPDEST SWAP2 POP POP SWAP3 SWAP2 POP POP JUMP JUMPDEST PUSH0 DUP1 PUSH1 0x40 DUP4 DUP6 SUB SLT ISZERO PUSH2 0x3B1 JUMPI PUSH2 0x3B0 PUSH2 0x224 JUMP JUMPDEST JUMPDEST PUSH0 PUSH2 0x3BE DUP6 DUP3 DUP7 ADD PUSH2 0x24B JUMP JUMPDEST SWAP3 POP POP PUSH1 0x20 DUP4 ADD CALLDATALOAD PUSH8 0xFFFFFFFFFFFFFFFF DUP2 GT ISZERO PUSH2 0x3DF JUMPI PUSH2 0x3DE PUSH2 0x228 JUMP JUMPDEST JUMPDEST PUSH2 0x3EB DUP6 DUP3 DUP7 ADD PUSH2 0x36E JUMP JUMPDEST SWAP2 POP POP SWAP3 POP SWAP3 SWAP1 POP JUMP JUMPDEST PUSH0 PUSH1 0x20 DUP3 DUP5 SUB SLT ISZERO PUSH2 0x40A JUMPI PUSH2 0x409 PUSH2 0x224 JUMP JUMPDEST JUMPDEST PUSH0 PUSH2 0x417 DUP5 DUP3 DUP6 ADD PUSH2 0x24B JUMP JUMPDEST SWAP2 POP POP SWAP3 SWAP2 POP POP JUMP JUMPDEST PUSH0 DUP2 MLOAD SWAP1 POP SWAP2 SWAP1 POP JUMP JUMPDEST PUSH0 DUP3 DUP3 MSTORE PUSH1 0x20 DUP3 ADD SWAP1 POP SWAP3 SWAP2 POP POP JUMP JUMPDEST DUP3 DUP2 DUP4 MCOPY PUSH0 DUP4 DUP4 ADD MSTORE POP POP POP JUMP JUMPDEST PUSH0 PUSH2 0x452 DUP3 PUSH2 0x420 JUMP JUMPDEST PUSH2 0x45C DUP2 DUP6 PUSH2 0x42A JUMP JUMPDEST SWAP4 POP PUSH2 0x46C DUP2 DUP6 PUSH1 0x20 DUP7 ADD PUSH2 0x43A JUMP JUMPDEST PUSH2 0x475 DUP2 PUSH2 0x267 JUMP JUMPDEST DUP5 ADD SWAP2 POP POP SWAP3 SWAP2 POP POP JUMP JUMPDEST PUSH0 PUSH1 0x20 DUP3 ADD SWAP1 POP DUP2 DUP2 SUB PUSH0 DUP4 ADD MSTORE PUSH2 0x498 DUP2 DUP5 PUSH2 0x448 JUMP JUMPDEST SWAP1 POP SWAP3 SWAP2 POP POP JUMP JUMPDEST PUSH32 0x4E487B7100000000000000000000000000000000000000000000000000000000 PUSH0 MSTORE PUSH1 0x22 PUSH1 0x4 MSTORE PUSH1 0x24 PUSH0 REVERT JUMPDEST PUSH0 PUSH1 0x2 DUP3 DIV SWAP1 POP PUSH1 0x1 DUP3 AND DUP1 PUSH2 0x4E4 JUMPI PUSH1 0x7F DUP3 AND SWAP2 POP JUMPDEST PUSH1 0x20 DUP3 LT DUP2 SUB PUSH2 0x4F7 JUMPI PUSH2 0x4F6 PUSH2 0x4A0 JUMP JUMPDEST JUMPDEST POP SWAP2 SWAP1 POP JUMP JUMPDEST PUSH0 DUP2 SWAP1 POP DUP2 PUSH0 MSTORE PUSH1 0x20 PUSH0 KECCAK256 SWAP1 POP SWAP2 SWAP1 POP JUMP JUMPDEST PUSH0 PUSH1 0x20 PUSH1 0x1F DUP4 ADD DIV SWAP1 POP SWAP2 SWAP1 POP JUMP JUMPDEST PUSH0 DUP3 DUP3 SHL SWAP1 POP SWAP3 SWAP2 POP POP JUMP JUMPDEST PUSH0 PUSH1 0x8 DUP4 MUL PUSH2 0x559 PUSH32 0xFFFFFFFFFFFFFFFFFFFFFFFFFFFFFFFFFFFFFFFFFFFFFFFFFFFFFFFFFFFFFFFF DUP3 PUSH2 0x51E JUMP JUMPDEST PUSH2 0x563 DUP7 DUP4 PUSH2 0x51E JUMP JUMPDEST SWAP6 POP DUP1 NOT DUP5 AND SWAP4 POP DUP1 DUP7 AND DUP5 OR SWAP3 POP POP POP SWAP4 SWAP3 POP POP POP JUMP JUMPDEST PUSH0 DUP2 SWAP1 POP SWAP2 SWAP1 POP JUMP JUMPDEST PUSH0 PUSH2 0x59E PUSH2 0x599 PUSH2 0x594 DUP5 PUSH2 0x22C JUMP JUMPDEST PUSH2 0x57B JUMP JUMPDEST PUSH2 0x22C JUMP JUMPDEST SWAP1 POP SWAP2 SWAP1 POP JUMP JUMPDEST PUSH0 DUP2 SWAP1 POP SWAP2 SWAP1 POP JUMP JUMPDEST PUSH2 0x5B7 DUP4 PUSH2 0x584 JUMP JUMPDEST PUSH2 0x5CB PUSH2 0x5C3 DUP3 PUSH2 0x5A5 JUMP JUMPDEST DUP5 DUP5 SLOAD PUSH2 0x52A JUMP JUMPDEST DUP3 SSTORE POP POP POP POP JUMP JUMPDEST PUSH0 SWAP1 JUMP JUMPDEST PUSH2 0x5DF PUSH2 0x5D3 JUMP JUMPDEST PUSH2 0x5EA DUP2 DUP5 DUP5 PUSH2 0x5AE JUMP JUMPDEST POP POP POP JUMP JUMPDEST JUMPDEST DUP2 DUP2 LT ISZERO PUSH2 0x60D JUMPI PUSH2 0x602 PUSH0 DUP3 PUSH2 0x5D7 JUMP JUMPDEST PUSH1 0x1 DUP2 ADD SWAP1 POP PUSH2 0x5F0 JUMP JUMPDEST POP POP JUMP JUMPDEST PUSH1 0x1F DUP3 GT ISZERO PUSH2 0x652 JUMPI PUSH2 0x623 DUP2 PUSH2 0x4FD JUMP JUMPDEST PUSH2 0x62C DUP5 PUSH2 0x50F JUMP JUMPDEST DUP2 ADD PUSH1 0x20 DUP6 LT ISZERO PUSH2 0x63B JUMPI DUP2 SWAP1 POP JUMPDEST PUSH2 0x64F PUSH2 0x647 DUP6 PUSH2 0x50F JUMP JUMPDEST DUP4 ADD DUP3 PUSH2 0x5EF JUMP JUMPDEST POP POP JUMPDEST POP POP POP JUMP JUMPDEST PUSH0 DUP3 DUP3 SHR SWAP1 POP SWAP3 SWAP2 POP POP JUMP JUMPDEST PUSH0 PUSH2 0x672 PUSH0 NOT DUP5 PUSH1 0x8 MUL PUSH2 0x657 JUMP JUMPDEST NOT DUP1 DUP4 AND SWAP2 POP POP SWAP3 SWAP2 POP POP JUMP JUMPDEST PUSH0 PUSH2 0x68A DUP4 DUP4 PUSH2 0x663 JUMP JUMPDEST SWAP2 POP DUP3 PUSH1 0x2 MUL DUP3 OR SWAP1 POP SWAP3 SWAP2 POP POP JUMP JUMPDEST PUSH2 0x6A3 DUP3 PUSH2 0x420 JUMP JUMPDEST PUSH8 0xFFFFFFFFFFFFFFFF DUP2 GT ISZERO PUSH2 0x6BC JUMPI PUSH2 0x6BB PUSH2 0x277 JUMP JUMPDEST JUMPDEST PUSH2 0x6C6 DUP3 SLOAD PUSH2 0x4CD JUMP JUMPDEST PUSH2 0x6D1 DUP3 DUP3 DUP6 PUSH2 0x611 JUMP JUMPDEST PUSH0 PUSH1 0x20 SWAP1 POP PUSH1 0x1F DUP4 GT PUSH1 0x1 DUP2 EQ PUSH2 0x702 JUMPI PUSH0 DUP5 ISZERO PUSH2 0x6F0 JUMPI DUP3 DUP8 ADD MLOAD SWAP1 POP JUMPDEST PUSH2 0x6FA DUP6 DUP3 PUSH2 0x67F JUMP JUMPDEST DUP7 SSTORE POP PUSH2 0x761 JUMP JUMPDEST PUSH1 0x1F NOT DUP5 AND PUSH2 0x710 DUP7 PUSH2 0x4FD JUMP JUMPDEST PUSH0 JUMPDEST DUP3 DUP2 LT ISZERO PUSH2 0x737 JUMPI DUP5 DUP10 ADD MLOAD DUP3 SSTORE PUSH1 0x1 DUP3 ADD SWAP2 POP PUSH1 0x20 DUP6 ADD SWAP5 POP PUSH1 0x20 DUP2 ADD SWAP1 POP PUSH2 0x712 JUMP JUMPDEST DUP7 DUP4 LT ISZERO PUSH2 0x754 JUMPI DUP5 DUP10 ADD MLOAD PUSH2 0x750 PUSH1 0x1F DUP10 AND DUP3 PUSH2 0x663 JUMP JUMPDEST DUP4 SSTORE POP JUMPDEST PUSH1 0x1 PUSH1 0x2 DUP9 MUL ADD DUP9 SSTORE POP POP POP JUMPDEST POP POP POP POP POP POP JUMP INVALID LOG2 PUSH5 0x6970667358 0x22 SLT KECCAK256 REVERT CALLVALUE PUSH7 0x36C3D2635703E1 SDIV 0xE1 0xCF CREATE2 SGT 0x4B 0x25 BLOCKHASH SWAP3 DUP6 INVALID 0xD6 0xDD 0x23 0xDA SGT PUSH30 0xE4D9E3F46564736F6C634300081A00330000000000000000000000000000 "
				},
				"gasEstimates": {
					"creation": {
						"codeDepositCost": "390200",
						"executionCost": "422",
						"totalCost": "390622"
					},
					"external": {
						"insertData(uint256,string)": "infinite",
						"returnData(uint256)": "infinite",
						"studentDetails(uint256)": "infinite"
					}
				},
				"methodIdentifiers": {
					"insertData(uint256,string)": "d5427123",
					"returnData(uint256)": "fddec16a",
					"studentDetails(uint256)": "d5fb052f"
				}
			},
			"storageLayout": {
				"storage": [
					{
						"astId": 154,
						"contract": "contracts/intermediate_1.sol:Mapping",
						"label": "studentDetails",
						"offset": 0,
						"slot": "0",
						"type": "t_mapping(t_uint256,t_string_storage)"
					}
				],
				"types": {
					"t_mapping(t_uint256,t_string_storage)": {
						"encoding": "mapping",
						"key": "t_uint256",
						"label": "mapping(uint256 => string)",
						"numberOfBytes": "32",
						"value": "t_string_storage"
					},
					"t_string_storage": {
						"encoding": "bytes",
						"label": "string",
						"numberOfBytes": "32"
					},
					"t_uint256": {
						"encoding": "inplace",
						"label": "uint256",
						"numberOfBytes": "32"
					}
				}
			},
			"userdoc": {
				"kind": "user",
				"methods": {},
				"version": 1
			}
		}
	}
}