{
	"contracts/intermediate_1.sol": {
		"NestedMapping": {
			"abi": [
				{
					"inputs": [
						{
							"internalType": "uint256",
							"name": "_row",
							"type": "uint256"
						},
						{
							"internalType": "uint256",
							"name": "_column",
							"type": "uint256"
						},
						{
							"internalType": "bool",
							"name": "_value",
							"type": "bool"
						}
					],
					"name": "insertData",
					"outputs": [],
					"stateMutability": "nonpayable",
					"type": "function"
				},
				{
					"inputs": [
						{
							"internalType": "uint256",
							"name": "_row",
							"type": "uint256"
						},
						{
							"internalType": "uint256",
							"name": "_column",
							"type": "uint256"
						}
					],
					"name": "returnData",
					"outputs": [
						{
							"internalType": "bool",
							"name": "",
							"type": "bool"
						}
					],
					"stateMutability": "view",
					"type": "function"
				},
				{
					"inputs": [
						{
							"internalType": "uint256",
							"name": "",
							"type": "uint256"
						},
						{
							"internalType": "uint256",
							"name": "",
							"type": "uint256"
						}
					],
					"name": "studentDetails",
					"outputs": [
						{
							"internalType": "bool",
							"name": "",
							"type": "bool"
						}
					],
					"stateMutability": "view",
					"type": "function"
				}
			],
			"devdoc": {
				"kind": "dev",
				"methods": {},
				"version": 1
			},
			"evm": {
				"assembly": "    /* \"contracts/intermediate_1.sol\":2164:2499  contract NestedMapping{... */\n  mstore(0x40, 0x80)\n  callvalue\n  dup1\n  iszero\n  tag_1\n  jumpi\n  0x00\n  dup1\n  revert\ntag_1:\n  pop\n  dataSize(sub_0)\n  dup1\n  dataOffset(sub_0)\n  0x00\n  codecopy\n  0x00\n  return\nstop\n\nsub_0: assembly {\n        /* \"contracts/intermediate_1.sol\":2164:2499  contract NestedMapping{... */\n      mstore(0x40, 0x80)\n      callvalue\n      dup1\n      iszero\n      tag_1\n      jumpi\n      0x00\n      dup1\n      revert\n    tag_1:\n      pop\n      jumpi(tag_2, lt(calldatasize, 0x04))\n      shr(0xe0, calldataload(0x00))\n      dup1\n      0x40225697\n      eq\n      tag_3\n      jumpi\n      dup1\n      0x5e0cfce0\n      eq\n      tag_4\n      jumpi\n      dup1\n      0x6fc9d688\n      eq\n      tag_5\n      jumpi\n    tag_2:\n      0x00\n      dup1\n      revert\n        /* \"contracts/intermediate_1.sol\":2192:2248  mapping(uint=>mapping(uint=>bool)) public studentDetails */\n    tag_3:\n      tag_6\n      0x04\n      dup1\n      calldatasize\n      sub\n      dup2\n      add\n      swap1\n      tag_7\n      swap2\n      swap1\n      tag_8\n      jump\t// in\n    tag_7:\n      tag_9\n      jump\t// in\n    tag_6:\n      mload(0x40)\n      tag_10\n      swap2\n      swap1\n      tag_11\n      jump\t// in\n    tag_10:\n      mload(0x40)\n      dup1\n      swap2\n      sub\n      swap1\n      return\n        /* \"contracts/intermediate_1.sol\":2375:2497  function returnData(uint _row,uint _column) public view returns(bool){... */\n    tag_4:\n      tag_12\n      0x04\n      dup1\n      calldatasize\n      sub\n      dup2\n      add\n      swap1\n      tag_13\n      swap2\n      swap1\n      tag_8\n      jump\t// in\n    tag_13:\n      tag_14\n      jump\t// in\n    tag_12:\n      mload(0x40)\n      tag_15\n      swap2\n      swap1\n      tag_11\n      jump\t// in\n    tag_15:\n      mload(0x40)\n      dup1\n      swap2\n      sub\n      swap1\n      return\n        /* \"contracts/intermediate_1.sol\":2254:2369  function insertData(uint _row,uint _column,bool _value)public {... */\n    tag_5:\n      tag_16\n      0x04\n      dup1\n      calldatasize\n      sub\n      dup2\n      add\n      swap1\n      tag_17\n      swap2\n      swap1\n      tag_18\n      jump\t// in\n    tag_17:\n      tag_19\n      jump\t// in\n    tag_16:\n      stop\n        /* \"contracts/intermediate_1.sol\":2192:2248  mapping(uint=>mapping(uint=>bool)) public studentDetails */\n    tag_9:\n      mstore(0x20, 0x00)\n      dup2\n      0x00\n      mstore\n      mstore(0x20, keccak256(0x00, 0x40))\n      dup1\n      0x00\n      mstore\n      keccak256(0x00, 0x40)\n      0x00\n      swap2\n      pop\n      swap2\n      pop\n      swap1\n      sload\n      swap1\n      0x0100\n      exp\n      swap1\n      div\n      0xff\n      and\n      dup2\n      jump\t// out\n        /* \"contracts/intermediate_1.sol\":2375:2497  function returnData(uint _row,uint _column) public view returns(bool){... */\n    tag_14:\n        /* \"contracts/intermediate_1.sol\":2439:2443  bool */\n      0x00\n        /* \"contracts/intermediate_1.sol\":2461:2475  studentDetails */\n      dup1\n        /* \"contracts/intermediate_1.sol\":2461:2481  studentDetails[_row] */\n      0x00\n        /* \"contracts/intermediate_1.sol\":2476:2480  _row */\n      dup5\n        /* \"contracts/intermediate_1.sol\":2461:2481  studentDetails[_row] */\n      dup2\n      mstore\n      0x20\n      add\n      swap1\n      dup2\n      mstore\n      0x20\n      add\n      0x00\n      keccak256\n        /* \"contracts/intermediate_1.sol\":2461:2490  studentDetails[_row][_column] */\n      0x00\n        /* \"contracts/intermediate_1.sol\":2482:2489  _column */\n      dup4\n        /* \"contracts/intermediate_1.sol\":2461:2490  studentDetails[_row][_column] */\n      dup2\n      mstore\n      0x20\n      add\n      swap1\n      dup2\n      mstore\n      0x20\n      add\n      0x00\n      keccak256\n      0x00\n      swap1\n      sload\n      swap1\n      0x0100\n      exp\n      swap1\n      div\n      0xff\n      and\n        /* \"contracts/intermediate_1.sol\":2454:2490  return studentDetails[_row][_column] */\n      swap1\n      pop\n        /* \"contracts/intermediate_1.sol\":2375:2497  function returnData(uint _row,uint _column) public view returns(bool){... */\n      swap3\n      swap2\n      pop\n      pop\n      jump\t// out\n        /* \"contracts/intermediate_1.sol\":2254:2369  function insertData(uint _row,uint _column,bool _value)public {... */\n    tag_19:\n        /* \"contracts/intermediate_1.sol\":2356:2362  _value */\n      dup1\n        /* \"contracts/intermediate_1.sol\":2326:2340  studentDetails */\n      0x00\n        /* \"contracts/intermediate_1.sol\":2326:2346  studentDetails[_row] */\n      dup1\n        /* \"contracts/intermediate_1.sol\":2341:2345  _row */\n      dup6\n        /* \"contracts/intermediate_1.sol\":2326:2346  studentDetails[_row] */\n      dup2\n      mstore\n      0x20\n      add\n      swap1\n      dup2\n      mstore\n      0x20\n      add\n      0x00\n      keccak256\n        /* \"contracts/intermediate_1.sol\":2326:2355  studentDetails[_row][_column] */\n      0x00\n        /* \"contracts/intermediate_1.sol\":2347:2354  _column */\n      dup5\n        /* \"contracts/intermediate_1.sol\":2326:2355  studentDetails[_row][_column] */\n      dup2\n      mstore\n      0x20\n      add\n      swap1\n      dup2\n      mstore\n      0x20\n      add\n      0x00\n      keccak256\n      0x00\n        /* \"contracts/intermediate_1.sol\":2326:2362  studentDetails[_row][_column]=_value */\n      0x0100\n      exp\n      dup2\n      sload\n      dup2\n      0xff\n      mul\n      not\n      and\n      swap1\n      dup4\n      iszero\n      iszero\n      mul\n      or\n      swap1\n      sstore\n      pop\n        /* \"contracts/intermediate_1.sol\":2254:2369  function insertData(uint _row,uint _column,bool _value)public {... */\n      pop\n      pop\n      pop\n      jump\t// out\n        /* \"#utility.yul\":88:205   */\n    tag_23:\n        /* \"#utility.yul\":197:198   */\n      0x00\n        /* \"#utility.yul\":194:195   */\n      dup1\n        /* \"#utility.yul\":187:199   */\n      revert\n        /* \"#utility.yul\":334:411   */\n    tag_25:\n        /* \"#utility.yul\":371:378   */\n      0x00\n        /* \"#utility.yul\":400:405   */\n      dup2\n        /* \"#utility.yul\":389:405   */\n      swap1\n      pop\n        /* \"#utility.yul\":334:411   */\n      swap2\n      swap1\n      pop\n      jump\t// out\n        /* \"#utility.yul\":417:539   */\n    tag_26:\n        /* \"#utility.yul\":490:514   */\n      tag_38\n        /* \"#utility.yul\":508:513   */\n      dup2\n        /* \"#utility.yul\":490:514   */\n      tag_25\n      jump\t// in\n    tag_38:\n        /* \"#utility.yul\":483:488   */\n      dup2\n        /* \"#utility.yul\":480:515   */\n      eq\n        /* \"#utility.yul\":470:533   */\n      tag_39\n      jumpi\n        /* \"#utility.yul\":529:530   */\n      0x00\n        /* \"#utility.yul\":526:527   */\n      dup1\n        /* \"#utility.yul\":519:531   */\n      revert\n        /* \"#utility.yul\":470:533   */\n    tag_39:\n        /* \"#utility.yul\":417:539   */\n      pop\n      jump\t// out\n        /* \"#utility.yul\":545:684   */\n    tag_27:\n        /* \"#utility.yul\":591:596   */\n      0x00\n        /* \"#utility.yul\":629:635   */\n      dup2\n        /* \"#utility.yul\":616:636   */\n      calldataload\n        /* \"#utility.yul\":607:636   */\n      swap1\n      pop\n        /* \"#utility.yul\":645:678   */\n      tag_41\n        /* \"#utility.yul\":672:677   */\n      dup2\n        /* \"#utility.yul\":645:678   */\n      tag_26\n      jump\t// in\n    tag_41:\n        /* \"#utility.yul\":545:684   */\n      swap3\n      swap2\n      pop\n      pop\n      jump\t// out\n        /* \"#utility.yul\":690:1164   */\n    tag_8:\n        /* \"#utility.yul\":758:764   */\n      0x00\n        /* \"#utility.yul\":766:772   */\n      dup1\n        /* \"#utility.yul\":815:817   */\n      0x40\n        /* \"#utility.yul\":803:812   */\n      dup4\n        /* \"#utility.yul\":794:801   */\n      dup6\n        /* \"#utility.yul\":790:813   */\n      sub\n        /* \"#utility.yul\":786:818   */\n      slt\n        /* \"#utility.yul\":783:902   */\n      iszero\n      tag_43\n      jumpi\n        /* \"#utility.yul\":821:900   */\n      tag_44\n      tag_23\n      jump\t// in\n    tag_44:\n        /* \"#utility.yul\":783:902   */\n    tag_43:\n        /* \"#utility.yul\":941:942   */\n      0x00\n        /* \"#utility.yul\":966:1019   */\n      tag_45\n        /* \"#utility.yul\":1011:1018   */\n      dup6\n        /* \"#utility.yul\":1002:1008   */\n      dup3\n        /* \"#utility.yul\":991:1000   */\n      dup7\n        /* \"#utility.yul\":987:1009   */\n      add\n        /* \"#utility.yul\":966:1019   */\n      tag_27\n      jump\t// in\n    tag_45:\n        /* \"#utility.yul\":956:1019   */\n      swap3\n      pop\n        /* \"#utility.yul\":912:1029   */\n      pop\n        /* \"#utility.yul\":1068:1070   */\n      0x20\n        /* \"#utility.yul\":1094:1147   */\n      tag_46\n        /* \"#utility.yul\":1139:1146   */\n      dup6\n        /* \"#utility.yul\":1130:1136   */\n      dup3\n        /* \"#utility.yul\":1119:1128   */\n      dup7\n        /* \"#utility.yul\":1115:1137   */\n      add\n        /* \"#utility.yul\":1094:1147   */\n      tag_27\n      jump\t// in\n    tag_46:\n        /* \"#utility.yul\":1084:1147   */\n      swap2\n      pop\n        /* \"#utility.yul\":1039:1157   */\n      pop\n        /* \"#utility.yul\":690:1164   */\n      swap3\n      pop\n      swap3\n      swap1\n      pop\n      jump\t// out\n        /* \"#utility.yul\":1170:1260   */\n    tag_28:\n        /* \"#utility.yul\":1204:1211   */\n      0x00\n        /* \"#utility.yul\":1247:1252   */\n      dup2\n        /* \"#utility.yul\":1240:1253   */\n      iszero\n        /* \"#utility.yul\":1233:1254   */\n      iszero\n        /* \"#utility.yul\":1222:1254   */\n      swap1\n      pop\n        /* \"#utility.yul\":1170:1260   */\n      swap2\n      swap1\n      pop\n      jump\t// out\n        /* \"#utility.yul\":1266:1375   */\n    tag_29:\n        /* \"#utility.yul\":1347:1368   */\n      tag_49\n        /* \"#utility.yul\":1362:1367   */\n      dup2\n        /* \"#utility.yul\":1347:1368   */\n      tag_28\n      jump\t// in\n    tag_49:\n        /* \"#utility.yul\":1342:1345   */\n      dup3\n        /* \"#utility.yul\":1335:1369   */\n      mstore\n        /* \"#utility.yul\":1266:1375   */\n      pop\n      pop\n      jump\t// out\n        /* \"#utility.yul\":1381:1591   */\n    tag_11:\n        /* \"#utility.yul\":1468:1472   */\n      0x00\n        /* \"#utility.yul\":1506:1508   */\n      0x20\n        /* \"#utility.yul\":1495:1504   */\n      dup3\n        /* \"#utility.yul\":1491:1509   */\n      add\n        /* \"#utility.yul\":1483:1509   */\n      swap1\n      pop\n        /* \"#utility.yul\":1519:1584   */\n      tag_51\n        /* \"#utility.yul\":1581:1582   */\n      0x00\n        /* \"#utility.yul\":1570:1579   */\n      dup4\n        /* \"#utility.yul\":1566:1583   */\n      add\n        /* \"#utility.yul\":1557:1563   */\n      dup5\n        /* \"#utility.yul\":1519:1584   */\n      tag_29\n      jump\t// in\n    tag_51:\n        /* \"#utility.yul\":1381:1591   */\n      swap3\n      swap2\n      pop\n      pop\n      jump\t// out\n        /* \"#utility.yul\":1597:1713   */\n    tag_30:\n        /* \"#utility.yul\":1667:1688   */\n      tag_53\n        /* \"#utility.yul\":1682:1687   */\n      dup2\n        /* \"#utility.yul\":1667:1688   */\n      tag_28\n      jump\t// in\n    tag_53:\n        /* \"#utility.yul\":1660:1665   */\n      dup2\n        /* \"#utility.yul\":1657:1689   */\n      eq\n        /* \"#utility.yul\":1647:1707   */\n      tag_54\n      jumpi\n        /* \"#utility.yul\":1703:1704   */\n      0x00\n        /* \"#utility.yul\":1700:1701   */\n      dup1\n        /* \"#utility.yul\":1693:1705   */\n      revert\n        /* \"#utility.yul\":1647:1707   */\n    tag_54:\n        /* \"#utility.yul\":1597:1713   */\n      pop\n      jump\t// out\n        /* \"#utility.yul\":1719:1852   */\n    tag_31:\n        /* \"#utility.yul\":1762:1767   */\n      0x00\n        /* \"#utility.yul\":1800:1806   */\n      dup2\n        /* \"#utility.yul\":1787:1807   */\n      calldataload\n        /* \"#utility.yul\":1778:1807   */\n      swap1\n      pop\n        /* \"#utility.yul\":1816:1846   */\n      tag_56\n        /* \"#utility.yul\":1840:1845   */\n      dup2\n        /* \"#utility.yul\":1816:1846   */\n      tag_30\n      jump\t// in\n    tag_56:\n        /* \"#utility.yul\":1719:1852   */\n      swap3\n      swap2\n      pop\n      pop\n      jump\t// out\n        /* \"#utility.yul\":1858:2471   */\n    tag_18:\n        /* \"#utility.yul\":1932:1938   */\n      0x00\n        /* \"#utility.yul\":1940:1946   */\n      dup1\n        /* \"#utility.yul\":1948:1954   */\n      0x00\n        /* \"#utility.yul\":1997:1999   */\n      0x60\n        /* \"#utility.yul\":1985:1994   */\n      dup5\n        /* \"#utility.yul\":1976:1983   */\n      dup7\n        /* \"#utility.yul\":1972:1995   */\n      sub\n        /* \"#utility.yul\":1968:2000   */\n      slt\n        /* \"#utility.yul\":1965:2084   */\n      iszero\n      tag_58\n      jumpi\n        /* \"#utility.yul\":2003:2082   */\n      tag_59\n      tag_23\n      jump\t// in\n    tag_59:\n        /* \"#utility.yul\":1965:2084   */\n    tag_58:\n        /* \"#utility.yul\":2123:2124   */\n      0x00\n        /* \"#utility.yul\":2148:2201   */\n      tag_60\n        /* \"#utility.yul\":2193:2200   */\n      dup7\n        /* \"#utility.yul\":2184:2190   */\n      dup3\n        /* \"#utility.yul\":2173:2182   */\n      dup8\n        /* \"#utility.yul\":2169:2191   */\n      add\n        /* \"#utility.yul\":2148:2201   */\n      tag_27\n      jump\t// in\n    tag_60:\n        /* \"#utility.yul\":2138:2201   */\n      swap4\n      pop\n        /* \"#utility.yul\":2094:2211   */\n      pop\n        /* \"#utility.yul\":2250:2252   */\n      0x20\n        /* \"#utility.yul\":2276:2329   */\n      tag_61\n        /* \"#utility.yul\":2321:2328   */\n      dup7\n        /* \"#utility.yul\":2312:2318   */\n      dup3\n        /* \"#utility.yul\":2301:2310   */\n      dup8\n        /* \"#utility.yul\":2297:2319   */\n      add\n        /* \"#utility.yul\":2276:2329   */\n      tag_27\n      jump\t// in\n    tag_61:\n        /* \"#utility.yul\":2266:2329   */\n      swap3\n      pop\n        /* \"#utility.yul\":2221:2339   */\n      pop\n        /* \"#utility.yul\":2378:2380   */\n      0x40\n        /* \"#utility.yul\":2404:2454   */\n      tag_62\n        /* \"#utility.yul\":2446:2453   */\n      dup7\n        /* \"#utility.yul\":2437:2443   */\n      dup3\n        /* \"#utility.yul\":2426:2435   */\n      dup8\n        /* \"#utility.yul\":2422:2444   */\n      add\n        /* \"#utility.yul\":2404:2454   */\n      tag_31\n      jump\t// in\n    tag_62:\n        /* \"#utility.yul\":2394:2454   */\n      swap2\n      pop\n        /* \"#utility.yul\":2349:2464   */\n      pop\n        /* \"#utility.yul\":1858:2471   */\n      swap3\n      pop\n      swap3\n      pop\n      swap3\n      jump\t// out\n\n    auxdata: 0xa26469706673582212200b73514ea5faee716d99c94e7e2b3490c398e7ddd9f969f2b9442c0888b3bdcd64736f6c634300081a0033\n}\n",
				"bytecode": {
					"linkReferences": {},
					"object": "6080604052348015600e575f80fd5b506102b08061001c5f395ff3fe608060405234801561000f575f80fd5b506004361061003f575f3560e01c806340225697146100435780635e0cfce0146100735780636fc9d688146100a3575b5f80fd5b61005d6004803603810190610058919061018f565b6100bf565b60405161006a91906101e7565b60405180910390f35b61008d6004803603810190610088919061018f565b6100e8565b60405161009a91906101e7565b60405180910390f35b6100bd60048036038101906100b8919061022a565b61011d565b005b5f602052815f5260405f20602052805f5260405f205f915091509054906101000a900460ff1681565b5f805f8481526020019081526020015f205f8381526020019081526020015f205f9054906101000a900460ff16905092915050565b805f808581526020019081526020015f205f8481526020019081526020015f205f6101000a81548160ff021916908315150217905550505050565b5f80fd5b5f819050919050565b61016e8161015c565b8114610178575f80fd5b50565b5f8135905061018981610165565b92915050565b5f80604083850312156101a5576101a4610158565b5b5f6101b28582860161017b565b92505060206101c38582860161017b565b9150509250929050565b5f8115159050919050565b6101e1816101cd565b82525050565b5f6020820190506101fa5f8301846101d8565b92915050565b610209816101cd565b8114610213575f80fd5b50565b5f8135905061022481610200565b92915050565b5f805f6060848603121561024157610240610158565b5b5f61024e8682870161017b565b935050602061025f8682870161017b565b925050604061027086828701610216565b915050925092509256fea26469706673582212200b73514ea5faee716d99c94e7e2b3490c398e7ddd9f969f2b9442c0888b3bdcd64736f6c634300081a0033",
					"opcodes": "PUSH1 0x80 PUSH1 0x40 MSTORE CALLVALUE DUP1 ISZERO PUSH1 0xE JUMPI PUSH0 DUP1 REVERT JUMPDEST POP PUSH2 0x2B0 DUP1 PUSH2 0x1C PUSH0 CODECOPY PUSH0 RETURN INVALID PUSH1 0x80 PUSH1 0x40 MSTORE CALLVALUE DUP1 ISZERO PUSH2 0xF JUMPI PUSH0 DUP1 REVERT JUMPDEST POP PUSH1 0x4 CALLDATASIZE LT PUSH2 0x3F JUMPI PUSH0 CALLDATALOAD PUSH1 0xE0 SHR DUP1 PUSH4 0x40225697 EQ PUSH2 0x43 JUMPI DUP1 PUSH4 0x5E0CFCE0 EQ PUSH2 0x73 JUMPI DUP1 PUSH4 0x6FC9D688 EQ PUSH2 0xA3 JUMPI JUMPDEST PUSH0 DUP1 REVERT JUMPDEST PUSH2 0x5D PUSH1 0x4 DUP1 CALLDATASIZE SUB DUP2 ADD SWAP1 PUSH2 0x58 SWAP2 SWAP1 PUSH2 0x18F JUMP JUMPDEST PUSH2 0xBF JUMP JUMPDEST PUSH1 0x40 MLOAD PUSH2 0x6A SWAP2 SWAP1 PUSH2 0x1E7 JUMP JUMPDEST PUSH1 0x40 MLOAD DUP1 SWAP2 SUB SWAP1 RETURN JUMPDEST PUSH2 0x8D PUSH1 0x4 DUP1 CALLDATASIZE SUB DUP2 ADD SWAP1 PUSH2 0x88 SWAP2 SWAP1 PUSH2 0x18F JUMP JUMPDEST PUSH2 0xE8 JUMP JUMPDEST PUSH1 0x40 MLOAD PUSH2 0x9A SWAP2 SWAP1 PUSH2 0x1E7 JUMP JUMPDEST PUSH1 0x40 MLOAD DUP1 SWAP2 SUB SWAP1 RETURN JUMPDEST PUSH2 0xBD PUSH1 0x4 DUP1 CALLDATASIZE SUB DUP2 ADD SWAP1 PUSH2 0xB8 SWAP2 SWAP1 PUSH2 0x22A JUMP JUMPDEST PUSH2 0x11D JUMP JUMPDEST STOP JUMPDEST PUSH0 PUSH1 0x20 MSTORE DUP2 PUSH0 MSTORE PUSH1 0x40 PUSH0 KECCAK256 PUSH1 0x20 MSTORE DUP1 PUSH0 MSTORE PUSH1 0x40 PUSH0 KECCAK256 PUSH0 SWAP2 POP SWAP2 POP SWAP1 SLOAD SWAP1 PUSH2 0x100 EXP SWAP1 DIV PUSH1 0xFF AND DUP2 JUMP JUMPDEST PUSH0 DUP1 PUSH0 DUP5 DUP2 MSTORE PUSH1 0x20 ADD SWAP1 DUP2 MSTORE PUSH1 0x20 ADD PUSH0 KECCAK256 PUSH0 DUP4 DUP2 MSTORE PUSH1 0x20 ADD SWAP1 DUP2 MSTORE PUSH1 0x20 ADD PUSH0 KECCAK256 PUSH0 SWAP1 SLOAD SWAP1 PUSH2 0x100 EXP SWAP1 DIV PUSH1 0xFF AND SWAP1 POP SWAP3 SWAP2 POP POP JUMP JUMPDEST DUP1 PUSH0 DUP1 DUP6 DUP2 MSTORE PUSH1 0x20 ADD SWAP1 DUP2 MSTORE PUSH1 0x20 ADD PUSH0 KECCAK256 PUSH0 DUP5 DUP2 MSTORE PUSH1 0x20 ADD SWAP1 DUP2 MSTORE PUSH1 0x20 ADD PUSH0 KECCAK256 PUSH0 PUSH2 0x100 EXP DUP2 SLOAD DUP2 PUSH1 0xFF MUL NOT AND SWAP1 DUP4 ISZERO ISZERO MUL OR SWAP1 SSTORE POP POP POP POP JUMP JUMPDEST PUSH0 DUP1 REVERT JUMPDEST PUSH0 DUP2 SWAP1 POP SWAP2 SWAP1 POP JUMP JUMPDEST PUSH2 0x16E DUP2 PUSH2 0x15C JUMP JUMPDEST DUP2 EQ PUSH2 0x178 JUMPI PUSH0 DUP1 REVERT JUMPDEST POP JUMP JUMPDEST PUSH0 DUP2 CALLDATALOAD SWAP1 POP PUSH2 0x189 DUP2 PUSH2 0x165 JUMP JUMPDEST SWAP3 SWAP2 POP POP JUMP JUMPDEST PUSH0 DUP1 PUSH1 0x40 DUP4 DUP6 SUB SLT ISZERO PUSH2 0x1A5 JUMPI PUSH2 0x1A4 PUSH2 0x158 JUMP JUMPDEST JUMPDEST PUSH0 PUSH2 0x1B2 DUP6 DUP3 DUP7 ADD PUSH2 0x17B JUMP JUMPDEST SWAP3 POP POP PUSH1 0x20 PUSH2 0x1C3 DUP6 DUP3 DUP7 ADD PUSH2 0x17B JUMP JUMPDEST SWAP2 POP POP SWAP3 POP SWAP3 SWAP1 POP JUMP JUMPDEST PUSH0 DUP2 ISZERO ISZERO SWAP1 POP SWAP2 SWAP1 POP JUMP JUMPDEST PUSH2 0x1E1 DUP2 PUSH2 0x1CD JUMP JUMPDEST DUP3 MSTORE POP POP JUMP JUMPDEST PUSH0 PUSH1 0x20 DUP3 ADD SWAP1 POP PUSH2 0x1FA PUSH0 DUP4 ADD DUP5 PUSH2 0x1D8 JUMP JUMPDEST SWAP3 SWAP2 POP POP JUMP JUMPDEST PUSH2 0x209 DUP2 PUSH2 0x1CD JUMP JUMPDEST DUP2 EQ PUSH2 0x213 JUMPI PUSH0 DUP1 REVERT JUMPDEST POP JUMP JUMPDEST PUSH0 DUP2 CALLDATALOAD SWAP1 POP PUSH2 0x224 DUP2 PUSH2 0x200 JUMP JUMPDEST SWAP3 SWAP2 POP POP JUMP JUMPDEST PUSH0 DUP1 PUSH0 PUSH1 0x60 DUP5 DUP7 SUB SLT ISZERO PUSH2 0x241 JUMPI PUSH2 0x240 PUSH2 0x158 JUMP JUMPDEST JUMPDEST PUSH0 PUSH2 0x24E DUP7 DUP3 DUP8 ADD PUSH2 0x17B JUMP JUMPDEST SWAP4 POP POP PUSH1 0x20 PUSH2 0x25F DUP7 DUP3 DUP8 ADD PUSH2 0x17B JUMP JUMPDEST SWAP3 POP POP PUSH1 0x40 PUSH2 0x270 DUP7 DUP3 DUP8 ADD PUSH2 0x216 JUMP JUMPDEST SWAP2 POP POP SWAP3 POP SWAP3 POP SWAP3 JUMP INVALID LOG2 PUSH5 0x6970667358 0x22 SLT KECCAK256 SIGNEXTEND PUSH20 0x514EA5FAEE716D99C94E7E2B3490C398E7DDD9F9 PUSH10 0xF2B9442C0888B3BDCD64 PUSH20 0x6F6C634300081A00330000000000000000000000 "
				},
				"gasEstimates": {
					"creation": {
						"codeDepositCost": "137600",
						"executionCost": "181",
						"totalCost": "137781"
					},
					"external": {
						"insertData(uint256,uint256,bool)": "infinite",
						"returnData(uint256,uint256)": "infinite",
						"studentDetails(uint256,uint256)": "infinite"
					}
				},
				"methodIdentifiers": {
					"insertData(uint256,uint256,bool)": "6fc9d688",
					"returnData(uint256,uint256)": "5e0cfce0",
					"studentDetails(uint256,uint256)": "40225697"
				}
			},
			"storageLayout": {
				"storage": [
					{
						"astId": 187,
						"contract": "contracts/intermediate_1.sol:NestedMapping",
						"label": "studentDetails",
						"offset": 0,
						"slot": "0",
						"type": "t_mapping(t_uint256,t_mapping(t_uint256,t_bool))"
					}
				],
				"types": {
					"t_bool": {
						"encoding": "inplace",
						"label": "bool",
						"numberOfBytes": "1"
					},
					"t_mapping(t_uint256,t_bool)": {
						"encoding": "mapping",
						"key": "t_uint256",
						"label": "mapping(uint256 => bool)",
						"numberOfBytes": "32",
						"value": "t_bool"
					},
					"t_mapping(t_uint256,t_mapping(t_uint256,t_bool))": {
						"encoding": "mapping",
						"key": "t_uint256",
						"label": "mapping(uint256 => mapping(uint256 => bool))",
						"numberOfBytes": "32",
						"value": "t_mapping(t_uint256,t_bool)"
					},
					"t_uint256": {
						"encoding": "inplace",
						"label": "uint256",
						"numberOfBytes": "32"
					}
				}
			},
			"userdoc": {
				"kind": "user",
				"methods": {},
				"version": 1
			}
		}
	}
}